{"contracts/IntentProcessor.sol":{"IntentProcessor":{"abi":[{"inputs":[{"internalType":"address","name":"_pathOptimizer","type":"address"}],"stateMutability":"nonpayable","type":"constructor"},{"anonymous":false,"inputs":[{"indexed":true,"internalType":"bytes32","name":"intentId","type":"bytes32"},{"indexed":false,"internalType":"uint16","name":"destChain","type":"uint16"},{"indexed":false,"internalType":"address","name":"recipient","type":"address"},{"indexed":false,"internalType":"uint256","name":"amount","type":"uint256"}],"name":"BridgeInitiated","type":"event"},{"anonymous":false,"inputs":[{"indexed":false,"internalType":"string","name":"message","type":"string"}],"name":"Debug","type":"event"},{"anonymous":false,"inputs":[{"indexed":true,"internalType":"bytes32","name":"intentId","type":"bytes32"},{"indexed":true,"internalType":"address","name":"fromToken","type":"address"},{"indexed":true,"internalType":"address","name":"toToken","type":"address"},{"indexed":false,"internalType":"uint256","name":"amount","type":"uint256"},{"indexed":false,"internalType":"uint16","name":"destChain","type":"uint16"},{"indexed":false,"internalType":"uint256","name":"timestamp","type":"uint256"}],"name":"IntentCreated","type":"event"},{"anonymous":false,"inputs":[{"indexed":true,"internalType":"bytes32","name":"intentId","type":"bytes32"},{"indexed":false,"internalType":"bool","name":"success","type":"bool"},{"indexed":false,"internalType":"uint256","name":"gasUsed","type":"uint256"},{"indexed":false,"internalType":"uint256","name":"timestamp","type":"uint256"}],"name":"IntentExecuted","type":"event"},{"anonymous":false,"inputs":[{"indexed":true,"internalType":"bytes32","name":"intentId","type":"bytes32"},{"indexed":true,"internalType":"address","name":"user","type":"address"},{"indexed":false,"internalType":"uint256","name":"amount","type":"uint256"},{"indexed":false,"internalType":"bool","name":"success","type":"bool"}],"name":"IntentProcessed","type":"event"},{"anonymous":false,"inputs":[{"indexed":true,"internalType":"bytes32","name":"intentId","type":"bytes32"},{"indexed":false,"internalType":"string","name":"suggestion","type":"string"},{"indexed":false,"internalType":"uint256","name":"potentialSavings","type":"uint256"}],"name":"OptimizationSuggestion","type":"event"},{"anonymous":false,"inputs":[{"indexed":true,"internalType":"address","name":"previousOwner","type":"address"},{"indexed":true,"internalType":"address","name":"newOwner","type":"address"}],"name":"OwnershipTransferred","type":"event"},{"anonymous":false,"inputs":[{"indexed":false,"internalType":"address","name":"account","type":"address"}],"name":"Paused","type":"event"},{"anonymous":false,"inputs":[{"indexed":true,"internalType":"bytes32","name":"intentId","type":"bytes32"},{"indexed":false,"internalType":"address","name":"fromToken","type":"address"},{"indexed":false,"internalType":"address","name":"toToken","type":"address"},{"indexed":false,"internalType":"uint256","name":"amountIn","type":"uint256"},{"indexed":false,"internalType":"uint256","name":"amountOut","type":"uint256"}],"name":"SwapCompleted","type":"event"},{"anonymous":false,"inputs":[{"indexed":false,"internalType":"address","name":"account","type":"address"}],"name":"Unpaused","type":"event"},{"inputs":[],"name":"PYUSD","outputs":[{"internalType":"address","name":"","type":"address"}],"stateMutability":"view","type":"function"},{"inputs":[{"internalType":"bytes32","name":"","type":"bytes32"}],"name":"crossChainAmounts","outputs":[{"internalType":"uint256","name":"","type":"uint256"}],"stateMutability":"view","type":"function"},{"inputs":[],"name":"curvePool","outputs":[{"internalType":"address","name":"","type":"address"}],"stateMutability":"view","type":"function"},{"inputs":[{"internalType":"address","name":"token","type":"address"}],"name":"emergencyWithdraw","outputs":[],"stateMutability":"nonpayable","type":"function"},{"inputs":[],"name":"hopBridge","outputs":[{"internalType":"address","name":"","type":"address"}],"stateMutability":"view","type":"function"},{"inputs":[{"internalType":"bytes32","name":"","type":"bytes32"}],"name":"intentStatus","outputs":[{"internalType":"enum IntentProcessor.IntentStatus","name":"","type":"uint8"}],"stateMutability":"view","type":"function"},{"inputs":[],"name":"layerZeroEndpoint","outputs":[{"internalType":"address","name":"","type":"address"}],"stateMutability":"view","type":"function"},{"inputs":[{"internalType":"uint16","name":"_srcChainId","type":"uint16"},{"internalType":"bytes","name":"_srcAddress","type":"bytes"},{"internalType":"uint64","name":"_nonce","type":"uint64"},{"internalType":"bytes","name":"_payload","type":"bytes"}],"name":"lzReceive","outputs":[],"stateMutability":"nonpayable","type":"function"},{"inputs":[],"name":"owner","outputs":[{"internalType":"address","name":"","type":"address"}],"stateMutability":"view","type":"function"},{"inputs":[],"name":"pathOptimizer","outputs":[{"internalType":"contract PathOptimizer","name":"","type":"address"}],"stateMutability":"view","type":"function"},{"inputs":[],"name":"pause","outputs":[],"stateMutability":"nonpayable","type":"function"},{"inputs":[],"name":"paused","outputs":[{"internalType":"bool","name":"","type":"bool"}],"stateMutability":"view","type":"function"},{"inputs":[{"internalType":"bytes32","name":"","type":"bytes32"}],"name":"pendingCrossChainTx","outputs":[{"internalType":"bool","name":"","type":"bool"}],"stateMutability":"view","type":"function"},{"inputs":[{"internalType":"address","name":"","type":"address"}],"name":"poolIds","outputs":[{"internalType":"uint256","name":"","type":"uint256"}],"stateMutability":"view","type":"function"},{"inputs":[{"internalType":"bytes32","name":"intentId","type":"bytes32"},{"internalType":"address","name":"fromToken","type":"address"},{"internalType":"address","name":"toToken","type":"address"},{"internalType":"uint256","name":"amount","type":"uint256"},{"internalType":"uint16","name":"destChain","type":"uint16"}],"name":"processIntent","outputs":[],"stateMutability":"payable","type":"function"},{"inputs":[{"internalType":"bytes32","name":"","type":"bytes32"}],"name":"processedIntents","outputs":[{"internalType":"bool","name":"","type":"bool"}],"stateMutability":"view","type":"function"},{"inputs":[],"name":"renounceOwnership","outputs":[],"stateMutability":"nonpayable","type":"function"},{"inputs":[{"internalType":"address","name":"token","type":"address"},{"internalType":"uint256","name":"poolId","type":"uint256"}],"name":"setPoolId","outputs":[],"stateMutability":"nonpayable","type":"function"},{"inputs":[{"internalType":"address","name":"_uniswap","type":"address"},{"internalType":"address","name":"_curve","type":"address"},{"internalType":"address","name":"_stargate","type":"address"},{"internalType":"address","name":"_hop","type":"address"},{"internalType":"address","name":"_layerZero","type":"address"}],"name":"setProtocolAddresses","outputs":[],"stateMutability":"nonpayable","type":"function"},{"inputs":[{"internalType":"uint16","name":"chainId","type":"uint16"},{"internalType":"bool","name":"supported","type":"bool"}],"name":"setSupportedChain","outputs":[],"stateMutability":"nonpayable","type":"function"},{"inputs":[{"internalType":"address","name":"dex","type":"address"},{"internalType":"bool","name":"supported","type":"bool"}],"name":"setSupportedDEX","outputs":[],"stateMutability":"nonpayable","type":"function"},{"inputs":[{"internalType":"address","name":"token","type":"address"},{"internalType":"int128","name":"index","type":"int128"}],"name":"setTokenIndex","outputs":[],"stateMutability":"nonpayable","type":"function"},{"inputs":[],"name":"stargateRouter","outputs":[{"internalType":"address","name":"","type":"address"}],"stateMutability":"view","type":"function"},{"inputs":[{"internalType":"uint16","name":"","type":"uint16"}],"name":"supportedChains","outputs":[{"internalType":"bool","name":"","type":"bool"}],"stateMutability":"view","type":"function"},{"inputs":[{"internalType":"address","name":"","type":"address"}],"name":"supportedDEXs","outputs":[{"internalType":"bool","name":"","type":"bool"}],"stateMutability":"view","type":"function"},{"inputs":[{"internalType":"address","name":"","type":"address"}],"name":"tokenIndices","outputs":[{"internalType":"int128","name":"","type":"int128"}],"stateMutability":"view","type":"function"},{"inputs":[{"internalType":"address","name":"newOwner","type":"address"}],"name":"transferOwnership","outputs":[],"stateMutability":"nonpayable","type":"function"},{"inputs":[],"name":"uniswapRouter","outputs":[{"internalType":"address","name":"","type":"address"}],"stateMutability":"view","type":"function"},{"inputs":[],"name":"unpause","outputs":[],"stateMutability":"nonpayable","type":"function"},{"stateMutability":"payable","type":"receive"}],"evm":{"bytecode":{"linkReferences":{},"object":"6080346200009f57601f62002d0238819003918201601f19168301916001600160401b03831184841017620000a4578084926020946040528339810103126200009f57516001600160a01b038116908190036200009f57600160005560ff19600154166001556200007033620000ba565b6200007b33620000ba565b600780546001600160a01b031916919091179055604051612beb9081620001178239f35b600080fd5b634e487b7160e01b600052604160045260246000fd5b60018054610100600160a81b03198116600884811b610100600160a81b0316919091179092556001600160a01b0392831692911c167f8be0079c531659141344cd1fd0a4f28419497f9722a3daafe3b4186f6b6457e0600080a356fe6080604052600436101561001b575b361561001957600080fd5b005b6000803560e01c80621d35671461199857806307968db11461196f57806307d7ecb6146118cd57806310d5878314611895578063218751b21461186c57806336874d1a14610887578063396960811461085d5780633f4ba83a146107c85780635c6741c01461077b5780635c975abb146107585780636ff1c9bc14610650578063715018a6146105ee578063735de9f7146105c55780637e8e1b84146105895780638456cb591461052f5780638d128abd146105065780638da5cb5b146104d95780639e19789d146104aa578063a9e56f3c14610481578063bf2b3ee614610442578063c2c8a00814610413578063d4175be2146103da578063db4d558a14610376578063deac3a981461034d578063e7cfe70c146102fb578063f2fde38b14610225578063f5489918146101e7578063f7e77b3a146101b85763fc1b776914610165575061000e565b346101b55760403660031901126101b5576101b2610181611b49565b61ffff61018c611c99565b91610195611ca8565b168352600a602052604083209060ff801983541691151516179055565b80f35b80fd5b50346101b55760203660031901126101b55760ff60406020926004358152600c84522054166040519015158152f35b50346101b55760403660031901126101b557610201611c57565b610209611ca8565b6001600160a01b03168152600e60205260408120602435905580f35b50346101b55760203660031901126101b55761023f611c57565b610247611ca8565b6001600160a01b038181169182156102a75760018054610100600160a81b03198116600893841b610100600160a81b031617909155901c167f8be0079c531659141344cd1fd0a4f28419497f9722a3daafe3b4186f6b6457e0600080a380f35b60405162461bcd60e51b815260206004820152602660248201527f4f776e61626c653a206e6577206f776e657220697320746865207a65726f206160448201526564647265737360d01b6064820152608490fd5b50346101b55760403660031901126101b5576101b2610318611c57565b610320611c99565b90610329611ca8565b60018060a01b03168352600b602052604083209060ff801983541691151516179055565b50346101b557806003193601126101b5576005546040516001600160a01b039091168152602090f35b50346101b55760403660031901126101b557610390611c57565b6024359081600f0b82036103d6576103a6611ca8565b60018060a01b03168252600f60205260408220906001600160801b0319825416906001600160801b031617905580f35b8280fd5b50346101b55760203660031901126101b5576020906040906001600160a01b03610402611c57565b168152600e83522054604051908152f35b50346101b55760203660031901126101b55760ff60406020926004358152600884522054166040519015158152f35b50346101b55760203660031901126101b55760209060ff906040906001600160a01b0361046d611c57565b168152600b84522054166040519015158152f35b50346101b557806003193601126101b5576004546040516001600160a01b039091168152602090f35b50346101b557806003193601126101b557602060405173610178da211fef7d417bc0e6fed39f05609ad7888152f35b50346101b557806003193601126101b55760015460405160089190911c6001600160a01b03168152602090f35b50346101b557806003193601126101b5576007546040516001600160a01b039091168152602090f35b50346101b557806003193601126101b557610548611ca8565b610550611fa6565b600160ff19815416176001557f62e78cea01bee320cd4e420270b5ea74000d11b0c9f74754ebdbfc544b05a2586020604051338152a180f35b50346101b55760203660031901126101b5576020906040906001600160a01b036105b1611c57565b168152600f83522054600f0b604051908152f35b50346101b557806003193601126101b5576002546040516001600160a01b039091168152602090f35b50346101b557806003193601126101b557610607611ca8565b60018054610100600160a81b0319811690915560009060081c6001600160a01b03167f8be0079c531659141344cd1fd0a4f28419497f9722a3daafe3b4186f6b6457e08280a380f35b50346101b557602080600319360112610754578161066c611c57565b610674611ca8565b6040516370a0823160e01b8152306004820152906001600160a01b03168382602481845afa801561070f578492849161071a575b5060405163a9059cbb60e01b8152336004820152602481019190915292839190829081604481015b03925af1801561070f576106e2578280f35b8161070192903d10610708575b6106f98183611bd4565b810190611d03565b5038808280f35b503d6106ef565b6040513d85823e3d90fd5b9350509082813d831161074d575b6107328183611bd4565b81010312610748579051839183916106d06106a8565b600080fd5b503d610728565b5080fd5b50346101b557806003193601126101b557602060ff600154166040519015158152f35b50346101b55760203660031901126101b5576004358152600960205260ff6040822054166040519060048110156107b457602092508152f35b634e487b7160e01b83526021600452602483fd5b50346101b557806003193601126101b5576107e1611ca8565b60015460ff8116156108215760ff19166001557f5db9ee0a495bf2e6ff9c91a7834c1ba4fdd244a5e8aa4e537bd38aeae4b073aa6020604051338152a180f35b60405162461bcd60e51b815260206004820152601460248201527314185d5cd8589b194e881b9bdd081c185d5cd95960621b6044820152606490fd5b50346101b55760203660031901126101b55760406020916004358152600d83522054604051908152f35b5060a03660031901126101b55761089c611c6d565b6108a4611c83565b6084359161ffff83168303610f8657600284541461182757600284556108c8611fa6565b6004358452600860205260ff6040852054166117e25761ffff83168452600a60205260ff604085205416156117a9576001600160a01b03811615611770576001600160a01b0382161561173957606435156117035760408051606435815261ffff8516602082015242918101919091526001600160a01b038381169190831690600435907ff1320f7d28fb68b788c63849a53e88893b5c1042c60ff6758073a85358640e3690606090a45a6004358552600960205260408520805460ff19166001179055926001600160a01b038381169083160361158a575b600754604051633fe3335560e11b81526001600160a01b0384811660048301528581166024830152606480356044840152612b939083015261ffff841660848301529092918791849160a4918391165afa91821561157f5786926113e3575b50815151156113a65760808201511561136c578593845b83518051821015610b30576001600160a01b0390610a36908390611f31565b5160405163095ea7b360e01b81529116600482015260248101879052906020826044818a6001600160a01b038b165af1918215610b0657610abd92610b11575b50602060018060a01b03610a8b838851611f31565b5160405163095ea7b360e01b815291166001600160a01b03166004820152606435602482015292839081906044820190565b03818a6001600160a01b038b165af1918215610b0657610ae292610ae7575b50611ed9565b610a17565b610aff9060203d602011610708576106f98183611bd4565b5038610adc565b6040513d89823e3d90fd5b610b299060203d602011610708576106f98183611bd4565b5038610a76565b5050939490855b60408401518051821015610c23576001600160a01b0390610b59908390611f31565b5160405163095ea7b360e01b81529116600482015260248101889052906020826044818b6001600160a01b038b165af1918215610bf957610bb192610c04575b50602060018060a01b03610a8b836040890151611f31565b03818b6001600160a01b038b165af1918215610bf957610bd592610bda5750611ed9565b610b37565b610bf29060203d602011610708576106f98183611bd4565b5088610adc565b6040513d8a823e3d90fd5b610c1c9060203d602011610708576106f98183611bd4565b5088610b99565b848388868b8a6040516323b872dd60e01b815233600482015230602482015260643560448201526020816064818660018060a01b0387165af1908161134d575b50611302576001610c72611d1b565b6308c379a01461128d575b611280575b6064359092825b87515180821015610d0f576001600160a01b0387811690871603610cb7575b50610cb290611ed9565b610c89565b81610cc6919693949296611f99565b908115610cfb57610cef92918791049160018060a01b03610ce8888c51611f31565b5116611fea565b90610cb2859490610ca8565b634e487b7160e01b85526012600452602485fd5b508692905084888561ffff861662aa36a7146112115750604081015151156111d357604001516001600160a01b0390610d4790611efe565b51166004358652600c60205260408620600160ff19825416179055600d60205282604087205560018060a01b03600554168114600014610fa95750506005546001600160a01b031642610e10810110610f95578085913b15610754578160c491604051928380926320bc810b60e01b825261ffff8a166004830152336024830152876044830152610e10420160648301528460848301528460a483015234905af18015610f8a57610f6e575b50509062030d4092610eb0925b61ffff6040519216825233602083015260408201527f69b9f642c178495c525171ab15766d6ce415de4784bf5bdf400a70ea64c1ea82606060043592a25b6004358452600960205260408420600260ff198254161790556004358452600860205260408420600160ff1982541617905560405160643581526001602082015233907f9cc2f110366e4838b312fcc20d40fb5dce94c3f1abf5acbd0d12500e476d8c56604060043592a35a90611f99565b604051600181528160208201524260408201527f7ab06e9653de2c903acfeae7c9b6b3656223340d039ea57835a01de742b24475606060043592a211610ef8575b6001815580f35b60405160408152602460408201527f436f6e7369646572206261746368696e67206d756c7469706c65207472616e736060820152636665727360e01b608082015261c35060208201527f3864e0defa7c80dd229202bc861503fc48113e82cdc1fb2cab5e9f486e94d3db60a060043592a2610ef1565b610f7a90939293611b5a565b610f8657908385610df3565b8380fd5b6040513d84823e3d90fd5b634e487b7160e01b85526011600452602485fd5b6004546001600160a01b0316036110b7576004546001600160a01b0316610fd8610fd283612b2d565b92612b2d565b9183605f810204605f14841517156110a35790869291604051913360601b60208401526014835261100883611b83565b803b1561109f5761ffff886110658795604051978896879586956361a2e77360e11b8752166004860152602485015260448401523360648401528960848401526064605f8b020460a484015260e060c484015260e4830190611e23565b039134905af18015610f8a57611087575b50509062030d4092610eb092610e00565b61109390939293611b5a565b610f8657908385611076565b8480fd5b634e487b7160e01b87526011600452602487fd5b50604080513360208201529081018290529192916110e281606081015b03601f198101835282611bd4565b6006546040513060601b60208201526014815286916001600160a01b031661110982611b83565b6040519361111685611b9e565b838552813b15610f8657866111896111599661116b61ffff94604051998a988997889762c5803160e81b895216600488015260c0602488015260c4870190611e23565b85810360031901604487015290611e23565b903360648501528760848501526003198483030160a4850152611e23565b039134905af180156111c8576111aa575b5091610eb09162030d4093610e00565b9162030d409391946111be610eb094611b5a565b949193509161119a565b6040513d87823e3d90fd5b60405162461bcd60e51b8152602060048201526016602482015275139bc81d9a58589b1948189c9a5919d948199bdd5b9960521b6044820152606490fd5b60405163a9059cbb60e01b815233600482015260248101949094529294506020928592604492508391906001600160a01b03165af190811561070f5762030d4092610eb092611261575b50610e3e565b6112799060203d602011610708576106f98183611bd4565b508461125b565b50604051903d90823e3d90fd5b611295611d39565b806112a05750610c7d565b6112de6112fe91600080516020612b968339815191526112d66112c283611f45565b604051918291602083526020830190611e23565b0390a1611f45565b60405162461bcd60e51b8152602060048201529182916024830190611e23565b0390fd5b600080516020612b96833981519152606060405160208152601960208201527f546f6b656e207472616e73666572207375636365737366756c000000000000006040820152a1610c82565b6113659060203d602011610708576106f98183611bd4565b5087610c63565b60405162461bcd60e51b815260206004820152601260248201527116995c9bc81bdd5d1c1d5d08185b5bdd5b9d60721b6044820152606490fd5b60405162461bcd60e51b8152602060048201526015602482015274139bc81d9a58589b19481c9bdd5d1948199bdd5b99605a1b6044820152606490fd5b9091503d8087833e6113f58183611bd4565b602082828101031261157b5781516001600160401b0381116115775760a0818401838501031261157757604051928360a08101106001600160401b0360a0860111176115635760a08401604052818101516001600160401b03811161153657611465908483019084840101611e73565b8452602082820101516001600160401b03811161153657838201601f8285850101011215611536578083830101519061149d82611e48565b916114ab6040519384611bd4565b808352602083019186850160208360051b838989010101011161155f57916020838787010101925b60208360051b82898901010101841061153a5750505050602085015260408282010151926001600160401b038411611536576080936115189183019084840101611e73565b60408501520160608181015190840152015160808201529038610a00565b8980fd5b83519161ffff8316830361155b5760208181948293520194019391506114d3565b8e80fd5b8c80fd5b634e487b7160e01b89526041600452602489fd5b8780fd5b8680fd5b6040513d88823e3d90fd5b6002546001600160a01b0316808652600b602052604086205460ff16156116be5760405163095ea7b360e01b81526001600160a01b039091166004820152606435602482015260208180604481010381896001600160a01b0388165af1908161169f575b5061165f5760016115fd611d1b565b6308c379a014611622575b6116175760a4905b90506109a1565b6040513d86823e3d90fd5b61162a611d39565b806116355750611608565b6112de6112fe91600080516020612b968339815191526116576112c283611dcd565b0390a1611dcd565b60a490600080516020612b96833981519152606060405160208152600f60208201526e149bdd5d195c88185c1c1c9bdd9959608a1b6040820152a1611610565b6116b79060203d602011610708576106f98183611bd4565b50386115ee565b60405162461bcd60e51b815260206004820152601c60248201527f556e697377617020726f75746572206e6f7420737570706f72746564000000006044820152606490fd5b60405162461bcd60e51b815260206004820152600e60248201526d125b9d985b1a5908185b5bdd5b9d60921b6044820152606490fd5b60405162461bcd60e51b815260206004820152600f60248201526e24b73b30b634b2103a37aa37b5b2b760891b6044820152606490fd5b60405162461bcd60e51b815260206004820152601160248201527024b73b30b634b210333937b6aa37b5b2b760791b6044820152606490fd5b60405162461bcd60e51b81526020600482015260116024820152702ab739bab83837b93a32b21031b430b4b760791b6044820152606490fd5b60405162461bcd60e51b815260206004820152601860248201527f496e74656e7420616c72656164792070726f63657373656400000000000000006044820152606490fd5b60405162461bcd60e51b815260206004820152601f60248201527f5265656e7472616e637947756172643a207265656e7472616e742063616c6c006044820152606490fd5b50346101b557806003193601126101b5576003546040516001600160a01b039091168152602090f35b50346101b55760203660031901126101b55760ff604060209261ffff6118b9611b49565b168152600a84522054166040519015158152f35b50346101b55760a03660031901126101b5576118e7611c57565b6118ef611c6d565b906118f8611c83565b6001600160a01b03606435818116929083900361196b576084359482861680960361157b578290611927611ca8565b816bffffffffffffffffffffffff60a01b96168660025416176002551684600354161760035516826004541617600455816005541617600555600654161760065580f35b8580fd5b50346101b557806003193601126101b5576006546040516001600160a01b039091168152602090f35b50346101b55760803660031901126101b5576119b2611b49565b506001600160401b036024358181116103d6576119d3903690600401611c10565b506044358181160361075457606435908111610754576119f7903690600401611c10565b6006546001600160a01b03163303611b1157604081805181010312610754576020604081830151920151828452600c825260ff60408520541615611ad357828452600d8252604084205403611a9d5760607f7ab06e9653de2c903acfeae7c9b6b3656223340d039ea57835a01de742b2447591838552600c81526040852060ff198154169055600d8152846040812055846040519160018352820152426040820152a280f35b6064906040519062461bcd60e51b82526004820152600f60248201526e082dadeeadce840dad2e6dac2e8c6d608b1b6044820152fd5b60405162461bcd60e51b81526004810183905260166024820152752737903832b73234b733903a3930b739b0b1ba34b7b760511b6044820152606490fd5b60405162461bcd60e51b815260206004820152601060248201526f125b9d985b1a5908195b991c1bda5b9d60821b6044820152606490fd5b6004359061ffff8216820361074857565b6001600160401b038111611b6d57604052565b634e487b7160e01b600052604160045260246000fd5b604081019081106001600160401b03821117611b6d57604052565b602081019081106001600160401b03821117611b6d57604052565b606081019081106001600160401b03821117611b6d57604052565b90601f801991011681019081106001600160401b03821117611b6d57604052565b6001600160401b038111611b6d57601f01601f191660200190565b81601f8201121561074857803590611c2782611bf5565b92611c356040519485611bd4565b8284526020838301011161074857816000926020809301838601378301015290565b600435906001600160a01b038216820361074857565b602435906001600160a01b038216820361074857565b604435906001600160a01b038216820361074857565b60243590811515820361074857565b60015460081c6001600160a01b03163303611cbf57565b606460405162461bcd60e51b815260206004820152602060248201527f4f776e61626c653a2063616c6c6572206973206e6f7420746865206f776e65726044820152fd5b90816020910312610748575180151581036107485790565b60009060033d11611d2857565b905060046000803e60005160e01c90565b600060443d10611d9657604051600319913d83016004833e81516001600160401b03918282113d602484011117611d9957818401948551938411611da1573d85010160208487010111611d995750611d9692910160200190611bd4565b90565b949350505050565b50949350505050565b60005b838110611dbd5750506000910152565b8181015183820152602001611dad565b90611e21603860405180947f526f7574657220617070726f76616c206661696c65643a2000000000000000006020830152611e118151809260208686019101611daa565b8101036018810185520183611bd4565b565b90602091611e3c81518092818552858086019101611daa565b601f01601f1916010190565b6001600160401b038111611b6d5760051b60200190565b51906001600160a01b038216820361074857565b81601f8201121561074857805191611e8a83611e48565b92611e986040519485611bd4565b808452602092838086019260051b820101928311610748578301905b828210611ec2575050505090565b838091611ece84611e5f565b815201910190611eb4565b6000198114611ee85760010190565b634e487b7160e01b600052601160045260246000fd5b805115611f0b5760200190565b634e487b7160e01b600052603260045260246000fd5b805160011015611f0b5760400190565b8051821015611f0b5760209160051b010190565b90611e21603760405180947f546f6b656e207472616e73666572206661696c65643a200000000000000000006020830152611f898151809260208686019101611daa565b8101036017810185520183611bd4565b91908203918211611ee857565b60ff60015416611fb257565b60405162461bcd60e51b815260206004820152601060248201526f14185d5cd8589b194e881c185d5cd95960821b6044820152606490fd5b60025492949391926001600160a01b0391821691168103612753575060025460405163c45a015560e01b815294906001600160a01b0316602086600481845afa95861561250e57600096612714575b5060405163e6a4390560e01b81526001600160a01b0385811660048301528381166024830152909660209188916044918391165afa95861561250e576000966126d8575b506040519561208b87611b83565b601087526f181899199a1a9b1b9c1cb0b131b232b360811b6020880152604051966120b588611bb9565b602a885260403660208a0137875115611f0b5760306020890153875160011015611f0b576078602189015360005b6014811061261057505061215a9596612136602e60405180936d02830b4b91030b2323932b9b99d160951b60208301526121268151809260208686019101611daa565b810103600e810184520182611bd4565b6040516020815280600080516020612b968339815191529889936020830190611e23565b0390a16001600160a01b031615612593576040519461217886611bb9565b6002865260403660208801376001600160a01b03851661219787611efe565b526001600160a01b0383166121ab87611f21565b5260405163313ce56760e01b8082526020826004816001600160a01b038b165afa91821561250e57600092612572575b506040519081526020816004816001600160a01b0389165afa90811561250e5760ff6122b09285809561226d94600093612537575b5061221f846122649216612a54565b6112c2602f60405180936e0233937b6903232b1b4b6b0b6399d1608d1b60208301526122548151809260208686019101611daa565b810103600f810184520182611bd4565b0390a116612a54565b6112c2602d60405180936c02a37903232b1b4b6b0b6399d1609d1b60208301526122a08151809260208686019101611daa565b810103600d810184520182611bd4565b0390a16040519063d06ca61f60e01b825284600483015260406024830152600082806122df604482018b612a06565b0381865afa90811561250e576123a09260009261251a575b508061233961230588612a54565b6112c2602e60405180936d024b7383aba1030b6b7bab73a1d160951b60208301526121268151809260208686019101611daa565b0390a161239861235161234b84611f21565b51612a54565b6112c26031604051809370022bc3832b1ba32b21037baba383aba1d1607d1b60208301526123888151809260208686019101611daa565b8101036011810184520182611bd4565b0390a1611f21565b5194605f860295808704605f1490151715611ee85761012c420191824211611ee857606460006123fd9881956040519a8b96879586946338ed173960e01b86528c600487015204602485015260a0604485015260a4840190612a06565b90306064840152608483015203925af192831561250e576124c1946000946124c5575b50907fa7f76f8c67fe78bef9bc25e3d362c983002605f56fdf0d519199033ff23c4177916124b9604051602081019061247c816110d4334286909160349282526bffffffffffffffffffffffff199060601b1660208201520190565b5190209461248987611f21565b51604080516001600160a01b03958616815295909416602086015292840152606083019190915281906080820190565b0390a2611f21565b5190565b7fa7f76f8c67fe78bef9bc25e3d362c983002605f56fdf0d519199033ff23c417792919450612506903d806000833e6124fe8183611bd4565b81019061298d565b939091612420565b6040513d6000823e3d90fd5b6125309192503d806000833e6124fe8183611bd4565b90386122f7565b6122649193508461256261221f9260203d60201161256b575b61255a8183611bd4565b810190612974565b94925050612210565b503d612550565b61258c91925060203d60201161256b5761255a8183611bd4565b90386121db565b84604051806125ce81606090602081526017602082015276139bc81b1a5c5d5a591a5d1e481c1bdbdb08199bdd5b99604a1b60408201520190565b0390a160405162461bcd60e51b8152602060048201526017602482015276139bc81b1a5c5d5a591a5d1e481c1bdbdb08199bdd5b99604a1b6044820152606490fd5b600c81018111611ee8576020600c82011015611f0b576001600160f81b031961264d6001600160a01b038516600c84011a60041c600f1684612a43565b5116818060011b0460021482151715611ee8578160011b600201600211611ee85760001a6126818260011b6002018b612a43565b536001600160f81b03196126a66001600160a01b038516600c84011a600f1684612a43565b51169060038160011b81018111611ee8576126cd6126d39360001a918360011b018c612a43565b53611ed9565b6120e3565b9095506020813d60201161270c575b816126f460209383611bd4565b810103126107485761270590611e5f565b943861207d565b3d91506126e7565b95506020863d60201161274b575b8161272f60209383611bd4565b81010312610748576020612744604497611e5f565b9650612039565b3d9150612722565b600354939491939192916001600160a01b0316146127a25760405162461bcd60e51b815260206004820152600f60248201526e0aadce6eae0e0dee4e8cac840888ab608b1b6044820152606490fd5b605f830291838304605f1484151715611ee8576064916000808660409661284a8851916127ce83611b9e565b84835261282f8a519360209a8b93848701976362c48ca960e11b895260018060a01b038c16602489015260018060a01b038d166044890152828801520460848601528660a48601528660c486015261010060e4860152610124850190612a06565b85848203916023198301610104870152528084520182611bd4565b519082731111111254eeb25477b68fb85ed929f73a9605825af13d1561296c573d9061287582611bf5565b9161288287519384611bd4565b82523d60008684013e5b15612934578381805181010312610748578301518451429481019485523360601b6bffffffffffffffffffffffff1916602086015290957fa7f76f8c67fe78bef9bc25e3d362c983002605f56fdf0d519199033ff23c41779461292e92889291906128fa81603484016110d4565b51902096516001600160a01b0394851681529490931660208501526040840192909252606083019190915281906080820190565b0390a290565b845162461bcd60e51b81526004810185905260116024820152700c5a5b98da081cddd85c0819985a5b1959607a1b6044820152606490fd5b60609061288c565b90816020910312610748575160ff811681036107485790565b6020908181840312610748578051906001600160401b03821161074857019180601f840112156107485782516129c281611e48565b936129d06040519586611bd4565b818552838086019260051b820101928311610748578301905b8282106129f7575050505090565b815181529083019083016129e9565b90815180825260208080930193019160005b828110612a26575050505090565b83516001600160a01b031685529381019392810192600101612a18565b908151811015611f0b570160200190565b8015612b0f5780816000925b612afb575080612a6f83611bf5565b92612a7d6040519485611bd4565b808452601f19612a8c82611bf5565b01366020860137915b612a9e57505090565b6000198201918211611ee85781600a80830492818402918483041484151715611ee857612ace60ff928392611f99565b16603001908111611ee85760f81b6001600160f81b03191660001a90612af49085612a43565b5380612a95565b91612b07600a91611ed9565b920480612a60565b50604051612b1c81611b83565b60018152600360fc1b602082015290565b6001600160a01b03166000818152600e602052604090205415612b5b57600052600e60205260406000205490565b60405162461bcd60e51b8152602060048201526012602482015271141bdbdb081b9bdd081cdd5c1c1bdc9d195960721b6044820152606490fdfe7cdb51e9dbbc205231228146c3246e7f914aa6d4a33170e43ecc8e3593481d1aa26469706673582212206f08d6200efd57185e8d21a9f14ec81ca665ff106136f614c220769998112c0364736f6c63430008130033","opcodes":"PUSH1 0x80 CALLVALUE PUSH3 0x9F JUMPI PUSH1 0x1F PUSH3 0x2D02 CODESIZE DUP2 SWAP1 SUB SWAP2 DUP3 ADD PUSH1 0x1F NOT AND DUP4 ADD SWAP2 PUSH1 0x1 PUSH1 0x1 PUSH1 0x40 SHL SUB DUP4 GT DUP5 DUP5 LT OR PUSH3 0xA4 JUMPI DUP1 DUP5 SWAP3 PUSH1 0x20 SWAP5 PUSH1 0x40 MSTORE DUP4 CODECOPY DUP2 ADD SUB SLT PUSH3 0x9F JUMPI MLOAD PUSH1 0x1 PUSH1 0x1 PUSH1 0xA0 SHL SUB DUP2 AND SWAP1 DUP2 SWAP1 SUB PUSH3 0x9F JUMPI PUSH1 0x1 PUSH1 0x0 SSTORE PUSH1 0xFF NOT PUSH1 0x1 SLOAD AND PUSH1 0x1 SSTORE PUSH3 0x70 CALLER PUSH3 0xBA JUMP JUMPDEST PUSH3 0x7B CALLER PUSH3 0xBA JUMP JUMPDEST PUSH1 0x7 DUP1 SLOAD PUSH1 0x1 PUSH1 0x1 PUSH1 0xA0 SHL SUB NOT AND SWAP2 SWAP1 SWAP2 OR SWAP1 SSTORE PUSH1 0x40 MLOAD PUSH2 0x2BEB SWAP1 DUP2 PUSH3 0x117 DUP3 CODECOPY RETURN JUMPDEST PUSH1 0x0 DUP1 REVERT JUMPDEST PUSH4 0x4E487B71 PUSH1 0xE0 SHL PUSH1 0x0 MSTORE PUSH1 0x41 PUSH1 0x4 MSTORE PUSH1 0x24 PUSH1 0x0 REVERT JUMPDEST PUSH1 0x1 DUP1 SLOAD PUSH2 0x100 PUSH1 0x1 PUSH1 0xA8 SHL SUB NOT DUP2 AND PUSH1 0x8 DUP5 DUP2 SHL PUSH2 0x100 PUSH1 0x1 PUSH1 0xA8 SHL SUB AND SWAP2 SWAP1 SWAP2 OR SWAP1 SWAP3 SSTORE PUSH1 0x1 PUSH1 0x1 PUSH1 0xA0 SHL SUB SWAP3 DUP4 AND SWAP3 SWAP2 SHR AND PUSH32 0x8BE0079C531659141344CD1FD0A4F28419497F9722A3DAAFE3B4186F6B6457E0 PUSH1 0x0 DUP1 LOG3 JUMP INVALID PUSH1 0x80 PUSH1 0x40 MSTORE PUSH1 0x4 CALLDATASIZE LT ISZERO PUSH2 0x1B JUMPI JUMPDEST CALLDATASIZE ISZERO PUSH2 0x19 JUMPI PUSH1 0x0 DUP1 REVERT JUMPDEST STOP JUMPDEST PUSH1 0x0 DUP1 CALLDATALOAD PUSH1 0xE0 SHR DUP1 PUSH3 0x1D3567 EQ PUSH2 0x1998 JUMPI DUP1 PUSH4 0x7968DB1 EQ PUSH2 0x196F JUMPI DUP1 PUSH4 0x7D7ECB6 EQ PUSH2 0x18CD JUMPI DUP1 PUSH4 0x10D58783 EQ PUSH2 0x1895 JUMPI DUP1 PUSH4 0x218751B2 EQ PUSH2 0x186C JUMPI DUP1 PUSH4 0x36874D1A EQ PUSH2 0x887 JUMPI DUP1 PUSH4 0x39696081 EQ PUSH2 0x85D JUMPI DUP1 PUSH4 0x3F4BA83A EQ PUSH2 0x7C8 JUMPI DUP1 PUSH4 0x5C6741C0 EQ PUSH2 0x77B JUMPI DUP1 PUSH4 0x5C975ABB EQ PUSH2 0x758 JUMPI DUP1 PUSH4 0x6FF1C9BC EQ PUSH2 0x650 JUMPI DUP1 PUSH4 0x715018A6 EQ PUSH2 0x5EE JUMPI DUP1 PUSH4 0x735DE9F7 EQ PUSH2 0x5C5 JUMPI DUP1 PUSH4 0x7E8E1B84 EQ PUSH2 0x589 JUMPI DUP1 PUSH4 0x8456CB59 EQ PUSH2 0x52F JUMPI DUP1 PUSH4 0x8D128ABD EQ PUSH2 0x506 JUMPI DUP1 PUSH4 0x8DA5CB5B EQ PUSH2 0x4D9 JUMPI DUP1 PUSH4 0x9E19789D EQ PUSH2 0x4AA JUMPI DUP1 PUSH4 0xA9E56F3C EQ PUSH2 0x481 JUMPI DUP1 PUSH4 0xBF2B3EE6 EQ PUSH2 0x442 JUMPI DUP1 PUSH4 0xC2C8A008 EQ PUSH2 0x413 JUMPI DUP1 PUSH4 0xD4175BE2 EQ PUSH2 0x3DA JUMPI DUP1 PUSH4 0xDB4D558A EQ PUSH2 0x376 JUMPI DUP1 PUSH4 0xDEAC3A98 EQ PUSH2 0x34D JUMPI DUP1 PUSH4 0xE7CFE70C EQ PUSH2 0x2FB JUMPI DUP1 PUSH4 0xF2FDE38B EQ PUSH2 0x225 JUMPI DUP1 PUSH4 0xF5489918 EQ PUSH2 0x1E7 JUMPI DUP1 PUSH4 0xF7E77B3A EQ PUSH2 0x1B8 JUMPI PUSH4 0xFC1B7769 EQ PUSH2 0x165 JUMPI POP PUSH2 0xE JUMP JUMPDEST CALLVALUE PUSH2 0x1B5 JUMPI PUSH1 0x40 CALLDATASIZE PUSH1 0x3 NOT ADD SLT PUSH2 0x1B5 JUMPI PUSH2 0x1B2 PUSH2 0x181 PUSH2 0x1B49 JUMP JUMPDEST PUSH2 0xFFFF PUSH2 0x18C PUSH2 0x1C99 JUMP JUMPDEST SWAP2 PUSH2 0x195 PUSH2 0x1CA8 JUMP JUMPDEST AND DUP4 MSTORE PUSH1 0xA PUSH1 0x20 MSTORE PUSH1 0x40 DUP4 KECCAK256 SWAP1 PUSH1 0xFF DUP1 NOT DUP4 SLOAD AND SWAP2 ISZERO ISZERO AND OR SWAP1 SSTORE JUMP JUMPDEST DUP1 RETURN JUMPDEST DUP1 REVERT JUMPDEST POP CALLVALUE PUSH2 0x1B5 JUMPI PUSH1 0x20 CALLDATASIZE PUSH1 0x3 NOT ADD SLT PUSH2 0x1B5 JUMPI PUSH1 0xFF PUSH1 0x40 PUSH1 0x20 SWAP3 PUSH1 0x4 CALLDATALOAD DUP2 MSTORE PUSH1 0xC DUP5 MSTORE KECCAK256 SLOAD AND PUSH1 0x40 MLOAD SWAP1 ISZERO ISZERO DUP2 MSTORE RETURN JUMPDEST POP CALLVALUE PUSH2 0x1B5 JUMPI PUSH1 0x40 CALLDATASIZE PUSH1 0x3 NOT ADD SLT PUSH2 0x1B5 JUMPI PUSH2 0x201 PUSH2 0x1C57 JUMP JUMPDEST PUSH2 0x209 PUSH2 0x1CA8 JUMP JUMPDEST PUSH1 0x1 PUSH1 0x1 PUSH1 0xA0 SHL SUB AND DUP2 MSTORE PUSH1 0xE PUSH1 0x20 MSTORE PUSH1 0x40 DUP2 KECCAK256 PUSH1 0x24 CALLDATALOAD SWAP1 SSTORE DUP1 RETURN JUMPDEST POP CALLVALUE PUSH2 0x1B5 JUMPI PUSH1 0x20 CALLDATASIZE PUSH1 0x3 NOT ADD SLT PUSH2 0x1B5 JUMPI PUSH2 0x23F PUSH2 0x1C57 JUMP JUMPDEST PUSH2 0x247 PUSH2 0x1CA8 JUMP JUMPDEST PUSH1 0x1 PUSH1 0x1 PUSH1 0xA0 SHL SUB DUP2 DUP2 AND SWAP2 DUP3 ISZERO PUSH2 0x2A7 JUMPI PUSH1 0x1 DUP1 SLOAD PUSH2 0x100 PUSH1 0x1 PUSH1 0xA8 SHL SUB NOT DUP2 AND PUSH1 0x8 SWAP4 DUP5 SHL PUSH2 0x100 PUSH1 0x1 PUSH1 0xA8 SHL SUB AND OR SWAP1 SWAP2 SSTORE SWAP1 SHR AND PUSH32 0x8BE0079C531659141344CD1FD0A4F28419497F9722A3DAAFE3B4186F6B6457E0 PUSH1 0x0 DUP1 LOG3 DUP1 RETURN JUMPDEST PUSH1 0x40 MLOAD PUSH3 0x461BCD PUSH1 0xE5 SHL DUP2 MSTORE PUSH1 0x20 PUSH1 0x4 DUP3 ADD MSTORE PUSH1 0x26 PUSH1 0x24 DUP3 ADD MSTORE PUSH32 0x4F776E61626C653A206E6577206F776E657220697320746865207A65726F2061 PUSH1 0x44 DUP3 ADD MSTORE PUSH6 0x646472657373 PUSH1 0xD0 SHL PUSH1 0x64 DUP3 ADD MSTORE PUSH1 0x84 SWAP1 REVERT JUMPDEST POP CALLVALUE PUSH2 0x1B5 JUMPI PUSH1 0x40 CALLDATASIZE PUSH1 0x3 NOT ADD SLT PUSH2 0x1B5 JUMPI PUSH2 0x1B2 PUSH2 0x318 PUSH2 0x1C57 JUMP JUMPDEST PUSH2 0x320 PUSH2 0x1C99 JUMP JUMPDEST SWAP1 PUSH2 0x329 PUSH2 0x1CA8 JUMP JUMPDEST PUSH1 0x1 DUP1 PUSH1 0xA0 SHL SUB AND DUP4 MSTORE PUSH1 0xB PUSH1 0x20 MSTORE PUSH1 0x40 DUP4 KECCAK256 SWAP1 PUSH1 0xFF DUP1 NOT DUP4 SLOAD AND SWAP2 ISZERO ISZERO AND OR SWAP1 SSTORE JUMP JUMPDEST POP CALLVALUE PUSH2 0x1B5 JUMPI DUP1 PUSH1 0x3 NOT CALLDATASIZE ADD SLT PUSH2 0x1B5 JUMPI PUSH1 0x5 SLOAD PUSH1 0x40 MLOAD PUSH1 0x1 PUSH1 0x1 PUSH1 0xA0 SHL SUB SWAP1 SWAP2 AND DUP2 MSTORE PUSH1 0x20 SWAP1 RETURN JUMPDEST POP CALLVALUE PUSH2 0x1B5 JUMPI PUSH1 0x40 CALLDATASIZE PUSH1 0x3 NOT ADD SLT PUSH2 0x1B5 JUMPI PUSH2 0x390 PUSH2 0x1C57 JUMP JUMPDEST PUSH1 0x24 CALLDATALOAD SWAP1 DUP2 PUSH1 0xF SIGNEXTEND DUP3 SUB PUSH2 0x3D6 JUMPI PUSH2 0x3A6 PUSH2 0x1CA8 JUMP JUMPDEST PUSH1 0x1 DUP1 PUSH1 0xA0 SHL SUB AND DUP3 MSTORE PUSH1 0xF PUSH1 0x20 MSTORE PUSH1 0x40 DUP3 KECCAK256 SWAP1 PUSH1 0x1 PUSH1 0x1 PUSH1 0x80 SHL SUB NOT DUP3 SLOAD AND SWAP1 PUSH1 0x1 PUSH1 0x1 PUSH1 0x80 SHL SUB AND OR SWAP1 SSTORE DUP1 RETURN JUMPDEST DUP3 DUP1 REVERT JUMPDEST POP CALLVALUE PUSH2 0x1B5 JUMPI PUSH1 0x20 CALLDATASIZE PUSH1 0x3 NOT ADD SLT PUSH2 0x1B5 JUMPI PUSH1 0x20 SWAP1 PUSH1 0x40 SWAP1 PUSH1 0x1 PUSH1 0x1 PUSH1 0xA0 SHL SUB PUSH2 0x402 PUSH2 0x1C57 JUMP JUMPDEST AND DUP2 MSTORE PUSH1 0xE DUP4 MSTORE KECCAK256 SLOAD PUSH1 0x40 MLOAD SWAP1 DUP2 MSTORE RETURN JUMPDEST POP CALLVALUE PUSH2 0x1B5 JUMPI PUSH1 0x20 CALLDATASIZE PUSH1 0x3 NOT ADD SLT PUSH2 0x1B5 JUMPI PUSH1 0xFF PUSH1 0x40 PUSH1 0x20 SWAP3 PUSH1 0x4 CALLDATALOAD DUP2 MSTORE PUSH1 0x8 DUP5 MSTORE KECCAK256 SLOAD AND PUSH1 0x40 MLOAD SWAP1 ISZERO ISZERO DUP2 MSTORE RETURN JUMPDEST POP CALLVALUE PUSH2 0x1B5 JUMPI PUSH1 0x20 CALLDATASIZE PUSH1 0x3 NOT ADD SLT PUSH2 0x1B5 JUMPI PUSH1 0x20 SWAP1 PUSH1 0xFF SWAP1 PUSH1 0x40 SWAP1 PUSH1 0x1 PUSH1 0x1 PUSH1 0xA0 SHL SUB PUSH2 0x46D PUSH2 0x1C57 JUMP JUMPDEST AND DUP2 MSTORE PUSH1 0xB DUP5 MSTORE KECCAK256 SLOAD AND PUSH1 0x40 MLOAD SWAP1 ISZERO ISZERO DUP2 MSTORE RETURN JUMPDEST POP CALLVALUE PUSH2 0x1B5 JUMPI DUP1 PUSH1 0x3 NOT CALLDATASIZE ADD SLT PUSH2 0x1B5 JUMPI PUSH1 0x4 SLOAD PUSH1 0x40 MLOAD PUSH1 0x1 PUSH1 0x1 PUSH1 0xA0 SHL SUB SWAP1 SWAP2 AND DUP2 MSTORE PUSH1 0x20 SWAP1 RETURN JUMPDEST POP CALLVALUE PUSH2 0x1B5 JUMPI DUP1 PUSH1 0x3 NOT CALLDATASIZE ADD SLT PUSH2 0x1B5 JUMPI PUSH1 0x20 PUSH1 0x40 MLOAD PUSH20 0x610178DA211FEF7D417BC0E6FED39F05609AD788 DUP2 MSTORE RETURN JUMPDEST POP CALLVALUE PUSH2 0x1B5 JUMPI DUP1 PUSH1 0x3 NOT CALLDATASIZE ADD SLT PUSH2 0x1B5 JUMPI PUSH1 0x1 SLOAD PUSH1 0x40 MLOAD PUSH1 0x8 SWAP2 SWAP1 SWAP2 SHR PUSH1 0x1 PUSH1 0x1 PUSH1 0xA0 SHL SUB AND DUP2 MSTORE PUSH1 0x20 SWAP1 RETURN JUMPDEST POP CALLVALUE PUSH2 0x1B5 JUMPI DUP1 PUSH1 0x3 NOT CALLDATASIZE ADD SLT PUSH2 0x1B5 JUMPI PUSH1 0x7 SLOAD PUSH1 0x40 MLOAD PUSH1 0x1 PUSH1 0x1 PUSH1 0xA0 SHL SUB SWAP1 SWAP2 AND DUP2 MSTORE PUSH1 0x20 SWAP1 RETURN JUMPDEST POP CALLVALUE PUSH2 0x1B5 JUMPI DUP1 PUSH1 0x3 NOT CALLDATASIZE ADD SLT PUSH2 0x1B5 JUMPI PUSH2 0x548 PUSH2 0x1CA8 JUMP JUMPDEST PUSH2 0x550 PUSH2 0x1FA6 JUMP JUMPDEST PUSH1 0x1 PUSH1 0xFF NOT DUP2 SLOAD AND OR PUSH1 0x1 SSTORE PUSH32 0x62E78CEA01BEE320CD4E420270B5EA74000D11B0C9F74754EBDBFC544B05A258 PUSH1 0x20 PUSH1 0x40 MLOAD CALLER DUP2 MSTORE LOG1 DUP1 RETURN JUMPDEST POP CALLVALUE PUSH2 0x1B5 JUMPI PUSH1 0x20 CALLDATASIZE PUSH1 0x3 NOT ADD SLT PUSH2 0x1B5 JUMPI PUSH1 0x20 SWAP1 PUSH1 0x40 SWAP1 PUSH1 0x1 PUSH1 0x1 PUSH1 0xA0 SHL SUB PUSH2 0x5B1 PUSH2 0x1C57 JUMP JUMPDEST AND DUP2 MSTORE PUSH1 0xF DUP4 MSTORE KECCAK256 SLOAD PUSH1 0xF SIGNEXTEND PUSH1 0x40 MLOAD SWAP1 DUP2 MSTORE RETURN JUMPDEST POP CALLVALUE PUSH2 0x1B5 JUMPI DUP1 PUSH1 0x3 NOT CALLDATASIZE ADD SLT PUSH2 0x1B5 JUMPI PUSH1 0x2 SLOAD PUSH1 0x40 MLOAD PUSH1 0x1 PUSH1 0x1 PUSH1 0xA0 SHL SUB SWAP1 SWAP2 AND DUP2 MSTORE PUSH1 0x20 SWAP1 RETURN JUMPDEST POP CALLVALUE PUSH2 0x1B5 JUMPI DUP1 PUSH1 0x3 NOT CALLDATASIZE ADD SLT PUSH2 0x1B5 JUMPI PUSH2 0x607 PUSH2 0x1CA8 JUMP JUMPDEST PUSH1 0x1 DUP1 SLOAD PUSH2 0x100 PUSH1 0x1 PUSH1 0xA8 SHL SUB NOT DUP2 AND SWAP1 SWAP2 SSTORE PUSH1 0x0 SWAP1 PUSH1 0x8 SHR PUSH1 0x1 PUSH1 0x1 PUSH1 0xA0 SHL SUB AND PUSH32 0x8BE0079C531659141344CD1FD0A4F28419497F9722A3DAAFE3B4186F6B6457E0 DUP3 DUP1 LOG3 DUP1 RETURN JUMPDEST POP CALLVALUE PUSH2 0x1B5 JUMPI PUSH1 0x20 DUP1 PUSH1 0x3 NOT CALLDATASIZE ADD SLT PUSH2 0x754 JUMPI DUP2 PUSH2 0x66C PUSH2 0x1C57 JUMP JUMPDEST PUSH2 0x674 PUSH2 0x1CA8 JUMP JUMPDEST PUSH1 0x40 MLOAD PUSH4 0x70A08231 PUSH1 0xE0 SHL DUP2 MSTORE ADDRESS PUSH1 0x4 DUP3 ADD MSTORE SWAP1 PUSH1 0x1 PUSH1 0x1 PUSH1 0xA0 SHL SUB AND DUP4 DUP3 PUSH1 0x24 DUP2 DUP5 GAS STATICCALL DUP1 ISZERO PUSH2 0x70F JUMPI DUP5 SWAP3 DUP5 SWAP2 PUSH2 0x71A JUMPI JUMPDEST POP PUSH1 0x40 MLOAD PUSH4 0xA9059CBB PUSH1 0xE0 SHL DUP2 MSTORE CALLER PUSH1 0x4 DUP3 ADD MSTORE PUSH1 0x24 DUP2 ADD SWAP2 SWAP1 SWAP2 MSTORE SWAP3 DUP4 SWAP2 SWAP1 DUP3 SWAP1 DUP2 PUSH1 0x44 DUP2 ADD JUMPDEST SUB SWAP3 GAS CALL DUP1 ISZERO PUSH2 0x70F JUMPI PUSH2 0x6E2 JUMPI DUP3 DUP1 RETURN JUMPDEST DUP2 PUSH2 0x701 SWAP3 SWAP1 RETURNDATASIZE LT PUSH2 0x708 JUMPI JUMPDEST PUSH2 0x6F9 DUP2 DUP4 PUSH2 0x1BD4 JUMP JUMPDEST DUP2 ADD SWAP1 PUSH2 0x1D03 JUMP JUMPDEST POP CODESIZE DUP1 DUP3 DUP1 RETURN JUMPDEST POP RETURNDATASIZE PUSH2 0x6EF JUMP JUMPDEST PUSH1 0x40 MLOAD RETURNDATASIZE DUP6 DUP3 RETURNDATACOPY RETURNDATASIZE SWAP1 REVERT JUMPDEST SWAP4 POP POP SWAP1 DUP3 DUP2 RETURNDATASIZE DUP4 GT PUSH2 0x74D JUMPI JUMPDEST PUSH2 0x732 DUP2 DUP4 PUSH2 0x1BD4 JUMP JUMPDEST DUP2 ADD SUB SLT PUSH2 0x748 JUMPI SWAP1 MLOAD DUP4 SWAP2 DUP4 SWAP2 PUSH2 0x6D0 PUSH2 0x6A8 JUMP JUMPDEST PUSH1 0x0 DUP1 REVERT JUMPDEST POP RETURNDATASIZE PUSH2 0x728 JUMP JUMPDEST POP DUP1 REVERT JUMPDEST POP CALLVALUE PUSH2 0x1B5 JUMPI DUP1 PUSH1 0x3 NOT CALLDATASIZE ADD SLT PUSH2 0x1B5 JUMPI PUSH1 0x20 PUSH1 0xFF PUSH1 0x1 SLOAD AND PUSH1 0x40 MLOAD SWAP1 ISZERO ISZERO DUP2 MSTORE RETURN JUMPDEST POP CALLVALUE PUSH2 0x1B5 JUMPI PUSH1 0x20 CALLDATASIZE PUSH1 0x3 NOT ADD SLT PUSH2 0x1B5 JUMPI PUSH1 0x4 CALLDATALOAD DUP2 MSTORE PUSH1 0x9 PUSH1 0x20 MSTORE PUSH1 0xFF PUSH1 0x40 DUP3 KECCAK256 SLOAD AND PUSH1 0x40 MLOAD SWAP1 PUSH1 0x4 DUP2 LT ISZERO PUSH2 0x7B4 JUMPI PUSH1 0x20 SWAP3 POP DUP2 MSTORE RETURN JUMPDEST PUSH4 0x4E487B71 PUSH1 0xE0 SHL DUP4 MSTORE PUSH1 0x21 PUSH1 0x4 MSTORE PUSH1 0x24 DUP4 REVERT JUMPDEST POP CALLVALUE PUSH2 0x1B5 JUMPI DUP1 PUSH1 0x3 NOT CALLDATASIZE ADD SLT PUSH2 0x1B5 JUMPI PUSH2 0x7E1 PUSH2 0x1CA8 JUMP JUMPDEST PUSH1 0x1 SLOAD PUSH1 0xFF DUP2 AND ISZERO PUSH2 0x821 JUMPI PUSH1 0xFF NOT AND PUSH1 0x1 SSTORE PUSH32 0x5DB9EE0A495BF2E6FF9C91A7834C1BA4FDD244A5E8AA4E537BD38AEAE4B073AA PUSH1 0x20 PUSH1 0x40 MLOAD CALLER DUP2 MSTORE LOG1 DUP1 RETURN JUMPDEST PUSH1 0x40 MLOAD PUSH3 0x461BCD PUSH1 0xE5 SHL DUP2 MSTORE PUSH1 0x20 PUSH1 0x4 DUP3 ADD MSTORE PUSH1 0x14 PUSH1 0x24 DUP3 ADD MSTORE PUSH20 0x14185D5CD8589B194E881B9BDD081C185D5CD959 PUSH1 0x62 SHL PUSH1 0x44 DUP3 ADD MSTORE PUSH1 0x64 SWAP1 REVERT JUMPDEST POP CALLVALUE PUSH2 0x1B5 JUMPI PUSH1 0x20 CALLDATASIZE PUSH1 0x3 NOT ADD SLT PUSH2 0x1B5 JUMPI PUSH1 0x40 PUSH1 0x20 SWAP2 PUSH1 0x4 CALLDATALOAD DUP2 MSTORE PUSH1 0xD DUP4 MSTORE KECCAK256 SLOAD PUSH1 0x40 MLOAD SWAP1 DUP2 MSTORE RETURN JUMPDEST POP PUSH1 0xA0 CALLDATASIZE PUSH1 0x3 NOT ADD SLT PUSH2 0x1B5 JUMPI PUSH2 0x89C PUSH2 0x1C6D JUMP JUMPDEST PUSH2 0x8A4 PUSH2 0x1C83 JUMP JUMPDEST PUSH1 0x84 CALLDATALOAD SWAP2 PUSH2 0xFFFF DUP4 AND DUP4 SUB PUSH2 0xF86 JUMPI PUSH1 0x2 DUP5 SLOAD EQ PUSH2 0x1827 JUMPI PUSH1 0x2 DUP5 SSTORE PUSH2 0x8C8 PUSH2 0x1FA6 JUMP JUMPDEST PUSH1 0x4 CALLDATALOAD DUP5 MSTORE PUSH1 0x8 PUSH1 0x20 MSTORE PUSH1 0xFF PUSH1 0x40 DUP6 KECCAK256 SLOAD AND PUSH2 0x17E2 JUMPI PUSH2 0xFFFF DUP4 AND DUP5 MSTORE PUSH1 0xA PUSH1 0x20 MSTORE PUSH1 0xFF PUSH1 0x40 DUP6 KECCAK256 SLOAD AND ISZERO PUSH2 0x17A9 JUMPI PUSH1 0x1 PUSH1 0x1 PUSH1 0xA0 SHL SUB DUP2 AND ISZERO PUSH2 0x1770 JUMPI PUSH1 0x1 PUSH1 0x1 PUSH1 0xA0 SHL SUB DUP3 AND ISZERO PUSH2 0x1739 JUMPI PUSH1 0x64 CALLDATALOAD ISZERO PUSH2 0x1703 JUMPI PUSH1 0x40 DUP1 MLOAD PUSH1 0x64 CALLDATALOAD DUP2 MSTORE PUSH2 0xFFFF DUP6 AND PUSH1 0x20 DUP3 ADD MSTORE TIMESTAMP SWAP2 DUP2 ADD SWAP2 SWAP1 SWAP2 MSTORE PUSH1 0x1 PUSH1 0x1 PUSH1 0xA0 SHL SUB DUP4 DUP2 AND SWAP2 SWAP1 DUP4 AND SWAP1 PUSH1 0x4 CALLDATALOAD SWAP1 PUSH32 0xF1320F7D28FB68B788C63849A53E88893B5C1042C60FF6758073A85358640E36 SWAP1 PUSH1 0x60 SWAP1 LOG4 GAS PUSH1 0x4 CALLDATALOAD DUP6 MSTORE PUSH1 0x9 PUSH1 0x20 MSTORE PUSH1 0x40 DUP6 KECCAK256 DUP1 SLOAD PUSH1 0xFF NOT AND PUSH1 0x1 OR SWAP1 SSTORE SWAP3 PUSH1 0x1 PUSH1 0x1 PUSH1 0xA0 SHL SUB DUP4 DUP2 AND SWAP1 DUP4 AND SUB PUSH2 0x158A JUMPI JUMPDEST PUSH1 0x7 SLOAD PUSH1 0x40 MLOAD PUSH4 0x3FE33355 PUSH1 0xE1 SHL DUP2 MSTORE PUSH1 0x1 PUSH1 0x1 PUSH1 0xA0 SHL SUB DUP5 DUP2 AND PUSH1 0x4 DUP4 ADD MSTORE DUP6 DUP2 AND PUSH1 0x24 DUP4 ADD MSTORE PUSH1 0x64 DUP1 CALLDATALOAD PUSH1 0x44 DUP5 ADD MSTORE PUSH2 0x2B93 SWAP1 DUP4 ADD MSTORE PUSH2 0xFFFF DUP5 AND PUSH1 0x84 DUP4 ADD MSTORE SWAP1 SWAP3 SWAP2 DUP8 SWAP2 DUP5 SWAP2 PUSH1 0xA4 SWAP2 DUP4 SWAP2 AND GAS STATICCALL SWAP2 DUP3 ISZERO PUSH2 0x157F JUMPI DUP7 SWAP3 PUSH2 0x13E3 JUMPI JUMPDEST POP DUP2 MLOAD MLOAD ISZERO PUSH2 0x13A6 JUMPI PUSH1 0x80 DUP3 ADD MLOAD ISZERO PUSH2 0x136C JUMPI DUP6 SWAP4 DUP5 JUMPDEST DUP4 MLOAD DUP1 MLOAD DUP3 LT ISZERO PUSH2 0xB30 JUMPI PUSH1 0x1 PUSH1 0x1 PUSH1 0xA0 SHL SUB SWAP1 PUSH2 0xA36 SWAP1 DUP4 SWAP1 PUSH2 0x1F31 JUMP JUMPDEST MLOAD PUSH1 0x40 MLOAD PUSH4 0x95EA7B3 PUSH1 0xE0 SHL DUP2 MSTORE SWAP2 AND PUSH1 0x4 DUP3 ADD MSTORE PUSH1 0x24 DUP2 ADD DUP8 SWAP1 MSTORE SWAP1 PUSH1 0x20 DUP3 PUSH1 0x44 DUP2 DUP11 PUSH1 0x1 PUSH1 0x1 PUSH1 0xA0 SHL SUB DUP12 AND GAS CALL SWAP2 DUP3 ISZERO PUSH2 0xB06 JUMPI PUSH2 0xABD SWAP3 PUSH2 0xB11 JUMPI JUMPDEST POP PUSH1 0x20 PUSH1 0x1 DUP1 PUSH1 0xA0 SHL SUB PUSH2 0xA8B DUP4 DUP9 MLOAD PUSH2 0x1F31 JUMP JUMPDEST MLOAD PUSH1 0x40 MLOAD PUSH4 0x95EA7B3 PUSH1 0xE0 SHL DUP2 MSTORE SWAP2 AND PUSH1 0x1 PUSH1 0x1 PUSH1 0xA0 SHL SUB AND PUSH1 0x4 DUP3 ADD MSTORE PUSH1 0x64 CALLDATALOAD PUSH1 0x24 DUP3 ADD MSTORE SWAP3 DUP4 SWAP1 DUP2 SWAP1 PUSH1 0x44 DUP3 ADD SWAP1 JUMP JUMPDEST SUB DUP2 DUP11 PUSH1 0x1 PUSH1 0x1 PUSH1 0xA0 SHL SUB DUP12 AND GAS CALL SWAP2 DUP3 ISZERO PUSH2 0xB06 JUMPI PUSH2 0xAE2 SWAP3 PUSH2 0xAE7 JUMPI JUMPDEST POP PUSH2 0x1ED9 JUMP JUMPDEST PUSH2 0xA17 JUMP JUMPDEST PUSH2 0xAFF SWAP1 PUSH1 0x20 RETURNDATASIZE PUSH1 0x20 GT PUSH2 0x708 JUMPI PUSH2 0x6F9 DUP2 DUP4 PUSH2 0x1BD4 JUMP JUMPDEST POP CODESIZE PUSH2 0xADC JUMP JUMPDEST PUSH1 0x40 MLOAD RETURNDATASIZE DUP10 DUP3 RETURNDATACOPY RETURNDATASIZE SWAP1 REVERT JUMPDEST PUSH2 0xB29 SWAP1 PUSH1 0x20 RETURNDATASIZE PUSH1 0x20 GT PUSH2 0x708 JUMPI PUSH2 0x6F9 DUP2 DUP4 PUSH2 0x1BD4 JUMP JUMPDEST POP CODESIZE PUSH2 0xA76 JUMP JUMPDEST POP POP SWAP4 SWAP5 SWAP1 DUP6 JUMPDEST PUSH1 0x40 DUP5 ADD MLOAD DUP1 MLOAD DUP3 LT ISZERO PUSH2 0xC23 JUMPI PUSH1 0x1 PUSH1 0x1 PUSH1 0xA0 SHL SUB SWAP1 PUSH2 0xB59 SWAP1 DUP4 SWAP1 PUSH2 0x1F31 JUMP JUMPDEST MLOAD PUSH1 0x40 MLOAD PUSH4 0x95EA7B3 PUSH1 0xE0 SHL DUP2 MSTORE SWAP2 AND PUSH1 0x4 DUP3 ADD MSTORE PUSH1 0x24 DUP2 ADD DUP9 SWAP1 MSTORE SWAP1 PUSH1 0x20 DUP3 PUSH1 0x44 DUP2 DUP12 PUSH1 0x1 PUSH1 0x1 PUSH1 0xA0 SHL SUB DUP12 AND GAS CALL SWAP2 DUP3 ISZERO PUSH2 0xBF9 JUMPI PUSH2 0xBB1 SWAP3 PUSH2 0xC04 JUMPI JUMPDEST POP PUSH1 0x20 PUSH1 0x1 DUP1 PUSH1 0xA0 SHL SUB PUSH2 0xA8B DUP4 PUSH1 0x40 DUP10 ADD MLOAD PUSH2 0x1F31 JUMP JUMPDEST SUB DUP2 DUP12 PUSH1 0x1 PUSH1 0x1 PUSH1 0xA0 SHL SUB DUP12 AND GAS CALL SWAP2 DUP3 ISZERO PUSH2 0xBF9 JUMPI PUSH2 0xBD5 SWAP3 PUSH2 0xBDA JUMPI POP PUSH2 0x1ED9 JUMP JUMPDEST PUSH2 0xB37 JUMP JUMPDEST PUSH2 0xBF2 SWAP1 PUSH1 0x20 RETURNDATASIZE PUSH1 0x20 GT PUSH2 0x708 JUMPI PUSH2 0x6F9 DUP2 DUP4 PUSH2 0x1BD4 JUMP JUMPDEST POP DUP9 PUSH2 0xADC JUMP JUMPDEST PUSH1 0x40 MLOAD RETURNDATASIZE DUP11 DUP3 RETURNDATACOPY RETURNDATASIZE SWAP1 REVERT JUMPDEST PUSH2 0xC1C SWAP1 PUSH1 0x20 RETURNDATASIZE PUSH1 0x20 GT PUSH2 0x708 JUMPI PUSH2 0x6F9 DUP2 DUP4 PUSH2 0x1BD4 JUMP JUMPDEST POP DUP9 PUSH2 0xB99 JUMP JUMPDEST DUP5 DUP4 DUP9 DUP7 DUP12 DUP11 PUSH1 0x40 MLOAD PUSH4 0x23B872DD PUSH1 0xE0 SHL DUP2 MSTORE CALLER PUSH1 0x4 DUP3 ADD MSTORE ADDRESS PUSH1 0x24 DUP3 ADD MSTORE PUSH1 0x64 CALLDATALOAD PUSH1 0x44 DUP3 ADD MSTORE PUSH1 0x20 DUP2 PUSH1 0x64 DUP2 DUP7 PUSH1 0x1 DUP1 PUSH1 0xA0 SHL SUB DUP8 AND GAS CALL SWAP1 DUP2 PUSH2 0x134D JUMPI JUMPDEST POP PUSH2 0x1302 JUMPI PUSH1 0x1 PUSH2 0xC72 PUSH2 0x1D1B JUMP JUMPDEST PUSH4 0x8C379A0 EQ PUSH2 0x128D JUMPI JUMPDEST PUSH2 0x1280 JUMPI JUMPDEST PUSH1 0x64 CALLDATALOAD SWAP1 SWAP3 DUP3 JUMPDEST DUP8 MLOAD MLOAD DUP1 DUP3 LT ISZERO PUSH2 0xD0F JUMPI PUSH1 0x1 PUSH1 0x1 PUSH1 0xA0 SHL SUB DUP8 DUP2 AND SWAP1 DUP8 AND SUB PUSH2 0xCB7 JUMPI JUMPDEST POP PUSH2 0xCB2 SWAP1 PUSH2 0x1ED9 JUMP JUMPDEST PUSH2 0xC89 JUMP JUMPDEST DUP2 PUSH2 0xCC6 SWAP2 SWAP7 SWAP4 SWAP5 SWAP3 SWAP7 PUSH2 0x1F99 JUMP JUMPDEST SWAP1 DUP2 ISZERO PUSH2 0xCFB JUMPI PUSH2 0xCEF SWAP3 SWAP2 DUP8 SWAP2 DIV SWAP2 PUSH1 0x1 DUP1 PUSH1 0xA0 SHL SUB PUSH2 0xCE8 DUP9 DUP13 MLOAD PUSH2 0x1F31 JUMP JUMPDEST MLOAD AND PUSH2 0x1FEA JUMP JUMPDEST SWAP1 PUSH2 0xCB2 DUP6 SWAP5 SWAP1 PUSH2 0xCA8 JUMP JUMPDEST PUSH4 0x4E487B71 PUSH1 0xE0 SHL DUP6 MSTORE PUSH1 0x12 PUSH1 0x4 MSTORE PUSH1 0x24 DUP6 REVERT JUMPDEST POP DUP7 SWAP3 SWAP1 POP DUP5 DUP9 DUP6 PUSH2 0xFFFF DUP7 AND PUSH3 0xAA36A7 EQ PUSH2 0x1211 JUMPI POP PUSH1 0x40 DUP2 ADD MLOAD MLOAD ISZERO PUSH2 0x11D3 JUMPI PUSH1 0x40 ADD MLOAD PUSH1 0x1 PUSH1 0x1 PUSH1 0xA0 SHL SUB SWAP1 PUSH2 0xD47 SWAP1 PUSH2 0x1EFE JUMP JUMPDEST MLOAD AND PUSH1 0x4 CALLDATALOAD DUP7 MSTORE PUSH1 0xC PUSH1 0x20 MSTORE PUSH1 0x40 DUP7 KECCAK256 PUSH1 0x1 PUSH1 0xFF NOT DUP3 SLOAD AND OR SWAP1 SSTORE PUSH1 0xD PUSH1 0x20 MSTORE DUP3 PUSH1 0x40 DUP8 KECCAK256 SSTORE PUSH1 0x1 DUP1 PUSH1 0xA0 SHL SUB PUSH1 0x5 SLOAD AND DUP2 EQ PUSH1 0x0 EQ PUSH2 0xFA9 JUMPI POP POP PUSH1 0x5 SLOAD PUSH1 0x1 PUSH1 0x1 PUSH1 0xA0 SHL SUB AND TIMESTAMP PUSH2 0xE10 DUP2 ADD LT PUSH2 0xF95 JUMPI DUP1 DUP6 SWAP2 EXTCODESIZE ISZERO PUSH2 0x754 JUMPI DUP2 PUSH1 0xC4 SWAP2 PUSH1 0x40 MLOAD SWAP3 DUP4 DUP1 SWAP3 PUSH4 0x20BC810B PUSH1 0xE0 SHL DUP3 MSTORE PUSH2 0xFFFF DUP11 AND PUSH1 0x4 DUP4 ADD MSTORE CALLER PUSH1 0x24 DUP4 ADD MSTORE DUP8 PUSH1 0x44 DUP4 ADD MSTORE PUSH2 0xE10 TIMESTAMP ADD PUSH1 0x64 DUP4 ADD MSTORE DUP5 PUSH1 0x84 DUP4 ADD MSTORE DUP5 PUSH1 0xA4 DUP4 ADD MSTORE CALLVALUE SWAP1 GAS CALL DUP1 ISZERO PUSH2 0xF8A JUMPI PUSH2 0xF6E JUMPI JUMPDEST POP POP SWAP1 PUSH3 0x30D40 SWAP3 PUSH2 0xEB0 SWAP3 JUMPDEST PUSH2 0xFFFF PUSH1 0x40 MLOAD SWAP3 AND DUP3 MSTORE CALLER PUSH1 0x20 DUP4 ADD MSTORE PUSH1 0x40 DUP3 ADD MSTORE PUSH32 0x69B9F642C178495C525171AB15766D6CE415DE4784BF5BDF400A70EA64C1EA82 PUSH1 0x60 PUSH1 0x4 CALLDATALOAD SWAP3 LOG2 JUMPDEST PUSH1 0x4 CALLDATALOAD DUP5 MSTORE PUSH1 0x9 PUSH1 0x20 MSTORE PUSH1 0x40 DUP5 KECCAK256 PUSH1 0x2 PUSH1 0xFF NOT DUP3 SLOAD AND OR SWAP1 SSTORE PUSH1 0x4 CALLDATALOAD DUP5 MSTORE PUSH1 0x8 PUSH1 0x20 MSTORE PUSH1 0x40 DUP5 KECCAK256 PUSH1 0x1 PUSH1 0xFF NOT DUP3 SLOAD AND OR SWAP1 SSTORE PUSH1 0x40 MLOAD PUSH1 0x64 CALLDATALOAD DUP2 MSTORE PUSH1 0x1 PUSH1 0x20 DUP3 ADD MSTORE CALLER SWAP1 PUSH32 0x9CC2F110366E4838B312FCC20D40FB5DCE94C3F1ABF5ACBD0D12500E476D8C56 PUSH1 0x40 PUSH1 0x4 CALLDATALOAD SWAP3 LOG3 GAS SWAP1 PUSH2 0x1F99 JUMP JUMPDEST PUSH1 0x40 MLOAD PUSH1 0x1 DUP2 MSTORE DUP2 PUSH1 0x20 DUP3 ADD MSTORE TIMESTAMP PUSH1 0x40 DUP3 ADD MSTORE PUSH32 0x7AB06E9653DE2C903ACFEAE7C9B6B3656223340D039EA57835A01DE742B24475 PUSH1 0x60 PUSH1 0x4 CALLDATALOAD SWAP3 LOG2 GT PUSH2 0xEF8 JUMPI JUMPDEST PUSH1 0x1 DUP2 SSTORE DUP1 RETURN JUMPDEST PUSH1 0x40 MLOAD PUSH1 0x40 DUP2 MSTORE PUSH1 0x24 PUSH1 0x40 DUP3 ADD MSTORE PUSH32 0x436F6E7369646572206261746368696E67206D756C7469706C65207472616E73 PUSH1 0x60 DUP3 ADD MSTORE PUSH4 0x66657273 PUSH1 0xE0 SHL PUSH1 0x80 DUP3 ADD MSTORE PUSH2 0xC350 PUSH1 0x20 DUP3 ADD MSTORE PUSH32 0x3864E0DEFA7C80DD229202BC861503FC48113E82CDC1FB2CAB5E9F486E94D3DB PUSH1 0xA0 PUSH1 0x4 CALLDATALOAD SWAP3 LOG2 PUSH2 0xEF1 JUMP JUMPDEST PUSH2 0xF7A SWAP1 SWAP4 SWAP3 SWAP4 PUSH2 0x1B5A JUMP JUMPDEST PUSH2 0xF86 JUMPI SWAP1 DUP4 DUP6 PUSH2 0xDF3 JUMP JUMPDEST DUP4 DUP1 REVERT JUMPDEST PUSH1 0x40 MLOAD RETURNDATASIZE DUP5 DUP3 RETURNDATACOPY RETURNDATASIZE SWAP1 REVERT JUMPDEST PUSH4 0x4E487B71 PUSH1 0xE0 SHL DUP6 MSTORE PUSH1 0x11 PUSH1 0x4 MSTORE PUSH1 0x24 DUP6 REVERT JUMPDEST PUSH1 0x4 SLOAD PUSH1 0x1 PUSH1 0x1 PUSH1 0xA0 SHL SUB AND SUB PUSH2 0x10B7 JUMPI PUSH1 0x4 SLOAD PUSH1 0x1 PUSH1 0x1 PUSH1 0xA0 SHL SUB AND PUSH2 0xFD8 PUSH2 0xFD2 DUP4 PUSH2 0x2B2D JUMP JUMPDEST SWAP3 PUSH2 0x2B2D JUMP JUMPDEST SWAP2 DUP4 PUSH1 0x5F DUP2 MUL DIV PUSH1 0x5F EQ DUP5 ISZERO OR ISZERO PUSH2 0x10A3 JUMPI SWAP1 DUP7 SWAP3 SWAP2 PUSH1 0x40 MLOAD SWAP2 CALLER PUSH1 0x60 SHL PUSH1 0x20 DUP5 ADD MSTORE PUSH1 0x14 DUP4 MSTORE PUSH2 0x1008 DUP4 PUSH2 0x1B83 JUMP JUMPDEST DUP1 EXTCODESIZE ISZERO PUSH2 0x109F JUMPI PUSH2 0xFFFF DUP9 PUSH2 0x1065 DUP8 SWAP6 PUSH1 0x40 MLOAD SWAP8 DUP9 SWAP7 DUP8 SWAP6 DUP7 SWAP6 PUSH4 0x61A2E773 PUSH1 0xE1 SHL DUP8 MSTORE AND PUSH1 0x4 DUP7 ADD MSTORE PUSH1 0x24 DUP6 ADD MSTORE PUSH1 0x44 DUP5 ADD MSTORE CALLER PUSH1 0x64 DUP5 ADD MSTORE DUP10 PUSH1 0x84 DUP5 ADD MSTORE PUSH1 0x64 PUSH1 0x5F DUP12 MUL DIV PUSH1 0xA4 DUP5 ADD MSTORE PUSH1 0xE0 PUSH1 0xC4 DUP5 ADD MSTORE PUSH1 0xE4 DUP4 ADD SWAP1 PUSH2 0x1E23 JUMP JUMPDEST SUB SWAP2 CALLVALUE SWAP1 GAS CALL DUP1 ISZERO PUSH2 0xF8A JUMPI PUSH2 0x1087 JUMPI JUMPDEST POP POP SWAP1 PUSH3 0x30D40 SWAP3 PUSH2 0xEB0 SWAP3 PUSH2 0xE00 JUMP JUMPDEST PUSH2 0x1093 SWAP1 SWAP4 SWAP3 SWAP4 PUSH2 0x1B5A JUMP JUMPDEST PUSH2 0xF86 JUMPI SWAP1 DUP4 DUP6 PUSH2 0x1076 JUMP JUMPDEST DUP5 DUP1 REVERT JUMPDEST PUSH4 0x4E487B71 PUSH1 0xE0 SHL DUP8 MSTORE PUSH1 0x11 PUSH1 0x4 MSTORE PUSH1 0x24 DUP8 REVERT JUMPDEST POP PUSH1 0x40 DUP1 MLOAD CALLER PUSH1 0x20 DUP3 ADD MSTORE SWAP1 DUP2 ADD DUP3 SWAP1 MSTORE SWAP2 SWAP3 SWAP2 PUSH2 0x10E2 DUP2 PUSH1 0x60 DUP2 ADD JUMPDEST SUB PUSH1 0x1F NOT DUP2 ADD DUP4 MSTORE DUP3 PUSH2 0x1BD4 JUMP JUMPDEST PUSH1 0x6 SLOAD PUSH1 0x40 MLOAD ADDRESS PUSH1 0x60 SHL PUSH1 0x20 DUP3 ADD MSTORE PUSH1 0x14 DUP2 MSTORE DUP7 SWAP2 PUSH1 0x1 PUSH1 0x1 PUSH1 0xA0 SHL SUB AND PUSH2 0x1109 DUP3 PUSH2 0x1B83 JUMP JUMPDEST PUSH1 0x40 MLOAD SWAP4 PUSH2 0x1116 DUP6 PUSH2 0x1B9E JUMP JUMPDEST DUP4 DUP6 MSTORE DUP2 EXTCODESIZE ISZERO PUSH2 0xF86 JUMPI DUP7 PUSH2 0x1189 PUSH2 0x1159 SWAP7 PUSH2 0x116B PUSH2 0xFFFF SWAP5 PUSH1 0x40 MLOAD SWAP10 DUP11 SWAP9 DUP10 SWAP8 DUP9 SWAP8 PUSH3 0xC58031 PUSH1 0xE8 SHL DUP10 MSTORE AND PUSH1 0x4 DUP9 ADD MSTORE PUSH1 0xC0 PUSH1 0x24 DUP9 ADD MSTORE PUSH1 0xC4 DUP8 ADD SWAP1 PUSH2 0x1E23 JUMP JUMPDEST DUP6 DUP2 SUB PUSH1 0x3 NOT ADD PUSH1 0x44 DUP8 ADD MSTORE SWAP1 PUSH2 0x1E23 JUMP JUMPDEST SWAP1 CALLER PUSH1 0x64 DUP6 ADD MSTORE DUP8 PUSH1 0x84 DUP6 ADD MSTORE PUSH1 0x3 NOT DUP5 DUP4 SUB ADD PUSH1 0xA4 DUP6 ADD MSTORE PUSH2 0x1E23 JUMP JUMPDEST SUB SWAP2 CALLVALUE SWAP1 GAS CALL DUP1 ISZERO PUSH2 0x11C8 JUMPI PUSH2 0x11AA JUMPI JUMPDEST POP SWAP2 PUSH2 0xEB0 SWAP2 PUSH3 0x30D40 SWAP4 PUSH2 0xE00 JUMP JUMPDEST SWAP2 PUSH3 0x30D40 SWAP4 SWAP2 SWAP5 PUSH2 0x11BE PUSH2 0xEB0 SWAP5 PUSH2 0x1B5A JUMP JUMPDEST SWAP5 SWAP2 SWAP4 POP SWAP2 PUSH2 0x119A JUMP JUMPDEST PUSH1 0x40 MLOAD RETURNDATASIZE DUP8 DUP3 RETURNDATACOPY RETURNDATASIZE SWAP1 REVERT JUMPDEST PUSH1 0x40 MLOAD PUSH3 0x461BCD PUSH1 0xE5 SHL DUP2 MSTORE PUSH1 0x20 PUSH1 0x4 DUP3 ADD MSTORE PUSH1 0x16 PUSH1 0x24 DUP3 ADD MSTORE PUSH22 0x139BC81D9A58589B1948189C9A5919D948199BDD5B99 PUSH1 0x52 SHL PUSH1 0x44 DUP3 ADD MSTORE PUSH1 0x64 SWAP1 REVERT JUMPDEST PUSH1 0x40 MLOAD PUSH4 0xA9059CBB PUSH1 0xE0 SHL DUP2 MSTORE CALLER PUSH1 0x4 DUP3 ADD MSTORE PUSH1 0x24 DUP2 ADD SWAP5 SWAP1 SWAP5 MSTORE SWAP3 SWAP5 POP PUSH1 0x20 SWAP3 DUP6 SWAP3 PUSH1 0x44 SWAP3 POP DUP4 SWAP2 SWAP1 PUSH1 0x1 PUSH1 0x1 PUSH1 0xA0 SHL SUB AND GAS CALL SWAP1 DUP2 ISZERO PUSH2 0x70F JUMPI PUSH3 0x30D40 SWAP3 PUSH2 0xEB0 SWAP3 PUSH2 0x1261 JUMPI JUMPDEST POP PUSH2 0xE3E JUMP JUMPDEST PUSH2 0x1279 SWAP1 PUSH1 0x20 RETURNDATASIZE PUSH1 0x20 GT PUSH2 0x708 JUMPI PUSH2 0x6F9 DUP2 DUP4 PUSH2 0x1BD4 JUMP JUMPDEST POP DUP5 PUSH2 0x125B JUMP JUMPDEST POP PUSH1 0x40 MLOAD SWAP1 RETURNDATASIZE SWAP1 DUP3 RETURNDATACOPY RETURNDATASIZE SWAP1 REVERT JUMPDEST PUSH2 0x1295 PUSH2 0x1D39 JUMP JUMPDEST DUP1 PUSH2 0x12A0 JUMPI POP PUSH2 0xC7D JUMP JUMPDEST PUSH2 0x12DE PUSH2 0x12FE SWAP2 PUSH1 0x0 DUP1 MLOAD PUSH1 0x20 PUSH2 0x2B96 DUP4 CODECOPY DUP2 MLOAD SWAP2 MSTORE PUSH2 0x12D6 PUSH2 0x12C2 DUP4 PUSH2 0x1F45 JUMP JUMPDEST PUSH1 0x40 MLOAD SWAP2 DUP3 SWAP2 PUSH1 0x20 DUP4 MSTORE PUSH1 0x20 DUP4 ADD SWAP1 PUSH2 0x1E23 JUMP JUMPDEST SUB SWAP1 LOG1 PUSH2 0x1F45 JUMP JUMPDEST PUSH1 0x40 MLOAD PUSH3 0x461BCD PUSH1 0xE5 SHL DUP2 MSTORE PUSH1 0x20 PUSH1 0x4 DUP3 ADD MSTORE SWAP2 DUP3 SWAP2 PUSH1 0x24 DUP4 ADD SWAP1 PUSH2 0x1E23 JUMP JUMPDEST SUB SWAP1 REVERT JUMPDEST PUSH1 0x0 DUP1 MLOAD PUSH1 0x20 PUSH2 0x2B96 DUP4 CODECOPY DUP2 MLOAD SWAP2 MSTORE PUSH1 0x60 PUSH1 0x40 MLOAD PUSH1 0x20 DUP2 MSTORE PUSH1 0x19 PUSH1 0x20 DUP3 ADD MSTORE PUSH32 0x546F6B656E207472616E73666572207375636365737366756C00000000000000 PUSH1 0x40 DUP3 ADD MSTORE LOG1 PUSH2 0xC82 JUMP JUMPDEST PUSH2 0x1365 SWAP1 PUSH1 0x20 RETURNDATASIZE PUSH1 0x20 GT PUSH2 0x708 JUMPI PUSH2 0x6F9 DUP2 DUP4 PUSH2 0x1BD4 JUMP JUMPDEST POP DUP8 PUSH2 0xC63 JUMP JUMPDEST PUSH1 0x40 MLOAD PUSH3 0x461BCD PUSH1 0xE5 SHL DUP2 MSTORE PUSH1 0x20 PUSH1 0x4 DUP3 ADD MSTORE PUSH1 0x12 PUSH1 0x24 DUP3 ADD MSTORE PUSH18 0x16995C9BC81BDD5D1C1D5D08185B5BDD5B9D PUSH1 0x72 SHL PUSH1 0x44 DUP3 ADD MSTORE PUSH1 0x64 SWAP1 REVERT JUMPDEST PUSH1 0x40 MLOAD PUSH3 0x461BCD PUSH1 0xE5 SHL DUP2 MSTORE PUSH1 0x20 PUSH1 0x4 DUP3 ADD MSTORE PUSH1 0x15 PUSH1 0x24 DUP3 ADD MSTORE PUSH21 0x139BC81D9A58589B19481C9BDD5D1948199BDD5B99 PUSH1 0x5A SHL PUSH1 0x44 DUP3 ADD MSTORE PUSH1 0x64 SWAP1 REVERT JUMPDEST SWAP1 SWAP2 POP RETURNDATASIZE DUP1 DUP8 DUP4 RETURNDATACOPY PUSH2 0x13F5 DUP2 DUP4 PUSH2 0x1BD4 JUMP JUMPDEST PUSH1 0x20 DUP3 DUP3 DUP2 ADD SUB SLT PUSH2 0x157B JUMPI DUP2 MLOAD PUSH1 0x1 PUSH1 0x1 PUSH1 0x40 SHL SUB DUP2 GT PUSH2 0x1577 JUMPI PUSH1 0xA0 DUP2 DUP5 ADD DUP4 DUP6 ADD SUB SLT PUSH2 0x1577 JUMPI PUSH1 0x40 MLOAD SWAP3 DUP4 PUSH1 0xA0 DUP2 ADD LT PUSH1 0x1 PUSH1 0x1 PUSH1 0x40 SHL SUB PUSH1 0xA0 DUP7 ADD GT OR PUSH2 0x1563 JUMPI PUSH1 0xA0 DUP5 ADD PUSH1 0x40 MSTORE DUP2 DUP2 ADD MLOAD PUSH1 0x1 PUSH1 0x1 PUSH1 0x40 SHL SUB DUP2 GT PUSH2 0x1536 JUMPI PUSH2 0x1465 SWAP1 DUP5 DUP4 ADD SWAP1 DUP5 DUP5 ADD ADD PUSH2 0x1E73 JUMP JUMPDEST DUP5 MSTORE PUSH1 0x20 DUP3 DUP3 ADD ADD MLOAD PUSH1 0x1 PUSH1 0x1 PUSH1 0x40 SHL SUB DUP2 GT PUSH2 0x1536 JUMPI DUP4 DUP3 ADD PUSH1 0x1F DUP3 DUP6 DUP6 ADD ADD ADD SLT ISZERO PUSH2 0x1536 JUMPI DUP1 DUP4 DUP4 ADD ADD MLOAD SWAP1 PUSH2 0x149D DUP3 PUSH2 0x1E48 JUMP JUMPDEST SWAP2 PUSH2 0x14AB PUSH1 0x40 MLOAD SWAP4 DUP5 PUSH2 0x1BD4 JUMP JUMPDEST DUP1 DUP4 MSTORE PUSH1 0x20 DUP4 ADD SWAP2 DUP7 DUP6 ADD PUSH1 0x20 DUP4 PUSH1 0x5 SHL DUP4 DUP10 DUP10 ADD ADD ADD ADD GT PUSH2 0x155F JUMPI SWAP2 PUSH1 0x20 DUP4 DUP8 DUP8 ADD ADD ADD SWAP3 JUMPDEST PUSH1 0x20 DUP4 PUSH1 0x5 SHL DUP3 DUP10 DUP10 ADD ADD ADD ADD DUP5 LT PUSH2 0x153A JUMPI POP POP POP POP PUSH1 0x20 DUP6 ADD MSTORE PUSH1 0x40 DUP3 DUP3 ADD ADD MLOAD SWAP3 PUSH1 0x1 PUSH1 0x1 PUSH1 0x40 SHL SUB DUP5 GT PUSH2 0x1536 JUMPI PUSH1 0x80 SWAP4 PUSH2 0x1518 SWAP2 DUP4 ADD SWAP1 DUP5 DUP5 ADD ADD PUSH2 0x1E73 JUMP JUMPDEST PUSH1 0x40 DUP6 ADD MSTORE ADD PUSH1 0x60 DUP2 DUP2 ADD MLOAD SWAP1 DUP5 ADD MSTORE ADD MLOAD PUSH1 0x80 DUP3 ADD MSTORE SWAP1 CODESIZE PUSH2 0xA00 JUMP JUMPDEST DUP10 DUP1 REVERT JUMPDEST DUP4 MLOAD SWAP2 PUSH2 0xFFFF DUP4 AND DUP4 SUB PUSH2 0x155B JUMPI PUSH1 0x20 DUP2 DUP2 SWAP5 DUP3 SWAP4 MSTORE ADD SWAP5 ADD SWAP4 SWAP2 POP PUSH2 0x14D3 JUMP JUMPDEST DUP15 DUP1 REVERT JUMPDEST DUP13 DUP1 REVERT JUMPDEST PUSH4 0x4E487B71 PUSH1 0xE0 SHL DUP10 MSTORE PUSH1 0x41 PUSH1 0x4 MSTORE PUSH1 0x24 DUP10 REVERT JUMPDEST DUP8 DUP1 REVERT JUMPDEST DUP7 DUP1 REVERT JUMPDEST PUSH1 0x40 MLOAD RETURNDATASIZE DUP9 DUP3 RETURNDATACOPY RETURNDATASIZE SWAP1 REVERT JUMPDEST PUSH1 0x2 SLOAD PUSH1 0x1 PUSH1 0x1 PUSH1 0xA0 SHL SUB AND DUP1 DUP7 MSTORE PUSH1 0xB PUSH1 0x20 MSTORE PUSH1 0x40 DUP7 KECCAK256 SLOAD PUSH1 0xFF AND ISZERO PUSH2 0x16BE JUMPI PUSH1 0x40 MLOAD PUSH4 0x95EA7B3 PUSH1 0xE0 SHL DUP2 MSTORE PUSH1 0x1 PUSH1 0x1 PUSH1 0xA0 SHL SUB SWAP1 SWAP2 AND PUSH1 0x4 DUP3 ADD MSTORE PUSH1 0x64 CALLDATALOAD PUSH1 0x24 DUP3 ADD MSTORE PUSH1 0x20 DUP2 DUP1 PUSH1 0x44 DUP2 ADD SUB DUP2 DUP10 PUSH1 0x1 PUSH1 0x1 PUSH1 0xA0 SHL SUB DUP9 AND GAS CALL SWAP1 DUP2 PUSH2 0x169F JUMPI JUMPDEST POP PUSH2 0x165F JUMPI PUSH1 0x1 PUSH2 0x15FD PUSH2 0x1D1B JUMP JUMPDEST PUSH4 0x8C379A0 EQ PUSH2 0x1622 JUMPI JUMPDEST PUSH2 0x1617 JUMPI PUSH1 0xA4 SWAP1 JUMPDEST SWAP1 POP PUSH2 0x9A1 JUMP JUMPDEST PUSH1 0x40 MLOAD RETURNDATASIZE DUP7 DUP3 RETURNDATACOPY RETURNDATASIZE SWAP1 REVERT JUMPDEST PUSH2 0x162A PUSH2 0x1D39 JUMP JUMPDEST DUP1 PUSH2 0x1635 JUMPI POP PUSH2 0x1608 JUMP JUMPDEST PUSH2 0x12DE PUSH2 0x12FE SWAP2 PUSH1 0x0 DUP1 MLOAD PUSH1 0x20 PUSH2 0x2B96 DUP4 CODECOPY DUP2 MLOAD SWAP2 MSTORE PUSH2 0x1657 PUSH2 0x12C2 DUP4 PUSH2 0x1DCD JUMP JUMPDEST SUB SWAP1 LOG1 PUSH2 0x1DCD JUMP JUMPDEST PUSH1 0xA4 SWAP1 PUSH1 0x0 DUP1 MLOAD PUSH1 0x20 PUSH2 0x2B96 DUP4 CODECOPY DUP2 MLOAD SWAP2 MSTORE PUSH1 0x60 PUSH1 0x40 MLOAD PUSH1 0x20 DUP2 MSTORE PUSH1 0xF PUSH1 0x20 DUP3 ADD MSTORE PUSH15 0x149BDD5D195C88185C1C1C9BDD9959 PUSH1 0x8A SHL PUSH1 0x40 DUP3 ADD MSTORE LOG1 PUSH2 0x1610 JUMP JUMPDEST PUSH2 0x16B7 SWAP1 PUSH1 0x20 RETURNDATASIZE PUSH1 0x20 GT PUSH2 0x708 JUMPI PUSH2 0x6F9 DUP2 DUP4 PUSH2 0x1BD4 JUMP JUMPDEST POP CODESIZE PUSH2 0x15EE JUMP JUMPDEST PUSH1 0x40 MLOAD PUSH3 0x461BCD PUSH1 0xE5 SHL DUP2 MSTORE PUSH1 0x20 PUSH1 0x4 DUP3 ADD MSTORE PUSH1 0x1C PUSH1 0x24 DUP3 ADD MSTORE PUSH32 0x556E697377617020726F75746572206E6F7420737570706F7274656400000000 PUSH1 0x44 DUP3 ADD MSTORE PUSH1 0x64 SWAP1 REVERT JUMPDEST PUSH1 0x40 MLOAD PUSH3 0x461BCD PUSH1 0xE5 SHL DUP2 MSTORE PUSH1 0x20 PUSH1 0x4 DUP3 ADD MSTORE PUSH1 0xE PUSH1 0x24 DUP3 ADD MSTORE PUSH14 0x125B9D985B1A5908185B5BDD5B9D PUSH1 0x92 SHL PUSH1 0x44 DUP3 ADD MSTORE PUSH1 0x64 SWAP1 REVERT JUMPDEST PUSH1 0x40 MLOAD PUSH3 0x461BCD PUSH1 0xE5 SHL DUP2 MSTORE PUSH1 0x20 PUSH1 0x4 DUP3 ADD MSTORE PUSH1 0xF PUSH1 0x24 DUP3 ADD MSTORE PUSH15 0x24B73B30B634B2103A37AA37B5B2B7 PUSH1 0x89 SHL PUSH1 0x44 DUP3 ADD MSTORE PUSH1 0x64 SWAP1 REVERT JUMPDEST PUSH1 0x40 MLOAD PUSH3 0x461BCD PUSH1 0xE5 SHL DUP2 MSTORE PUSH1 0x20 PUSH1 0x4 DUP3 ADD MSTORE PUSH1 0x11 PUSH1 0x24 DUP3 ADD MSTORE PUSH17 0x24B73B30B634B210333937B6AA37B5B2B7 PUSH1 0x79 SHL PUSH1 0x44 DUP3 ADD MSTORE PUSH1 0x64 SWAP1 REVERT JUMPDEST PUSH1 0x40 MLOAD PUSH3 0x461BCD PUSH1 0xE5 SHL DUP2 MSTORE PUSH1 0x20 PUSH1 0x4 DUP3 ADD MSTORE PUSH1 0x11 PUSH1 0x24 DUP3 ADD MSTORE PUSH17 0x2AB739BAB83837B93A32B21031B430B4B7 PUSH1 0x79 SHL PUSH1 0x44 DUP3 ADD MSTORE PUSH1 0x64 SWAP1 REVERT JUMPDEST PUSH1 0x40 MLOAD PUSH3 0x461BCD PUSH1 0xE5 SHL DUP2 MSTORE PUSH1 0x20 PUSH1 0x4 DUP3 ADD MSTORE PUSH1 0x18 PUSH1 0x24 DUP3 ADD MSTORE PUSH32 0x496E74656E7420616C72656164792070726F6365737365640000000000000000 PUSH1 0x44 DUP3 ADD MSTORE PUSH1 0x64 SWAP1 REVERT JUMPDEST PUSH1 0x40 MLOAD PUSH3 0x461BCD PUSH1 0xE5 SHL DUP2 MSTORE PUSH1 0x20 PUSH1 0x4 DUP3 ADD MSTORE PUSH1 0x1F PUSH1 0x24 DUP3 ADD MSTORE PUSH32 0x5265656E7472616E637947756172643A207265656E7472616E742063616C6C00 PUSH1 0x44 DUP3 ADD MSTORE PUSH1 0x64 SWAP1 REVERT JUMPDEST POP CALLVALUE PUSH2 0x1B5 JUMPI DUP1 PUSH1 0x3 NOT CALLDATASIZE ADD SLT PUSH2 0x1B5 JUMPI PUSH1 0x3 SLOAD PUSH1 0x40 MLOAD PUSH1 0x1 PUSH1 0x1 PUSH1 0xA0 SHL SUB SWAP1 SWAP2 AND DUP2 MSTORE PUSH1 0x20 SWAP1 RETURN JUMPDEST POP CALLVALUE PUSH2 0x1B5 JUMPI PUSH1 0x20 CALLDATASIZE PUSH1 0x3 NOT ADD SLT PUSH2 0x1B5 JUMPI PUSH1 0xFF PUSH1 0x40 PUSH1 0x20 SWAP3 PUSH2 0xFFFF PUSH2 0x18B9 PUSH2 0x1B49 JUMP JUMPDEST AND DUP2 MSTORE PUSH1 0xA DUP5 MSTORE KECCAK256 SLOAD AND PUSH1 0x40 MLOAD SWAP1 ISZERO ISZERO DUP2 MSTORE RETURN JUMPDEST POP CALLVALUE PUSH2 0x1B5 JUMPI PUSH1 0xA0 CALLDATASIZE PUSH1 0x3 NOT ADD SLT PUSH2 0x1B5 JUMPI PUSH2 0x18E7 PUSH2 0x1C57 JUMP JUMPDEST PUSH2 0x18EF PUSH2 0x1C6D JUMP JUMPDEST SWAP1 PUSH2 0x18F8 PUSH2 0x1C83 JUMP JUMPDEST PUSH1 0x1 PUSH1 0x1 PUSH1 0xA0 SHL SUB PUSH1 0x64 CALLDATALOAD DUP2 DUP2 AND SWAP3 SWAP1 DUP4 SWAP1 SUB PUSH2 0x196B JUMPI PUSH1 0x84 CALLDATALOAD SWAP5 DUP3 DUP7 AND DUP1 SWAP7 SUB PUSH2 0x157B JUMPI DUP3 SWAP1 PUSH2 0x1927 PUSH2 0x1CA8 JUMP JUMPDEST DUP2 PUSH12 0xFFFFFFFFFFFFFFFFFFFFFFFF PUSH1 0xA0 SHL SWAP7 AND DUP7 PUSH1 0x2 SLOAD AND OR PUSH1 0x2 SSTORE AND DUP5 PUSH1 0x3 SLOAD AND OR PUSH1 0x3 SSTORE AND DUP3 PUSH1 0x4 SLOAD AND OR PUSH1 0x4 SSTORE DUP2 PUSH1 0x5 SLOAD AND OR PUSH1 0x5 SSTORE PUSH1 0x6 SLOAD AND OR PUSH1 0x6 SSTORE DUP1 RETURN JUMPDEST DUP6 DUP1 REVERT JUMPDEST POP CALLVALUE PUSH2 0x1B5 JUMPI DUP1 PUSH1 0x3 NOT CALLDATASIZE ADD SLT PUSH2 0x1B5 JUMPI PUSH1 0x6 SLOAD PUSH1 0x40 MLOAD PUSH1 0x1 PUSH1 0x1 PUSH1 0xA0 SHL SUB SWAP1 SWAP2 AND DUP2 MSTORE PUSH1 0x20 SWAP1 RETURN JUMPDEST POP CALLVALUE PUSH2 0x1B5 JUMPI PUSH1 0x80 CALLDATASIZE PUSH1 0x3 NOT ADD SLT PUSH2 0x1B5 JUMPI PUSH2 0x19B2 PUSH2 0x1B49 JUMP JUMPDEST POP PUSH1 0x1 PUSH1 0x1 PUSH1 0x40 SHL SUB PUSH1 0x24 CALLDATALOAD DUP2 DUP2 GT PUSH2 0x3D6 JUMPI PUSH2 0x19D3 SWAP1 CALLDATASIZE SWAP1 PUSH1 0x4 ADD PUSH2 0x1C10 JUMP JUMPDEST POP PUSH1 0x44 CALLDATALOAD DUP2 DUP2 AND SUB PUSH2 0x754 JUMPI PUSH1 0x64 CALLDATALOAD SWAP1 DUP2 GT PUSH2 0x754 JUMPI PUSH2 0x19F7 SWAP1 CALLDATASIZE SWAP1 PUSH1 0x4 ADD PUSH2 0x1C10 JUMP JUMPDEST PUSH1 0x6 SLOAD PUSH1 0x1 PUSH1 0x1 PUSH1 0xA0 SHL SUB AND CALLER SUB PUSH2 0x1B11 JUMPI PUSH1 0x40 DUP2 DUP1 MLOAD DUP2 ADD SUB SLT PUSH2 0x754 JUMPI PUSH1 0x20 PUSH1 0x40 DUP2 DUP4 ADD MLOAD SWAP3 ADD MLOAD DUP3 DUP5 MSTORE PUSH1 0xC DUP3 MSTORE PUSH1 0xFF PUSH1 0x40 DUP6 KECCAK256 SLOAD AND ISZERO PUSH2 0x1AD3 JUMPI DUP3 DUP5 MSTORE PUSH1 0xD DUP3 MSTORE PUSH1 0x40 DUP5 KECCAK256 SLOAD SUB PUSH2 0x1A9D JUMPI PUSH1 0x60 PUSH32 0x7AB06E9653DE2C903ACFEAE7C9B6B3656223340D039EA57835A01DE742B24475 SWAP2 DUP4 DUP6 MSTORE PUSH1 0xC DUP2 MSTORE PUSH1 0x40 DUP6 KECCAK256 PUSH1 0xFF NOT DUP2 SLOAD AND SWAP1 SSTORE PUSH1 0xD DUP2 MSTORE DUP5 PUSH1 0x40 DUP2 KECCAK256 SSTORE DUP5 PUSH1 0x40 MLOAD SWAP2 PUSH1 0x1 DUP4 MSTORE DUP3 ADD MSTORE TIMESTAMP PUSH1 0x40 DUP3 ADD MSTORE LOG2 DUP1 RETURN JUMPDEST PUSH1 0x64 SWAP1 PUSH1 0x40 MLOAD SWAP1 PUSH3 0x461BCD PUSH1 0xE5 SHL DUP3 MSTORE PUSH1 0x4 DUP3 ADD MSTORE PUSH1 0xF PUSH1 0x24 DUP3 ADD MSTORE PUSH15 0x82DADEEADCE840DAD2E6DAC2E8C6D PUSH1 0x8B SHL PUSH1 0x44 DUP3 ADD MSTORE REVERT JUMPDEST PUSH1 0x40 MLOAD PUSH3 0x461BCD PUSH1 0xE5 SHL DUP2 MSTORE PUSH1 0x4 DUP2 ADD DUP4 SWAP1 MSTORE PUSH1 0x16 PUSH1 0x24 DUP3 ADD MSTORE PUSH22 0x2737903832B73234B733903A3930B739B0B1BA34B7B7 PUSH1 0x51 SHL PUSH1 0x44 DUP3 ADD MSTORE PUSH1 0x64 SWAP1 REVERT JUMPDEST PUSH1 0x40 MLOAD PUSH3 0x461BCD PUSH1 0xE5 SHL DUP2 MSTORE PUSH1 0x20 PUSH1 0x4 DUP3 ADD MSTORE PUSH1 0x10 PUSH1 0x24 DUP3 ADD MSTORE PUSH16 0x125B9D985B1A5908195B991C1BDA5B9D PUSH1 0x82 SHL PUSH1 0x44 DUP3 ADD MSTORE PUSH1 0x64 SWAP1 REVERT JUMPDEST PUSH1 0x4 CALLDATALOAD SWAP1 PUSH2 0xFFFF DUP3 AND DUP3 SUB PUSH2 0x748 JUMPI JUMP JUMPDEST PUSH1 0x1 PUSH1 0x1 PUSH1 0x40 SHL SUB DUP2 GT PUSH2 0x1B6D JUMPI PUSH1 0x40 MSTORE JUMP JUMPDEST PUSH4 0x4E487B71 PUSH1 0xE0 SHL PUSH1 0x0 MSTORE PUSH1 0x41 PUSH1 0x4 MSTORE PUSH1 0x24 PUSH1 0x0 REVERT JUMPDEST PUSH1 0x40 DUP2 ADD SWAP1 DUP2 LT PUSH1 0x1 PUSH1 0x1 PUSH1 0x40 SHL SUB DUP3 GT OR PUSH2 0x1B6D JUMPI PUSH1 0x40 MSTORE JUMP JUMPDEST PUSH1 0x20 DUP2 ADD SWAP1 DUP2 LT PUSH1 0x1 PUSH1 0x1 PUSH1 0x40 SHL SUB DUP3 GT OR PUSH2 0x1B6D JUMPI PUSH1 0x40 MSTORE JUMP JUMPDEST PUSH1 0x60 DUP2 ADD SWAP1 DUP2 LT PUSH1 0x1 PUSH1 0x1 PUSH1 0x40 SHL SUB DUP3 GT OR PUSH2 0x1B6D JUMPI PUSH1 0x40 MSTORE JUMP JUMPDEST SWAP1 PUSH1 0x1F DUP1 NOT SWAP2 ADD AND DUP2 ADD SWAP1 DUP2 LT PUSH1 0x1 PUSH1 0x1 PUSH1 0x40 SHL SUB DUP3 GT OR PUSH2 0x1B6D JUMPI PUSH1 0x40 MSTORE JUMP JUMPDEST PUSH1 0x1 PUSH1 0x1 PUSH1 0x40 SHL SUB DUP2 GT PUSH2 0x1B6D JUMPI PUSH1 0x1F ADD PUSH1 0x1F NOT AND PUSH1 0x20 ADD SWAP1 JUMP JUMPDEST DUP2 PUSH1 0x1F DUP3 ADD SLT ISZERO PUSH2 0x748 JUMPI DUP1 CALLDATALOAD SWAP1 PUSH2 0x1C27 DUP3 PUSH2 0x1BF5 JUMP JUMPDEST SWAP3 PUSH2 0x1C35 PUSH1 0x40 MLOAD SWAP5 DUP6 PUSH2 0x1BD4 JUMP JUMPDEST DUP3 DUP5 MSTORE PUSH1 0x20 DUP4 DUP4 ADD ADD GT PUSH2 0x748 JUMPI DUP2 PUSH1 0x0 SWAP3 PUSH1 0x20 DUP1 SWAP4 ADD DUP4 DUP7 ADD CALLDATACOPY DUP4 ADD ADD MSTORE SWAP1 JUMP JUMPDEST PUSH1 0x4 CALLDATALOAD SWAP1 PUSH1 0x1 PUSH1 0x1 PUSH1 0xA0 SHL SUB DUP3 AND DUP3 SUB PUSH2 0x748 JUMPI JUMP JUMPDEST PUSH1 0x24 CALLDATALOAD SWAP1 PUSH1 0x1 PUSH1 0x1 PUSH1 0xA0 SHL SUB DUP3 AND DUP3 SUB PUSH2 0x748 JUMPI JUMP JUMPDEST PUSH1 0x44 CALLDATALOAD SWAP1 PUSH1 0x1 PUSH1 0x1 PUSH1 0xA0 SHL SUB DUP3 AND DUP3 SUB PUSH2 0x748 JUMPI JUMP JUMPDEST PUSH1 0x24 CALLDATALOAD SWAP1 DUP2 ISZERO ISZERO DUP3 SUB PUSH2 0x748 JUMPI JUMP JUMPDEST PUSH1 0x1 SLOAD PUSH1 0x8 SHR PUSH1 0x1 PUSH1 0x1 PUSH1 0xA0 SHL SUB AND CALLER SUB PUSH2 0x1CBF JUMPI JUMP JUMPDEST PUSH1 0x64 PUSH1 0x40 MLOAD PUSH3 0x461BCD PUSH1 0xE5 SHL DUP2 MSTORE PUSH1 0x20 PUSH1 0x4 DUP3 ADD MSTORE PUSH1 0x20 PUSH1 0x24 DUP3 ADD MSTORE PUSH32 0x4F776E61626C653A2063616C6C6572206973206E6F7420746865206F776E6572 PUSH1 0x44 DUP3 ADD MSTORE REVERT JUMPDEST SWAP1 DUP2 PUSH1 0x20 SWAP2 SUB SLT PUSH2 0x748 JUMPI MLOAD DUP1 ISZERO ISZERO DUP2 SUB PUSH2 0x748 JUMPI SWAP1 JUMP JUMPDEST PUSH1 0x0 SWAP1 PUSH1 0x3 RETURNDATASIZE GT PUSH2 0x1D28 JUMPI JUMP JUMPDEST SWAP1 POP PUSH1 0x4 PUSH1 0x0 DUP1 RETURNDATACOPY PUSH1 0x0 MLOAD PUSH1 0xE0 SHR SWAP1 JUMP JUMPDEST PUSH1 0x0 PUSH1 0x44 RETURNDATASIZE LT PUSH2 0x1D96 JUMPI PUSH1 0x40 MLOAD PUSH1 0x3 NOT SWAP2 RETURNDATASIZE DUP4 ADD PUSH1 0x4 DUP4 RETURNDATACOPY DUP2 MLOAD PUSH1 0x1 PUSH1 0x1 PUSH1 0x40 SHL SUB SWAP2 DUP3 DUP3 GT RETURNDATASIZE PUSH1 0x24 DUP5 ADD GT OR PUSH2 0x1D99 JUMPI DUP2 DUP5 ADD SWAP5 DUP6 MLOAD SWAP4 DUP5 GT PUSH2 0x1DA1 JUMPI RETURNDATASIZE DUP6 ADD ADD PUSH1 0x20 DUP5 DUP8 ADD ADD GT PUSH2 0x1D99 JUMPI POP PUSH2 0x1D96 SWAP3 SWAP2 ADD PUSH1 0x20 ADD SWAP1 PUSH2 0x1BD4 JUMP JUMPDEST SWAP1 JUMP JUMPDEST SWAP5 SWAP4 POP POP POP POP JUMP JUMPDEST POP SWAP5 SWAP4 POP POP POP POP JUMP JUMPDEST PUSH1 0x0 JUMPDEST DUP4 DUP2 LT PUSH2 0x1DBD JUMPI POP POP PUSH1 0x0 SWAP2 ADD MSTORE JUMP JUMPDEST DUP2 DUP2 ADD MLOAD DUP4 DUP3 ADD MSTORE PUSH1 0x20 ADD PUSH2 0x1DAD JUMP JUMPDEST SWAP1 PUSH2 0x1E21 PUSH1 0x38 PUSH1 0x40 MLOAD DUP1 SWAP5 PUSH32 0x526F7574657220617070726F76616C206661696C65643A200000000000000000 PUSH1 0x20 DUP4 ADD MSTORE PUSH2 0x1E11 DUP2 MLOAD DUP1 SWAP3 PUSH1 0x20 DUP7 DUP7 ADD SWAP2 ADD PUSH2 0x1DAA JUMP JUMPDEST DUP2 ADD SUB PUSH1 0x18 DUP2 ADD DUP6 MSTORE ADD DUP4 PUSH2 0x1BD4 JUMP JUMPDEST JUMP JUMPDEST SWAP1 PUSH1 0x20 SWAP2 PUSH2 0x1E3C DUP2 MLOAD DUP1 SWAP3 DUP2 DUP6 MSTORE DUP6 DUP1 DUP7 ADD SWAP2 ADD PUSH2 0x1DAA JUMP JUMPDEST PUSH1 0x1F ADD PUSH1 0x1F NOT AND ADD ADD SWAP1 JUMP JUMPDEST PUSH1 0x1 PUSH1 0x1 PUSH1 0x40 SHL SUB DUP2 GT PUSH2 0x1B6D JUMPI PUSH1 0x5 SHL PUSH1 0x20 ADD SWAP1 JUMP JUMPDEST MLOAD SWAP1 PUSH1 0x1 PUSH1 0x1 PUSH1 0xA0 SHL SUB DUP3 AND DUP3 SUB PUSH2 0x748 JUMPI JUMP JUMPDEST DUP2 PUSH1 0x1F DUP3 ADD SLT ISZERO PUSH2 0x748 JUMPI DUP1 MLOAD SWAP2 PUSH2 0x1E8A DUP4 PUSH2 0x1E48 JUMP JUMPDEST SWAP3 PUSH2 0x1E98 PUSH1 0x40 MLOAD SWAP5 DUP6 PUSH2 0x1BD4 JUMP JUMPDEST DUP1 DUP5 MSTORE PUSH1 0x20 SWAP3 DUP4 DUP1 DUP7 ADD SWAP3 PUSH1 0x5 SHL DUP3 ADD ADD SWAP3 DUP4 GT PUSH2 0x748 JUMPI DUP4 ADD SWAP1 JUMPDEST DUP3 DUP3 LT PUSH2 0x1EC2 JUMPI POP POP POP POP SWAP1 JUMP JUMPDEST DUP4 DUP1 SWAP2 PUSH2 0x1ECE DUP5 PUSH2 0x1E5F JUMP JUMPDEST DUP2 MSTORE ADD SWAP2 ADD SWAP1 PUSH2 0x1EB4 JUMP JUMPDEST PUSH1 0x0 NOT DUP2 EQ PUSH2 0x1EE8 JUMPI PUSH1 0x1 ADD SWAP1 JUMP JUMPDEST PUSH4 0x4E487B71 PUSH1 0xE0 SHL PUSH1 0x0 MSTORE PUSH1 0x11 PUSH1 0x4 MSTORE PUSH1 0x24 PUSH1 0x0 REVERT JUMPDEST DUP1 MLOAD ISZERO PUSH2 0x1F0B JUMPI PUSH1 0x20 ADD SWAP1 JUMP JUMPDEST PUSH4 0x4E487B71 PUSH1 0xE0 SHL PUSH1 0x0 MSTORE PUSH1 0x32 PUSH1 0x4 MSTORE PUSH1 0x24 PUSH1 0x0 REVERT JUMPDEST DUP1 MLOAD PUSH1 0x1 LT ISZERO PUSH2 0x1F0B JUMPI PUSH1 0x40 ADD SWAP1 JUMP JUMPDEST DUP1 MLOAD DUP3 LT ISZERO PUSH2 0x1F0B JUMPI PUSH1 0x20 SWAP2 PUSH1 0x5 SHL ADD ADD SWAP1 JUMP JUMPDEST SWAP1 PUSH2 0x1E21 PUSH1 0x37 PUSH1 0x40 MLOAD DUP1 SWAP5 PUSH32 0x546F6B656E207472616E73666572206661696C65643A20000000000000000000 PUSH1 0x20 DUP4 ADD MSTORE PUSH2 0x1F89 DUP2 MLOAD DUP1 SWAP3 PUSH1 0x20 DUP7 DUP7 ADD SWAP2 ADD PUSH2 0x1DAA JUMP JUMPDEST DUP2 ADD SUB PUSH1 0x17 DUP2 ADD DUP6 MSTORE ADD DUP4 PUSH2 0x1BD4 JUMP JUMPDEST SWAP2 SWAP1 DUP3 SUB SWAP2 DUP3 GT PUSH2 0x1EE8 JUMPI JUMP JUMPDEST PUSH1 0xFF PUSH1 0x1 SLOAD AND PUSH2 0x1FB2 JUMPI JUMP JUMPDEST PUSH1 0x40 MLOAD PUSH3 0x461BCD PUSH1 0xE5 SHL DUP2 MSTORE PUSH1 0x20 PUSH1 0x4 DUP3 ADD MSTORE PUSH1 0x10 PUSH1 0x24 DUP3 ADD MSTORE PUSH16 0x14185D5CD8589B194E881C185D5CD959 PUSH1 0x82 SHL PUSH1 0x44 DUP3 ADD MSTORE PUSH1 0x64 SWAP1 REVERT JUMPDEST PUSH1 0x2 SLOAD SWAP3 SWAP5 SWAP4 SWAP2 SWAP3 PUSH1 0x1 PUSH1 0x1 PUSH1 0xA0 SHL SUB SWAP2 DUP3 AND SWAP2 AND DUP2 SUB PUSH2 0x2753 JUMPI POP PUSH1 0x2 SLOAD PUSH1 0x40 MLOAD PUSH4 0xC45A0155 PUSH1 0xE0 SHL DUP2 MSTORE SWAP5 SWAP1 PUSH1 0x1 PUSH1 0x1 PUSH1 0xA0 SHL SUB AND PUSH1 0x20 DUP7 PUSH1 0x4 DUP2 DUP5 GAS STATICCALL SWAP6 DUP7 ISZERO PUSH2 0x250E JUMPI PUSH1 0x0 SWAP7 PUSH2 0x2714 JUMPI JUMPDEST POP PUSH1 0x40 MLOAD PUSH4 0xE6A43905 PUSH1 0xE0 SHL DUP2 MSTORE PUSH1 0x1 PUSH1 0x1 PUSH1 0xA0 SHL SUB DUP6 DUP2 AND PUSH1 0x4 DUP4 ADD MSTORE DUP4 DUP2 AND PUSH1 0x24 DUP4 ADD MSTORE SWAP1 SWAP7 PUSH1 0x20 SWAP2 DUP9 SWAP2 PUSH1 0x44 SWAP2 DUP4 SWAP2 AND GAS STATICCALL SWAP6 DUP7 ISZERO PUSH2 0x250E JUMPI PUSH1 0x0 SWAP7 PUSH2 0x26D8 JUMPI JUMPDEST POP PUSH1 0x40 MLOAD SWAP6 PUSH2 0x208B DUP8 PUSH2 0x1B83 JUMP JUMPDEST PUSH1 0x10 DUP8 MSTORE PUSH16 0x181899199A1A9B1B9C1CB0B131B232B3 PUSH1 0x81 SHL PUSH1 0x20 DUP9 ADD MSTORE PUSH1 0x40 MLOAD SWAP7 PUSH2 0x20B5 DUP9 PUSH2 0x1BB9 JUMP JUMPDEST PUSH1 0x2A DUP9 MSTORE PUSH1 0x40 CALLDATASIZE PUSH1 0x20 DUP11 ADD CALLDATACOPY DUP8 MLOAD ISZERO PUSH2 0x1F0B JUMPI PUSH1 0x30 PUSH1 0x20 DUP10 ADD MSTORE8 DUP8 MLOAD PUSH1 0x1 LT ISZERO PUSH2 0x1F0B JUMPI PUSH1 0x78 PUSH1 0x21 DUP10 ADD MSTORE8 PUSH1 0x0 JUMPDEST PUSH1 0x14 DUP2 LT PUSH2 0x2610 JUMPI POP POP PUSH2 0x215A SWAP6 SWAP7 PUSH2 0x2136 PUSH1 0x2E PUSH1 0x40 MLOAD DUP1 SWAP4 PUSH14 0x2830B4B91030B2323932B9B99D1 PUSH1 0x95 SHL PUSH1 0x20 DUP4 ADD MSTORE PUSH2 0x2126 DUP2 MLOAD DUP1 SWAP3 PUSH1 0x20 DUP7 DUP7 ADD SWAP2 ADD PUSH2 0x1DAA JUMP JUMPDEST DUP2 ADD SUB PUSH1 0xE DUP2 ADD DUP5 MSTORE ADD DUP3 PUSH2 0x1BD4 JUMP JUMPDEST PUSH1 0x40 MLOAD PUSH1 0x20 DUP2 MSTORE DUP1 PUSH1 0x0 DUP1 MLOAD PUSH1 0x20 PUSH2 0x2B96 DUP4 CODECOPY DUP2 MLOAD SWAP2 MSTORE SWAP9 DUP10 SWAP4 PUSH1 0x20 DUP4 ADD SWAP1 PUSH2 0x1E23 JUMP JUMPDEST SUB SWAP1 LOG1 PUSH1 0x1 PUSH1 0x1 PUSH1 0xA0 SHL SUB AND ISZERO PUSH2 0x2593 JUMPI PUSH1 0x40 MLOAD SWAP5 PUSH2 0x2178 DUP7 PUSH2 0x1BB9 JUMP JUMPDEST PUSH1 0x2 DUP7 MSTORE PUSH1 0x40 CALLDATASIZE PUSH1 0x20 DUP9 ADD CALLDATACOPY PUSH1 0x1 PUSH1 0x1 PUSH1 0xA0 SHL SUB DUP6 AND PUSH2 0x2197 DUP8 PUSH2 0x1EFE JUMP JUMPDEST MSTORE PUSH1 0x1 PUSH1 0x1 PUSH1 0xA0 SHL SUB DUP4 AND PUSH2 0x21AB DUP8 PUSH2 0x1F21 JUMP JUMPDEST MSTORE PUSH1 0x40 MLOAD PUSH4 0x313CE567 PUSH1 0xE0 SHL DUP1 DUP3 MSTORE PUSH1 0x20 DUP3 PUSH1 0x4 DUP2 PUSH1 0x1 PUSH1 0x1 PUSH1 0xA0 SHL SUB DUP12 AND GAS STATICCALL SWAP2 DUP3 ISZERO PUSH2 0x250E JUMPI PUSH1 0x0 SWAP3 PUSH2 0x2572 JUMPI JUMPDEST POP PUSH1 0x40 MLOAD SWAP1 DUP2 MSTORE PUSH1 0x20 DUP2 PUSH1 0x4 DUP2 PUSH1 0x1 PUSH1 0x1 PUSH1 0xA0 SHL SUB DUP10 AND GAS STATICCALL SWAP1 DUP2 ISZERO PUSH2 0x250E JUMPI PUSH1 0xFF PUSH2 0x22B0 SWAP3 DUP6 DUP1 SWAP6 PUSH2 0x226D SWAP5 PUSH1 0x0 SWAP4 PUSH2 0x2537 JUMPI JUMPDEST POP PUSH2 0x221F DUP5 PUSH2 0x2264 SWAP3 AND PUSH2 0x2A54 JUMP JUMPDEST PUSH2 0x12C2 PUSH1 0x2F PUSH1 0x40 MLOAD DUP1 SWAP4 PUSH15 0x233937B6903232B1B4B6B0B6399D1 PUSH1 0x8D SHL PUSH1 0x20 DUP4 ADD MSTORE PUSH2 0x2254 DUP2 MLOAD DUP1 SWAP3 PUSH1 0x20 DUP7 DUP7 ADD SWAP2 ADD PUSH2 0x1DAA JUMP JUMPDEST DUP2 ADD SUB PUSH1 0xF DUP2 ADD DUP5 MSTORE ADD DUP3 PUSH2 0x1BD4 JUMP JUMPDEST SUB SWAP1 LOG1 AND PUSH2 0x2A54 JUMP JUMPDEST PUSH2 0x12C2 PUSH1 0x2D PUSH1 0x40 MLOAD DUP1 SWAP4 PUSH13 0x2A37903232B1B4B6B0B6399D1 PUSH1 0x9D SHL PUSH1 0x20 DUP4 ADD MSTORE PUSH2 0x22A0 DUP2 MLOAD DUP1 SWAP3 PUSH1 0x20 DUP7 DUP7 ADD SWAP2 ADD PUSH2 0x1DAA JUMP JUMPDEST DUP2 ADD SUB PUSH1 0xD DUP2 ADD DUP5 MSTORE ADD DUP3 PUSH2 0x1BD4 JUMP JUMPDEST SUB SWAP1 LOG1 PUSH1 0x40 MLOAD SWAP1 PUSH4 0xD06CA61F PUSH1 0xE0 SHL DUP3 MSTORE DUP5 PUSH1 0x4 DUP4 ADD MSTORE PUSH1 0x40 PUSH1 0x24 DUP4 ADD MSTORE PUSH1 0x0 DUP3 DUP1 PUSH2 0x22DF PUSH1 0x44 DUP3 ADD DUP12 PUSH2 0x2A06 JUMP JUMPDEST SUB DUP2 DUP7 GAS STATICCALL SWAP1 DUP2 ISZERO PUSH2 0x250E JUMPI PUSH2 0x23A0 SWAP3 PUSH1 0x0 SWAP3 PUSH2 0x251A JUMPI JUMPDEST POP DUP1 PUSH2 0x2339 PUSH2 0x2305 DUP9 PUSH2 0x2A54 JUMP JUMPDEST PUSH2 0x12C2 PUSH1 0x2E PUSH1 0x40 MLOAD DUP1 SWAP4 PUSH14 0x24B7383ABA1030B6B7BAB73A1D1 PUSH1 0x95 SHL PUSH1 0x20 DUP4 ADD MSTORE PUSH2 0x2126 DUP2 MLOAD DUP1 SWAP3 PUSH1 0x20 DUP7 DUP7 ADD SWAP2 ADD PUSH2 0x1DAA JUMP JUMPDEST SUB SWAP1 LOG1 PUSH2 0x2398 PUSH2 0x2351 PUSH2 0x234B DUP5 PUSH2 0x1F21 JUMP JUMPDEST MLOAD PUSH2 0x2A54 JUMP JUMPDEST PUSH2 0x12C2 PUSH1 0x31 PUSH1 0x40 MLOAD DUP1 SWAP4 PUSH17 0x22BC3832B1BA32B21037BABA383ABA1D1 PUSH1 0x7D SHL PUSH1 0x20 DUP4 ADD MSTORE PUSH2 0x2388 DUP2 MLOAD DUP1 SWAP3 PUSH1 0x20 DUP7 DUP7 ADD SWAP2 ADD PUSH2 0x1DAA JUMP JUMPDEST DUP2 ADD SUB PUSH1 0x11 DUP2 ADD DUP5 MSTORE ADD DUP3 PUSH2 0x1BD4 JUMP JUMPDEST SUB SWAP1 LOG1 PUSH2 0x1F21 JUMP JUMPDEST MLOAD SWAP5 PUSH1 0x5F DUP7 MUL SWAP6 DUP1 DUP8 DIV PUSH1 0x5F EQ SWAP1 ISZERO OR ISZERO PUSH2 0x1EE8 JUMPI PUSH2 0x12C TIMESTAMP ADD SWAP2 DUP3 TIMESTAMP GT PUSH2 0x1EE8 JUMPI PUSH1 0x64 PUSH1 0x0 PUSH2 0x23FD SWAP9 DUP2 SWAP6 PUSH1 0x40 MLOAD SWAP11 DUP12 SWAP7 DUP8 SWAP6 DUP7 SWAP5 PUSH4 0x38ED1739 PUSH1 0xE0 SHL DUP7 MSTORE DUP13 PUSH1 0x4 DUP8 ADD MSTORE DIV PUSH1 0x24 DUP6 ADD MSTORE PUSH1 0xA0 PUSH1 0x44 DUP6 ADD MSTORE PUSH1 0xA4 DUP5 ADD SWAP1 PUSH2 0x2A06 JUMP JUMPDEST SWAP1 ADDRESS PUSH1 0x64 DUP5 ADD MSTORE PUSH1 0x84 DUP4 ADD MSTORE SUB SWAP3 GAS CALL SWAP3 DUP4 ISZERO PUSH2 0x250E JUMPI PUSH2 0x24C1 SWAP5 PUSH1 0x0 SWAP5 PUSH2 0x24C5 JUMPI JUMPDEST POP SWAP1 PUSH32 0xA7F76F8C67FE78BEF9BC25E3D362C983002605F56FDF0D519199033FF23C4177 SWAP2 PUSH2 0x24B9 PUSH1 0x40 MLOAD PUSH1 0x20 DUP2 ADD SWAP1 PUSH2 0x247C DUP2 PUSH2 0x10D4 CALLER TIMESTAMP DUP7 SWAP1 SWAP2 PUSH1 0x34 SWAP3 DUP3 MSTORE PUSH12 0xFFFFFFFFFFFFFFFFFFFFFFFF NOT SWAP1 PUSH1 0x60 SHL AND PUSH1 0x20 DUP3 ADD MSTORE ADD SWAP1 JUMP JUMPDEST MLOAD SWAP1 KECCAK256 SWAP5 PUSH2 0x2489 DUP8 PUSH2 0x1F21 JUMP JUMPDEST MLOAD PUSH1 0x40 DUP1 MLOAD PUSH1 0x1 PUSH1 0x1 PUSH1 0xA0 SHL SUB SWAP6 DUP7 AND DUP2 MSTORE SWAP6 SWAP1 SWAP5 AND PUSH1 0x20 DUP7 ADD MSTORE SWAP3 DUP5 ADD MSTORE PUSH1 0x60 DUP4 ADD SWAP2 SWAP1 SWAP2 MSTORE DUP2 SWAP1 PUSH1 0x80 DUP3 ADD SWAP1 JUMP JUMPDEST SUB SWAP1 LOG2 PUSH2 0x1F21 JUMP JUMPDEST MLOAD SWAP1 JUMP JUMPDEST PUSH32 0xA7F76F8C67FE78BEF9BC25E3D362C983002605F56FDF0D519199033FF23C4177 SWAP3 SWAP2 SWAP5 POP PUSH2 0x2506 SWAP1 RETURNDATASIZE DUP1 PUSH1 0x0 DUP4 RETURNDATACOPY PUSH2 0x24FE DUP2 DUP4 PUSH2 0x1BD4 JUMP JUMPDEST DUP2 ADD SWAP1 PUSH2 0x298D JUMP JUMPDEST SWAP4 SWAP1 SWAP2 PUSH2 0x2420 JUMP JUMPDEST PUSH1 0x40 MLOAD RETURNDATASIZE PUSH1 0x0 DUP3 RETURNDATACOPY RETURNDATASIZE SWAP1 REVERT JUMPDEST PUSH2 0x2530 SWAP2 SWAP3 POP RETURNDATASIZE DUP1 PUSH1 0x0 DUP4 RETURNDATACOPY PUSH2 0x24FE DUP2 DUP4 PUSH2 0x1BD4 JUMP JUMPDEST SWAP1 CODESIZE PUSH2 0x22F7 JUMP JUMPDEST PUSH2 0x2264 SWAP2 SWAP4 POP DUP5 PUSH2 0x2562 PUSH2 0x221F SWAP3 PUSH1 0x20 RETURNDATASIZE PUSH1 0x20 GT PUSH2 0x256B JUMPI JUMPDEST PUSH2 0x255A DUP2 DUP4 PUSH2 0x1BD4 JUMP JUMPDEST DUP2 ADD SWAP1 PUSH2 0x2974 JUMP JUMPDEST SWAP5 SWAP3 POP POP PUSH2 0x2210 JUMP JUMPDEST POP RETURNDATASIZE PUSH2 0x2550 JUMP JUMPDEST PUSH2 0x258C SWAP2 SWAP3 POP PUSH1 0x20 RETURNDATASIZE PUSH1 0x20 GT PUSH2 0x256B JUMPI PUSH2 0x255A DUP2 DUP4 PUSH2 0x1BD4 JUMP JUMPDEST SWAP1 CODESIZE PUSH2 0x21DB JUMP JUMPDEST DUP5 PUSH1 0x40 MLOAD DUP1 PUSH2 0x25CE DUP2 PUSH1 0x60 SWAP1 PUSH1 0x20 DUP2 MSTORE PUSH1 0x17 PUSH1 0x20 DUP3 ADD MSTORE PUSH23 0x139BC81B1A5C5D5A591A5D1E481C1BDBDB08199BDD5B99 PUSH1 0x4A SHL PUSH1 0x40 DUP3 ADD MSTORE ADD SWAP1 JUMP JUMPDEST SUB SWAP1 LOG1 PUSH1 0x40 MLOAD PUSH3 0x461BCD PUSH1 0xE5 SHL DUP2 MSTORE PUSH1 0x20 PUSH1 0x4 DUP3 ADD MSTORE PUSH1 0x17 PUSH1 0x24 DUP3 ADD MSTORE PUSH23 0x139BC81B1A5C5D5A591A5D1E481C1BDBDB08199BDD5B99 PUSH1 0x4A SHL PUSH1 0x44 DUP3 ADD MSTORE PUSH1 0x64 SWAP1 REVERT JUMPDEST PUSH1 0xC DUP2 ADD DUP2 GT PUSH2 0x1EE8 JUMPI PUSH1 0x20 PUSH1 0xC DUP3 ADD LT ISZERO PUSH2 0x1F0B JUMPI PUSH1 0x1 PUSH1 0x1 PUSH1 0xF8 SHL SUB NOT PUSH2 0x264D PUSH1 0x1 PUSH1 0x1 PUSH1 0xA0 SHL SUB DUP6 AND PUSH1 0xC DUP5 ADD BYTE PUSH1 0x4 SHR PUSH1 0xF AND DUP5 PUSH2 0x2A43 JUMP JUMPDEST MLOAD AND DUP2 DUP1 PUSH1 0x1 SHL DIV PUSH1 0x2 EQ DUP3 ISZERO OR ISZERO PUSH2 0x1EE8 JUMPI DUP2 PUSH1 0x1 SHL PUSH1 0x2 ADD PUSH1 0x2 GT PUSH2 0x1EE8 JUMPI PUSH1 0x0 BYTE PUSH2 0x2681 DUP3 PUSH1 0x1 SHL PUSH1 0x2 ADD DUP12 PUSH2 0x2A43 JUMP JUMPDEST MSTORE8 PUSH1 0x1 PUSH1 0x1 PUSH1 0xF8 SHL SUB NOT PUSH2 0x26A6 PUSH1 0x1 PUSH1 0x1 PUSH1 0xA0 SHL SUB DUP6 AND PUSH1 0xC DUP5 ADD BYTE PUSH1 0xF AND DUP5 PUSH2 0x2A43 JUMP JUMPDEST MLOAD AND SWAP1 PUSH1 0x3 DUP2 PUSH1 0x1 SHL DUP2 ADD DUP2 GT PUSH2 0x1EE8 JUMPI PUSH2 0x26CD PUSH2 0x26D3 SWAP4 PUSH1 0x0 BYTE SWAP2 DUP4 PUSH1 0x1 SHL ADD DUP13 PUSH2 0x2A43 JUMP JUMPDEST MSTORE8 PUSH2 0x1ED9 JUMP JUMPDEST PUSH2 0x20E3 JUMP JUMPDEST SWAP1 SWAP6 POP PUSH1 0x20 DUP2 RETURNDATASIZE PUSH1 0x20 GT PUSH2 0x270C JUMPI JUMPDEST DUP2 PUSH2 0x26F4 PUSH1 0x20 SWAP4 DUP4 PUSH2 0x1BD4 JUMP JUMPDEST DUP2 ADD SUB SLT PUSH2 0x748 JUMPI PUSH2 0x2705 SWAP1 PUSH2 0x1E5F JUMP JUMPDEST SWAP5 CODESIZE PUSH2 0x207D JUMP JUMPDEST RETURNDATASIZE SWAP2 POP PUSH2 0x26E7 JUMP JUMPDEST SWAP6 POP PUSH1 0x20 DUP7 RETURNDATASIZE PUSH1 0x20 GT PUSH2 0x274B JUMPI JUMPDEST DUP2 PUSH2 0x272F PUSH1 0x20 SWAP4 DUP4 PUSH2 0x1BD4 JUMP JUMPDEST DUP2 ADD SUB SLT PUSH2 0x748 JUMPI PUSH1 0x20 PUSH2 0x2744 PUSH1 0x44 SWAP8 PUSH2 0x1E5F JUMP JUMPDEST SWAP7 POP PUSH2 0x2039 JUMP JUMPDEST RETURNDATASIZE SWAP2 POP PUSH2 0x2722 JUMP JUMPDEST PUSH1 0x3 SLOAD SWAP4 SWAP5 SWAP2 SWAP4 SWAP2 SWAP3 SWAP2 PUSH1 0x1 PUSH1 0x1 PUSH1 0xA0 SHL SUB AND EQ PUSH2 0x27A2 JUMPI PUSH1 0x40 MLOAD PUSH3 0x461BCD PUSH1 0xE5 SHL DUP2 MSTORE PUSH1 0x20 PUSH1 0x4 DUP3 ADD MSTORE PUSH1 0xF PUSH1 0x24 DUP3 ADD MSTORE PUSH15 0xAADCE6EAE0E0DEE4E8CAC840888AB PUSH1 0x8B SHL PUSH1 0x44 DUP3 ADD MSTORE PUSH1 0x64 SWAP1 REVERT JUMPDEST PUSH1 0x5F DUP4 MUL SWAP2 DUP4 DUP4 DIV PUSH1 0x5F EQ DUP5 ISZERO OR ISZERO PUSH2 0x1EE8 JUMPI PUSH1 0x64 SWAP2 PUSH1 0x0 DUP1 DUP7 PUSH1 0x40 SWAP7 PUSH2 0x284A DUP9 MLOAD SWAP2 PUSH2 0x27CE DUP4 PUSH2 0x1B9E JUMP JUMPDEST DUP5 DUP4 MSTORE PUSH2 0x282F DUP11 MLOAD SWAP4 PUSH1 0x20 SWAP11 DUP12 SWAP4 DUP5 DUP8 ADD SWAP8 PUSH4 0x62C48CA9 PUSH1 0xE1 SHL DUP10 MSTORE PUSH1 0x1 DUP1 PUSH1 0xA0 SHL SUB DUP13 AND PUSH1 0x24 DUP10 ADD MSTORE PUSH1 0x1 DUP1 PUSH1 0xA0 SHL SUB DUP14 AND PUSH1 0x44 DUP10 ADD MSTORE DUP3 DUP9 ADD MSTORE DIV PUSH1 0x84 DUP7 ADD MSTORE DUP7 PUSH1 0xA4 DUP7 ADD MSTORE DUP7 PUSH1 0xC4 DUP7 ADD MSTORE PUSH2 0x100 PUSH1 0xE4 DUP7 ADD MSTORE PUSH2 0x124 DUP6 ADD SWAP1 PUSH2 0x2A06 JUMP JUMPDEST DUP6 DUP5 DUP3 SUB SWAP2 PUSH1 0x23 NOT DUP4 ADD PUSH2 0x104 DUP8 ADD MSTORE MSTORE DUP1 DUP5 MSTORE ADD DUP3 PUSH2 0x1BD4 JUMP JUMPDEST MLOAD SWAP1 DUP3 PUSH20 0x1111111254EEB25477B68FB85ED929F73A960582 GAS CALL RETURNDATASIZE ISZERO PUSH2 0x296C JUMPI RETURNDATASIZE SWAP1 PUSH2 0x2875 DUP3 PUSH2 0x1BF5 JUMP JUMPDEST SWAP2 PUSH2 0x2882 DUP8 MLOAD SWAP4 DUP5 PUSH2 0x1BD4 JUMP JUMPDEST DUP3 MSTORE RETURNDATASIZE PUSH1 0x0 DUP7 DUP5 ADD RETURNDATACOPY JUMPDEST ISZERO PUSH2 0x2934 JUMPI DUP4 DUP2 DUP1 MLOAD DUP2 ADD SUB SLT PUSH2 0x748 JUMPI DUP4 ADD MLOAD DUP5 MLOAD TIMESTAMP SWAP5 DUP2 ADD SWAP5 DUP6 MSTORE CALLER PUSH1 0x60 SHL PUSH12 0xFFFFFFFFFFFFFFFFFFFFFFFF NOT AND PUSH1 0x20 DUP7 ADD MSTORE SWAP1 SWAP6 PUSH32 0xA7F76F8C67FE78BEF9BC25E3D362C983002605F56FDF0D519199033FF23C4177 SWAP5 PUSH2 0x292E SWAP3 DUP9 SWAP3 SWAP2 SWAP1 PUSH2 0x28FA DUP2 PUSH1 0x34 DUP5 ADD PUSH2 0x10D4 JUMP JUMPDEST MLOAD SWAP1 KECCAK256 SWAP7 MLOAD PUSH1 0x1 PUSH1 0x1 PUSH1 0xA0 SHL SUB SWAP5 DUP6 AND DUP2 MSTORE SWAP5 SWAP1 SWAP4 AND PUSH1 0x20 DUP6 ADD MSTORE PUSH1 0x40 DUP5 ADD SWAP3 SWAP1 SWAP3 MSTORE PUSH1 0x60 DUP4 ADD SWAP2 SWAP1 SWAP2 MSTORE DUP2 SWAP1 PUSH1 0x80 DUP3 ADD SWAP1 JUMP JUMPDEST SUB SWAP1 LOG2 SWAP1 JUMP JUMPDEST DUP5 MLOAD PUSH3 0x461BCD PUSH1 0xE5 SHL DUP2 MSTORE PUSH1 0x4 DUP2 ADD DUP6 SWAP1 MSTORE PUSH1 0x11 PUSH1 0x24 DUP3 ADD MSTORE PUSH17 0xC5A5B98DA081CDDD85C0819985A5B1959 PUSH1 0x7A SHL PUSH1 0x44 DUP3 ADD MSTORE PUSH1 0x64 SWAP1 REVERT JUMPDEST PUSH1 0x60 SWAP1 PUSH2 0x288C JUMP JUMPDEST SWAP1 DUP2 PUSH1 0x20 SWAP2 SUB SLT PUSH2 0x748 JUMPI MLOAD PUSH1 0xFF DUP2 AND DUP2 SUB PUSH2 0x748 JUMPI SWAP1 JUMP JUMPDEST PUSH1 0x20 SWAP1 DUP2 DUP2 DUP5 SUB SLT PUSH2 0x748 JUMPI DUP1 MLOAD SWAP1 PUSH1 0x1 PUSH1 0x1 PUSH1 0x40 SHL SUB DUP3 GT PUSH2 0x748 JUMPI ADD SWAP2 DUP1 PUSH1 0x1F DUP5 ADD SLT ISZERO PUSH2 0x748 JUMPI DUP3 MLOAD PUSH2 0x29C2 DUP2 PUSH2 0x1E48 JUMP JUMPDEST SWAP4 PUSH2 0x29D0 PUSH1 0x40 MLOAD SWAP6 DUP7 PUSH2 0x1BD4 JUMP JUMPDEST DUP2 DUP6 MSTORE DUP4 DUP1 DUP7 ADD SWAP3 PUSH1 0x5 SHL DUP3 ADD ADD SWAP3 DUP4 GT PUSH2 0x748 JUMPI DUP4 ADD SWAP1 JUMPDEST DUP3 DUP3 LT PUSH2 0x29F7 JUMPI POP POP POP POP SWAP1 JUMP JUMPDEST DUP2 MLOAD DUP2 MSTORE SWAP1 DUP4 ADD SWAP1 DUP4 ADD PUSH2 0x29E9 JUMP JUMPDEST SWAP1 DUP2 MLOAD DUP1 DUP3 MSTORE PUSH1 0x20 DUP1 DUP1 SWAP4 ADD SWAP4 ADD SWAP2 PUSH1 0x0 JUMPDEST DUP3 DUP2 LT PUSH2 0x2A26 JUMPI POP POP POP POP SWAP1 JUMP JUMPDEST DUP4 MLOAD PUSH1 0x1 PUSH1 0x1 PUSH1 0xA0 SHL SUB AND DUP6 MSTORE SWAP4 DUP2 ADD SWAP4 SWAP3 DUP2 ADD SWAP3 PUSH1 0x1 ADD PUSH2 0x2A18 JUMP JUMPDEST SWAP1 DUP2 MLOAD DUP2 LT ISZERO PUSH2 0x1F0B JUMPI ADD PUSH1 0x20 ADD SWAP1 JUMP JUMPDEST DUP1 ISZERO PUSH2 0x2B0F JUMPI DUP1 DUP2 PUSH1 0x0 SWAP3 JUMPDEST PUSH2 0x2AFB JUMPI POP DUP1 PUSH2 0x2A6F DUP4 PUSH2 0x1BF5 JUMP JUMPDEST SWAP3 PUSH2 0x2A7D PUSH1 0x40 MLOAD SWAP5 DUP6 PUSH2 0x1BD4 JUMP JUMPDEST DUP1 DUP5 MSTORE PUSH1 0x1F NOT PUSH2 0x2A8C DUP3 PUSH2 0x1BF5 JUMP JUMPDEST ADD CALLDATASIZE PUSH1 0x20 DUP7 ADD CALLDATACOPY SWAP2 JUMPDEST PUSH2 0x2A9E JUMPI POP POP SWAP1 JUMP JUMPDEST PUSH1 0x0 NOT DUP3 ADD SWAP2 DUP3 GT PUSH2 0x1EE8 JUMPI DUP2 PUSH1 0xA DUP1 DUP4 DIV SWAP3 DUP2 DUP5 MUL SWAP2 DUP5 DUP4 DIV EQ DUP5 ISZERO OR ISZERO PUSH2 0x1EE8 JUMPI PUSH2 0x2ACE PUSH1 0xFF SWAP3 DUP4 SWAP3 PUSH2 0x1F99 JUMP JUMPDEST AND PUSH1 0x30 ADD SWAP1 DUP2 GT PUSH2 0x1EE8 JUMPI PUSH1 0xF8 SHL PUSH1 0x1 PUSH1 0x1 PUSH1 0xF8 SHL SUB NOT AND PUSH1 0x0 BYTE SWAP1 PUSH2 0x2AF4 SWAP1 DUP6 PUSH2 0x2A43 JUMP JUMPDEST MSTORE8 DUP1 PUSH2 0x2A95 JUMP JUMPDEST SWAP2 PUSH2 0x2B07 PUSH1 0xA SWAP2 PUSH2 0x1ED9 JUMP JUMPDEST SWAP3 DIV DUP1 PUSH2 0x2A60 JUMP JUMPDEST POP PUSH1 0x40 MLOAD PUSH2 0x2B1C DUP2 PUSH2 0x1B83 JUMP JUMPDEST PUSH1 0x1 DUP2 MSTORE PUSH1 0x3 PUSH1 0xFC SHL PUSH1 0x20 DUP3 ADD MSTORE SWAP1 JUMP JUMPDEST PUSH1 0x1 PUSH1 0x1 PUSH1 0xA0 SHL SUB AND PUSH1 0x0 DUP2 DUP2 MSTORE PUSH1 0xE PUSH1 0x20 MSTORE PUSH1 0x40 SWAP1 KECCAK256 SLOAD ISZERO PUSH2 0x2B5B JUMPI PUSH1 0x0 MSTORE PUSH1 0xE PUSH1 0x20 MSTORE PUSH1 0x40 PUSH1 0x0 KECCAK256 SLOAD SWAP1 JUMP JUMPDEST PUSH1 0x40 MLOAD PUSH3 0x461BCD PUSH1 0xE5 SHL DUP2 MSTORE PUSH1 0x20 PUSH1 0x4 DUP3 ADD MSTORE PUSH1 0x12 PUSH1 0x24 DUP3 ADD MSTORE PUSH18 0x141BDBDB081B9BDD081CDD5C1C1BDC9D1959 PUSH1 0x72 SHL PUSH1 0x44 DUP3 ADD MSTORE PUSH1 0x64 SWAP1 REVERT INVALID PUSH29 0xDB51E9DBBC205231228146C3246E7F914AA6D4A33170E43ECC8E359348 SAR BYTE LOG2 PUSH5 0x6970667358 0x22 SLT KECCAK256 PUSH16 0x8D6200EFD57185E8D21A9F14EC81CA6 PUSH6 0xFF106136F614 0xC2 KECCAK256 PUSH23 0x9998112C0364736F6C6343000813003300000000000000 "},"methodIdentifiers":{"PYUSD()":"9e19789d","crossChainAmounts(bytes32)":"39696081","curvePool()":"218751b2","emergencyWithdraw(address)":"6ff1c9bc","hopBridge()":"deac3a98","intentStatus(bytes32)":"5c6741c0","layerZeroEndpoint()":"07968db1","lzReceive(uint16,bytes,uint64,bytes)":"001d3567","owner()":"8da5cb5b","pathOptimizer()":"8d128abd","pause()":"8456cb59","paused()":"5c975abb","pendingCrossChainTx(bytes32)":"f7e77b3a","poolIds(address)":"d4175be2","processIntent(bytes32,address,address,uint256,uint16)":"36874d1a","processedIntents(bytes32)":"c2c8a008","renounceOwnership()":"715018a6","setPoolId(address,uint256)":"f5489918","setProtocolAddresses(address,address,address,address,address)":"07d7ecb6","setSupportedChain(uint16,bool)":"fc1b7769","setSupportedDEX(address,bool)":"e7cfe70c","setTokenIndex(address,int128)":"db4d558a","stargateRouter()":"a9e56f3c","supportedChains(uint16)":"10d58783","supportedDEXs(address)":"bf2b3ee6","tokenIndices(address)":"7e8e1b84","transferOwnership(address)":"f2fde38b","uniswapRouter()":"735de9f7","unpause()":"3f4ba83a"}}}}}