{"contracts/uniswap/UniswapV2Pair.sol":{"UniswapV2Pair":{"abi":[{"inputs":[],"stateMutability":"nonpayable","type":"constructor"},{"anonymous":false,"inputs":[{"indexed":true,"internalType":"address","name":"owner","type":"address"},{"indexed":true,"internalType":"address","name":"spender","type":"address"},{"indexed":false,"internalType":"uint256","name":"value","type":"uint256"}],"name":"Approval","type":"event"},{"anonymous":false,"inputs":[{"indexed":true,"internalType":"address","name":"sender","type":"address"},{"indexed":false,"internalType":"uint256","name":"amount0","type":"uint256"},{"indexed":false,"internalType":"uint256","name":"amount1","type":"uint256"},{"indexed":true,"internalType":"address","name":"to","type":"address"}],"name":"Burn","type":"event"},{"anonymous":false,"inputs":[{"indexed":true,"internalType":"address","name":"sender","type":"address"},{"indexed":false,"internalType":"uint256","name":"amount0","type":"uint256"},{"indexed":false,"internalType":"uint256","name":"amount1","type":"uint256"}],"name":"Mint","type":"event"},{"anonymous":false,"inputs":[{"indexed":true,"internalType":"address","name":"sender","type":"address"},{"indexed":false,"internalType":"uint256","name":"amount0In","type":"uint256"},{"indexed":false,"internalType":"uint256","name":"amount1In","type":"uint256"},{"indexed":false,"internalType":"uint256","name":"amount0Out","type":"uint256"},{"indexed":false,"internalType":"uint256","name":"amount1Out","type":"uint256"},{"indexed":true,"internalType":"address","name":"to","type":"address"}],"name":"Swap","type":"event"},{"anonymous":false,"inputs":[{"indexed":false,"internalType":"uint112","name":"reserve0","type":"uint112"},{"indexed":false,"internalType":"uint112","name":"reserve1","type":"uint112"}],"name":"Sync","type":"event"},{"anonymous":false,"inputs":[{"indexed":true,"internalType":"address","name":"from","type":"address"},{"indexed":true,"internalType":"address","name":"to","type":"address"},{"indexed":false,"internalType":"uint256","name":"value","type":"uint256"}],"name":"Transfer","type":"event"},{"inputs":[],"name":"DOMAIN_SEPARATOR","outputs":[{"internalType":"bytes32","name":"","type":"bytes32"}],"stateMutability":"view","type":"function"},{"inputs":[],"name":"MINIMUM_LIQUIDITY","outputs":[{"internalType":"uint256","name":"","type":"uint256"}],"stateMutability":"view","type":"function"},{"inputs":[],"name":"PERMIT_TYPEHASH","outputs":[{"internalType":"bytes32","name":"","type":"bytes32"}],"stateMutability":"view","type":"function"},{"inputs":[{"internalType":"address","name":"owner","type":"address"},{"internalType":"address","name":"spender","type":"address"}],"name":"allowance","outputs":[{"internalType":"uint256","name":"","type":"uint256"}],"stateMutability":"view","type":"function"},{"inputs":[{"internalType":"address","name":"spender","type":"address"},{"internalType":"uint256","name":"value","type":"uint256"}],"name":"approve","outputs":[{"internalType":"bool","name":"","type":"bool"}],"stateMutability":"nonpayable","type":"function"},{"inputs":[{"internalType":"address","name":"owner","type":"address"}],"name":"balanceOf","outputs":[{"internalType":"uint256","name":"","type":"uint256"}],"stateMutability":"view","type":"function"},{"inputs":[{"internalType":"address","name":"to","type":"address"}],"name":"burn","outputs":[{"internalType":"uint256","name":"amount0","type":"uint256"},{"internalType":"uint256","name":"amount1","type":"uint256"}],"stateMutability":"nonpayable","type":"function"},{"inputs":[],"name":"decimals","outputs":[{"internalType":"uint8","name":"","type":"uint8"}],"stateMutability":"pure","type":"function"},{"inputs":[{"internalType":"address","name":"spender","type":"address"},{"internalType":"uint256","name":"subtractedValue","type":"uint256"}],"name":"decreaseAllowance","outputs":[{"internalType":"bool","name":"","type":"bool"}],"stateMutability":"nonpayable","type":"function"},{"inputs":[],"name":"factory","outputs":[{"internalType":"address","name":"","type":"address"}],"stateMutability":"view","type":"function"},{"inputs":[],"name":"getReserves","outputs":[{"internalType":"uint112","name":"_reserve0","type":"uint112"},{"internalType":"uint112","name":"_reserve1","type":"uint112"},{"internalType":"uint32","name":"_blockTimestampLast","type":"uint32"}],"stateMutability":"view","type":"function"},{"inputs":[{"internalType":"address","name":"spender","type":"address"},{"internalType":"uint256","name":"addedValue","type":"uint256"}],"name":"increaseAllowance","outputs":[{"internalType":"bool","name":"","type":"bool"}],"stateMutability":"nonpayable","type":"function"},{"inputs":[{"internalType":"address","name":"_token0","type":"address"},{"internalType":"address","name":"_token1","type":"address"}],"name":"initialize","outputs":[],"stateMutability":"nonpayable","type":"function"},{"inputs":[],"name":"kLast","outputs":[{"internalType":"uint256","name":"","type":"uint256"}],"stateMutability":"view","type":"function"},{"inputs":[{"internalType":"address","name":"to","type":"address"}],"name":"mint","outputs":[{"internalType":"uint256","name":"liquidity","type":"uint256"}],"stateMutability":"nonpayable","type":"function"},{"inputs":[],"name":"name","outputs":[{"internalType":"string","name":"","type":"string"}],"stateMutability":"pure","type":"function"},{"inputs":[{"internalType":"address","name":"","type":"address"}],"name":"nonces","outputs":[{"internalType":"uint256","name":"","type":"uint256"}],"stateMutability":"view","type":"function"},{"inputs":[{"internalType":"address","name":"owner","type":"address"},{"internalType":"address","name":"spender","type":"address"},{"internalType":"uint256","name":"value","type":"uint256"},{"internalType":"uint256","name":"deadline","type":"uint256"},{"internalType":"uint8","name":"v","type":"uint8"},{"internalType":"bytes32","name":"r","type":"bytes32"},{"internalType":"bytes32","name":"s","type":"bytes32"}],"name":"permit","outputs":[],"stateMutability":"nonpayable","type":"function"},{"inputs":[],"name":"price0CumulativeLast","outputs":[{"internalType":"uint256","name":"","type":"uint256"}],"stateMutability":"view","type":"function"},{"inputs":[],"name":"price1CumulativeLast","outputs":[{"internalType":"uint256","name":"","type":"uint256"}],"stateMutability":"view","type":"function"},{"inputs":[{"internalType":"address","name":"to","type":"address"}],"name":"skim","outputs":[],"stateMutability":"nonpayable","type":"function"},{"inputs":[{"internalType":"uint256","name":"amount0Out","type":"uint256"},{"internalType":"uint256","name":"amount1Out","type":"uint256"},{"internalType":"address","name":"to","type":"address"},{"internalType":"bytes","name":"data","type":"bytes"}],"name":"swap","outputs":[],"stateMutability":"nonpayable","type":"function"},{"inputs":[],"name":"symbol","outputs":[{"internalType":"string","name":"","type":"string"}],"stateMutability":"pure","type":"function"},{"inputs":[],"name":"sync","outputs":[],"stateMutability":"nonpayable","type":"function"},{"inputs":[],"name":"token0","outputs":[{"internalType":"address","name":"","type":"address"}],"stateMutability":"view","type":"function"},{"inputs":[],"name":"token1","outputs":[{"internalType":"address","name":"","type":"address"}],"stateMutability":"view","type":"function"},{"inputs":[],"name":"totalSupply","outputs":[{"internalType":"uint256","name":"","type":"uint256"}],"stateMutability":"view","type":"function"},{"inputs":[{"internalType":"address","name":"to","type":"address"},{"internalType":"uint256","name":"value","type":"uint256"}],"name":"transfer","outputs":[{"internalType":"bool","name":"","type":"bool"}],"stateMutability":"nonpayable","type":"function"},{"inputs":[{"internalType":"address","name":"from","type":"address"},{"internalType":"address","name":"to","type":"address"},{"internalType":"uint256","name":"value","type":"uint256"}],"name":"transferFrom","outputs":[{"internalType":"bool","name":"","type":"bool"}],"stateMutability":"nonpayable","type":"function"}],"evm":{"bytecode":{"linkReferences":{},"object":"60a060409080825234620003d3576200001881620003d8565b600a8152692ab734b9bbb0b8102b1960b11b91602090838284015280516200004081620003d8565b60068152652aa72496ab1960d11b8382015283516001600160401b0395868211620002d35760038054926001978885811c95168015620003c8575b88861014620003b2578190601f958681116200035c575b508890868311600114620002f557600092620002e9575b505060001982841b1c191690881b1781555b835190888211620002d35760049485548981811c91168015620002c8575b89821014620002b35785811162000268575b5087948311600114620001fc57600a946000929184620001f0575b505082891b92600019911b1c19161783555b600d869055600680546001600160a01b03191633179055835185906200013e81620003d8565b8381520190815220938383516200015581620003d8565b82815201603160f81b8152208251938401947f8b73c3c69bb8fe3d512ecc4cf759cc79239f7b179b0ffacaa9a75d522b39400f86528385015260608401524660808401523060a084015260a0835260c083019483861090861117620001db57508390525190206080526122a79081620003f582396080518181816103df01526111080152f35b604190634e487b7160e01b6000525260246000fd5b01519150388062000106565b889291601f1983169587600052896000209260005b8b8982106200025157505084600a981062000236575b50505050811b01835562000118565b01519060f884600019921b161c191690553880808062000227565b8284015186558d9790950194928301920162000211565b86600052886000208680860160051c8201928b8710620002a9575b0160051c01908a905b8281106200029c575050620000eb565b60008155018a906200028c565b9250819262000283565b602287634e487b7160e01b6000525260246000fd5b90607f1690620000d9565b634e487b7160e01b600052604160045260246000fd5b015190503880620000a9565b908a9350601f19831691856000528a6000209260005b8c8282106200034557505084116200032c575b505050811b018155620000bb565b015160001983861b60f8161c191690553880806200031e565b8385015186558e979095019493840193016200030b565b90915083600052886000208680850160051c8201928b8610620003a8575b918c91869594930160051c01915b8281106200039857505062000092565b600081558594508c910162000388565b925081926200037a565b634e487b7160e01b600052602260045260246000fd5b94607f16946200007b565b600080fd5b604081019081106001600160401b03821117620002d35760405256fe6080604052600436101561001257600080fd5b6000803560e01c8063022c0d9f1461134957806306fdde03146113065780630902f1ac146112ad578063095ea7b3146112865780630dfe16811461125d57806318160ddd1461123f57806323b872dd1461118257806330adf81f14611147578063313ce5671461112b5780633644e515146110f05780633950935114611096578063485cc95514610ffa5780635909c0d514610fdc5780635a3d549314610fbe5780636a62784214610cda57806370a0823114610ca25780637464fc3d14610c845780637ecebe0014610c4b57806389afcb44146107ea57806395d89b41146107a7578063a457c2d7146106ff578063a9059cbb146106cd578063ba9a7a56146106b0578063bc25cf7714610567578063c45a01551461053e578063d21220a714610515578063d505accf146102e8578063dd62ed3e146102905763fff6cae91461015c57600080fd5b3461028d578060031936011261028d5761017a6001600d5414611cc7565b600d8190556007546040516370a0823160e01b808252306004830152916020916001600160a01b039183908290602490829086165afa9182156102825783918693610251575b50600854169360246040518096819382523060048301525afa91821561024657849261020f575b506102079250600954916001600160701b03808460701c16931691611dea565b6001600d5580f35b90915082813d831161023f575b6102268183611b37565b8101031261023a57610207915190386101e7565b600080fd5b503d61021c565b6040513d86823e3d90fd5b8281939294503d831161027b575b6102698183611b37565b8101031261023a5782905191386101c0565b503d61025f565b6040513d87823e3d90fd5b80fd5b503461028d57604036600319011261028d5760206102e06102af611965565b6102b761197b565b9060018060a01b0380911660005260016020526040600020911660005260205260406000205490565b604051908152f35b503461028d5760e036600319011261028d57610302611965565b61030a61197b565b604435906064356084359060ff8216809203610511574281106104d7576001600160a01b0385811680885260056020526040882080549194929392919060001982146104c3576001820190556040519260208401917f6e71edae12b1b97f4d1f60370fef10105fa2faae0126114a169c64845d6126c98352866040860152858816606086015288608086015260a085015260c084015260c0835260e083019183831067ffffffffffffffff8411176104ad57602093836080938c956040528251902061012261010084019361190160f01b85527f000000000000000000000000000000000000000000000000000000000000000061010282015201526042815261041381611b1b565b519020906040519182528482015260a435604082015260c435606082015282805260015afa15610282578551169081151591826104a3575b50501561045e5761045b926119fd565b80f35b60405162461bcd60e51b815260206004820152601c60248201527f556e697377617056323a20494e56414c49445f5349474e4154555245000000006044820152606490fd5b149050388061044b565b634e487b7160e01b600052604160045260246000fd5b634e487b7160e01b8a52601160045260248afd5b60405162461bcd60e51b8152602060048201526012602482015271155b9a5cddd85c158c8e881156141254915160721b6044820152606490fd5b8580fd5b503461028d578060031936011261028d576008546040516001600160a01b039091168152602090f35b503461028d578060031936011261028d576006546040516001600160a01b039091168152602090f35b503461028d576020806003193601126106ac57610582611965565b906105916001600d5414611cc7565b600d8390556007546008546040516370a0823160e01b80825230600483015290946001600160a01b039283169490939092168286602481845afa9586156106a1578796610670575b506105fc90846105f66001600160701b0398896009541690611d07565b91612082565b6040519081523060048201528181602481875afa918215610665578692610635575b50506105f6906102079460095460701c1690611d07565b90809250813d831161065e575b61064c8183611b37565b8101031261023a5751836105f661061e565b503d610642565b6040513d88823e3d90fd5b9095508281813d831161069a575b6106888183611b37565b8101031261023a5751946105fc6105d9565b503d61067e565b6040513d89823e3d90fd5b5080fd5b503461028d578060031936011261028d5760206040516103e88152f35b503461028d57604036600319011261028d576106f46106ea611965565b6024359033611b59565b602060405160018152f35b503461028d57604036600319011261028d57610719611965565b3360009081526001602090815260408083206001600160a01b038516845290915290205490602435808310610754576106f4920390336119fd565b60405162461bcd60e51b815260206004820152602560248201527f45524332303a2064656372656173656420616c6c6f77616e63652062656c6f77604482015264207a65726f60d81b6064820152608490fd5b503461028d578060031936011261028d576107e66040516107c781611aff565b60068152652aa72496ab1960d11b602082015260405191829182611991565b0390f35b503461028d57602036600319011261028d57610804611965565b6108126001600d5414611cc7565b81600d556108356009546001600160701b0391828216928260701c169160e01c90565b506007546008546040516370a0823160e01b81523060048201526001600160a01b0392831696949591909216939092906020836024818a5afa928315610c3e578193610c0a575b506040516370a0823160e01b815230600482015296602088602481895afa958615610bff578798839897610bc8575b50308352826020526108e76108db6108db6108e06108ce8860408920549c611f4a565b986002549384918d611d14565b611d27565b9a8a611d14565b9688151580610bbf575b15610b69573015610b1a5730845283602052604084205492818410610aca57848260209360249630845283865203604083205580600254036002556040519081527fddf252ad1be2c89b69c2b068fc378daa952ba7f163c4a11628f55a4df523b3ef843092a36109628a8983612082565b61096d898985612082565b6040516370a0823160e01b815230600482015293849182905afa918215610abf578392610a8a575b506020602491604051928380926370a0823160e01b82523060048301525afa928315610a7e5792610a43575b50966109d09291604098611dea565b610a20575b83519083825282602083015260018060a01b0316907fdccd412f0b1252819cb1fd330b93224ca42612892bb3f4f789976e6d81936496853392a36001600d5582519182526020820152f35b610a3b6009546001600160701b03808260701c169116611d14565b600c556109d5565b929150966020833d602011610a76575b81610a6060209383611b37565b8101031261023a579151919690919060406109c1565b3d9150610a53565b604051903d90823e3d90fd5b9091506020813d602011610ab7575b81610aa660209383611b37565b8101031261023a5751906020610995565b3d9150610a99565b6040513d85823e3d90fd5b60405162461bcd60e51b815260206004820152602260248201527f45524332303a206275726e20616d6f756e7420657863656564732062616c616e604482015261636560f01b6064820152608490fd5b60405162461bcd60e51b815260206004820152602160248201527f45524332303a206275726e2066726f6d20746865207a65726f206164647265736044820152607360f81b6064820152608490fd5b60405162461bcd60e51b815260206004820152602860248201527f556e697377617056323a20494e53554646494349454e545f4c495155494449546044820152671657d0955493915160c21b6064820152608490fd5b508715156108f1565b965096506020863d602011610bf7575b81610be560209383611b37565b8101031261023a5787955196386108ab565b3d9150610bd8565b6040513d84823e3d90fd5b9092506020813d602011610c36575b81610c2660209383611b37565b8101031261023a5751913861087c565b3d9150610c19565b50604051903d90823e3d90fd5b503461028d57602036600319011261028d576020906040906001600160a01b03610c73611965565b168152600583522054604051908152f35b503461028d578060031936011261028d576020600c54604051908152f35b503461028d57602036600319011261028d576020906040906001600160a01b03610cca611965565b1681528083522054604051908152f35b503461028d576020806003193601126106ac57610cf5611965565b610d036001600d5414611cc7565b82600d55610d266009546001600160701b0391828216928260701c169160e01c90565b506007546040516370a0823160e01b808252306004830152939492916001600160a01b03919087908290602490829086165afa918215610fb35787918993610f82575b50600854169460246040518097819382523060048301525afa9384156106a1578794610f53575b506001600160701b039182861695610da88784611d07565b9584831693610db78583611d07565b98610dc28585611f4a565b95600254918215600014610e4b578d8d610de4610ddf8f8f611d14565b6121cf565b6103e7198101908111610e375760649250506040519062461bcd60e51b82526004820152601f60248201527f45524332303a206d696e7420746f20746865207a65726f2061646472657373006044820152fd5b634e487b7160e01b83526011600452602483fd5b8d916108db610e65610e6c939c9e9c6108db8f8890611d14565b948c611d14565b905080821015610f4c57505b988915610ef65790610e908a610e9596959493611d47565b611dea565b610ed8575b50604051918252838201527f4c209b5fc8ad50758f13e2e1088ba56a560dff690a1c6fef26394f4c03821c4f60403392a26001600d55604051908152f35b610eed9060095490808260701c169116611d14565b600c5584610e9a565b60405162461bcd60e51b8152600481018c9052602860248201527f556e697377617056323a20494e53554646494349454e545f4c495155494449546044820152671657d3525395115160c21b6064820152608490fd5b9050610e78565b9093508581813d8311610f7b575b610f6b8183611b37565b8101031261023a57519238610d90565b503d610f61565b8281939294503d8311610fac575b610f9a8183611b37565b8101031261023a578690519138610d69565b503d610f90565b6040513d8a823e3d90fd5b503461028d578060031936011261028d576020600b54604051908152f35b503461028d578060031936011261028d576020600a54604051908152f35b503461028d57604036600319011261028d57611014611965565b61101c61197b565b6006546001600160a01b0391908216330361105a57816bffffffffffffffffffffffff60a01b93168360075416176007551690600854161760085580f35b60405162461bcd60e51b81526020600482015260146024820152732ab734b9bbb0b82b191d102327a92124a22222a760611b6044820152606490fd5b503461028d57604036600319011261028d576106f46110b3611965565b3360009081526001602090815260408083206001600160a01b03851684529091529020546110e990602435906119da565b6119da565b90336119fd565b503461028d578060031936011261028d5760206040517f00000000000000000000000000000000000000000000000000000000000000008152f35b503461028d578060031936011261028d57602060405160128152f35b503461028d578060031936011261028d5760206040517f6e71edae12b1b97f4d1f60370fef10105fa2faae0126114a169c64845d6126c98152f35b503461028d57606036600319011261028d5761119c611965565b906111a561197b565b60406044359260018060a01b0385168152600160205220336000526020526040600020549260001984036111de575b6106f49350611b59565b8284106111fa576111f5836106f4950333836119fd565b6111d4565b60405162461bcd60e51b815260206004820152601d60248201527f45524332303a20696e73756666696369656e7420616c6c6f77616e63650000006044820152606490fd5b503461028d578060031936011261028d576020600254604051908152f35b503461028d578060031936011261028d576007546040516001600160a01b039091168152602090f35b503461028d57604036600319011261028d576106f46112a3611965565b60243590336119fd565b503461028d578060031936011261028d57606063ffffffff6112e46009546001600160701b0391828216928260701c169160e01c90565b909291604051936001600160701b038092168552166020840152166040820152f35b503461028d578060031936011261028d576107e660405161132681611aff565b600a8152692ab734b9bbb0b8102b1960b11b602082015260405191829182611991565b503461028d57608036600319011261028d576001600160a01b0360443580821690036106ac5767ffffffffffffffff606435116106ac573660236064350112156106ac5767ffffffffffffffff60643560040135116106ac57366024606435600401356064350101116106ac576113c46001600d5414611cc7565b81600d5560043515908115809261195a575b15611907576113fa6009546001600160701b0391828216928260701c169160e01c90565b506001600160701b038294921660043510806118f3575b156118a4578260075416836008541692818560443516141580611896575b1561185957611845575b602435611831575b6064356004013561176e575b906020602492604051938480926370a0823160e01b82523060048301525afa918215610665578692611737575b506020602493604051948580926370a0823160e01b82523060048301525afa928315610665578693611703575b506114bd6004356001600160701b038716611d07565b8211156116fc576114e26114dc6004356001600160701b038816611d07565b83611d07565b945b6114f96024356001600160701b038416611d07565b8411156116f55761151e6115186024356001600160701b038516611d07565b85611d07565b935b86151587156116ec575b1561169b57836103e88102046103e8148415171561168757600387028781046003148815171561167357611562906103e88602611d07565b6103e882028281046103e814831517156104c35760038702908782046003148815171561165f5761159d929161159791611d07565b90611d14565b6115b96001600160701b0385166001600160701b038516611d14565b90620f4240918281029281840414901517156104c3571061162b576115dd93611dea565b60405192835260208301526004356040830152602435606083015260443516907fd78ad95fa46c994b6551d0da85fc275fe613ce37657fb8d5e3d130840159d82260803392a36001600d5580f35b60405162461bcd60e51b815260206004820152600c60248201526b556e697377617056323a204b60a01b6044820152606490fd5b634e487b7160e01b8b52601160045260248bfd5b634e487b7160e01b89526011600452602489fd5b634e487b7160e01b88526011600452602488fd5b60405162461bcd60e51b8152602060048201526024808201527f556e697377617056323a20494e53554646494349454e545f494e5055545f414d60448201526313d5539560e21b6064820152608490fd5b5084151561152a565b8693611520565b85946114e4565b9092506020813d60201161172f575b8161171f60209383611b37565b8101031261023a575191386114a7565b3d9150611712565b9291506020833d602011611766575b8161175360209383611b37565b8101031261023a5791519091602061147a565b3d9150611746565b83604435163b15610511576040516304347a1760e21b815233600482015260043560248201526024356044820152608060648201526064356004013560848201526064356004013560246064350160a48301378660a46064356004013583010152868160a481601f19601f60643560040135011681010301818389604435165af180156106a157611800575b5061144d565b67ffffffffffffffff819792971161181d576040529460206117fa565b634e487b7160e01b82526041600452602482fd5b61184060243560443585612082565b611441565b61185460043560443583612082565b611439565b60405162461bcd60e51b8152602060048201526015602482015274556e697377617056323a20494e56414c49445f544f60581b6044820152606490fd5b50838560443516141561142f565b60405162461bcd60e51b815260206004820152602160248201527f556e697377617056323a20494e53554646494349454e545f4c495155494449546044820152605960f81b6064820152608490fd5b506001600160701b03811660243510611411565b60405162461bcd60e51b815260206004820152602560248201527f556e697377617056323a20494e53554646494349454e545f4f55545055545f416044820152641353d5539560da1b6064820152608490fd5b5060243515156113d6565b600435906001600160a01b038216820361023a57565b602435906001600160a01b038216820361023a57565b6020808252825181830181905290939260005b8281106119c657505060409293506000838284010152601f8019910116010190565b8181018601518482016040015285016119a4565b919082018092116119e757565b634e487b7160e01b600052601160045260246000fd5b6001600160a01b03908116918215611aae5716918215611a5e5760207f8c5be1e5ebec7d5bd14f71427d1e84f3dd0314c0f7b2291e5b200ac8c7c3b925918360005260018252604060002085600052825280604060002055604051908152a3565b60405162461bcd60e51b815260206004820152602260248201527f45524332303a20617070726f766520746f20746865207a65726f206164647265604482015261737360f01b6064820152608490fd5b60405162461bcd60e51b8152602060048201526024808201527f45524332303a20617070726f76652066726f6d20746865207a65726f206164646044820152637265737360e01b6064820152608490fd5b6040810190811067ffffffffffffffff8211176104ad57604052565b6080810190811067ffffffffffffffff8211176104ad57604052565b90601f8019910116810190811067ffffffffffffffff8211176104ad57604052565b6001600160a01b03908116918215611c745716918215611c2357600082815280602052604081205491808310611bcf57604082827fddf252ad1be2c89b69c2b068fc378daa952ba7f163c4a11628f55a4df523b3ef958760209652828652038282205586815220818154019055604051908152a3565b60405162461bcd60e51b815260206004820152602660248201527f45524332303a207472616e7366657220616d6f756e7420657863656564732062604482015265616c616e636560d01b6064820152608490fd5b60405162461bcd60e51b815260206004820152602360248201527f45524332303a207472616e7366657220746f20746865207a65726f206164647260448201526265737360e81b6064820152608490fd5b60405162461bcd60e51b815260206004820152602560248201527f45524332303a207472616e736665722066726f6d20746865207a65726f206164604482015264647265737360d81b6064820152608490fd5b15611cce57565b60405162461bcd60e51b8152602060048201526011602482015270155b9a5cddd85c158c8e881313d0d2d151607a1b6044820152606490fd5b919082039182116119e757565b818102929181159184041417156119e757565b8115611d31570490565b634e487b7160e01b600052601260045260246000fd5b6001600160a01b0316908115611da5577fddf252ad1be2c89b69c2b068fc378daa952ba7f163c4a11628f55a4df523b3ef602082611d896000946002546119da565b60025584845283825260408420818154019055604051908152a3565b60405162461bcd60e51b815260206004820152601f60248201527f45524332303a206d696e7420746f20746865207a65726f2061646472657373006044820152606490fd5b916001600160701b03908184111580611f40575b15611f05576009549363ffffffff9460e01c85421603918583116119e7577f1c411e9a96e071241c2f21f7726b17ae89e3cab4c78be50e062b03a9fffbbad19660409685941680151580611efa575b80611eef575b611e96575b505050607093841b600160701b600160e01b031691169081174260e01b6001600160e01b031916176009819055845191825290921c166020820152a1565b611ee492611edc926001600160e01b0391611ec69190611ec190611ed4611ecc878787858789612224565b612253565b16611d14565b600a546119da565b600a55612224565b600b546119da565b600b55388080611e58565b508482161515611e53565b508483161515611e4d565b60405162461bcd60e51b8152602060048201526013602482015272556e697377617056323a204f564552464c4f5760681b6044820152606490fd5b5081831115611dfe565b600654604051622fcfcb60e31b815292939291906001600160a01b03906020908490600490829085165afa92831561207657600093612038575b508216151593600c5491856000146120275782611fa2575b50505050565b610ddf611fbf91611fc5936001600160701b038091169116611d14565b916121cf565b90818111611fd4575b80611f9c565b611fe46002546115978484611d07565b906005810290808204600514901517156119e75761200b92612005916119da565b90611d27565b80612017575b80611fce565b61202091611d47565b3880612011565b5050905061203157565b6000600c55565b6020939193813d821161206e575b8161205360209383611b37565b810103126106ac575190838216820361028d57509138611f84565b3d9150612046565b6040513d6000823e3d90fd5b906040519261209084611aff565b601984527f7472616e7366657228616464726573732c75696e74323536290000000000000060209485015260405163a9059cbb60e01b8186019081526001600160a01b0390931660248201526044808201929092529081526120f181611b1b565b600092839283809351925af1903d156121c8573d67ffffffffffffffff811161181d576040519061212b601f8201601f1916860183611b37565b81523d828583013e5b82612188575b5050156121445750565b6064906040519062461bcd60e51b82526004820152601a60248201527f556e697377617056323a205452414e534645525f4641494c45440000000000006044820152fd5b80519250821591908483156121a4575b5050509050388061213a565b9193818094500103126106ac5782015190811515820361028d575080388084612198565b6060612134565b906000600383111561221757508160019080821c8281018091116119e75791905b8483106121fc57505050565b9091935061220e846110e48184611d27565b821c91906121f0565b9161221e57565b60019150565b600160701b600160e01b03607082901b16906001600160701b0316808204600160701b14901517156119e75790565b906001600160701b0316908115611d31576001600160e01b0316049056fea2646970667358221220fc3e09a7de8be3dfaf11713e02cf3978f58216be3c547d44d5512c6c2237252064736f6c63430008130033","opcodes":"PUSH1 0xA0 PUSH1 0x40 SWAP1 DUP1 DUP3 MSTORE CALLVALUE PUSH3 0x3D3 JUMPI PUSH3 0x18 DUP2 PUSH3 0x3D8 JUMP JUMPDEST PUSH1 0xA DUP2 MSTORE PUSH10 0x2AB734B9BBB0B8102B19 PUSH1 0xB1 SHL SWAP2 PUSH1 0x20 SWAP1 DUP4 DUP3 DUP5 ADD MSTORE DUP1 MLOAD PUSH3 0x40 DUP2 PUSH3 0x3D8 JUMP JUMPDEST PUSH1 0x6 DUP2 MSTORE PUSH6 0x2AA72496AB19 PUSH1 0xD1 SHL DUP4 DUP3 ADD MSTORE DUP4 MLOAD PUSH1 0x1 PUSH1 0x1 PUSH1 0x40 SHL SUB SWAP6 DUP7 DUP3 GT PUSH3 0x2D3 JUMPI PUSH1 0x3 DUP1 SLOAD SWAP3 PUSH1 0x1 SWAP8 DUP9 DUP6 DUP2 SHR SWAP6 AND DUP1 ISZERO PUSH3 0x3C8 JUMPI JUMPDEST DUP9 DUP7 LT EQ PUSH3 0x3B2 JUMPI DUP2 SWAP1 PUSH1 0x1F SWAP6 DUP7 DUP2 GT PUSH3 0x35C JUMPI JUMPDEST POP DUP9 SWAP1 DUP7 DUP4 GT PUSH1 0x1 EQ PUSH3 0x2F5 JUMPI PUSH1 0x0 SWAP3 PUSH3 0x2E9 JUMPI JUMPDEST POP POP PUSH1 0x0 NOT DUP3 DUP5 SHL SHR NOT AND SWAP1 DUP9 SHL OR DUP2 SSTORE JUMPDEST DUP4 MLOAD SWAP1 DUP9 DUP3 GT PUSH3 0x2D3 JUMPI PUSH1 0x4 SWAP5 DUP6 SLOAD DUP10 DUP2 DUP2 SHR SWAP2 AND DUP1 ISZERO PUSH3 0x2C8 JUMPI JUMPDEST DUP10 DUP3 LT EQ PUSH3 0x2B3 JUMPI DUP6 DUP2 GT PUSH3 0x268 JUMPI JUMPDEST POP DUP8 SWAP5 DUP4 GT PUSH1 0x1 EQ PUSH3 0x1FC JUMPI PUSH1 0xA SWAP5 PUSH1 0x0 SWAP3 SWAP2 DUP5 PUSH3 0x1F0 JUMPI JUMPDEST POP POP DUP3 DUP10 SHL SWAP3 PUSH1 0x0 NOT SWAP2 SHL SHR NOT AND OR DUP4 SSTORE JUMPDEST PUSH1 0xD DUP7 SWAP1 SSTORE PUSH1 0x6 DUP1 SLOAD PUSH1 0x1 PUSH1 0x1 PUSH1 0xA0 SHL SUB NOT AND CALLER OR SWAP1 SSTORE DUP4 MLOAD DUP6 SWAP1 PUSH3 0x13E DUP2 PUSH3 0x3D8 JUMP JUMPDEST DUP4 DUP2 MSTORE ADD SWAP1 DUP2 MSTORE KECCAK256 SWAP4 DUP4 DUP4 MLOAD PUSH3 0x155 DUP2 PUSH3 0x3D8 JUMP JUMPDEST DUP3 DUP2 MSTORE ADD PUSH1 0x31 PUSH1 0xF8 SHL DUP2 MSTORE KECCAK256 DUP3 MLOAD SWAP4 DUP5 ADD SWAP5 PUSH32 0x8B73C3C69BB8FE3D512ECC4CF759CC79239F7B179B0FFACAA9A75D522B39400F DUP7 MSTORE DUP4 DUP6 ADD MSTORE PUSH1 0x60 DUP5 ADD MSTORE CHAINID PUSH1 0x80 DUP5 ADD MSTORE ADDRESS PUSH1 0xA0 DUP5 ADD MSTORE PUSH1 0xA0 DUP4 MSTORE PUSH1 0xC0 DUP4 ADD SWAP5 DUP4 DUP7 LT SWAP1 DUP7 GT OR PUSH3 0x1DB JUMPI POP DUP4 SWAP1 MSTORE MLOAD SWAP1 KECCAK256 PUSH1 0x80 MSTORE PUSH2 0x22A7 SWAP1 DUP2 PUSH3 0x3F5 DUP3 CODECOPY PUSH1 0x80 MLOAD DUP2 DUP2 DUP2 PUSH2 0x3DF ADD MSTORE PUSH2 0x1108 ADD MSTORE RETURN JUMPDEST PUSH1 0x41 SWAP1 PUSH4 0x4E487B71 PUSH1 0xE0 SHL PUSH1 0x0 MSTORE MSTORE PUSH1 0x24 PUSH1 0x0 REVERT JUMPDEST ADD MLOAD SWAP2 POP CODESIZE DUP1 PUSH3 0x106 JUMP JUMPDEST DUP9 SWAP3 SWAP2 PUSH1 0x1F NOT DUP4 AND SWAP6 DUP8 PUSH1 0x0 MSTORE DUP10 PUSH1 0x0 KECCAK256 SWAP3 PUSH1 0x0 JUMPDEST DUP12 DUP10 DUP3 LT PUSH3 0x251 JUMPI POP POP DUP5 PUSH1 0xA SWAP9 LT PUSH3 0x236 JUMPI JUMPDEST POP POP POP POP DUP2 SHL ADD DUP4 SSTORE PUSH3 0x118 JUMP JUMPDEST ADD MLOAD SWAP1 PUSH1 0xF8 DUP5 PUSH1 0x0 NOT SWAP3 SHL AND SHR NOT AND SWAP1 SSTORE CODESIZE DUP1 DUP1 DUP1 PUSH3 0x227 JUMP JUMPDEST DUP3 DUP5 ADD MLOAD DUP7 SSTORE DUP14 SWAP8 SWAP1 SWAP6 ADD SWAP5 SWAP3 DUP4 ADD SWAP3 ADD PUSH3 0x211 JUMP JUMPDEST DUP7 PUSH1 0x0 MSTORE DUP9 PUSH1 0x0 KECCAK256 DUP7 DUP1 DUP7 ADD PUSH1 0x5 SHR DUP3 ADD SWAP3 DUP12 DUP8 LT PUSH3 0x2A9 JUMPI JUMPDEST ADD PUSH1 0x5 SHR ADD SWAP1 DUP11 SWAP1 JUMPDEST DUP3 DUP2 LT PUSH3 0x29C JUMPI POP POP PUSH3 0xEB JUMP JUMPDEST PUSH1 0x0 DUP2 SSTORE ADD DUP11 SWAP1 PUSH3 0x28C JUMP JUMPDEST SWAP3 POP DUP2 SWAP3 PUSH3 0x283 JUMP JUMPDEST PUSH1 0x22 DUP8 PUSH4 0x4E487B71 PUSH1 0xE0 SHL PUSH1 0x0 MSTORE MSTORE PUSH1 0x24 PUSH1 0x0 REVERT JUMPDEST SWAP1 PUSH1 0x7F AND SWAP1 PUSH3 0xD9 JUMP JUMPDEST PUSH4 0x4E487B71 PUSH1 0xE0 SHL PUSH1 0x0 MSTORE PUSH1 0x41 PUSH1 0x4 MSTORE PUSH1 0x24 PUSH1 0x0 REVERT JUMPDEST ADD MLOAD SWAP1 POP CODESIZE DUP1 PUSH3 0xA9 JUMP JUMPDEST SWAP1 DUP11 SWAP4 POP PUSH1 0x1F NOT DUP4 AND SWAP2 DUP6 PUSH1 0x0 MSTORE DUP11 PUSH1 0x0 KECCAK256 SWAP3 PUSH1 0x0 JUMPDEST DUP13 DUP3 DUP3 LT PUSH3 0x345 JUMPI POP POP DUP5 GT PUSH3 0x32C JUMPI JUMPDEST POP POP POP DUP2 SHL ADD DUP2 SSTORE PUSH3 0xBB JUMP JUMPDEST ADD MLOAD PUSH1 0x0 NOT DUP4 DUP7 SHL PUSH1 0xF8 AND SHR NOT AND SWAP1 SSTORE CODESIZE DUP1 DUP1 PUSH3 0x31E JUMP JUMPDEST DUP4 DUP6 ADD MLOAD DUP7 SSTORE DUP15 SWAP8 SWAP1 SWAP6 ADD SWAP5 SWAP4 DUP5 ADD SWAP4 ADD PUSH3 0x30B JUMP JUMPDEST SWAP1 SWAP2 POP DUP4 PUSH1 0x0 MSTORE DUP9 PUSH1 0x0 KECCAK256 DUP7 DUP1 DUP6 ADD PUSH1 0x5 SHR DUP3 ADD SWAP3 DUP12 DUP7 LT PUSH3 0x3A8 JUMPI JUMPDEST SWAP2 DUP13 SWAP2 DUP7 SWAP6 SWAP5 SWAP4 ADD PUSH1 0x5 SHR ADD SWAP2 JUMPDEST DUP3 DUP2 LT PUSH3 0x398 JUMPI POP POP PUSH3 0x92 JUMP JUMPDEST PUSH1 0x0 DUP2 SSTORE DUP6 SWAP5 POP DUP13 SWAP2 ADD PUSH3 0x388 JUMP JUMPDEST SWAP3 POP DUP2 SWAP3 PUSH3 0x37A JUMP JUMPDEST PUSH4 0x4E487B71 PUSH1 0xE0 SHL PUSH1 0x0 MSTORE PUSH1 0x22 PUSH1 0x4 MSTORE PUSH1 0x24 PUSH1 0x0 REVERT JUMPDEST SWAP5 PUSH1 0x7F AND SWAP5 PUSH3 0x7B JUMP JUMPDEST PUSH1 0x0 DUP1 REVERT JUMPDEST PUSH1 0x40 DUP2 ADD SWAP1 DUP2 LT PUSH1 0x1 PUSH1 0x1 PUSH1 0x40 SHL SUB DUP3 GT OR PUSH3 0x2D3 JUMPI PUSH1 0x40 MSTORE JUMP INVALID PUSH1 0x80 PUSH1 0x40 MSTORE PUSH1 0x4 CALLDATASIZE LT ISZERO PUSH2 0x12 JUMPI PUSH1 0x0 DUP1 REVERT JUMPDEST PUSH1 0x0 DUP1 CALLDATALOAD PUSH1 0xE0 SHR DUP1 PUSH4 0x22C0D9F EQ PUSH2 0x1349 JUMPI DUP1 PUSH4 0x6FDDE03 EQ PUSH2 0x1306 JUMPI DUP1 PUSH4 0x902F1AC EQ PUSH2 0x12AD JUMPI DUP1 PUSH4 0x95EA7B3 EQ PUSH2 0x1286 JUMPI DUP1 PUSH4 0xDFE1681 EQ PUSH2 0x125D JUMPI DUP1 PUSH4 0x18160DDD EQ PUSH2 0x123F JUMPI DUP1 PUSH4 0x23B872DD EQ PUSH2 0x1182 JUMPI DUP1 PUSH4 0x30ADF81F EQ PUSH2 0x1147 JUMPI DUP1 PUSH4 0x313CE567 EQ PUSH2 0x112B JUMPI DUP1 PUSH4 0x3644E515 EQ PUSH2 0x10F0 JUMPI DUP1 PUSH4 0x39509351 EQ PUSH2 0x1096 JUMPI DUP1 PUSH4 0x485CC955 EQ PUSH2 0xFFA JUMPI DUP1 PUSH4 0x5909C0D5 EQ PUSH2 0xFDC JUMPI DUP1 PUSH4 0x5A3D5493 EQ PUSH2 0xFBE JUMPI DUP1 PUSH4 0x6A627842 EQ PUSH2 0xCDA JUMPI DUP1 PUSH4 0x70A08231 EQ PUSH2 0xCA2 JUMPI DUP1 PUSH4 0x7464FC3D EQ PUSH2 0xC84 JUMPI DUP1 PUSH4 0x7ECEBE00 EQ PUSH2 0xC4B JUMPI DUP1 PUSH4 0x89AFCB44 EQ PUSH2 0x7EA JUMPI DUP1 PUSH4 0x95D89B41 EQ PUSH2 0x7A7 JUMPI DUP1 PUSH4 0xA457C2D7 EQ PUSH2 0x6FF JUMPI DUP1 PUSH4 0xA9059CBB EQ PUSH2 0x6CD JUMPI DUP1 PUSH4 0xBA9A7A56 EQ PUSH2 0x6B0 JUMPI DUP1 PUSH4 0xBC25CF77 EQ PUSH2 0x567 JUMPI DUP1 PUSH4 0xC45A0155 EQ PUSH2 0x53E JUMPI DUP1 PUSH4 0xD21220A7 EQ PUSH2 0x515 JUMPI DUP1 PUSH4 0xD505ACCF EQ PUSH2 0x2E8 JUMPI DUP1 PUSH4 0xDD62ED3E EQ PUSH2 0x290 JUMPI PUSH4 0xFFF6CAE9 EQ PUSH2 0x15C JUMPI PUSH1 0x0 DUP1 REVERT JUMPDEST CALLVALUE PUSH2 0x28D JUMPI DUP1 PUSH1 0x3 NOT CALLDATASIZE ADD SLT PUSH2 0x28D JUMPI PUSH2 0x17A PUSH1 0x1 PUSH1 0xD SLOAD EQ PUSH2 0x1CC7 JUMP JUMPDEST PUSH1 0xD DUP2 SWAP1 SSTORE PUSH1 0x7 SLOAD PUSH1 0x40 MLOAD PUSH4 0x70A08231 PUSH1 0xE0 SHL DUP1 DUP3 MSTORE ADDRESS PUSH1 0x4 DUP4 ADD MSTORE SWAP2 PUSH1 0x20 SWAP2 PUSH1 0x1 PUSH1 0x1 PUSH1 0xA0 SHL SUB SWAP2 DUP4 SWAP1 DUP3 SWAP1 PUSH1 0x24 SWAP1 DUP3 SWAP1 DUP7 AND GAS STATICCALL SWAP2 DUP3 ISZERO PUSH2 0x282 JUMPI DUP4 SWAP2 DUP7 SWAP4 PUSH2 0x251 JUMPI JUMPDEST POP PUSH1 0x8 SLOAD AND SWAP4 PUSH1 0x24 PUSH1 0x40 MLOAD DUP1 SWAP7 DUP2 SWAP4 DUP3 MSTORE ADDRESS PUSH1 0x4 DUP4 ADD MSTORE GAS STATICCALL SWAP2 DUP3 ISZERO PUSH2 0x246 JUMPI DUP5 SWAP3 PUSH2 0x20F JUMPI JUMPDEST POP PUSH2 0x207 SWAP3 POP PUSH1 0x9 SLOAD SWAP2 PUSH1 0x1 PUSH1 0x1 PUSH1 0x70 SHL SUB DUP1 DUP5 PUSH1 0x70 SHR AND SWAP4 AND SWAP2 PUSH2 0x1DEA JUMP JUMPDEST PUSH1 0x1 PUSH1 0xD SSTORE DUP1 RETURN JUMPDEST SWAP1 SWAP2 POP DUP3 DUP2 RETURNDATASIZE DUP4 GT PUSH2 0x23F JUMPI JUMPDEST PUSH2 0x226 DUP2 DUP4 PUSH2 0x1B37 JUMP JUMPDEST DUP2 ADD SUB SLT PUSH2 0x23A JUMPI PUSH2 0x207 SWAP2 MLOAD SWAP1 CODESIZE PUSH2 0x1E7 JUMP JUMPDEST PUSH1 0x0 DUP1 REVERT JUMPDEST POP RETURNDATASIZE PUSH2 0x21C JUMP JUMPDEST PUSH1 0x40 MLOAD RETURNDATASIZE DUP7 DUP3 RETURNDATACOPY RETURNDATASIZE SWAP1 REVERT JUMPDEST DUP3 DUP2 SWAP4 SWAP3 SWAP5 POP RETURNDATASIZE DUP4 GT PUSH2 0x27B JUMPI JUMPDEST PUSH2 0x269 DUP2 DUP4 PUSH2 0x1B37 JUMP JUMPDEST DUP2 ADD SUB SLT PUSH2 0x23A JUMPI DUP3 SWAP1 MLOAD SWAP2 CODESIZE PUSH2 0x1C0 JUMP JUMPDEST POP RETURNDATASIZE PUSH2 0x25F JUMP JUMPDEST PUSH1 0x40 MLOAD RETURNDATASIZE DUP8 DUP3 RETURNDATACOPY RETURNDATASIZE SWAP1 REVERT JUMPDEST DUP1 REVERT JUMPDEST POP CALLVALUE PUSH2 0x28D JUMPI PUSH1 0x40 CALLDATASIZE PUSH1 0x3 NOT ADD SLT PUSH2 0x28D JUMPI PUSH1 0x20 PUSH2 0x2E0 PUSH2 0x2AF PUSH2 0x1965 JUMP JUMPDEST PUSH2 0x2B7 PUSH2 0x197B JUMP JUMPDEST SWAP1 PUSH1 0x1 DUP1 PUSH1 0xA0 SHL SUB DUP1 SWAP2 AND PUSH1 0x0 MSTORE PUSH1 0x1 PUSH1 0x20 MSTORE PUSH1 0x40 PUSH1 0x0 KECCAK256 SWAP2 AND PUSH1 0x0 MSTORE PUSH1 0x20 MSTORE PUSH1 0x40 PUSH1 0x0 KECCAK256 SLOAD SWAP1 JUMP JUMPDEST PUSH1 0x40 MLOAD SWAP1 DUP2 MSTORE RETURN JUMPDEST POP CALLVALUE PUSH2 0x28D JUMPI PUSH1 0xE0 CALLDATASIZE PUSH1 0x3 NOT ADD SLT PUSH2 0x28D JUMPI PUSH2 0x302 PUSH2 0x1965 JUMP JUMPDEST PUSH2 0x30A PUSH2 0x197B JUMP JUMPDEST PUSH1 0x44 CALLDATALOAD SWAP1 PUSH1 0x64 CALLDATALOAD PUSH1 0x84 CALLDATALOAD SWAP1 PUSH1 0xFF DUP3 AND DUP1 SWAP3 SUB PUSH2 0x511 JUMPI TIMESTAMP DUP2 LT PUSH2 0x4D7 JUMPI PUSH1 0x1 PUSH1 0x1 PUSH1 0xA0 SHL SUB DUP6 DUP2 AND DUP1 DUP9 MSTORE PUSH1 0x5 PUSH1 0x20 MSTORE PUSH1 0x40 DUP9 KECCAK256 DUP1 SLOAD SWAP2 SWAP5 SWAP3 SWAP4 SWAP3 SWAP2 SWAP1 PUSH1 0x0 NOT DUP3 EQ PUSH2 0x4C3 JUMPI PUSH1 0x1 DUP3 ADD SWAP1 SSTORE PUSH1 0x40 MLOAD SWAP3 PUSH1 0x20 DUP5 ADD SWAP2 PUSH32 0x6E71EDAE12B1B97F4D1F60370FEF10105FA2FAAE0126114A169C64845D6126C9 DUP4 MSTORE DUP7 PUSH1 0x40 DUP7 ADD MSTORE DUP6 DUP9 AND PUSH1 0x60 DUP7 ADD MSTORE DUP9 PUSH1 0x80 DUP7 ADD MSTORE PUSH1 0xA0 DUP6 ADD MSTORE PUSH1 0xC0 DUP5 ADD MSTORE PUSH1 0xC0 DUP4 MSTORE PUSH1 0xE0 DUP4 ADD SWAP2 DUP4 DUP4 LT PUSH8 0xFFFFFFFFFFFFFFFF DUP5 GT OR PUSH2 0x4AD JUMPI PUSH1 0x20 SWAP4 DUP4 PUSH1 0x80 SWAP4 DUP13 SWAP6 PUSH1 0x40 MSTORE DUP3 MLOAD SWAP1 KECCAK256 PUSH2 0x122 PUSH2 0x100 DUP5 ADD SWAP4 PUSH2 0x1901 PUSH1 0xF0 SHL DUP6 MSTORE PUSH32 0x0 PUSH2 0x102 DUP3 ADD MSTORE ADD MSTORE PUSH1 0x42 DUP2 MSTORE PUSH2 0x413 DUP2 PUSH2 0x1B1B JUMP JUMPDEST MLOAD SWAP1 KECCAK256 SWAP1 PUSH1 0x40 MLOAD SWAP2 DUP3 MSTORE DUP5 DUP3 ADD MSTORE PUSH1 0xA4 CALLDATALOAD PUSH1 0x40 DUP3 ADD MSTORE PUSH1 0xC4 CALLDATALOAD PUSH1 0x60 DUP3 ADD MSTORE DUP3 DUP1 MSTORE PUSH1 0x1 GAS STATICCALL ISZERO PUSH2 0x282 JUMPI DUP6 MLOAD AND SWAP1 DUP2 ISZERO ISZERO SWAP2 DUP3 PUSH2 0x4A3 JUMPI JUMPDEST POP POP ISZERO PUSH2 0x45E JUMPI PUSH2 0x45B SWAP3 PUSH2 0x19FD JUMP JUMPDEST DUP1 RETURN JUMPDEST PUSH1 0x40 MLOAD PUSH3 0x461BCD PUSH1 0xE5 SHL DUP2 MSTORE PUSH1 0x20 PUSH1 0x4 DUP3 ADD MSTORE PUSH1 0x1C PUSH1 0x24 DUP3 ADD MSTORE PUSH32 0x556E697377617056323A20494E56414C49445F5349474E415455524500000000 PUSH1 0x44 DUP3 ADD MSTORE PUSH1 0x64 SWAP1 REVERT JUMPDEST EQ SWAP1 POP CODESIZE DUP1 PUSH2 0x44B JUMP JUMPDEST PUSH4 0x4E487B71 PUSH1 0xE0 SHL PUSH1 0x0 MSTORE PUSH1 0x41 PUSH1 0x4 MSTORE PUSH1 0x24 PUSH1 0x0 REVERT JUMPDEST PUSH4 0x4E487B71 PUSH1 0xE0 SHL DUP11 MSTORE PUSH1 0x11 PUSH1 0x4 MSTORE PUSH1 0x24 DUP11 REVERT JUMPDEST PUSH1 0x40 MLOAD PUSH3 0x461BCD PUSH1 0xE5 SHL DUP2 MSTORE PUSH1 0x20 PUSH1 0x4 DUP3 ADD MSTORE PUSH1 0x12 PUSH1 0x24 DUP3 ADD MSTORE PUSH18 0x155B9A5CDDD85C158C8E8811561412549151 PUSH1 0x72 SHL PUSH1 0x44 DUP3 ADD MSTORE PUSH1 0x64 SWAP1 REVERT JUMPDEST DUP6 DUP1 REVERT JUMPDEST POP CALLVALUE PUSH2 0x28D JUMPI DUP1 PUSH1 0x3 NOT CALLDATASIZE ADD SLT PUSH2 0x28D JUMPI PUSH1 0x8 SLOAD PUSH1 0x40 MLOAD PUSH1 0x1 PUSH1 0x1 PUSH1 0xA0 SHL SUB SWAP1 SWAP2 AND DUP2 MSTORE PUSH1 0x20 SWAP1 RETURN JUMPDEST POP CALLVALUE PUSH2 0x28D JUMPI DUP1 PUSH1 0x3 NOT CALLDATASIZE ADD SLT PUSH2 0x28D JUMPI PUSH1 0x6 SLOAD PUSH1 0x40 MLOAD PUSH1 0x1 PUSH1 0x1 PUSH1 0xA0 SHL SUB SWAP1 SWAP2 AND DUP2 MSTORE PUSH1 0x20 SWAP1 RETURN JUMPDEST POP CALLVALUE PUSH2 0x28D JUMPI PUSH1 0x20 DUP1 PUSH1 0x3 NOT CALLDATASIZE ADD SLT PUSH2 0x6AC JUMPI PUSH2 0x582 PUSH2 0x1965 JUMP JUMPDEST SWAP1 PUSH2 0x591 PUSH1 0x1 PUSH1 0xD SLOAD EQ PUSH2 0x1CC7 JUMP JUMPDEST PUSH1 0xD DUP4 SWAP1 SSTORE PUSH1 0x7 SLOAD PUSH1 0x8 SLOAD PUSH1 0x40 MLOAD PUSH4 0x70A08231 PUSH1 0xE0 SHL DUP1 DUP3 MSTORE ADDRESS PUSH1 0x4 DUP4 ADD MSTORE SWAP1 SWAP5 PUSH1 0x1 PUSH1 0x1 PUSH1 0xA0 SHL SUB SWAP3 DUP4 AND SWAP5 SWAP1 SWAP4 SWAP1 SWAP3 AND DUP3 DUP7 PUSH1 0x24 DUP2 DUP5 GAS STATICCALL SWAP6 DUP7 ISZERO PUSH2 0x6A1 JUMPI DUP8 SWAP7 PUSH2 0x670 JUMPI JUMPDEST POP PUSH2 0x5FC SWAP1 DUP5 PUSH2 0x5F6 PUSH1 0x1 PUSH1 0x1 PUSH1 0x70 SHL SUB SWAP9 DUP10 PUSH1 0x9 SLOAD AND SWAP1 PUSH2 0x1D07 JUMP JUMPDEST SWAP2 PUSH2 0x2082 JUMP JUMPDEST PUSH1 0x40 MLOAD SWAP1 DUP2 MSTORE ADDRESS PUSH1 0x4 DUP3 ADD MSTORE DUP2 DUP2 PUSH1 0x24 DUP2 DUP8 GAS STATICCALL SWAP2 DUP3 ISZERO PUSH2 0x665 JUMPI DUP7 SWAP3 PUSH2 0x635 JUMPI JUMPDEST POP POP PUSH2 0x5F6 SWAP1 PUSH2 0x207 SWAP5 PUSH1 0x9 SLOAD PUSH1 0x70 SHR AND SWAP1 PUSH2 0x1D07 JUMP JUMPDEST SWAP1 DUP1 SWAP3 POP DUP2 RETURNDATASIZE DUP4 GT PUSH2 0x65E JUMPI JUMPDEST PUSH2 0x64C DUP2 DUP4 PUSH2 0x1B37 JUMP JUMPDEST DUP2 ADD SUB SLT PUSH2 0x23A JUMPI MLOAD DUP4 PUSH2 0x5F6 PUSH2 0x61E JUMP JUMPDEST POP RETURNDATASIZE PUSH2 0x642 JUMP JUMPDEST PUSH1 0x40 MLOAD RETURNDATASIZE DUP9 DUP3 RETURNDATACOPY RETURNDATASIZE SWAP1 REVERT JUMPDEST SWAP1 SWAP6 POP DUP3 DUP2 DUP2 RETURNDATASIZE DUP4 GT PUSH2 0x69A JUMPI JUMPDEST PUSH2 0x688 DUP2 DUP4 PUSH2 0x1B37 JUMP JUMPDEST DUP2 ADD SUB SLT PUSH2 0x23A JUMPI MLOAD SWAP5 PUSH2 0x5FC PUSH2 0x5D9 JUMP JUMPDEST POP RETURNDATASIZE PUSH2 0x67E JUMP JUMPDEST PUSH1 0x40 MLOAD RETURNDATASIZE DUP10 DUP3 RETURNDATACOPY RETURNDATASIZE SWAP1 REVERT JUMPDEST POP DUP1 REVERT JUMPDEST POP CALLVALUE PUSH2 0x28D JUMPI DUP1 PUSH1 0x3 NOT CALLDATASIZE ADD SLT PUSH2 0x28D JUMPI PUSH1 0x20 PUSH1 0x40 MLOAD PUSH2 0x3E8 DUP2 MSTORE RETURN JUMPDEST POP CALLVALUE PUSH2 0x28D JUMPI PUSH1 0x40 CALLDATASIZE PUSH1 0x3 NOT ADD SLT PUSH2 0x28D JUMPI PUSH2 0x6F4 PUSH2 0x6EA PUSH2 0x1965 JUMP JUMPDEST PUSH1 0x24 CALLDATALOAD SWAP1 CALLER PUSH2 0x1B59 JUMP JUMPDEST PUSH1 0x20 PUSH1 0x40 MLOAD PUSH1 0x1 DUP2 MSTORE RETURN JUMPDEST POP CALLVALUE PUSH2 0x28D JUMPI PUSH1 0x40 CALLDATASIZE PUSH1 0x3 NOT ADD SLT PUSH2 0x28D JUMPI PUSH2 0x719 PUSH2 0x1965 JUMP JUMPDEST CALLER PUSH1 0x0 SWAP1 DUP2 MSTORE PUSH1 0x1 PUSH1 0x20 SWAP1 DUP2 MSTORE PUSH1 0x40 DUP1 DUP4 KECCAK256 PUSH1 0x1 PUSH1 0x1 PUSH1 0xA0 SHL SUB DUP6 AND DUP5 MSTORE SWAP1 SWAP2 MSTORE SWAP1 KECCAK256 SLOAD SWAP1 PUSH1 0x24 CALLDATALOAD DUP1 DUP4 LT PUSH2 0x754 JUMPI PUSH2 0x6F4 SWAP3 SUB SWAP1 CALLER PUSH2 0x19FD JUMP JUMPDEST PUSH1 0x40 MLOAD PUSH3 0x461BCD PUSH1 0xE5 SHL DUP2 MSTORE PUSH1 0x20 PUSH1 0x4 DUP3 ADD MSTORE PUSH1 0x25 PUSH1 0x24 DUP3 ADD MSTORE PUSH32 0x45524332303A2064656372656173656420616C6C6F77616E63652062656C6F77 PUSH1 0x44 DUP3 ADD MSTORE PUSH5 0x207A65726F PUSH1 0xD8 SHL PUSH1 0x64 DUP3 ADD MSTORE PUSH1 0x84 SWAP1 REVERT JUMPDEST POP CALLVALUE PUSH2 0x28D JUMPI DUP1 PUSH1 0x3 NOT CALLDATASIZE ADD SLT PUSH2 0x28D JUMPI PUSH2 0x7E6 PUSH1 0x40 MLOAD PUSH2 0x7C7 DUP2 PUSH2 0x1AFF JUMP JUMPDEST PUSH1 0x6 DUP2 MSTORE PUSH6 0x2AA72496AB19 PUSH1 0xD1 SHL PUSH1 0x20 DUP3 ADD MSTORE PUSH1 0x40 MLOAD SWAP2 DUP3 SWAP2 DUP3 PUSH2 0x1991 JUMP JUMPDEST SUB SWAP1 RETURN JUMPDEST POP CALLVALUE PUSH2 0x28D JUMPI PUSH1 0x20 CALLDATASIZE PUSH1 0x3 NOT ADD SLT PUSH2 0x28D JUMPI PUSH2 0x804 PUSH2 0x1965 JUMP JUMPDEST PUSH2 0x812 PUSH1 0x1 PUSH1 0xD SLOAD EQ PUSH2 0x1CC7 JUMP JUMPDEST DUP2 PUSH1 0xD SSTORE PUSH2 0x835 PUSH1 0x9 SLOAD PUSH1 0x1 PUSH1 0x1 PUSH1 0x70 SHL SUB SWAP2 DUP3 DUP3 AND SWAP3 DUP3 PUSH1 0x70 SHR AND SWAP2 PUSH1 0xE0 SHR SWAP1 JUMP JUMPDEST POP PUSH1 0x7 SLOAD PUSH1 0x8 SLOAD PUSH1 0x40 MLOAD PUSH4 0x70A08231 PUSH1 0xE0 SHL DUP2 MSTORE ADDRESS PUSH1 0x4 DUP3 ADD MSTORE PUSH1 0x1 PUSH1 0x1 PUSH1 0xA0 SHL SUB SWAP3 DUP4 AND SWAP7 SWAP5 SWAP6 SWAP2 SWAP1 SWAP3 AND SWAP4 SWAP1 SWAP3 SWAP1 PUSH1 0x20 DUP4 PUSH1 0x24 DUP2 DUP11 GAS STATICCALL SWAP3 DUP4 ISZERO PUSH2 0xC3E JUMPI DUP2 SWAP4 PUSH2 0xC0A JUMPI JUMPDEST POP PUSH1 0x40 MLOAD PUSH4 0x70A08231 PUSH1 0xE0 SHL DUP2 MSTORE ADDRESS PUSH1 0x4 DUP3 ADD MSTORE SWAP7 PUSH1 0x20 DUP9 PUSH1 0x24 DUP2 DUP10 GAS STATICCALL SWAP6 DUP7 ISZERO PUSH2 0xBFF JUMPI DUP8 SWAP9 DUP4 SWAP9 SWAP8 PUSH2 0xBC8 JUMPI JUMPDEST POP ADDRESS DUP4 MSTORE DUP3 PUSH1 0x20 MSTORE PUSH2 0x8E7 PUSH2 0x8DB PUSH2 0x8DB PUSH2 0x8E0 PUSH2 0x8CE DUP9 PUSH1 0x40 DUP10 KECCAK256 SLOAD SWAP13 PUSH2 0x1F4A JUMP JUMPDEST SWAP9 PUSH1 0x2 SLOAD SWAP4 DUP5 SWAP2 DUP14 PUSH2 0x1D14 JUMP JUMPDEST PUSH2 0x1D27 JUMP JUMPDEST SWAP11 DUP11 PUSH2 0x1D14 JUMP JUMPDEST SWAP7 DUP9 ISZERO ISZERO DUP1 PUSH2 0xBBF JUMPI JUMPDEST ISZERO PUSH2 0xB69 JUMPI ADDRESS ISZERO PUSH2 0xB1A JUMPI ADDRESS DUP5 MSTORE DUP4 PUSH1 0x20 MSTORE PUSH1 0x40 DUP5 KECCAK256 SLOAD SWAP3 DUP2 DUP5 LT PUSH2 0xACA JUMPI DUP5 DUP3 PUSH1 0x20 SWAP4 PUSH1 0x24 SWAP7 ADDRESS DUP5 MSTORE DUP4 DUP7 MSTORE SUB PUSH1 0x40 DUP4 KECCAK256 SSTORE DUP1 PUSH1 0x2 SLOAD SUB PUSH1 0x2 SSTORE PUSH1 0x40 MLOAD SWAP1 DUP2 MSTORE PUSH32 0xDDF252AD1BE2C89B69C2B068FC378DAA952BA7F163C4A11628F55A4DF523B3EF DUP5 ADDRESS SWAP3 LOG3 PUSH2 0x962 DUP11 DUP10 DUP4 PUSH2 0x2082 JUMP JUMPDEST PUSH2 0x96D DUP10 DUP10 DUP6 PUSH2 0x2082 JUMP JUMPDEST PUSH1 0x40 MLOAD PUSH4 0x70A08231 PUSH1 0xE0 SHL DUP2 MSTORE ADDRESS PUSH1 0x4 DUP3 ADD MSTORE SWAP4 DUP5 SWAP2 DUP3 SWAP1 GAS STATICCALL SWAP2 DUP3 ISZERO PUSH2 0xABF JUMPI DUP4 SWAP3 PUSH2 0xA8A JUMPI JUMPDEST POP PUSH1 0x20 PUSH1 0x24 SWAP2 PUSH1 0x40 MLOAD SWAP3 DUP4 DUP1 SWAP3 PUSH4 0x70A08231 PUSH1 0xE0 SHL DUP3 MSTORE ADDRESS PUSH1 0x4 DUP4 ADD MSTORE GAS STATICCALL SWAP3 DUP4 ISZERO PUSH2 0xA7E JUMPI SWAP3 PUSH2 0xA43 JUMPI JUMPDEST POP SWAP7 PUSH2 0x9D0 SWAP3 SWAP2 PUSH1 0x40 SWAP9 PUSH2 0x1DEA JUMP JUMPDEST PUSH2 0xA20 JUMPI JUMPDEST DUP4 MLOAD SWAP1 DUP4 DUP3 MSTORE DUP3 PUSH1 0x20 DUP4 ADD MSTORE PUSH1 0x1 DUP1 PUSH1 0xA0 SHL SUB AND SWAP1 PUSH32 0xDCCD412F0B1252819CB1FD330B93224CA42612892BB3F4F789976E6D81936496 DUP6 CALLER SWAP3 LOG3 PUSH1 0x1 PUSH1 0xD SSTORE DUP3 MLOAD SWAP2 DUP3 MSTORE PUSH1 0x20 DUP3 ADD MSTORE RETURN JUMPDEST PUSH2 0xA3B PUSH1 0x9 SLOAD PUSH1 0x1 PUSH1 0x1 PUSH1 0x70 SHL SUB DUP1 DUP3 PUSH1 0x70 SHR AND SWAP2 AND PUSH2 0x1D14 JUMP JUMPDEST PUSH1 0xC SSTORE PUSH2 0x9D5 JUMP JUMPDEST SWAP3 SWAP2 POP SWAP7 PUSH1 0x20 DUP4 RETURNDATASIZE PUSH1 0x20 GT PUSH2 0xA76 JUMPI JUMPDEST DUP2 PUSH2 0xA60 PUSH1 0x20 SWAP4 DUP4 PUSH2 0x1B37 JUMP JUMPDEST DUP2 ADD SUB SLT PUSH2 0x23A JUMPI SWAP2 MLOAD SWAP2 SWAP7 SWAP1 SWAP2 SWAP1 PUSH1 0x40 PUSH2 0x9C1 JUMP JUMPDEST RETURNDATASIZE SWAP2 POP PUSH2 0xA53 JUMP JUMPDEST PUSH1 0x40 MLOAD SWAP1 RETURNDATASIZE SWAP1 DUP3 RETURNDATACOPY RETURNDATASIZE SWAP1 REVERT JUMPDEST SWAP1 SWAP2 POP PUSH1 0x20 DUP2 RETURNDATASIZE PUSH1 0x20 GT PUSH2 0xAB7 JUMPI JUMPDEST DUP2 PUSH2 0xAA6 PUSH1 0x20 SWAP4 DUP4 PUSH2 0x1B37 JUMP JUMPDEST DUP2 ADD SUB SLT PUSH2 0x23A JUMPI MLOAD SWAP1 PUSH1 0x20 PUSH2 0x995 JUMP JUMPDEST RETURNDATASIZE SWAP2 POP PUSH2 0xA99 JUMP JUMPDEST PUSH1 0x40 MLOAD RETURNDATASIZE DUP6 DUP3 RETURNDATACOPY RETURNDATASIZE SWAP1 REVERT JUMPDEST PUSH1 0x40 MLOAD PUSH3 0x461BCD PUSH1 0xE5 SHL DUP2 MSTORE PUSH1 0x20 PUSH1 0x4 DUP3 ADD MSTORE PUSH1 0x22 PUSH1 0x24 DUP3 ADD MSTORE PUSH32 0x45524332303A206275726E20616D6F756E7420657863656564732062616C616E PUSH1 0x44 DUP3 ADD MSTORE PUSH2 0x6365 PUSH1 0xF0 SHL PUSH1 0x64 DUP3 ADD MSTORE PUSH1 0x84 SWAP1 REVERT JUMPDEST PUSH1 0x40 MLOAD PUSH3 0x461BCD PUSH1 0xE5 SHL DUP2 MSTORE PUSH1 0x20 PUSH1 0x4 DUP3 ADD MSTORE PUSH1 0x21 PUSH1 0x24 DUP3 ADD MSTORE PUSH32 0x45524332303A206275726E2066726F6D20746865207A65726F20616464726573 PUSH1 0x44 DUP3 ADD MSTORE PUSH1 0x73 PUSH1 0xF8 SHL PUSH1 0x64 DUP3 ADD MSTORE PUSH1 0x84 SWAP1 REVERT JUMPDEST PUSH1 0x40 MLOAD PUSH3 0x461BCD PUSH1 0xE5 SHL DUP2 MSTORE PUSH1 0x20 PUSH1 0x4 DUP3 ADD MSTORE PUSH1 0x28 PUSH1 0x24 DUP3 ADD MSTORE PUSH32 0x556E697377617056323A20494E53554646494349454E545F4C49515549444954 PUSH1 0x44 DUP3 ADD MSTORE PUSH8 0x1657D09554939151 PUSH1 0xC2 SHL PUSH1 0x64 DUP3 ADD MSTORE PUSH1 0x84 SWAP1 REVERT JUMPDEST POP DUP8 ISZERO ISZERO PUSH2 0x8F1 JUMP JUMPDEST SWAP7 POP SWAP7 POP PUSH1 0x20 DUP7 RETURNDATASIZE PUSH1 0x20 GT PUSH2 0xBF7 JUMPI JUMPDEST DUP2 PUSH2 0xBE5 PUSH1 0x20 SWAP4 DUP4 PUSH2 0x1B37 JUMP JUMPDEST DUP2 ADD SUB SLT PUSH2 0x23A JUMPI DUP8 SWAP6 MLOAD SWAP7 CODESIZE PUSH2 0x8AB JUMP JUMPDEST RETURNDATASIZE SWAP2 POP PUSH2 0xBD8 JUMP JUMPDEST PUSH1 0x40 MLOAD RETURNDATASIZE DUP5 DUP3 RETURNDATACOPY RETURNDATASIZE SWAP1 REVERT JUMPDEST SWAP1 SWAP3 POP PUSH1 0x20 DUP2 RETURNDATASIZE PUSH1 0x20 GT PUSH2 0xC36 JUMPI JUMPDEST DUP2 PUSH2 0xC26 PUSH1 0x20 SWAP4 DUP4 PUSH2 0x1B37 JUMP JUMPDEST DUP2 ADD SUB SLT PUSH2 0x23A JUMPI MLOAD SWAP2 CODESIZE PUSH2 0x87C JUMP JUMPDEST RETURNDATASIZE SWAP2 POP PUSH2 0xC19 JUMP JUMPDEST POP PUSH1 0x40 MLOAD SWAP1 RETURNDATASIZE SWAP1 DUP3 RETURNDATACOPY RETURNDATASIZE SWAP1 REVERT JUMPDEST POP CALLVALUE PUSH2 0x28D JUMPI PUSH1 0x20 CALLDATASIZE PUSH1 0x3 NOT ADD SLT PUSH2 0x28D JUMPI PUSH1 0x20 SWAP1 PUSH1 0x40 SWAP1 PUSH1 0x1 PUSH1 0x1 PUSH1 0xA0 SHL SUB PUSH2 0xC73 PUSH2 0x1965 JUMP JUMPDEST AND DUP2 MSTORE PUSH1 0x5 DUP4 MSTORE KECCAK256 SLOAD PUSH1 0x40 MLOAD SWAP1 DUP2 MSTORE RETURN JUMPDEST POP CALLVALUE PUSH2 0x28D JUMPI DUP1 PUSH1 0x3 NOT CALLDATASIZE ADD SLT PUSH2 0x28D JUMPI PUSH1 0x20 PUSH1 0xC SLOAD PUSH1 0x40 MLOAD SWAP1 DUP2 MSTORE RETURN JUMPDEST POP CALLVALUE PUSH2 0x28D JUMPI PUSH1 0x20 CALLDATASIZE PUSH1 0x3 NOT ADD SLT PUSH2 0x28D JUMPI PUSH1 0x20 SWAP1 PUSH1 0x40 SWAP1 PUSH1 0x1 PUSH1 0x1 PUSH1 0xA0 SHL SUB PUSH2 0xCCA PUSH2 0x1965 JUMP JUMPDEST AND DUP2 MSTORE DUP1 DUP4 MSTORE KECCAK256 SLOAD PUSH1 0x40 MLOAD SWAP1 DUP2 MSTORE RETURN JUMPDEST POP CALLVALUE PUSH2 0x28D JUMPI PUSH1 0x20 DUP1 PUSH1 0x3 NOT CALLDATASIZE ADD SLT PUSH2 0x6AC JUMPI PUSH2 0xCF5 PUSH2 0x1965 JUMP JUMPDEST PUSH2 0xD03 PUSH1 0x1 PUSH1 0xD SLOAD EQ PUSH2 0x1CC7 JUMP JUMPDEST DUP3 PUSH1 0xD SSTORE PUSH2 0xD26 PUSH1 0x9 SLOAD PUSH1 0x1 PUSH1 0x1 PUSH1 0x70 SHL SUB SWAP2 DUP3 DUP3 AND SWAP3 DUP3 PUSH1 0x70 SHR AND SWAP2 PUSH1 0xE0 SHR SWAP1 JUMP JUMPDEST POP PUSH1 0x7 SLOAD PUSH1 0x40 MLOAD PUSH4 0x70A08231 PUSH1 0xE0 SHL DUP1 DUP3 MSTORE ADDRESS PUSH1 0x4 DUP4 ADD MSTORE SWAP4 SWAP5 SWAP3 SWAP2 PUSH1 0x1 PUSH1 0x1 PUSH1 0xA0 SHL SUB SWAP2 SWAP1 DUP8 SWAP1 DUP3 SWAP1 PUSH1 0x24 SWAP1 DUP3 SWAP1 DUP7 AND GAS STATICCALL SWAP2 DUP3 ISZERO PUSH2 0xFB3 JUMPI DUP8 SWAP2 DUP10 SWAP4 PUSH2 0xF82 JUMPI JUMPDEST POP PUSH1 0x8 SLOAD AND SWAP5 PUSH1 0x24 PUSH1 0x40 MLOAD DUP1 SWAP8 DUP2 SWAP4 DUP3 MSTORE ADDRESS PUSH1 0x4 DUP4 ADD MSTORE GAS STATICCALL SWAP4 DUP5 ISZERO PUSH2 0x6A1 JUMPI DUP8 SWAP5 PUSH2 0xF53 JUMPI JUMPDEST POP PUSH1 0x1 PUSH1 0x1 PUSH1 0x70 SHL SUB SWAP2 DUP3 DUP7 AND SWAP6 PUSH2 0xDA8 DUP8 DUP5 PUSH2 0x1D07 JUMP JUMPDEST SWAP6 DUP5 DUP4 AND SWAP4 PUSH2 0xDB7 DUP6 DUP4 PUSH2 0x1D07 JUMP JUMPDEST SWAP9 PUSH2 0xDC2 DUP6 DUP6 PUSH2 0x1F4A JUMP JUMPDEST SWAP6 PUSH1 0x2 SLOAD SWAP2 DUP3 ISZERO PUSH1 0x0 EQ PUSH2 0xE4B JUMPI DUP14 DUP14 PUSH2 0xDE4 PUSH2 0xDDF DUP16 DUP16 PUSH2 0x1D14 JUMP JUMPDEST PUSH2 0x21CF JUMP JUMPDEST PUSH2 0x3E7 NOT DUP2 ADD SWAP1 DUP2 GT PUSH2 0xE37 JUMPI PUSH1 0x64 SWAP3 POP POP PUSH1 0x40 MLOAD SWAP1 PUSH3 0x461BCD PUSH1 0xE5 SHL DUP3 MSTORE PUSH1 0x4 DUP3 ADD MSTORE PUSH1 0x1F PUSH1 0x24 DUP3 ADD MSTORE PUSH32 0x45524332303A206D696E7420746F20746865207A65726F206164647265737300 PUSH1 0x44 DUP3 ADD MSTORE REVERT JUMPDEST PUSH4 0x4E487B71 PUSH1 0xE0 SHL DUP4 MSTORE PUSH1 0x11 PUSH1 0x4 MSTORE PUSH1 0x24 DUP4 REVERT JUMPDEST DUP14 SWAP2 PUSH2 0x8DB PUSH2 0xE65 PUSH2 0xE6C SWAP4 SWAP13 SWAP15 SWAP13 PUSH2 0x8DB DUP16 DUP9 SWAP1 PUSH2 0x1D14 JUMP JUMPDEST SWAP5 DUP13 PUSH2 0x1D14 JUMP JUMPDEST SWAP1 POP DUP1 DUP3 LT ISZERO PUSH2 0xF4C JUMPI POP JUMPDEST SWAP9 DUP10 ISZERO PUSH2 0xEF6 JUMPI SWAP1 PUSH2 0xE90 DUP11 PUSH2 0xE95 SWAP7 SWAP6 SWAP5 SWAP4 PUSH2 0x1D47 JUMP JUMPDEST PUSH2 0x1DEA JUMP JUMPDEST PUSH2 0xED8 JUMPI JUMPDEST POP PUSH1 0x40 MLOAD SWAP2 DUP3 MSTORE DUP4 DUP3 ADD MSTORE PUSH32 0x4C209B5FC8AD50758F13E2E1088BA56A560DFF690A1C6FEF26394F4C03821C4F PUSH1 0x40 CALLER SWAP3 LOG2 PUSH1 0x1 PUSH1 0xD SSTORE PUSH1 0x40 MLOAD SWAP1 DUP2 MSTORE RETURN JUMPDEST PUSH2 0xEED SWAP1 PUSH1 0x9 SLOAD SWAP1 DUP1 DUP3 PUSH1 0x70 SHR AND SWAP2 AND PUSH2 0x1D14 JUMP JUMPDEST PUSH1 0xC SSTORE DUP5 PUSH2 0xE9A JUMP JUMPDEST PUSH1 0x40 MLOAD PUSH3 0x461BCD PUSH1 0xE5 SHL DUP2 MSTORE PUSH1 0x4 DUP2 ADD DUP13 SWAP1 MSTORE PUSH1 0x28 PUSH1 0x24 DUP3 ADD MSTORE PUSH32 0x556E697377617056323A20494E53554646494349454E545F4C49515549444954 PUSH1 0x44 DUP3 ADD MSTORE PUSH8 0x1657D35253951151 PUSH1 0xC2 SHL PUSH1 0x64 DUP3 ADD MSTORE PUSH1 0x84 SWAP1 REVERT JUMPDEST SWAP1 POP PUSH2 0xE78 JUMP JUMPDEST SWAP1 SWAP4 POP DUP6 DUP2 DUP2 RETURNDATASIZE DUP4 GT PUSH2 0xF7B JUMPI JUMPDEST PUSH2 0xF6B DUP2 DUP4 PUSH2 0x1B37 JUMP JUMPDEST DUP2 ADD SUB SLT PUSH2 0x23A JUMPI MLOAD SWAP3 CODESIZE PUSH2 0xD90 JUMP JUMPDEST POP RETURNDATASIZE PUSH2 0xF61 JUMP JUMPDEST DUP3 DUP2 SWAP4 SWAP3 SWAP5 POP RETURNDATASIZE DUP4 GT PUSH2 0xFAC JUMPI JUMPDEST PUSH2 0xF9A DUP2 DUP4 PUSH2 0x1B37 JUMP JUMPDEST DUP2 ADD SUB SLT PUSH2 0x23A JUMPI DUP7 SWAP1 MLOAD SWAP2 CODESIZE PUSH2 0xD69 JUMP JUMPDEST POP RETURNDATASIZE PUSH2 0xF90 JUMP JUMPDEST PUSH1 0x40 MLOAD RETURNDATASIZE DUP11 DUP3 RETURNDATACOPY RETURNDATASIZE SWAP1 REVERT JUMPDEST POP CALLVALUE PUSH2 0x28D JUMPI DUP1 PUSH1 0x3 NOT CALLDATASIZE ADD SLT PUSH2 0x28D JUMPI PUSH1 0x20 PUSH1 0xB SLOAD PUSH1 0x40 MLOAD SWAP1 DUP2 MSTORE RETURN JUMPDEST POP CALLVALUE PUSH2 0x28D JUMPI DUP1 PUSH1 0x3 NOT CALLDATASIZE ADD SLT PUSH2 0x28D JUMPI PUSH1 0x20 PUSH1 0xA SLOAD PUSH1 0x40 MLOAD SWAP1 DUP2 MSTORE RETURN JUMPDEST POP CALLVALUE PUSH2 0x28D JUMPI PUSH1 0x40 CALLDATASIZE PUSH1 0x3 NOT ADD SLT PUSH2 0x28D JUMPI PUSH2 0x1014 PUSH2 0x1965 JUMP JUMPDEST PUSH2 0x101C PUSH2 0x197B JUMP JUMPDEST PUSH1 0x6 SLOAD PUSH1 0x1 PUSH1 0x1 PUSH1 0xA0 SHL SUB SWAP2 SWAP1 DUP3 AND CALLER SUB PUSH2 0x105A JUMPI DUP2 PUSH12 0xFFFFFFFFFFFFFFFFFFFFFFFF PUSH1 0xA0 SHL SWAP4 AND DUP4 PUSH1 0x7 SLOAD AND OR PUSH1 0x7 SSTORE AND SWAP1 PUSH1 0x8 SLOAD AND OR PUSH1 0x8 SSTORE DUP1 RETURN JUMPDEST PUSH1 0x40 MLOAD PUSH3 0x461BCD PUSH1 0xE5 SHL DUP2 MSTORE PUSH1 0x20 PUSH1 0x4 DUP3 ADD MSTORE PUSH1 0x14 PUSH1 0x24 DUP3 ADD MSTORE PUSH20 0x2AB734B9BBB0B82B191D102327A92124A22222A7 PUSH1 0x61 SHL PUSH1 0x44 DUP3 ADD MSTORE PUSH1 0x64 SWAP1 REVERT JUMPDEST POP CALLVALUE PUSH2 0x28D JUMPI PUSH1 0x40 CALLDATASIZE PUSH1 0x3 NOT ADD SLT PUSH2 0x28D JUMPI PUSH2 0x6F4 PUSH2 0x10B3 PUSH2 0x1965 JUMP JUMPDEST CALLER PUSH1 0x0 SWAP1 DUP2 MSTORE PUSH1 0x1 PUSH1 0x20 SWAP1 DUP2 MSTORE PUSH1 0x40 DUP1 DUP4 KECCAK256 PUSH1 0x1 PUSH1 0x1 PUSH1 0xA0 SHL SUB DUP6 AND DUP5 MSTORE SWAP1 SWAP2 MSTORE SWAP1 KECCAK256 SLOAD PUSH2 0x10E9 SWAP1 PUSH1 0x24 CALLDATALOAD SWAP1 PUSH2 0x19DA JUMP JUMPDEST PUSH2 0x19DA JUMP JUMPDEST SWAP1 CALLER PUSH2 0x19FD JUMP JUMPDEST POP CALLVALUE PUSH2 0x28D JUMPI DUP1 PUSH1 0x3 NOT CALLDATASIZE ADD SLT PUSH2 0x28D JUMPI PUSH1 0x20 PUSH1 0x40 MLOAD PUSH32 0x0 DUP2 MSTORE RETURN JUMPDEST POP CALLVALUE PUSH2 0x28D JUMPI DUP1 PUSH1 0x3 NOT CALLDATASIZE ADD SLT PUSH2 0x28D JUMPI PUSH1 0x20 PUSH1 0x40 MLOAD PUSH1 0x12 DUP2 MSTORE RETURN JUMPDEST POP CALLVALUE PUSH2 0x28D JUMPI DUP1 PUSH1 0x3 NOT CALLDATASIZE ADD SLT PUSH2 0x28D JUMPI PUSH1 0x20 PUSH1 0x40 MLOAD PUSH32 0x6E71EDAE12B1B97F4D1F60370FEF10105FA2FAAE0126114A169C64845D6126C9 DUP2 MSTORE RETURN JUMPDEST POP CALLVALUE PUSH2 0x28D JUMPI PUSH1 0x60 CALLDATASIZE PUSH1 0x3 NOT ADD SLT PUSH2 0x28D JUMPI PUSH2 0x119C PUSH2 0x1965 JUMP JUMPDEST SWAP1 PUSH2 0x11A5 PUSH2 0x197B JUMP JUMPDEST PUSH1 0x40 PUSH1 0x44 CALLDATALOAD SWAP3 PUSH1 0x1 DUP1 PUSH1 0xA0 SHL SUB DUP6 AND DUP2 MSTORE PUSH1 0x1 PUSH1 0x20 MSTORE KECCAK256 CALLER PUSH1 0x0 MSTORE PUSH1 0x20 MSTORE PUSH1 0x40 PUSH1 0x0 KECCAK256 SLOAD SWAP3 PUSH1 0x0 NOT DUP5 SUB PUSH2 0x11DE JUMPI JUMPDEST PUSH2 0x6F4 SWAP4 POP PUSH2 0x1B59 JUMP JUMPDEST DUP3 DUP5 LT PUSH2 0x11FA JUMPI PUSH2 0x11F5 DUP4 PUSH2 0x6F4 SWAP6 SUB CALLER DUP4 PUSH2 0x19FD JUMP JUMPDEST PUSH2 0x11D4 JUMP JUMPDEST PUSH1 0x40 MLOAD PUSH3 0x461BCD PUSH1 0xE5 SHL DUP2 MSTORE PUSH1 0x20 PUSH1 0x4 DUP3 ADD MSTORE PUSH1 0x1D PUSH1 0x24 DUP3 ADD MSTORE PUSH32 0x45524332303A20696E73756666696369656E7420616C6C6F77616E6365000000 PUSH1 0x44 DUP3 ADD MSTORE PUSH1 0x64 SWAP1 REVERT JUMPDEST POP CALLVALUE PUSH2 0x28D JUMPI DUP1 PUSH1 0x3 NOT CALLDATASIZE ADD SLT PUSH2 0x28D JUMPI PUSH1 0x20 PUSH1 0x2 SLOAD PUSH1 0x40 MLOAD SWAP1 DUP2 MSTORE RETURN JUMPDEST POP CALLVALUE PUSH2 0x28D JUMPI DUP1 PUSH1 0x3 NOT CALLDATASIZE ADD SLT PUSH2 0x28D JUMPI PUSH1 0x7 SLOAD PUSH1 0x40 MLOAD PUSH1 0x1 PUSH1 0x1 PUSH1 0xA0 SHL SUB SWAP1 SWAP2 AND DUP2 MSTORE PUSH1 0x20 SWAP1 RETURN JUMPDEST POP CALLVALUE PUSH2 0x28D JUMPI PUSH1 0x40 CALLDATASIZE PUSH1 0x3 NOT ADD SLT PUSH2 0x28D JUMPI PUSH2 0x6F4 PUSH2 0x12A3 PUSH2 0x1965 JUMP JUMPDEST PUSH1 0x24 CALLDATALOAD SWAP1 CALLER PUSH2 0x19FD JUMP JUMPDEST POP CALLVALUE PUSH2 0x28D JUMPI DUP1 PUSH1 0x3 NOT CALLDATASIZE ADD SLT PUSH2 0x28D JUMPI PUSH1 0x60 PUSH4 0xFFFFFFFF PUSH2 0x12E4 PUSH1 0x9 SLOAD PUSH1 0x1 PUSH1 0x1 PUSH1 0x70 SHL SUB SWAP2 DUP3 DUP3 AND SWAP3 DUP3 PUSH1 0x70 SHR AND SWAP2 PUSH1 0xE0 SHR SWAP1 JUMP JUMPDEST SWAP1 SWAP3 SWAP2 PUSH1 0x40 MLOAD SWAP4 PUSH1 0x1 PUSH1 0x1 PUSH1 0x70 SHL SUB DUP1 SWAP3 AND DUP6 MSTORE AND PUSH1 0x20 DUP5 ADD MSTORE AND PUSH1 0x40 DUP3 ADD MSTORE RETURN JUMPDEST POP CALLVALUE PUSH2 0x28D JUMPI DUP1 PUSH1 0x3 NOT CALLDATASIZE ADD SLT PUSH2 0x28D JUMPI PUSH2 0x7E6 PUSH1 0x40 MLOAD PUSH2 0x1326 DUP2 PUSH2 0x1AFF JUMP JUMPDEST PUSH1 0xA DUP2 MSTORE PUSH10 0x2AB734B9BBB0B8102B19 PUSH1 0xB1 SHL PUSH1 0x20 DUP3 ADD MSTORE PUSH1 0x40 MLOAD SWAP2 DUP3 SWAP2 DUP3 PUSH2 0x1991 JUMP JUMPDEST POP CALLVALUE PUSH2 0x28D JUMPI PUSH1 0x80 CALLDATASIZE PUSH1 0x3 NOT ADD SLT PUSH2 0x28D JUMPI PUSH1 0x1 PUSH1 0x1 PUSH1 0xA0 SHL SUB PUSH1 0x44 CALLDATALOAD DUP1 DUP3 AND SWAP1 SUB PUSH2 0x6AC JUMPI PUSH8 0xFFFFFFFFFFFFFFFF PUSH1 0x64 CALLDATALOAD GT PUSH2 0x6AC JUMPI CALLDATASIZE PUSH1 0x23 PUSH1 0x64 CALLDATALOAD ADD SLT ISZERO PUSH2 0x6AC JUMPI PUSH8 0xFFFFFFFFFFFFFFFF PUSH1 0x64 CALLDATALOAD PUSH1 0x4 ADD CALLDATALOAD GT PUSH2 0x6AC JUMPI CALLDATASIZE PUSH1 0x24 PUSH1 0x64 CALLDATALOAD PUSH1 0x4 ADD CALLDATALOAD PUSH1 0x64 CALLDATALOAD ADD ADD GT PUSH2 0x6AC JUMPI PUSH2 0x13C4 PUSH1 0x1 PUSH1 0xD SLOAD EQ PUSH2 0x1CC7 JUMP JUMPDEST DUP2 PUSH1 0xD SSTORE PUSH1 0x4 CALLDATALOAD ISZERO SWAP1 DUP2 ISZERO DUP1 SWAP3 PUSH2 0x195A JUMPI JUMPDEST ISZERO PUSH2 0x1907 JUMPI PUSH2 0x13FA PUSH1 0x9 SLOAD PUSH1 0x1 PUSH1 0x1 PUSH1 0x70 SHL SUB SWAP2 DUP3 DUP3 AND SWAP3 DUP3 PUSH1 0x70 SHR AND SWAP2 PUSH1 0xE0 SHR SWAP1 JUMP JUMPDEST POP PUSH1 0x1 PUSH1 0x1 PUSH1 0x70 SHL SUB DUP3 SWAP5 SWAP3 AND PUSH1 0x4 CALLDATALOAD LT DUP1 PUSH2 0x18F3 JUMPI JUMPDEST ISZERO PUSH2 0x18A4 JUMPI DUP3 PUSH1 0x7 SLOAD AND DUP4 PUSH1 0x8 SLOAD AND SWAP3 DUP2 DUP6 PUSH1 0x44 CALLDATALOAD AND EQ ISZERO DUP1 PUSH2 0x1896 JUMPI JUMPDEST ISZERO PUSH2 0x1859 JUMPI PUSH2 0x1845 JUMPI JUMPDEST PUSH1 0x24 CALLDATALOAD PUSH2 0x1831 JUMPI JUMPDEST PUSH1 0x64 CALLDATALOAD PUSH1 0x4 ADD CALLDATALOAD PUSH2 0x176E JUMPI JUMPDEST SWAP1 PUSH1 0x20 PUSH1 0x24 SWAP3 PUSH1 0x40 MLOAD SWAP4 DUP5 DUP1 SWAP3 PUSH4 0x70A08231 PUSH1 0xE0 SHL DUP3 MSTORE ADDRESS PUSH1 0x4 DUP4 ADD MSTORE GAS STATICCALL SWAP2 DUP3 ISZERO PUSH2 0x665 JUMPI DUP7 SWAP3 PUSH2 0x1737 JUMPI JUMPDEST POP PUSH1 0x20 PUSH1 0x24 SWAP4 PUSH1 0x40 MLOAD SWAP5 DUP6 DUP1 SWAP3 PUSH4 0x70A08231 PUSH1 0xE0 SHL DUP3 MSTORE ADDRESS PUSH1 0x4 DUP4 ADD MSTORE GAS STATICCALL SWAP3 DUP4 ISZERO PUSH2 0x665 JUMPI DUP7 SWAP4 PUSH2 0x1703 JUMPI JUMPDEST POP PUSH2 0x14BD PUSH1 0x4 CALLDATALOAD PUSH1 0x1 PUSH1 0x1 PUSH1 0x70 SHL SUB DUP8 AND PUSH2 0x1D07 JUMP JUMPDEST DUP3 GT ISZERO PUSH2 0x16FC JUMPI PUSH2 0x14E2 PUSH2 0x14DC PUSH1 0x4 CALLDATALOAD PUSH1 0x1 PUSH1 0x1 PUSH1 0x70 SHL SUB DUP9 AND PUSH2 0x1D07 JUMP JUMPDEST DUP4 PUSH2 0x1D07 JUMP JUMPDEST SWAP5 JUMPDEST PUSH2 0x14F9 PUSH1 0x24 CALLDATALOAD PUSH1 0x1 PUSH1 0x1 PUSH1 0x70 SHL SUB DUP5 AND PUSH2 0x1D07 JUMP JUMPDEST DUP5 GT ISZERO PUSH2 0x16F5 JUMPI PUSH2 0x151E PUSH2 0x1518 PUSH1 0x24 CALLDATALOAD PUSH1 0x1 PUSH1 0x1 PUSH1 0x70 SHL SUB DUP6 AND PUSH2 0x1D07 JUMP JUMPDEST DUP6 PUSH2 0x1D07 JUMP JUMPDEST SWAP4 JUMPDEST DUP7 ISZERO ISZERO DUP8 ISZERO PUSH2 0x16EC JUMPI JUMPDEST ISZERO PUSH2 0x169B JUMPI DUP4 PUSH2 0x3E8 DUP2 MUL DIV PUSH2 0x3E8 EQ DUP5 ISZERO OR ISZERO PUSH2 0x1687 JUMPI PUSH1 0x3 DUP8 MUL DUP8 DUP2 DIV PUSH1 0x3 EQ DUP9 ISZERO OR ISZERO PUSH2 0x1673 JUMPI PUSH2 0x1562 SWAP1 PUSH2 0x3E8 DUP7 MUL PUSH2 0x1D07 JUMP JUMPDEST PUSH2 0x3E8 DUP3 MUL DUP3 DUP2 DIV PUSH2 0x3E8 EQ DUP4 ISZERO OR ISZERO PUSH2 0x4C3 JUMPI PUSH1 0x3 DUP8 MUL SWAP1 DUP8 DUP3 DIV PUSH1 0x3 EQ DUP9 ISZERO OR ISZERO PUSH2 0x165F JUMPI PUSH2 0x159D SWAP3 SWAP2 PUSH2 0x1597 SWAP2 PUSH2 0x1D07 JUMP JUMPDEST SWAP1 PUSH2 0x1D14 JUMP JUMPDEST PUSH2 0x15B9 PUSH1 0x1 PUSH1 0x1 PUSH1 0x70 SHL SUB DUP6 AND PUSH1 0x1 PUSH1 0x1 PUSH1 0x70 SHL SUB DUP6 AND PUSH2 0x1D14 JUMP JUMPDEST SWAP1 PUSH3 0xF4240 SWAP2 DUP3 DUP2 MUL SWAP3 DUP2 DUP5 DIV EQ SWAP1 ISZERO OR ISZERO PUSH2 0x4C3 JUMPI LT PUSH2 0x162B JUMPI PUSH2 0x15DD SWAP4 PUSH2 0x1DEA JUMP JUMPDEST PUSH1 0x40 MLOAD SWAP3 DUP4 MSTORE PUSH1 0x20 DUP4 ADD MSTORE PUSH1 0x4 CALLDATALOAD PUSH1 0x40 DUP4 ADD MSTORE PUSH1 0x24 CALLDATALOAD PUSH1 0x60 DUP4 ADD MSTORE PUSH1 0x44 CALLDATALOAD AND SWAP1 PUSH32 0xD78AD95FA46C994B6551D0DA85FC275FE613CE37657FB8D5E3D130840159D822 PUSH1 0x80 CALLER SWAP3 LOG3 PUSH1 0x1 PUSH1 0xD SSTORE DUP1 RETURN JUMPDEST PUSH1 0x40 MLOAD PUSH3 0x461BCD PUSH1 0xE5 SHL DUP2 MSTORE PUSH1 0x20 PUSH1 0x4 DUP3 ADD MSTORE PUSH1 0xC PUSH1 0x24 DUP3 ADD MSTORE PUSH12 0x556E697377617056323A204B PUSH1 0xA0 SHL PUSH1 0x44 DUP3 ADD MSTORE PUSH1 0x64 SWAP1 REVERT JUMPDEST PUSH4 0x4E487B71 PUSH1 0xE0 SHL DUP12 MSTORE PUSH1 0x11 PUSH1 0x4 MSTORE PUSH1 0x24 DUP12 REVERT JUMPDEST PUSH4 0x4E487B71 PUSH1 0xE0 SHL DUP10 MSTORE PUSH1 0x11 PUSH1 0x4 MSTORE PUSH1 0x24 DUP10 REVERT JUMPDEST PUSH4 0x4E487B71 PUSH1 0xE0 SHL DUP9 MSTORE PUSH1 0x11 PUSH1 0x4 MSTORE PUSH1 0x24 DUP9 REVERT JUMPDEST PUSH1 0x40 MLOAD PUSH3 0x461BCD PUSH1 0xE5 SHL DUP2 MSTORE PUSH1 0x20 PUSH1 0x4 DUP3 ADD MSTORE PUSH1 0x24 DUP1 DUP3 ADD MSTORE PUSH32 0x556E697377617056323A20494E53554646494349454E545F494E5055545F414D PUSH1 0x44 DUP3 ADD MSTORE PUSH4 0x13D55395 PUSH1 0xE2 SHL PUSH1 0x64 DUP3 ADD MSTORE PUSH1 0x84 SWAP1 REVERT JUMPDEST POP DUP5 ISZERO ISZERO PUSH2 0x152A JUMP JUMPDEST DUP7 SWAP4 PUSH2 0x1520 JUMP JUMPDEST DUP6 SWAP5 PUSH2 0x14E4 JUMP JUMPDEST SWAP1 SWAP3 POP PUSH1 0x20 DUP2 RETURNDATASIZE PUSH1 0x20 GT PUSH2 0x172F JUMPI JUMPDEST DUP2 PUSH2 0x171F PUSH1 0x20 SWAP4 DUP4 PUSH2 0x1B37 JUMP JUMPDEST DUP2 ADD SUB SLT PUSH2 0x23A JUMPI MLOAD SWAP2 CODESIZE PUSH2 0x14A7 JUMP JUMPDEST RETURNDATASIZE SWAP2 POP PUSH2 0x1712 JUMP JUMPDEST SWAP3 SWAP2 POP PUSH1 0x20 DUP4 RETURNDATASIZE PUSH1 0x20 GT PUSH2 0x1766 JUMPI JUMPDEST DUP2 PUSH2 0x1753 PUSH1 0x20 SWAP4 DUP4 PUSH2 0x1B37 JUMP JUMPDEST DUP2 ADD SUB SLT PUSH2 0x23A JUMPI SWAP2 MLOAD SWAP1 SWAP2 PUSH1 0x20 PUSH2 0x147A JUMP JUMPDEST RETURNDATASIZE SWAP2 POP PUSH2 0x1746 JUMP JUMPDEST DUP4 PUSH1 0x44 CALLDATALOAD AND EXTCODESIZE ISZERO PUSH2 0x511 JUMPI PUSH1 0x40 MLOAD PUSH4 0x4347A17 PUSH1 0xE2 SHL DUP2 MSTORE CALLER PUSH1 0x4 DUP3 ADD MSTORE PUSH1 0x4 CALLDATALOAD PUSH1 0x24 DUP3 ADD MSTORE PUSH1 0x24 CALLDATALOAD PUSH1 0x44 DUP3 ADD MSTORE PUSH1 0x80 PUSH1 0x64 DUP3 ADD MSTORE PUSH1 0x64 CALLDATALOAD PUSH1 0x4 ADD CALLDATALOAD PUSH1 0x84 DUP3 ADD MSTORE PUSH1 0x64 CALLDATALOAD PUSH1 0x4 ADD CALLDATALOAD PUSH1 0x24 PUSH1 0x64 CALLDATALOAD ADD PUSH1 0xA4 DUP4 ADD CALLDATACOPY DUP7 PUSH1 0xA4 PUSH1 0x64 CALLDATALOAD PUSH1 0x4 ADD CALLDATALOAD DUP4 ADD ADD MSTORE DUP7 DUP2 PUSH1 0xA4 DUP2 PUSH1 0x1F NOT PUSH1 0x1F PUSH1 0x64 CALLDATALOAD PUSH1 0x4 ADD CALLDATALOAD ADD AND DUP2 ADD SUB ADD DUP2 DUP4 DUP10 PUSH1 0x44 CALLDATALOAD AND GAS CALL DUP1 ISZERO PUSH2 0x6A1 JUMPI PUSH2 0x1800 JUMPI JUMPDEST POP PUSH2 0x144D JUMP JUMPDEST PUSH8 0xFFFFFFFFFFFFFFFF DUP2 SWAP8 SWAP3 SWAP8 GT PUSH2 0x181D JUMPI PUSH1 0x40 MSTORE SWAP5 PUSH1 0x20 PUSH2 0x17FA JUMP JUMPDEST PUSH4 0x4E487B71 PUSH1 0xE0 SHL DUP3 MSTORE PUSH1 0x41 PUSH1 0x4 MSTORE PUSH1 0x24 DUP3 REVERT JUMPDEST PUSH2 0x1840 PUSH1 0x24 CALLDATALOAD PUSH1 0x44 CALLDATALOAD DUP6 PUSH2 0x2082 JUMP JUMPDEST PUSH2 0x1441 JUMP JUMPDEST PUSH2 0x1854 PUSH1 0x4 CALLDATALOAD PUSH1 0x44 CALLDATALOAD DUP4 PUSH2 0x2082 JUMP JUMPDEST PUSH2 0x1439 JUMP JUMPDEST PUSH1 0x40 MLOAD PUSH3 0x461BCD PUSH1 0xE5 SHL DUP2 MSTORE PUSH1 0x20 PUSH1 0x4 DUP3 ADD MSTORE PUSH1 0x15 PUSH1 0x24 DUP3 ADD MSTORE PUSH21 0x556E697377617056323A20494E56414C49445F544F PUSH1 0x58 SHL PUSH1 0x44 DUP3 ADD MSTORE PUSH1 0x64 SWAP1 REVERT JUMPDEST POP DUP4 DUP6 PUSH1 0x44 CALLDATALOAD AND EQ ISZERO PUSH2 0x142F JUMP JUMPDEST PUSH1 0x40 MLOAD PUSH3 0x461BCD PUSH1 0xE5 SHL DUP2 MSTORE PUSH1 0x20 PUSH1 0x4 DUP3 ADD MSTORE PUSH1 0x21 PUSH1 0x24 DUP3 ADD MSTORE PUSH32 0x556E697377617056323A20494E53554646494349454E545F4C49515549444954 PUSH1 0x44 DUP3 ADD MSTORE PUSH1 0x59 PUSH1 0xF8 SHL PUSH1 0x64 DUP3 ADD MSTORE PUSH1 0x84 SWAP1 REVERT JUMPDEST POP PUSH1 0x1 PUSH1 0x1 PUSH1 0x70 SHL SUB DUP2 AND PUSH1 0x24 CALLDATALOAD LT PUSH2 0x1411 JUMP JUMPDEST PUSH1 0x40 MLOAD PUSH3 0x461BCD PUSH1 0xE5 SHL DUP2 MSTORE PUSH1 0x20 PUSH1 0x4 DUP3 ADD MSTORE PUSH1 0x25 PUSH1 0x24 DUP3 ADD MSTORE PUSH32 0x556E697377617056323A20494E53554646494349454E545F4F55545055545F41 PUSH1 0x44 DUP3 ADD MSTORE PUSH5 0x1353D55395 PUSH1 0xDA SHL PUSH1 0x64 DUP3 ADD MSTORE PUSH1 0x84 SWAP1 REVERT JUMPDEST POP PUSH1 0x24 CALLDATALOAD ISZERO ISZERO PUSH2 0x13D6 JUMP JUMPDEST PUSH1 0x4 CALLDATALOAD SWAP1 PUSH1 0x1 PUSH1 0x1 PUSH1 0xA0 SHL SUB DUP3 AND DUP3 SUB PUSH2 0x23A JUMPI JUMP JUMPDEST PUSH1 0x24 CALLDATALOAD SWAP1 PUSH1 0x1 PUSH1 0x1 PUSH1 0xA0 SHL SUB DUP3 AND DUP3 SUB PUSH2 0x23A JUMPI JUMP JUMPDEST PUSH1 0x20 DUP1 DUP3 MSTORE DUP3 MLOAD DUP2 DUP4 ADD DUP2 SWAP1 MSTORE SWAP1 SWAP4 SWAP3 PUSH1 0x0 JUMPDEST DUP3 DUP2 LT PUSH2 0x19C6 JUMPI POP POP PUSH1 0x40 SWAP3 SWAP4 POP PUSH1 0x0 DUP4 DUP3 DUP5 ADD ADD MSTORE PUSH1 0x1F DUP1 NOT SWAP2 ADD AND ADD ADD SWAP1 JUMP JUMPDEST DUP2 DUP2 ADD DUP7 ADD MLOAD DUP5 DUP3 ADD PUSH1 0x40 ADD MSTORE DUP6 ADD PUSH2 0x19A4 JUMP JUMPDEST SWAP2 SWAP1 DUP3 ADD DUP1 SWAP3 GT PUSH2 0x19E7 JUMPI JUMP JUMPDEST PUSH4 0x4E487B71 PUSH1 0xE0 SHL PUSH1 0x0 MSTORE PUSH1 0x11 PUSH1 0x4 MSTORE PUSH1 0x24 PUSH1 0x0 REVERT JUMPDEST PUSH1 0x1 PUSH1 0x1 PUSH1 0xA0 SHL SUB SWAP1 DUP2 AND SWAP2 DUP3 ISZERO PUSH2 0x1AAE JUMPI AND SWAP2 DUP3 ISZERO PUSH2 0x1A5E JUMPI PUSH1 0x20 PUSH32 0x8C5BE1E5EBEC7D5BD14F71427D1E84F3DD0314C0F7B2291E5B200AC8C7C3B925 SWAP2 DUP4 PUSH1 0x0 MSTORE PUSH1 0x1 DUP3 MSTORE PUSH1 0x40 PUSH1 0x0 KECCAK256 DUP6 PUSH1 0x0 MSTORE DUP3 MSTORE DUP1 PUSH1 0x40 PUSH1 0x0 KECCAK256 SSTORE PUSH1 0x40 MLOAD SWAP1 DUP2 MSTORE LOG3 JUMP JUMPDEST PUSH1 0x40 MLOAD PUSH3 0x461BCD PUSH1 0xE5 SHL DUP2 MSTORE PUSH1 0x20 PUSH1 0x4 DUP3 ADD MSTORE PUSH1 0x22 PUSH1 0x24 DUP3 ADD MSTORE PUSH32 0x45524332303A20617070726F766520746F20746865207A65726F206164647265 PUSH1 0x44 DUP3 ADD MSTORE PUSH2 0x7373 PUSH1 0xF0 SHL PUSH1 0x64 DUP3 ADD MSTORE PUSH1 0x84 SWAP1 REVERT JUMPDEST PUSH1 0x40 MLOAD PUSH3 0x461BCD PUSH1 0xE5 SHL DUP2 MSTORE PUSH1 0x20 PUSH1 0x4 DUP3 ADD MSTORE PUSH1 0x24 DUP1 DUP3 ADD MSTORE PUSH32 0x45524332303A20617070726F76652066726F6D20746865207A65726F20616464 PUSH1 0x44 DUP3 ADD MSTORE PUSH4 0x72657373 PUSH1 0xE0 SHL PUSH1 0x64 DUP3 ADD MSTORE PUSH1 0x84 SWAP1 REVERT JUMPDEST PUSH1 0x40 DUP2 ADD SWAP1 DUP2 LT PUSH8 0xFFFFFFFFFFFFFFFF DUP3 GT OR PUSH2 0x4AD JUMPI PUSH1 0x40 MSTORE JUMP JUMPDEST PUSH1 0x80 DUP2 ADD SWAP1 DUP2 LT PUSH8 0xFFFFFFFFFFFFFFFF DUP3 GT OR PUSH2 0x4AD JUMPI PUSH1 0x40 MSTORE JUMP JUMPDEST SWAP1 PUSH1 0x1F DUP1 NOT SWAP2 ADD AND DUP2 ADD SWAP1 DUP2 LT PUSH8 0xFFFFFFFFFFFFFFFF DUP3 GT OR PUSH2 0x4AD JUMPI PUSH1 0x40 MSTORE JUMP JUMPDEST PUSH1 0x1 PUSH1 0x1 PUSH1 0xA0 SHL SUB SWAP1 DUP2 AND SWAP2 DUP3 ISZERO PUSH2 0x1C74 JUMPI AND SWAP2 DUP3 ISZERO PUSH2 0x1C23 JUMPI PUSH1 0x0 DUP3 DUP2 MSTORE DUP1 PUSH1 0x20 MSTORE PUSH1 0x40 DUP2 KECCAK256 SLOAD SWAP2 DUP1 DUP4 LT PUSH2 0x1BCF JUMPI PUSH1 0x40 DUP3 DUP3 PUSH32 0xDDF252AD1BE2C89B69C2B068FC378DAA952BA7F163C4A11628F55A4DF523B3EF SWAP6 DUP8 PUSH1 0x20 SWAP7 MSTORE DUP3 DUP7 MSTORE SUB DUP3 DUP3 KECCAK256 SSTORE DUP7 DUP2 MSTORE KECCAK256 DUP2 DUP2 SLOAD ADD SWAP1 SSTORE PUSH1 0x40 MLOAD SWAP1 DUP2 MSTORE LOG3 JUMP JUMPDEST PUSH1 0x40 MLOAD PUSH3 0x461BCD PUSH1 0xE5 SHL DUP2 MSTORE PUSH1 0x20 PUSH1 0x4 DUP3 ADD MSTORE PUSH1 0x26 PUSH1 0x24 DUP3 ADD MSTORE PUSH32 0x45524332303A207472616E7366657220616D6F756E7420657863656564732062 PUSH1 0x44 DUP3 ADD MSTORE PUSH6 0x616C616E6365 PUSH1 0xD0 SHL PUSH1 0x64 DUP3 ADD MSTORE PUSH1 0x84 SWAP1 REVERT JUMPDEST PUSH1 0x40 MLOAD PUSH3 0x461BCD PUSH1 0xE5 SHL DUP2 MSTORE PUSH1 0x20 PUSH1 0x4 DUP3 ADD MSTORE PUSH1 0x23 PUSH1 0x24 DUP3 ADD MSTORE PUSH32 0x45524332303A207472616E7366657220746F20746865207A65726F2061646472 PUSH1 0x44 DUP3 ADD MSTORE PUSH3 0x657373 PUSH1 0xE8 SHL PUSH1 0x64 DUP3 ADD MSTORE PUSH1 0x84 SWAP1 REVERT JUMPDEST PUSH1 0x40 MLOAD PUSH3 0x461BCD PUSH1 0xE5 SHL DUP2 MSTORE PUSH1 0x20 PUSH1 0x4 DUP3 ADD MSTORE PUSH1 0x25 PUSH1 0x24 DUP3 ADD MSTORE PUSH32 0x45524332303A207472616E736665722066726F6D20746865207A65726F206164 PUSH1 0x44 DUP3 ADD MSTORE PUSH5 0x6472657373 PUSH1 0xD8 SHL PUSH1 0x64 DUP3 ADD MSTORE PUSH1 0x84 SWAP1 REVERT JUMPDEST ISZERO PUSH2 0x1CCE JUMPI JUMP JUMPDEST PUSH1 0x40 MLOAD PUSH3 0x461BCD PUSH1 0xE5 SHL DUP2 MSTORE PUSH1 0x20 PUSH1 0x4 DUP3 ADD MSTORE PUSH1 0x11 PUSH1 0x24 DUP3 ADD MSTORE PUSH17 0x155B9A5CDDD85C158C8E881313D0D2D151 PUSH1 0x7A SHL PUSH1 0x44 DUP3 ADD MSTORE PUSH1 0x64 SWAP1 REVERT JUMPDEST SWAP2 SWAP1 DUP3 SUB SWAP2 DUP3 GT PUSH2 0x19E7 JUMPI JUMP JUMPDEST DUP2 DUP2 MUL SWAP3 SWAP2 DUP2 ISZERO SWAP2 DUP5 DIV EQ OR ISZERO PUSH2 0x19E7 JUMPI JUMP JUMPDEST DUP2 ISZERO PUSH2 0x1D31 JUMPI DIV SWAP1 JUMP JUMPDEST PUSH4 0x4E487B71 PUSH1 0xE0 SHL PUSH1 0x0 MSTORE PUSH1 0x12 PUSH1 0x4 MSTORE PUSH1 0x24 PUSH1 0x0 REVERT JUMPDEST PUSH1 0x1 PUSH1 0x1 PUSH1 0xA0 SHL SUB AND SWAP1 DUP2 ISZERO PUSH2 0x1DA5 JUMPI PUSH32 0xDDF252AD1BE2C89B69C2B068FC378DAA952BA7F163C4A11628F55A4DF523B3EF PUSH1 0x20 DUP3 PUSH2 0x1D89 PUSH1 0x0 SWAP5 PUSH1 0x2 SLOAD PUSH2 0x19DA JUMP JUMPDEST PUSH1 0x2 SSTORE DUP5 DUP5 MSTORE DUP4 DUP3 MSTORE PUSH1 0x40 DUP5 KECCAK256 DUP2 DUP2 SLOAD ADD SWAP1 SSTORE PUSH1 0x40 MLOAD SWAP1 DUP2 MSTORE LOG3 JUMP JUMPDEST PUSH1 0x40 MLOAD PUSH3 0x461BCD PUSH1 0xE5 SHL DUP2 MSTORE PUSH1 0x20 PUSH1 0x4 DUP3 ADD MSTORE PUSH1 0x1F PUSH1 0x24 DUP3 ADD MSTORE PUSH32 0x45524332303A206D696E7420746F20746865207A65726F206164647265737300 PUSH1 0x44 DUP3 ADD MSTORE PUSH1 0x64 SWAP1 REVERT JUMPDEST SWAP2 PUSH1 0x1 PUSH1 0x1 PUSH1 0x70 SHL SUB SWAP1 DUP2 DUP5 GT ISZERO DUP1 PUSH2 0x1F40 JUMPI JUMPDEST ISZERO PUSH2 0x1F05 JUMPI PUSH1 0x9 SLOAD SWAP4 PUSH4 0xFFFFFFFF SWAP5 PUSH1 0xE0 SHR DUP6 TIMESTAMP AND SUB SWAP2 DUP6 DUP4 GT PUSH2 0x19E7 JUMPI PUSH32 0x1C411E9A96E071241C2F21F7726B17AE89E3CAB4C78BE50E062B03A9FFFBBAD1 SWAP7 PUSH1 0x40 SWAP7 DUP6 SWAP5 AND DUP1 ISZERO ISZERO DUP1 PUSH2 0x1EFA JUMPI JUMPDEST DUP1 PUSH2 0x1EEF JUMPI JUMPDEST PUSH2 0x1E96 JUMPI JUMPDEST POP POP POP PUSH1 0x70 SWAP4 DUP5 SHL PUSH1 0x1 PUSH1 0x70 SHL PUSH1 0x1 PUSH1 0xE0 SHL SUB AND SWAP2 AND SWAP1 DUP2 OR TIMESTAMP PUSH1 0xE0 SHL PUSH1 0x1 PUSH1 0x1 PUSH1 0xE0 SHL SUB NOT AND OR PUSH1 0x9 DUP2 SWAP1 SSTORE DUP5 MLOAD SWAP2 DUP3 MSTORE SWAP1 SWAP3 SHR AND PUSH1 0x20 DUP3 ADD MSTORE LOG1 JUMP JUMPDEST PUSH2 0x1EE4 SWAP3 PUSH2 0x1EDC SWAP3 PUSH1 0x1 PUSH1 0x1 PUSH1 0xE0 SHL SUB SWAP2 PUSH2 0x1EC6 SWAP2 SWAP1 PUSH2 0x1EC1 SWAP1 PUSH2 0x1ED4 PUSH2 0x1ECC DUP8 DUP8 DUP8 DUP6 DUP8 DUP10 PUSH2 0x2224 JUMP JUMPDEST PUSH2 0x2253 JUMP JUMPDEST AND PUSH2 0x1D14 JUMP JUMPDEST PUSH1 0xA SLOAD PUSH2 0x19DA JUMP JUMPDEST PUSH1 0xA SSTORE PUSH2 0x2224 JUMP JUMPDEST PUSH1 0xB SLOAD PUSH2 0x19DA JUMP JUMPDEST PUSH1 0xB SSTORE CODESIZE DUP1 DUP1 PUSH2 0x1E58 JUMP JUMPDEST POP DUP5 DUP3 AND ISZERO ISZERO PUSH2 0x1E53 JUMP JUMPDEST POP DUP5 DUP4 AND ISZERO ISZERO PUSH2 0x1E4D JUMP JUMPDEST PUSH1 0x40 MLOAD PUSH3 0x461BCD PUSH1 0xE5 SHL DUP2 MSTORE PUSH1 0x20 PUSH1 0x4 DUP3 ADD MSTORE PUSH1 0x13 PUSH1 0x24 DUP3 ADD MSTORE PUSH19 0x556E697377617056323A204F564552464C4F57 PUSH1 0x68 SHL PUSH1 0x44 DUP3 ADD MSTORE PUSH1 0x64 SWAP1 REVERT JUMPDEST POP DUP2 DUP4 GT ISZERO PUSH2 0x1DFE JUMP JUMPDEST PUSH1 0x6 SLOAD PUSH1 0x40 MLOAD PUSH3 0x2FCFCB PUSH1 0xE3 SHL DUP2 MSTORE SWAP3 SWAP4 SWAP3 SWAP2 SWAP1 PUSH1 0x1 PUSH1 0x1 PUSH1 0xA0 SHL SUB SWAP1 PUSH1 0x20 SWAP1 DUP5 SWAP1 PUSH1 0x4 SWAP1 DUP3 SWAP1 DUP6 AND GAS STATICCALL SWAP3 DUP4 ISZERO PUSH2 0x2076 JUMPI PUSH1 0x0 SWAP4 PUSH2 0x2038 JUMPI JUMPDEST POP DUP3 AND ISZERO ISZERO SWAP4 PUSH1 0xC SLOAD SWAP2 DUP6 PUSH1 0x0 EQ PUSH2 0x2027 JUMPI DUP3 PUSH2 0x1FA2 JUMPI JUMPDEST POP POP POP POP JUMP JUMPDEST PUSH2 0xDDF PUSH2 0x1FBF SWAP2 PUSH2 0x1FC5 SWAP4 PUSH1 0x1 PUSH1 0x1 PUSH1 0x70 SHL SUB DUP1 SWAP2 AND SWAP2 AND PUSH2 0x1D14 JUMP JUMPDEST SWAP2 PUSH2 0x21CF JUMP JUMPDEST SWAP1 DUP2 DUP2 GT PUSH2 0x1FD4 JUMPI JUMPDEST DUP1 PUSH2 0x1F9C JUMP JUMPDEST PUSH2 0x1FE4 PUSH1 0x2 SLOAD PUSH2 0x1597 DUP5 DUP5 PUSH2 0x1D07 JUMP JUMPDEST SWAP1 PUSH1 0x5 DUP2 MUL SWAP1 DUP1 DUP3 DIV PUSH1 0x5 EQ SWAP1 ISZERO OR ISZERO PUSH2 0x19E7 JUMPI PUSH2 0x200B SWAP3 PUSH2 0x2005 SWAP2 PUSH2 0x19DA JUMP JUMPDEST SWAP1 PUSH2 0x1D27 JUMP JUMPDEST DUP1 PUSH2 0x2017 JUMPI JUMPDEST DUP1 PUSH2 0x1FCE JUMP JUMPDEST PUSH2 0x2020 SWAP2 PUSH2 0x1D47 JUMP JUMPDEST CODESIZE DUP1 PUSH2 0x2011 JUMP JUMPDEST POP POP SWAP1 POP PUSH2 0x2031 JUMPI JUMP JUMPDEST PUSH1 0x0 PUSH1 0xC SSTORE JUMP JUMPDEST PUSH1 0x20 SWAP4 SWAP2 SWAP4 DUP2 RETURNDATASIZE DUP3 GT PUSH2 0x206E JUMPI JUMPDEST DUP2 PUSH2 0x2053 PUSH1 0x20 SWAP4 DUP4 PUSH2 0x1B37 JUMP JUMPDEST DUP2 ADD SUB SLT PUSH2 0x6AC JUMPI MLOAD SWAP1 DUP4 DUP3 AND DUP3 SUB PUSH2 0x28D JUMPI POP SWAP2 CODESIZE PUSH2 0x1F84 JUMP JUMPDEST RETURNDATASIZE SWAP2 POP PUSH2 0x2046 JUMP JUMPDEST PUSH1 0x40 MLOAD RETURNDATASIZE PUSH1 0x0 DUP3 RETURNDATACOPY RETURNDATASIZE SWAP1 REVERT JUMPDEST SWAP1 PUSH1 0x40 MLOAD SWAP3 PUSH2 0x2090 DUP5 PUSH2 0x1AFF JUMP JUMPDEST PUSH1 0x19 DUP5 MSTORE PUSH32 0x7472616E7366657228616464726573732C75696E743235362900000000000000 PUSH1 0x20 SWAP5 DUP6 ADD MSTORE PUSH1 0x40 MLOAD PUSH4 0xA9059CBB PUSH1 0xE0 SHL DUP2 DUP7 ADD SWAP1 DUP2 MSTORE PUSH1 0x1 PUSH1 0x1 PUSH1 0xA0 SHL SUB SWAP1 SWAP4 AND PUSH1 0x24 DUP3 ADD MSTORE PUSH1 0x44 DUP1 DUP3 ADD SWAP3 SWAP1 SWAP3 MSTORE SWAP1 DUP2 MSTORE PUSH2 0x20F1 DUP2 PUSH2 0x1B1B JUMP JUMPDEST PUSH1 0x0 SWAP3 DUP4 SWAP3 DUP4 DUP1 SWAP4 MLOAD SWAP3 GAS CALL SWAP1 RETURNDATASIZE ISZERO PUSH2 0x21C8 JUMPI RETURNDATASIZE PUSH8 0xFFFFFFFFFFFFFFFF DUP2 GT PUSH2 0x181D JUMPI PUSH1 0x40 MLOAD SWAP1 PUSH2 0x212B PUSH1 0x1F DUP3 ADD PUSH1 0x1F NOT AND DUP7 ADD DUP4 PUSH2 0x1B37 JUMP JUMPDEST DUP2 MSTORE RETURNDATASIZE DUP3 DUP6 DUP4 ADD RETURNDATACOPY JUMPDEST DUP3 PUSH2 0x2188 JUMPI JUMPDEST POP POP ISZERO PUSH2 0x2144 JUMPI POP JUMP JUMPDEST PUSH1 0x64 SWAP1 PUSH1 0x40 MLOAD SWAP1 PUSH3 0x461BCD PUSH1 0xE5 SHL DUP3 MSTORE PUSH1 0x4 DUP3 ADD MSTORE PUSH1 0x1A PUSH1 0x24 DUP3 ADD MSTORE PUSH32 0x556E697377617056323A205452414E534645525F4641494C4544000000000000 PUSH1 0x44 DUP3 ADD MSTORE REVERT JUMPDEST DUP1 MLOAD SWAP3 POP DUP3 ISZERO SWAP2 SWAP1 DUP5 DUP4 ISZERO PUSH2 0x21A4 JUMPI JUMPDEST POP POP POP SWAP1 POP CODESIZE DUP1 PUSH2 0x213A JUMP JUMPDEST SWAP2 SWAP4 DUP2 DUP1 SWAP5 POP ADD SUB SLT PUSH2 0x6AC JUMPI DUP3 ADD MLOAD SWAP1 DUP2 ISZERO ISZERO DUP3 SUB PUSH2 0x28D JUMPI POP DUP1 CODESIZE DUP1 DUP5 PUSH2 0x2198 JUMP JUMPDEST PUSH1 0x60 PUSH2 0x2134 JUMP JUMPDEST SWAP1 PUSH1 0x0 PUSH1 0x3 DUP4 GT ISZERO PUSH2 0x2217 JUMPI POP DUP2 PUSH1 0x1 SWAP1 DUP1 DUP3 SHR DUP3 DUP2 ADD DUP1 SWAP2 GT PUSH2 0x19E7 JUMPI SWAP2 SWAP1 JUMPDEST DUP5 DUP4 LT PUSH2 0x21FC JUMPI POP POP POP JUMP JUMPDEST SWAP1 SWAP2 SWAP4 POP PUSH2 0x220E DUP5 PUSH2 0x10E4 DUP2 DUP5 PUSH2 0x1D27 JUMP JUMPDEST DUP3 SHR SWAP2 SWAP1 PUSH2 0x21F0 JUMP JUMPDEST SWAP2 PUSH2 0x221E JUMPI JUMP JUMPDEST PUSH1 0x1 SWAP2 POP JUMP JUMPDEST PUSH1 0x1 PUSH1 0x70 SHL PUSH1 0x1 PUSH1 0xE0 SHL SUB PUSH1 0x70 DUP3 SWAP1 SHL AND SWAP1 PUSH1 0x1 PUSH1 0x1 PUSH1 0x70 SHL SUB AND DUP1 DUP3 DIV PUSH1 0x1 PUSH1 0x70 SHL EQ SWAP1 ISZERO OR ISZERO PUSH2 0x19E7 JUMPI SWAP1 JUMP JUMPDEST SWAP1 PUSH1 0x1 PUSH1 0x1 PUSH1 0x70 SHL SUB AND SWAP1 DUP2 ISZERO PUSH2 0x1D31 JUMPI PUSH1 0x1 PUSH1 0x1 PUSH1 0xE0 SHL SUB AND DIV SWAP1 JUMP INVALID LOG2 PUSH5 0x6970667358 0x22 SLT KECCAK256 0xFC RETURNDATACOPY MULMOD 0xA7 0xDE DUP12 0xE3 0xDF 0xAF GT PUSH18 0x3E02CF3978F58216BE3C547D44D5512C6C22 CALLDATACOPY 0x25 KECCAK256 PUSH5 0x736F6C6343 STOP ADDMOD SGT STOP CALLER "},"methodIdentifiers":{"DOMAIN_SEPARATOR()":"3644e515","MINIMUM_LIQUIDITY()":"ba9a7a56","PERMIT_TYPEHASH()":"30adf81f","allowance(address,address)":"dd62ed3e","approve(address,uint256)":"095ea7b3","balanceOf(address)":"70a08231","burn(address)":"89afcb44","decimals()":"313ce567","decreaseAllowance(address,uint256)":"a457c2d7","factory()":"c45a0155","getReserves()":"0902f1ac","increaseAllowance(address,uint256)":"39509351","initialize(address,address)":"485cc955","kLast()":"7464fc3d","mint(address)":"6a627842","name()":"06fdde03","nonces(address)":"7ecebe00","permit(address,address,uint256,uint256,uint8,bytes32,bytes32)":"d505accf","price0CumulativeLast()":"5909c0d5","price1CumulativeLast()":"5a3d5493","skim(address)":"bc25cf77","swap(uint256,uint256,address,bytes)":"022c0d9f","symbol()":"95d89b41","sync()":"fff6cae9","token0()":"0dfe1681","token1()":"d21220a7","totalSupply()":"18160ddd","transfer(address,uint256)":"a9059cbb","transferFrom(address,address,uint256)":"23b872dd"}}}}}