{"contracts/PathOptimizer.sol":{"PathOptimizer":{"abi":[{"anonymous":false,"inputs":[{"indexed":true,"internalType":"bytes32","name":"intentId","type":"bytes32"},{"indexed":false,"internalType":"address[]","name":"dexs","type":"address[]"},{"indexed":false,"internalType":"uint16[]","name":"chains","type":"uint16[]"},{"indexed":false,"internalType":"uint256","name":"estimatedCost","type":"uint256"}],"name":"OptimalPathFound","type":"event"},{"anonymous":false,"inputs":[{"indexed":true,"internalType":"address","name":"previousOwner","type":"address"},{"indexed":true,"internalType":"address","name":"newOwner","type":"address"}],"name":"OwnershipTransferred","type":"event"},{"inputs":[{"internalType":"address","name":"","type":"address"},{"internalType":"uint16","name":"","type":"uint16"}],"name":"bridgeQuotes","outputs":[{"internalType":"address","name":"bridge","type":"address"},{"internalType":"uint256","name":"fee","type":"uint256"},{"internalType":"uint256","name":"estimatedTime","type":"uint256"},{"internalType":"uint256","name":"minAmount","type":"uint256"},{"internalType":"uint256","name":"maxAmount","type":"uint256"}],"stateMutability":"view","type":"function"},{"inputs":[{"internalType":"uint16","name":"","type":"uint16"}],"name":"chainGasPrices","outputs":[{"internalType":"uint256","name":"","type":"uint256"}],"stateMutability":"view","type":"function"},{"inputs":[{"internalType":"address","name":"","type":"address"},{"internalType":"bytes32","name":"","type":"bytes32"}],"name":"dexQuotes","outputs":[{"internalType":"address","name":"dex","type":"address"},{"internalType":"uint256","name":"outputAmount","type":"uint256"},{"internalType":"uint256","name":"gasEstimate","type":"uint256"},{"internalType":"uint256","name":"fee","type":"uint256"}],"stateMutability":"view","type":"function"},{"inputs":[{"internalType":"address","name":"sourceToken","type":"address"},{"internalType":"address","name":"targetToken","type":"address"},{"internalType":"uint256","name":"amount","type":"uint256"},{"internalType":"uint16","name":"sourceChain","type":"uint16"},{"internalType":"uint16","name":"targetChain","type":"uint16"}],"name":"findOptimalPath","outputs":[{"components":[{"internalType":"address[]","name":"dexs","type":"address[]"},{"internalType":"uint16[]","name":"chains","type":"uint16[]"},{"internalType":"address[]","name":"bridges","type":"address[]"},{"internalType":"uint256","name":"estimatedGas","type":"uint256"},{"internalType":"uint256","name":"expectedOutput","type":"uint256"}],"internalType":"struct PathOptimizer.Route","name":"","type":"tuple"}],"stateMutability":"view","type":"function"},{"inputs":[],"name":"owner","outputs":[{"internalType":"address","name":"","type":"address"}],"stateMutability":"view","type":"function"},{"inputs":[{"internalType":"address","name":"","type":"address"},{"internalType":"uint16","name":"","type":"uint16"}],"name":"priceFeeds","outputs":[{"internalType":"address","name":"token","type":"address"},{"internalType":"uint256","name":"price","type":"uint256"},{"internalType":"uint256","name":"liquidity","type":"uint256"}],"stateMutability":"view","type":"function"},{"inputs":[],"name":"renounceOwnership","outputs":[],"stateMutability":"nonpayable","type":"function"},{"inputs":[{"internalType":"address","name":"newOwner","type":"address"}],"name":"transferOwnership","outputs":[],"stateMutability":"nonpayable","type":"function"},{"inputs":[{"internalType":"uint16","name":"chainId","type":"uint16"},{"internalType":"uint256","name":"gasPrice","type":"uint256"}],"name":"updateChainGasPrice","outputs":[],"stateMutability":"nonpayable","type":"function"},{"inputs":[{"internalType":"address","name":"token","type":"address"},{"internalType":"uint16","name":"chainId","type":"uint16"},{"internalType":"uint256","name":"price","type":"uint256"},{"internalType":"uint256","name":"liquidity","type":"uint256"}],"name":"updatePriceFeed","outputs":[],"stateMutability":"nonpayable","type":"function"}],"evm":{"bytecode":{"linkReferences":{},"object":"6080806040523461005f5760008054336001600160a01b0319821681178355916001600160a01b03909116907f8be0079c531659141344cd1fd0a4f28419497f9722a3daafe3b4186f6b6457e09080a360018055610e8790816100658239f35b600080fdfe6080604052600436101561001257600080fd5b60003560e01c80630b4f256d146109d4578063715018a61461097b5780637557f41a1461090f5780637fc666aa1461036a5780638da5cb5b14610341578063ce61685d146102d4578063d3918f161461020d578063ded06bdb1461018d578063f2fde38b146100c45763fb9f78cb1461008a57600080fd5b346100bf5760203660031901126100bf5761ffff6100a6610a0f565b1660005260036020526020604060002054604051908152f35b600080fd5b346100bf5760203660031901126100bf576100dd610a31565b6100e5610a84565b6001600160a01b0390811690811561013957600054826bffffffffffffffffffffffff60a01b821617600055167f8be0079c531659141344cd1fd0a4f28419497f9722a3daafe3b4186f6b6457e0600080a3005b60405162461bcd60e51b815260206004820152602660248201527f4f776e61626c653a206e6577206f776e657220697320746865207a65726f206160448201526564647265737360d01b6064820152608490fd5b346100bf5760403660031901126100bf5760a06101a8610a31565b6101b0610a20565b600180841b03809216600052600560205261ffff6040600020911660005260205260406000209081541690600181015490600281015460046003830154920154926040519485526020850152604084015260608301526080820152f35b346100bf5760803660031901126100bf57610226610a31565b61022e610a20565b610236610a84565b60405191606083019183831067ffffffffffffffff8411176102be5760029260405260018060a01b038092169182855260208501916044358352604086019360643585526000528460205261ffff6040600020911660005260205260406000209451166bffffffffffffffffffffffff60a01b85541617845551600184015551910155600080f35b634e487b7160e01b600052604160045260246000fd5b346100bf5760403660031901126100bf5760806001600160a01b03806102f8610a31565b1660005260046020526040600020602435600052602052604060002090815416906001810154906003600282015491015491604051938452602084015260408301526060820152f35b346100bf5760003660031901126100bf576000546040516001600160a01b039091168152602090f35b346100bf5760a03660031901126100bf57610383610a31565b506024356001600160a01b038116036100bf5760643561ffff811681036100bf5760843561ffff811681036100bf576103ba610b5c565b506103c3610b5c565b506103cc610b5c565b916103d5610afc565b9060038252606036602084013773c532a74256d3db42d0bf7a0400fefdbad769400861040083610bae565b52733bfa4769fb09eefc5a80d6e87c3b9c650f7ae48e61041f83610bd1565b527398e5f5706897074a4664dd3a32eb80242d6e694b61043e83610be1565b52610447610b1c565b9160018352602036818501376001600160a01b039061046590610bae565b511661047083610bae565b52610479610b3c565b600081529061ffff841661ffff821603610771575b60009182805b85518110156104f95760206104be6044356001600160a01b036104b7858b610bf1565b5116610c5a565b01518581116104d7575b506104d290610b9f565b610494565b945090506104d26001600160a01b036104f08388610bf1565b511691906104c8565b508693508560009260001961ffff831661ffff8716036106f8575b5050610534610521610b1c565b6001815260203681830137808752610bae565b6001600160a01b038316905260405160608101919067ffffffffffffffff8311818410176102be5761ffff926040526002815260403660208301376105828360208901978389521691610bae565b521661058e8451610bd1565b526001600160a01b03821680158015926105d49290916106e1576105c96105b3610b1c565b60018152602036818301378060408a0152610bae565b525b60443590610c5a565b9160206040840151936060870194855201519160808601928352610682575b506040519260208452610612855160a0602087015260c0860190610a47565b905194601f1991828682030160408701526020808851928381520197019060005b81811061066857505050946106579160408697015190868303016060870152610a47565b915160808401525160a08301520390f35b825161ffff16895260209889019890920191600101610633565b61068b90610d4f565b825162030d4081018091116106cb5783526020825191015190612710918203908282116106cb578181029181830414901517156106cb57048152846105f3565b634e487b7160e01b600052601160045260246000fd5b506106ea610b3c565b6000815260408701526105cb565b9260009592959491945b85518110156107645760206107296001600160a01b03610722848a610bf1565b5116610d4f565b0151858110610742575b5061073d90610b9f565b610702565b9450915061073d6001600160a01b0361075b8488610bf1565b51169290610733565b5092509250928580610514565b9193905061077d610afc565b9160038352606036602085013773ae92d5ad7583ad66e49a0c67bad18f6ba52dddc16107a884610bae565b52733e4a3a4796d16c0cd582c382691998f7c06420b66107c784610bd1565b52737612ae3d4a6d343159504e97773b2e8f51b4ab8b6107e684610be1565b5260009460005b845181101561083e576108166044356108116001600160a01b03610722858a610bf1565b610c05565b610829575b61082490610b9f565b6107ed565b9561083661082491610b9f565b96905061081b565b509194909361084c82610b87565b604051929067ffffffffffffffff601f8201601f19168501908111908511176102be57601f01601f1990811684016040528184529061088a90610b87565b0136602084013760009260005b8551811015610903576108bb6044356108116001600160a01b03610722858b610bf1565b6108ce575b6108c990610b9f565b610897565b936108c9906108fb906001600160a01b036108e9888a610bf1565b51166108f58288610bf1565b52610b9f565b9490506108c0565b5093509391509061048e565b346100bf5760403660031901126100bf57606061092a610a31565b610932610a20565b60018060a01b03809216600052600260205261ffff6040600020911660005260205260406000209081541690600260018201549101549060405192835260208301526040820152f35b346100bf5760003660031901126100bf57610994610a84565b600080546001600160a01b0319811682556001600160a01b03167f8be0079c531659141344cd1fd0a4f28419497f9722a3daafe3b4186f6b6457e08280a3005b346100bf5760403660031901126100bf5761ffff6109f0610a0f565b6109f8610a84565b166000526003602052602435604060002055600080f35b6004359061ffff821682036100bf57565b6024359061ffff821682036100bf57565b600435906001600160a01b03821682036100bf57565b90815180825260208080930193019160005b828110610a67575050505090565b83516001600160a01b031685529381019392810192600101610a59565b6000546001600160a01b03163303610a9857565b606460405162461bcd60e51b815260206004820152602060248201527f4f776e61626c653a2063616c6c6572206973206e6f7420746865206f776e65726044820152fd5b6040519060a0820182811067ffffffffffffffff8211176102be57604052565b604051906080820182811067ffffffffffffffff8211176102be57604052565b604051906040820182811067ffffffffffffffff8211176102be57604052565b604051906020820182811067ffffffffffffffff8211176102be57604052565b610b64610adc565b906060825260606020830152606060408301526000606083015260006080830152565b67ffffffffffffffff81116102be5760051b60200190565b60001981146106cb5760010190565b805115610bbb5760200190565b634e487b7160e01b600052603260045260246000fd5b805160011015610bbb5760400190565b805160021015610bbb5760600190565b8051821015610bbb5760209160051b010190565b9060608201518110159182610c1957505090565b608001511015919050565b604051906080820182811067ffffffffffffffff8211176102be5760405260006060838281528260208201528260408201520152565b90610c63610c24565b50610c6c610c24565b6001600160a01b0390921680835290606380820291801590830490911417156106cb5760649004602083015273c532a74256d3db42d0bf7a0400fefdbad76940088103610cc85750620249f06040820152601e60608201525b90565b731111111254eeb25477b68fb85ed929f73a9605828103610cf757506202bf206040820152600a606082015290565b733bfa4769fb09eefc5a80d6e87c3b9c650f7ae48e03610cc557620284886040820152601e606082015290565b610d2c610adc565b906000825260006020830152600060408301526000606083015260006080830152565b610d57610d24565b50610d60610d24565b6001600160a01b0390911680825273ae92d5ad7583ad66e49a0c67bad18f6ba52dddc18103610dba5750601460208201526107086040820152670de0b6b3a7640000606082015269d3c21bcecceda1000000608082015290565b733e4a3a4796d16c0cd582c382691998f7c06420b68103610e065750600f60208201526104b0604082015267016345785d8a000060608201526969e10de76676d0800000608082015290565b737612ae3d4a6d343159504e97773b2e8f51b4ab8b03610cc5576019602082015261096060408201526706f05b59d3b2000060608201526a01a784379d99db4200000060808201529056fea26469706673582212207b7d0faa284c262979d818ed540a868ec124337a360735e7e80a8f6866ac858a64736f6c63430008130033","opcodes":"PUSH1 0x80 DUP1 PUSH1 0x40 MSTORE CALLVALUE PUSH2 0x5F JUMPI PUSH1 0x0 DUP1 SLOAD CALLER PUSH1 0x1 PUSH1 0x1 PUSH1 0xA0 SHL SUB NOT DUP3 AND DUP2 OR DUP4 SSTORE SWAP2 PUSH1 0x1 PUSH1 0x1 PUSH1 0xA0 SHL SUB SWAP1 SWAP2 AND SWAP1 PUSH32 0x8BE0079C531659141344CD1FD0A4F28419497F9722A3DAAFE3B4186F6B6457E0 SWAP1 DUP1 LOG3 PUSH1 0x1 DUP1 SSTORE PUSH2 0xE87 SWAP1 DUP2 PUSH2 0x65 DUP3 CODECOPY RETURN JUMPDEST PUSH1 0x0 DUP1 REVERT INVALID PUSH1 0x80 PUSH1 0x40 MSTORE PUSH1 0x4 CALLDATASIZE LT ISZERO PUSH2 0x12 JUMPI PUSH1 0x0 DUP1 REVERT JUMPDEST PUSH1 0x0 CALLDATALOAD PUSH1 0xE0 SHR DUP1 PUSH4 0xB4F256D EQ PUSH2 0x9D4 JUMPI DUP1 PUSH4 0x715018A6 EQ PUSH2 0x97B JUMPI DUP1 PUSH4 0x7557F41A EQ PUSH2 0x90F JUMPI DUP1 PUSH4 0x7FC666AA EQ PUSH2 0x36A JUMPI DUP1 PUSH4 0x8DA5CB5B EQ PUSH2 0x341 JUMPI DUP1 PUSH4 0xCE61685D EQ PUSH2 0x2D4 JUMPI DUP1 PUSH4 0xD3918F16 EQ PUSH2 0x20D JUMPI DUP1 PUSH4 0xDED06BDB EQ PUSH2 0x18D JUMPI DUP1 PUSH4 0xF2FDE38B EQ PUSH2 0xC4 JUMPI PUSH4 0xFB9F78CB EQ PUSH2 0x8A JUMPI PUSH1 0x0 DUP1 REVERT JUMPDEST CALLVALUE PUSH2 0xBF JUMPI PUSH1 0x20 CALLDATASIZE PUSH1 0x3 NOT ADD SLT PUSH2 0xBF JUMPI PUSH2 0xFFFF PUSH2 0xA6 PUSH2 0xA0F JUMP JUMPDEST AND PUSH1 0x0 MSTORE PUSH1 0x3 PUSH1 0x20 MSTORE PUSH1 0x20 PUSH1 0x40 PUSH1 0x0 KECCAK256 SLOAD PUSH1 0x40 MLOAD SWAP1 DUP2 MSTORE RETURN JUMPDEST PUSH1 0x0 DUP1 REVERT JUMPDEST CALLVALUE PUSH2 0xBF JUMPI PUSH1 0x20 CALLDATASIZE PUSH1 0x3 NOT ADD SLT PUSH2 0xBF JUMPI PUSH2 0xDD PUSH2 0xA31 JUMP JUMPDEST PUSH2 0xE5 PUSH2 0xA84 JUMP JUMPDEST PUSH1 0x1 PUSH1 0x1 PUSH1 0xA0 SHL SUB SWAP1 DUP2 AND SWAP1 DUP2 ISZERO PUSH2 0x139 JUMPI PUSH1 0x0 SLOAD DUP3 PUSH12 0xFFFFFFFFFFFFFFFFFFFFFFFF PUSH1 0xA0 SHL DUP3 AND OR PUSH1 0x0 SSTORE AND PUSH32 0x8BE0079C531659141344CD1FD0A4F28419497F9722A3DAAFE3B4186F6B6457E0 PUSH1 0x0 DUP1 LOG3 STOP JUMPDEST PUSH1 0x40 MLOAD PUSH3 0x461BCD PUSH1 0xE5 SHL DUP2 MSTORE PUSH1 0x20 PUSH1 0x4 DUP3 ADD MSTORE PUSH1 0x26 PUSH1 0x24 DUP3 ADD MSTORE PUSH32 0x4F776E61626C653A206E6577206F776E657220697320746865207A65726F2061 PUSH1 0x44 DUP3 ADD MSTORE PUSH6 0x646472657373 PUSH1 0xD0 SHL PUSH1 0x64 DUP3 ADD MSTORE PUSH1 0x84 SWAP1 REVERT JUMPDEST CALLVALUE PUSH2 0xBF JUMPI PUSH1 0x40 CALLDATASIZE PUSH1 0x3 NOT ADD SLT PUSH2 0xBF JUMPI PUSH1 0xA0 PUSH2 0x1A8 PUSH2 0xA31 JUMP JUMPDEST PUSH2 0x1B0 PUSH2 0xA20 JUMP JUMPDEST PUSH1 0x1 DUP1 DUP5 SHL SUB DUP1 SWAP3 AND PUSH1 0x0 MSTORE PUSH1 0x5 PUSH1 0x20 MSTORE PUSH2 0xFFFF PUSH1 0x40 PUSH1 0x0 KECCAK256 SWAP2 AND PUSH1 0x0 MSTORE PUSH1 0x20 MSTORE PUSH1 0x40 PUSH1 0x0 KECCAK256 SWAP1 DUP2 SLOAD AND SWAP1 PUSH1 0x1 DUP2 ADD SLOAD SWAP1 PUSH1 0x2 DUP2 ADD SLOAD PUSH1 0x4 PUSH1 0x3 DUP4 ADD SLOAD SWAP3 ADD SLOAD SWAP3 PUSH1 0x40 MLOAD SWAP5 DUP6 MSTORE PUSH1 0x20 DUP6 ADD MSTORE PUSH1 0x40 DUP5 ADD MSTORE PUSH1 0x60 DUP4 ADD MSTORE PUSH1 0x80 DUP3 ADD MSTORE RETURN JUMPDEST CALLVALUE PUSH2 0xBF JUMPI PUSH1 0x80 CALLDATASIZE PUSH1 0x3 NOT ADD SLT PUSH2 0xBF JUMPI PUSH2 0x226 PUSH2 0xA31 JUMP JUMPDEST PUSH2 0x22E PUSH2 0xA20 JUMP JUMPDEST PUSH2 0x236 PUSH2 0xA84 JUMP JUMPDEST PUSH1 0x40 MLOAD SWAP2 PUSH1 0x60 DUP4 ADD SWAP2 DUP4 DUP4 LT PUSH8 0xFFFFFFFFFFFFFFFF DUP5 GT OR PUSH2 0x2BE JUMPI PUSH1 0x2 SWAP3 PUSH1 0x40 MSTORE PUSH1 0x1 DUP1 PUSH1 0xA0 SHL SUB DUP1 SWAP3 AND SWAP2 DUP3 DUP6 MSTORE PUSH1 0x20 DUP6 ADD SWAP2 PUSH1 0x44 CALLDATALOAD DUP4 MSTORE PUSH1 0x40 DUP7 ADD SWAP4 PUSH1 0x64 CALLDATALOAD DUP6 MSTORE PUSH1 0x0 MSTORE DUP5 PUSH1 0x20 MSTORE PUSH2 0xFFFF PUSH1 0x40 PUSH1 0x0 KECCAK256 SWAP2 AND PUSH1 0x0 MSTORE PUSH1 0x20 MSTORE PUSH1 0x40 PUSH1 0x0 KECCAK256 SWAP5 MLOAD AND PUSH12 0xFFFFFFFFFFFFFFFFFFFFFFFF PUSH1 0xA0 SHL DUP6 SLOAD AND OR DUP5 SSTORE MLOAD PUSH1 0x1 DUP5 ADD SSTORE MLOAD SWAP2 ADD SSTORE PUSH1 0x0 DUP1 RETURN JUMPDEST PUSH4 0x4E487B71 PUSH1 0xE0 SHL PUSH1 0x0 MSTORE PUSH1 0x41 PUSH1 0x4 MSTORE PUSH1 0x24 PUSH1 0x0 REVERT JUMPDEST CALLVALUE PUSH2 0xBF JUMPI PUSH1 0x40 CALLDATASIZE PUSH1 0x3 NOT ADD SLT PUSH2 0xBF JUMPI PUSH1 0x80 PUSH1 0x1 PUSH1 0x1 PUSH1 0xA0 SHL SUB DUP1 PUSH2 0x2F8 PUSH2 0xA31 JUMP JUMPDEST AND PUSH1 0x0 MSTORE PUSH1 0x4 PUSH1 0x20 MSTORE PUSH1 0x40 PUSH1 0x0 KECCAK256 PUSH1 0x24 CALLDATALOAD PUSH1 0x0 MSTORE PUSH1 0x20 MSTORE PUSH1 0x40 PUSH1 0x0 KECCAK256 SWAP1 DUP2 SLOAD AND SWAP1 PUSH1 0x1 DUP2 ADD SLOAD SWAP1 PUSH1 0x3 PUSH1 0x2 DUP3 ADD SLOAD SWAP2 ADD SLOAD SWAP2 PUSH1 0x40 MLOAD SWAP4 DUP5 MSTORE PUSH1 0x20 DUP5 ADD MSTORE PUSH1 0x40 DUP4 ADD MSTORE PUSH1 0x60 DUP3 ADD MSTORE RETURN JUMPDEST CALLVALUE PUSH2 0xBF JUMPI PUSH1 0x0 CALLDATASIZE PUSH1 0x3 NOT ADD SLT PUSH2 0xBF JUMPI PUSH1 0x0 SLOAD PUSH1 0x40 MLOAD PUSH1 0x1 PUSH1 0x1 PUSH1 0xA0 SHL SUB SWAP1 SWAP2 AND DUP2 MSTORE PUSH1 0x20 SWAP1 RETURN JUMPDEST CALLVALUE PUSH2 0xBF JUMPI PUSH1 0xA0 CALLDATASIZE PUSH1 0x3 NOT ADD SLT PUSH2 0xBF JUMPI PUSH2 0x383 PUSH2 0xA31 JUMP JUMPDEST POP PUSH1 0x24 CALLDATALOAD PUSH1 0x1 PUSH1 0x1 PUSH1 0xA0 SHL SUB DUP2 AND SUB PUSH2 0xBF JUMPI PUSH1 0x64 CALLDATALOAD PUSH2 0xFFFF DUP2 AND DUP2 SUB PUSH2 0xBF JUMPI PUSH1 0x84 CALLDATALOAD PUSH2 0xFFFF DUP2 AND DUP2 SUB PUSH2 0xBF JUMPI PUSH2 0x3BA PUSH2 0xB5C JUMP JUMPDEST POP PUSH2 0x3C3 PUSH2 0xB5C JUMP JUMPDEST POP PUSH2 0x3CC PUSH2 0xB5C JUMP JUMPDEST SWAP2 PUSH2 0x3D5 PUSH2 0xAFC JUMP JUMPDEST SWAP1 PUSH1 0x3 DUP3 MSTORE PUSH1 0x60 CALLDATASIZE PUSH1 0x20 DUP5 ADD CALLDATACOPY PUSH20 0xC532A74256D3DB42D0BF7A0400FEFDBAD7694008 PUSH2 0x400 DUP4 PUSH2 0xBAE JUMP JUMPDEST MSTORE PUSH20 0x3BFA4769FB09EEFC5A80D6E87C3B9C650F7AE48E PUSH2 0x41F DUP4 PUSH2 0xBD1 JUMP JUMPDEST MSTORE PUSH20 0x98E5F5706897074A4664DD3A32EB80242D6E694B PUSH2 0x43E DUP4 PUSH2 0xBE1 JUMP JUMPDEST MSTORE PUSH2 0x447 PUSH2 0xB1C JUMP JUMPDEST SWAP2 PUSH1 0x1 DUP4 MSTORE PUSH1 0x20 CALLDATASIZE DUP2 DUP6 ADD CALLDATACOPY PUSH1 0x1 PUSH1 0x1 PUSH1 0xA0 SHL SUB SWAP1 PUSH2 0x465 SWAP1 PUSH2 0xBAE JUMP JUMPDEST MLOAD AND PUSH2 0x470 DUP4 PUSH2 0xBAE JUMP JUMPDEST MSTORE PUSH2 0x479 PUSH2 0xB3C JUMP JUMPDEST PUSH1 0x0 DUP2 MSTORE SWAP1 PUSH2 0xFFFF DUP5 AND PUSH2 0xFFFF DUP3 AND SUB PUSH2 0x771 JUMPI JUMPDEST PUSH1 0x0 SWAP2 DUP3 DUP1 JUMPDEST DUP6 MLOAD DUP2 LT ISZERO PUSH2 0x4F9 JUMPI PUSH1 0x20 PUSH2 0x4BE PUSH1 0x44 CALLDATALOAD PUSH1 0x1 PUSH1 0x1 PUSH1 0xA0 SHL SUB PUSH2 0x4B7 DUP6 DUP12 PUSH2 0xBF1 JUMP JUMPDEST MLOAD AND PUSH2 0xC5A JUMP JUMPDEST ADD MLOAD DUP6 DUP2 GT PUSH2 0x4D7 JUMPI JUMPDEST POP PUSH2 0x4D2 SWAP1 PUSH2 0xB9F JUMP JUMPDEST PUSH2 0x494 JUMP JUMPDEST SWAP5 POP SWAP1 POP PUSH2 0x4D2 PUSH1 0x1 PUSH1 0x1 PUSH1 0xA0 SHL SUB PUSH2 0x4F0 DUP4 DUP9 PUSH2 0xBF1 JUMP JUMPDEST MLOAD AND SWAP2 SWAP1 PUSH2 0x4C8 JUMP JUMPDEST POP DUP7 SWAP4 POP DUP6 PUSH1 0x0 SWAP3 PUSH1 0x0 NOT PUSH2 0xFFFF DUP4 AND PUSH2 0xFFFF DUP8 AND SUB PUSH2 0x6F8 JUMPI JUMPDEST POP POP PUSH2 0x534 PUSH2 0x521 PUSH2 0xB1C JUMP JUMPDEST PUSH1 0x1 DUP2 MSTORE PUSH1 0x20 CALLDATASIZE DUP2 DUP4 ADD CALLDATACOPY DUP1 DUP8 MSTORE PUSH2 0xBAE JUMP JUMPDEST PUSH1 0x1 PUSH1 0x1 PUSH1 0xA0 SHL SUB DUP4 AND SWAP1 MSTORE PUSH1 0x40 MLOAD PUSH1 0x60 DUP2 ADD SWAP2 SWAP1 PUSH8 0xFFFFFFFFFFFFFFFF DUP4 GT DUP2 DUP5 LT OR PUSH2 0x2BE JUMPI PUSH2 0xFFFF SWAP3 PUSH1 0x40 MSTORE PUSH1 0x2 DUP2 MSTORE PUSH1 0x40 CALLDATASIZE PUSH1 0x20 DUP4 ADD CALLDATACOPY PUSH2 0x582 DUP4 PUSH1 0x20 DUP10 ADD SWAP8 DUP4 DUP10 MSTORE AND SWAP2 PUSH2 0xBAE JUMP JUMPDEST MSTORE AND PUSH2 0x58E DUP5 MLOAD PUSH2 0xBD1 JUMP JUMPDEST MSTORE PUSH1 0x1 PUSH1 0x1 PUSH1 0xA0 SHL SUB DUP3 AND DUP1 ISZERO DUP1 ISZERO SWAP3 PUSH2 0x5D4 SWAP3 SWAP1 SWAP2 PUSH2 0x6E1 JUMPI PUSH2 0x5C9 PUSH2 0x5B3 PUSH2 0xB1C JUMP JUMPDEST PUSH1 0x1 DUP2 MSTORE PUSH1 0x20 CALLDATASIZE DUP2 DUP4 ADD CALLDATACOPY DUP1 PUSH1 0x40 DUP11 ADD MSTORE PUSH2 0xBAE JUMP JUMPDEST MSTORE JUMPDEST PUSH1 0x44 CALLDATALOAD SWAP1 PUSH2 0xC5A JUMP JUMPDEST SWAP2 PUSH1 0x20 PUSH1 0x40 DUP5 ADD MLOAD SWAP4 PUSH1 0x60 DUP8 ADD SWAP5 DUP6 MSTORE ADD MLOAD SWAP2 PUSH1 0x80 DUP7 ADD SWAP3 DUP4 MSTORE PUSH2 0x682 JUMPI JUMPDEST POP PUSH1 0x40 MLOAD SWAP3 PUSH1 0x20 DUP5 MSTORE PUSH2 0x612 DUP6 MLOAD PUSH1 0xA0 PUSH1 0x20 DUP8 ADD MSTORE PUSH1 0xC0 DUP7 ADD SWAP1 PUSH2 0xA47 JUMP JUMPDEST SWAP1 MLOAD SWAP5 PUSH1 0x1F NOT SWAP2 DUP3 DUP7 DUP3 SUB ADD PUSH1 0x40 DUP8 ADD MSTORE PUSH1 0x20 DUP1 DUP9 MLOAD SWAP3 DUP4 DUP2 MSTORE ADD SWAP8 ADD SWAP1 PUSH1 0x0 JUMPDEST DUP2 DUP2 LT PUSH2 0x668 JUMPI POP POP POP SWAP5 PUSH2 0x657 SWAP2 PUSH1 0x40 DUP7 SWAP8 ADD MLOAD SWAP1 DUP7 DUP4 SUB ADD PUSH1 0x60 DUP8 ADD MSTORE PUSH2 0xA47 JUMP JUMPDEST SWAP2 MLOAD PUSH1 0x80 DUP5 ADD MSTORE MLOAD PUSH1 0xA0 DUP4 ADD MSTORE SUB SWAP1 RETURN JUMPDEST DUP3 MLOAD PUSH2 0xFFFF AND DUP10 MSTORE PUSH1 0x20 SWAP9 DUP10 ADD SWAP9 SWAP1 SWAP3 ADD SWAP2 PUSH1 0x1 ADD PUSH2 0x633 JUMP JUMPDEST PUSH2 0x68B SWAP1 PUSH2 0xD4F JUMP JUMPDEST DUP3 MLOAD PUSH3 0x30D40 DUP2 ADD DUP1 SWAP2 GT PUSH2 0x6CB JUMPI DUP4 MSTORE PUSH1 0x20 DUP3 MLOAD SWAP2 ADD MLOAD SWAP1 PUSH2 0x2710 SWAP2 DUP3 SUB SWAP1 DUP3 DUP3 GT PUSH2 0x6CB JUMPI DUP2 DUP2 MUL SWAP2 DUP2 DUP4 DIV EQ SWAP1 ISZERO OR ISZERO PUSH2 0x6CB JUMPI DIV DUP2 MSTORE DUP5 PUSH2 0x5F3 JUMP JUMPDEST PUSH4 0x4E487B71 PUSH1 0xE0 SHL PUSH1 0x0 MSTORE PUSH1 0x11 PUSH1 0x4 MSTORE PUSH1 0x24 PUSH1 0x0 REVERT JUMPDEST POP PUSH2 0x6EA PUSH2 0xB3C JUMP JUMPDEST PUSH1 0x0 DUP2 MSTORE PUSH1 0x40 DUP8 ADD MSTORE PUSH2 0x5CB JUMP JUMPDEST SWAP3 PUSH1 0x0 SWAP6 SWAP3 SWAP6 SWAP5 SWAP2 SWAP5 JUMPDEST DUP6 MLOAD DUP2 LT ISZERO PUSH2 0x764 JUMPI PUSH1 0x20 PUSH2 0x729 PUSH1 0x1 PUSH1 0x1 PUSH1 0xA0 SHL SUB PUSH2 0x722 DUP5 DUP11 PUSH2 0xBF1 JUMP JUMPDEST MLOAD AND PUSH2 0xD4F JUMP JUMPDEST ADD MLOAD DUP6 DUP2 LT PUSH2 0x742 JUMPI JUMPDEST POP PUSH2 0x73D SWAP1 PUSH2 0xB9F JUMP JUMPDEST PUSH2 0x702 JUMP JUMPDEST SWAP5 POP SWAP2 POP PUSH2 0x73D PUSH1 0x1 PUSH1 0x1 PUSH1 0xA0 SHL SUB PUSH2 0x75B DUP5 DUP9 PUSH2 0xBF1 JUMP JUMPDEST MLOAD AND SWAP3 SWAP1 PUSH2 0x733 JUMP JUMPDEST POP SWAP3 POP SWAP3 POP SWAP3 DUP6 DUP1 PUSH2 0x514 JUMP JUMPDEST SWAP2 SWAP4 SWAP1 POP PUSH2 0x77D PUSH2 0xAFC JUMP JUMPDEST SWAP2 PUSH1 0x3 DUP4 MSTORE PUSH1 0x60 CALLDATASIZE PUSH1 0x20 DUP6 ADD CALLDATACOPY PUSH20 0xAE92D5AD7583AD66E49A0C67BAD18F6BA52DDDC1 PUSH2 0x7A8 DUP5 PUSH2 0xBAE JUMP JUMPDEST MSTORE PUSH20 0x3E4A3A4796D16C0CD582C382691998F7C06420B6 PUSH2 0x7C7 DUP5 PUSH2 0xBD1 JUMP JUMPDEST MSTORE PUSH20 0x7612AE3D4A6D343159504E97773B2E8F51B4AB8B PUSH2 0x7E6 DUP5 PUSH2 0xBE1 JUMP JUMPDEST MSTORE PUSH1 0x0 SWAP5 PUSH1 0x0 JUMPDEST DUP5 MLOAD DUP2 LT ISZERO PUSH2 0x83E JUMPI PUSH2 0x816 PUSH1 0x44 CALLDATALOAD PUSH2 0x811 PUSH1 0x1 PUSH1 0x1 PUSH1 0xA0 SHL SUB PUSH2 0x722 DUP6 DUP11 PUSH2 0xBF1 JUMP JUMPDEST PUSH2 0xC05 JUMP JUMPDEST PUSH2 0x829 JUMPI JUMPDEST PUSH2 0x824 SWAP1 PUSH2 0xB9F JUMP JUMPDEST PUSH2 0x7ED JUMP JUMPDEST SWAP6 PUSH2 0x836 PUSH2 0x824 SWAP2 PUSH2 0xB9F JUMP JUMPDEST SWAP7 SWAP1 POP PUSH2 0x81B JUMP JUMPDEST POP SWAP2 SWAP5 SWAP1 SWAP4 PUSH2 0x84C DUP3 PUSH2 0xB87 JUMP JUMPDEST PUSH1 0x40 MLOAD SWAP3 SWAP1 PUSH8 0xFFFFFFFFFFFFFFFF PUSH1 0x1F DUP3 ADD PUSH1 0x1F NOT AND DUP6 ADD SWAP1 DUP2 GT SWAP1 DUP6 GT OR PUSH2 0x2BE JUMPI PUSH1 0x1F ADD PUSH1 0x1F NOT SWAP1 DUP2 AND DUP5 ADD PUSH1 0x40 MSTORE DUP2 DUP5 MSTORE SWAP1 PUSH2 0x88A SWAP1 PUSH2 0xB87 JUMP JUMPDEST ADD CALLDATASIZE PUSH1 0x20 DUP5 ADD CALLDATACOPY PUSH1 0x0 SWAP3 PUSH1 0x0 JUMPDEST DUP6 MLOAD DUP2 LT ISZERO PUSH2 0x903 JUMPI PUSH2 0x8BB PUSH1 0x44 CALLDATALOAD PUSH2 0x811 PUSH1 0x1 PUSH1 0x1 PUSH1 0xA0 SHL SUB PUSH2 0x722 DUP6 DUP12 PUSH2 0xBF1 JUMP JUMPDEST PUSH2 0x8CE JUMPI JUMPDEST PUSH2 0x8C9 SWAP1 PUSH2 0xB9F JUMP JUMPDEST PUSH2 0x897 JUMP JUMPDEST SWAP4 PUSH2 0x8C9 SWAP1 PUSH2 0x8FB SWAP1 PUSH1 0x1 PUSH1 0x1 PUSH1 0xA0 SHL SUB PUSH2 0x8E9 DUP9 DUP11 PUSH2 0xBF1 JUMP JUMPDEST MLOAD AND PUSH2 0x8F5 DUP3 DUP9 PUSH2 0xBF1 JUMP JUMPDEST MSTORE PUSH2 0xB9F JUMP JUMPDEST SWAP5 SWAP1 POP PUSH2 0x8C0 JUMP JUMPDEST POP SWAP4 POP SWAP4 SWAP2 POP SWAP1 PUSH2 0x48E JUMP JUMPDEST CALLVALUE PUSH2 0xBF JUMPI PUSH1 0x40 CALLDATASIZE PUSH1 0x3 NOT ADD SLT PUSH2 0xBF JUMPI PUSH1 0x60 PUSH2 0x92A PUSH2 0xA31 JUMP JUMPDEST PUSH2 0x932 PUSH2 0xA20 JUMP JUMPDEST PUSH1 0x1 DUP1 PUSH1 0xA0 SHL SUB DUP1 SWAP3 AND PUSH1 0x0 MSTORE PUSH1 0x2 PUSH1 0x20 MSTORE PUSH2 0xFFFF PUSH1 0x40 PUSH1 0x0 KECCAK256 SWAP2 AND PUSH1 0x0 MSTORE PUSH1 0x20 MSTORE PUSH1 0x40 PUSH1 0x0 KECCAK256 SWAP1 DUP2 SLOAD AND SWAP1 PUSH1 0x2 PUSH1 0x1 DUP3 ADD SLOAD SWAP2 ADD SLOAD SWAP1 PUSH1 0x40 MLOAD SWAP3 DUP4 MSTORE PUSH1 0x20 DUP4 ADD MSTORE PUSH1 0x40 DUP3 ADD MSTORE RETURN JUMPDEST CALLVALUE PUSH2 0xBF JUMPI PUSH1 0x0 CALLDATASIZE PUSH1 0x3 NOT ADD SLT PUSH2 0xBF JUMPI PUSH2 0x994 PUSH2 0xA84 JUMP JUMPDEST PUSH1 0x0 DUP1 SLOAD PUSH1 0x1 PUSH1 0x1 PUSH1 0xA0 SHL SUB NOT DUP2 AND DUP3 SSTORE PUSH1 0x1 PUSH1 0x1 PUSH1 0xA0 SHL SUB AND PUSH32 0x8BE0079C531659141344CD1FD0A4F28419497F9722A3DAAFE3B4186F6B6457E0 DUP3 DUP1 LOG3 STOP JUMPDEST CALLVALUE PUSH2 0xBF JUMPI PUSH1 0x40 CALLDATASIZE PUSH1 0x3 NOT ADD SLT PUSH2 0xBF JUMPI PUSH2 0xFFFF PUSH2 0x9F0 PUSH2 0xA0F JUMP JUMPDEST PUSH2 0x9F8 PUSH2 0xA84 JUMP JUMPDEST AND PUSH1 0x0 MSTORE PUSH1 0x3 PUSH1 0x20 MSTORE PUSH1 0x24 CALLDATALOAD PUSH1 0x40 PUSH1 0x0 KECCAK256 SSTORE PUSH1 0x0 DUP1 RETURN JUMPDEST PUSH1 0x4 CALLDATALOAD SWAP1 PUSH2 0xFFFF DUP3 AND DUP3 SUB PUSH2 0xBF JUMPI JUMP JUMPDEST PUSH1 0x24 CALLDATALOAD SWAP1 PUSH2 0xFFFF DUP3 AND DUP3 SUB PUSH2 0xBF JUMPI JUMP JUMPDEST PUSH1 0x4 CALLDATALOAD SWAP1 PUSH1 0x1 PUSH1 0x1 PUSH1 0xA0 SHL SUB DUP3 AND DUP3 SUB PUSH2 0xBF JUMPI JUMP JUMPDEST SWAP1 DUP2 MLOAD DUP1 DUP3 MSTORE PUSH1 0x20 DUP1 DUP1 SWAP4 ADD SWAP4 ADD SWAP2 PUSH1 0x0 JUMPDEST DUP3 DUP2 LT PUSH2 0xA67 JUMPI POP POP POP POP SWAP1 JUMP JUMPDEST DUP4 MLOAD PUSH1 0x1 PUSH1 0x1 PUSH1 0xA0 SHL SUB AND DUP6 MSTORE SWAP4 DUP2 ADD SWAP4 SWAP3 DUP2 ADD SWAP3 PUSH1 0x1 ADD PUSH2 0xA59 JUMP JUMPDEST PUSH1 0x0 SLOAD PUSH1 0x1 PUSH1 0x1 PUSH1 0xA0 SHL SUB AND CALLER SUB PUSH2 0xA98 JUMPI JUMP JUMPDEST PUSH1 0x64 PUSH1 0x40 MLOAD PUSH3 0x461BCD PUSH1 0xE5 SHL DUP2 MSTORE PUSH1 0x20 PUSH1 0x4 DUP3 ADD MSTORE PUSH1 0x20 PUSH1 0x24 DUP3 ADD MSTORE PUSH32 0x4F776E61626C653A2063616C6C6572206973206E6F7420746865206F776E6572 PUSH1 0x44 DUP3 ADD MSTORE REVERT JUMPDEST PUSH1 0x40 MLOAD SWAP1 PUSH1 0xA0 DUP3 ADD DUP3 DUP2 LT PUSH8 0xFFFFFFFFFFFFFFFF DUP3 GT OR PUSH2 0x2BE JUMPI PUSH1 0x40 MSTORE JUMP JUMPDEST PUSH1 0x40 MLOAD SWAP1 PUSH1 0x80 DUP3 ADD DUP3 DUP2 LT PUSH8 0xFFFFFFFFFFFFFFFF DUP3 GT OR PUSH2 0x2BE JUMPI PUSH1 0x40 MSTORE JUMP JUMPDEST PUSH1 0x40 MLOAD SWAP1 PUSH1 0x40 DUP3 ADD DUP3 DUP2 LT PUSH8 0xFFFFFFFFFFFFFFFF DUP3 GT OR PUSH2 0x2BE JUMPI PUSH1 0x40 MSTORE JUMP JUMPDEST PUSH1 0x40 MLOAD SWAP1 PUSH1 0x20 DUP3 ADD DUP3 DUP2 LT PUSH8 0xFFFFFFFFFFFFFFFF DUP3 GT OR PUSH2 0x2BE JUMPI PUSH1 0x40 MSTORE JUMP JUMPDEST PUSH2 0xB64 PUSH2 0xADC JUMP JUMPDEST SWAP1 PUSH1 0x60 DUP3 MSTORE PUSH1 0x60 PUSH1 0x20 DUP4 ADD MSTORE PUSH1 0x60 PUSH1 0x40 DUP4 ADD MSTORE PUSH1 0x0 PUSH1 0x60 DUP4 ADD MSTORE PUSH1 0x0 PUSH1 0x80 DUP4 ADD MSTORE JUMP JUMPDEST PUSH8 0xFFFFFFFFFFFFFFFF DUP2 GT PUSH2 0x2BE JUMPI PUSH1 0x5 SHL PUSH1 0x20 ADD SWAP1 JUMP JUMPDEST PUSH1 0x0 NOT DUP2 EQ PUSH2 0x6CB JUMPI PUSH1 0x1 ADD SWAP1 JUMP JUMPDEST DUP1 MLOAD ISZERO PUSH2 0xBBB JUMPI PUSH1 0x20 ADD SWAP1 JUMP JUMPDEST PUSH4 0x4E487B71 PUSH1 0xE0 SHL PUSH1 0x0 MSTORE PUSH1 0x32 PUSH1 0x4 MSTORE PUSH1 0x24 PUSH1 0x0 REVERT JUMPDEST DUP1 MLOAD PUSH1 0x1 LT ISZERO PUSH2 0xBBB JUMPI PUSH1 0x40 ADD SWAP1 JUMP JUMPDEST DUP1 MLOAD PUSH1 0x2 LT ISZERO PUSH2 0xBBB JUMPI PUSH1 0x60 ADD SWAP1 JUMP JUMPDEST DUP1 MLOAD DUP3 LT ISZERO PUSH2 0xBBB JUMPI PUSH1 0x20 SWAP2 PUSH1 0x5 SHL ADD ADD SWAP1 JUMP JUMPDEST SWAP1 PUSH1 0x60 DUP3 ADD MLOAD DUP2 LT ISZERO SWAP2 DUP3 PUSH2 0xC19 JUMPI POP POP SWAP1 JUMP JUMPDEST PUSH1 0x80 ADD MLOAD LT ISZERO SWAP2 SWAP1 POP JUMP JUMPDEST PUSH1 0x40 MLOAD SWAP1 PUSH1 0x80 DUP3 ADD DUP3 DUP2 LT PUSH8 0xFFFFFFFFFFFFFFFF DUP3 GT OR PUSH2 0x2BE JUMPI PUSH1 0x40 MSTORE PUSH1 0x0 PUSH1 0x60 DUP4 DUP3 DUP2 MSTORE DUP3 PUSH1 0x20 DUP3 ADD MSTORE DUP3 PUSH1 0x40 DUP3 ADD MSTORE ADD MSTORE JUMP JUMPDEST SWAP1 PUSH2 0xC63 PUSH2 0xC24 JUMP JUMPDEST POP PUSH2 0xC6C PUSH2 0xC24 JUMP JUMPDEST PUSH1 0x1 PUSH1 0x1 PUSH1 0xA0 SHL SUB SWAP1 SWAP3 AND DUP1 DUP4 MSTORE SWAP1 PUSH1 0x63 DUP1 DUP3 MUL SWAP2 DUP1 ISZERO SWAP1 DUP4 DIV SWAP1 SWAP2 EQ OR ISZERO PUSH2 0x6CB JUMPI PUSH1 0x64 SWAP1 DIV PUSH1 0x20 DUP4 ADD MSTORE PUSH20 0xC532A74256D3DB42D0BF7A0400FEFDBAD7694008 DUP2 SUB PUSH2 0xCC8 JUMPI POP PUSH3 0x249F0 PUSH1 0x40 DUP3 ADD MSTORE PUSH1 0x1E PUSH1 0x60 DUP3 ADD MSTORE JUMPDEST SWAP1 JUMP JUMPDEST PUSH20 0x1111111254EEB25477B68FB85ED929F73A960582 DUP2 SUB PUSH2 0xCF7 JUMPI POP PUSH3 0x2BF20 PUSH1 0x40 DUP3 ADD MSTORE PUSH1 0xA PUSH1 0x60 DUP3 ADD MSTORE SWAP1 JUMP JUMPDEST PUSH20 0x3BFA4769FB09EEFC5A80D6E87C3B9C650F7AE48E SUB PUSH2 0xCC5 JUMPI PUSH3 0x28488 PUSH1 0x40 DUP3 ADD MSTORE PUSH1 0x1E PUSH1 0x60 DUP3 ADD MSTORE SWAP1 JUMP JUMPDEST PUSH2 0xD2C PUSH2 0xADC JUMP JUMPDEST SWAP1 PUSH1 0x0 DUP3 MSTORE PUSH1 0x0 PUSH1 0x20 DUP4 ADD MSTORE PUSH1 0x0 PUSH1 0x40 DUP4 ADD MSTORE PUSH1 0x0 PUSH1 0x60 DUP4 ADD MSTORE PUSH1 0x0 PUSH1 0x80 DUP4 ADD MSTORE JUMP JUMPDEST PUSH2 0xD57 PUSH2 0xD24 JUMP JUMPDEST POP PUSH2 0xD60 PUSH2 0xD24 JUMP JUMPDEST PUSH1 0x1 PUSH1 0x1 PUSH1 0xA0 SHL SUB SWAP1 SWAP2 AND DUP1 DUP3 MSTORE PUSH20 0xAE92D5AD7583AD66E49A0C67BAD18F6BA52DDDC1 DUP2 SUB PUSH2 0xDBA JUMPI POP PUSH1 0x14 PUSH1 0x20 DUP3 ADD MSTORE PUSH2 0x708 PUSH1 0x40 DUP3 ADD MSTORE PUSH8 0xDE0B6B3A7640000 PUSH1 0x60 DUP3 ADD MSTORE PUSH10 0xD3C21BCECCEDA1000000 PUSH1 0x80 DUP3 ADD MSTORE SWAP1 JUMP JUMPDEST PUSH20 0x3E4A3A4796D16C0CD582C382691998F7C06420B6 DUP2 SUB PUSH2 0xE06 JUMPI POP PUSH1 0xF PUSH1 0x20 DUP3 ADD MSTORE PUSH2 0x4B0 PUSH1 0x40 DUP3 ADD MSTORE PUSH8 0x16345785D8A0000 PUSH1 0x60 DUP3 ADD MSTORE PUSH10 0x69E10DE76676D0800000 PUSH1 0x80 DUP3 ADD MSTORE SWAP1 JUMP JUMPDEST PUSH20 0x7612AE3D4A6D343159504E97773B2E8F51B4AB8B SUB PUSH2 0xCC5 JUMPI PUSH1 0x19 PUSH1 0x20 DUP3 ADD MSTORE PUSH2 0x960 PUSH1 0x40 DUP3 ADD MSTORE PUSH8 0x6F05B59D3B20000 PUSH1 0x60 DUP3 ADD MSTORE PUSH11 0x1A784379D99DB42000000 PUSH1 0x80 DUP3 ADD MSTORE SWAP1 JUMP INVALID LOG2 PUSH5 0x6970667358 0x22 SLT KECCAK256 PUSH28 0x7D0FAA284C262979D818ED540A868EC124337A360735E7E80A8F6866 0xAC DUP6 DUP11 PUSH5 0x736F6C6343 STOP ADDMOD SGT STOP CALLER "},"methodIdentifiers":{"bridgeQuotes(address,uint16)":"ded06bdb","chainGasPrices(uint16)":"fb9f78cb","dexQuotes(address,bytes32)":"ce61685d","findOptimalPath(address,address,uint256,uint16,uint16)":"7fc666aa","owner()":"8da5cb5b","priceFeeds(address,uint16)":"7557f41a","renounceOwnership()":"715018a6","transferOwnership(address)":"f2fde38b","updateChainGasPrice(uint16,uint256)":"0b4f256d","updatePriceFeed(address,uint16,uint256,uint256)":"d3918f16"}}}}}