{"contracts/PathOptimizerV2.sol":{"PathOptimizerV2":{"abi":[{"anonymous":false,"inputs":[{"indexed":true,"internalType":"bytes32","name":"intentId","type":"bytes32"},{"indexed":false,"internalType":"address[]","name":"dexs","type":"address[]"},{"indexed":false,"internalType":"uint16[]","name":"chains","type":"uint16[]"},{"indexed":false,"internalType":"uint256","name":"estimatedCost","type":"uint256"}],"name":"OptimalPathFound","type":"event"},{"anonymous":false,"inputs":[{"indexed":true,"internalType":"address","name":"previousOwner","type":"address"},{"indexed":true,"internalType":"address","name":"newOwner","type":"address"}],"name":"OwnershipTransferred","type":"event"},{"inputs":[{"internalType":"uint16","name":"","type":"uint16"}],"name":"chainGasPrices","outputs":[{"internalType":"uint256","name":"","type":"uint256"}],"stateMutability":"view","type":"function"},{"inputs":[{"internalType":"address","name":"sourceToken","type":"address"},{"internalType":"address","name":"targetToken","type":"address"},{"internalType":"uint256","name":"amount","type":"uint256"},{"internalType":"uint16","name":"sourceChain","type":"uint16"},{"internalType":"uint16","name":"targetChain","type":"uint16"}],"name":"findOptimalPath","outputs":[{"components":[{"internalType":"address[]","name":"dexs","type":"address[]"},{"internalType":"uint16[]","name":"chains","type":"uint16[]"},{"internalType":"address[]","name":"bridges","type":"address[]"},{"internalType":"uint256","name":"estimatedGas","type":"uint256"},{"internalType":"uint256","name":"expectedOutput","type":"uint256"}],"internalType":"struct PathOptimizerV2.Route","name":"","type":"tuple"}],"stateMutability":"view","type":"function"},{"inputs":[],"name":"owner","outputs":[{"internalType":"address","name":"","type":"address"}],"stateMutability":"view","type":"function"},{"inputs":[{"internalType":"address","name":"","type":"address"},{"internalType":"uint16","name":"","type":"uint16"}],"name":"priceFeeds","outputs":[{"internalType":"address","name":"token","type":"address"},{"internalType":"uint256","name":"price","type":"uint256"},{"internalType":"uint256","name":"liquidity","type":"uint256"}],"stateMutability":"view","type":"function"},{"inputs":[],"name":"renounceOwnership","outputs":[],"stateMutability":"nonpayable","type":"function"},{"inputs":[{"internalType":"address","name":"newOwner","type":"address"}],"name":"transferOwnership","outputs":[],"stateMutability":"nonpayable","type":"function"},{"inputs":[{"internalType":"uint16","name":"chainId","type":"uint16"},{"internalType":"uint256","name":"gasPrice","type":"uint256"}],"name":"updateChainGasPrice","outputs":[],"stateMutability":"nonpayable","type":"function"},{"inputs":[{"internalType":"address","name":"token","type":"address"},{"internalType":"uint16","name":"chainId","type":"uint16"},{"internalType":"uint256","name":"price","type":"uint256"},{"internalType":"uint256","name":"liquidity","type":"uint256"}],"name":"updatePriceFeed","outputs":[],"stateMutability":"nonpayable","type":"function"}],"evm":{"bytecode":{"linkReferences":{},"object":"6080806040523461005f5760008054336001600160a01b0319821681178355916001600160a01b03909116907f8be0079c531659141344cd1fd0a4f28419497f9722a3daafe3b4186f6b6457e09080a36001805561081390816100658239f35b600080fdfe6040608081526004908136101561001557600080fd5b600091823560e01c9081630b4f256d1461061c578163715018a6146105bf5781637557f41a1461055a5781637fc666aa146102315781638da5cb5b14610209578163d3918f1614610176578163f2fde38b146100af575063fb9f78cb1461007b57600080fd5b346100ab5760203660031901126100ab578060209261ffff61009b610653565b1681526003845220549051908152f35b5080fd5b905034610172576020366003190112610172576100ca61067a565b906100d36106cd565b6001600160a01b0391821692831561012057505082546001600160a01b0319811683178455167f8be0079c531659141344cd1fd0a4f28419497f9722a3daafe3b4186f6b6457e08380a380f35b906020608492519162461bcd60e51b8352820152602660248201527f4f776e61626c653a206e6577206f776e657220697320746865207a65726f206160448201526564647265737360d01b6064820152fd5b8280fd5b5050346100ab5760803660031901126100ab57600261019361067a565b9161019c610669565b6101a46106cd565b6101ac610725565b9360018060a01b03809116928386526020860192604435845281870194606435865288528560205261ffff8289209116885260205286209451166bffffffffffffffffffffffff60a01b8554161784555160018401555191015580f35b5050346100ab57816003193601126100ab57905490516001600160a01b039091168152602090f35b919050346101725760a03660031901126101725761024d61067a565b6024926001600160a01b0392843584811690819003610556576044356064359761ffff97888a16809a036100ab576084359289841680940361017257908a9493929161029761077b565b506102a061077b565b998a956102ab61075b565b9560019889885273c532a74256d3db42d0bf7a0400fefdbad76940086102db6020998a3681830137808c526107ba565b526102fd886102e8610725565b600281529a8d36838e01370199808b526107ba565b5287519e8f518a1015610544578d9e9f8b9c9d9e838d8793015261031f61075b565b809d8d82528b368184013782019d8e52610338906107ba565b73ae92d5ad7583ad66e49a0c67bad18f6ba52dddc190526060019e8f620249f09052168752600288528b872090875287528a862091610375610725565b8484541681528c8b850154948a8301958652600201549101528652600287528a86209086528652898520916103a8610725565b9083541681528a898401549388830194855260020154910152805115610504578151156104c45751918281029281840414901517156104b257519081156104a0570497605f890298808a04605f149015171561048f575050929190606460808a0197048752610427865199828b525160a0838c015260c08b0190610690565b915199601f1996878b850301908b015281808c5194858152019b0194905b838210610478575089808a8a6104678f8c8c5190868303016060870152610690565b915160808401525160a08301520390f35b855181168c529a82019a9482019490840190610445565b634e487b7160e01b83526011905281fd5b634e487b7160e01b845260128a528284fd5b634e487b7160e01b845260118a528284fd5b60648b8786818e519362461bcd60e51b85528401528201527f54617267657420746f6b656e207072696365206e6f7420617661696c61626c656044820152fd5b60648b8786818e519362461bcd60e51b85528401528201527f536f7572636520746f6b656e207072696365206e6f7420617661696c61626c656044820152fd5b634e487b7160e01b875260328c528587fd5b8680fd5b5050346100ab57806003193601126100ab576060918161057861067a565b91610581610669565b60018060a01b038094168252600260205261ffff83832091168252602052209081541691600260018301549201549181519384526020840152820152f35b83346106195780600319360112610619576105d86106cd565b80546001600160a01b03198116825581906001600160a01b03167f8be0079c531659141344cd1fd0a4f28419497f9722a3daafe3b4186f6b6457e08280a380f35b80fd5b5050346100ab57806003193601126100ab5761ffff610639610653565b6106416106cd565b16825260036020526024359082205580f35b6004359061ffff8216820361066457565b600080fd5b6024359061ffff8216820361066457565b600435906001600160a01b038216820361066457565b90815180825260208080930193019160005b8281106106b0575050505090565b83516001600160a01b0316855293810193928101926001016106a2565b6000546001600160a01b031633036106e157565b606460405162461bcd60e51b815260206004820152602060248201527f4f776e61626c653a2063616c6c6572206973206e6f7420746865206f776e65726044820152fd5b604051906060820182811067ffffffffffffffff82111761074557604052565b634e487b7160e01b600052604160045260246000fd5b604051906040820182811067ffffffffffffffff82111761074557604052565b6040519060a0820182811067ffffffffffffffff8211176107455760405260006080836060815260606020820152606060408201528260608201520152565b8051156107c75760200190565b634e487b7160e01b600052603260045260246000fdfea2646970667358221220c7571ca79de7050b0d04f36a284759af1712f165be7d74dddb8d89cf9fe9ccf964736f6c63430008130033","opcodes":"PUSH1 0x80 DUP1 PUSH1 0x40 MSTORE CALLVALUE PUSH2 0x5F JUMPI PUSH1 0x0 DUP1 SLOAD CALLER PUSH1 0x1 PUSH1 0x1 PUSH1 0xA0 SHL SUB NOT DUP3 AND DUP2 OR DUP4 SSTORE SWAP2 PUSH1 0x1 PUSH1 0x1 PUSH1 0xA0 SHL SUB SWAP1 SWAP2 AND SWAP1 PUSH32 0x8BE0079C531659141344CD1FD0A4F28419497F9722A3DAAFE3B4186F6B6457E0 SWAP1 DUP1 LOG3 PUSH1 0x1 DUP1 SSTORE PUSH2 0x813 SWAP1 DUP2 PUSH2 0x65 DUP3 CODECOPY RETURN JUMPDEST PUSH1 0x0 DUP1 REVERT INVALID PUSH1 0x40 PUSH1 0x80 DUP2 MSTORE PUSH1 0x4 SWAP1 DUP2 CALLDATASIZE LT ISZERO PUSH2 0x15 JUMPI PUSH1 0x0 DUP1 REVERT JUMPDEST PUSH1 0x0 SWAP2 DUP3 CALLDATALOAD PUSH1 0xE0 SHR SWAP1 DUP2 PUSH4 0xB4F256D EQ PUSH2 0x61C JUMPI DUP2 PUSH4 0x715018A6 EQ PUSH2 0x5BF JUMPI DUP2 PUSH4 0x7557F41A EQ PUSH2 0x55A JUMPI DUP2 PUSH4 0x7FC666AA EQ PUSH2 0x231 JUMPI DUP2 PUSH4 0x8DA5CB5B EQ PUSH2 0x209 JUMPI DUP2 PUSH4 0xD3918F16 EQ PUSH2 0x176 JUMPI DUP2 PUSH4 0xF2FDE38B EQ PUSH2 0xAF JUMPI POP PUSH4 0xFB9F78CB EQ PUSH2 0x7B JUMPI PUSH1 0x0 DUP1 REVERT JUMPDEST CALLVALUE PUSH2 0xAB JUMPI PUSH1 0x20 CALLDATASIZE PUSH1 0x3 NOT ADD SLT PUSH2 0xAB JUMPI DUP1 PUSH1 0x20 SWAP3 PUSH2 0xFFFF PUSH2 0x9B PUSH2 0x653 JUMP JUMPDEST AND DUP2 MSTORE PUSH1 0x3 DUP5 MSTORE KECCAK256 SLOAD SWAP1 MLOAD SWAP1 DUP2 MSTORE RETURN JUMPDEST POP DUP1 REVERT JUMPDEST SWAP1 POP CALLVALUE PUSH2 0x172 JUMPI PUSH1 0x20 CALLDATASIZE PUSH1 0x3 NOT ADD SLT PUSH2 0x172 JUMPI PUSH2 0xCA PUSH2 0x67A JUMP JUMPDEST SWAP1 PUSH2 0xD3 PUSH2 0x6CD JUMP JUMPDEST PUSH1 0x1 PUSH1 0x1 PUSH1 0xA0 SHL SUB SWAP2 DUP3 AND SWAP3 DUP4 ISZERO PUSH2 0x120 JUMPI POP POP DUP3 SLOAD PUSH1 0x1 PUSH1 0x1 PUSH1 0xA0 SHL SUB NOT DUP2 AND DUP4 OR DUP5 SSTORE AND PUSH32 0x8BE0079C531659141344CD1FD0A4F28419497F9722A3DAAFE3B4186F6B6457E0 DUP4 DUP1 LOG3 DUP1 RETURN JUMPDEST SWAP1 PUSH1 0x20 PUSH1 0x84 SWAP3 MLOAD SWAP2 PUSH3 0x461BCD PUSH1 0xE5 SHL DUP4 MSTORE DUP3 ADD MSTORE PUSH1 0x26 PUSH1 0x24 DUP3 ADD MSTORE PUSH32 0x4F776E61626C653A206E6577206F776E657220697320746865207A65726F2061 PUSH1 0x44 DUP3 ADD MSTORE PUSH6 0x646472657373 PUSH1 0xD0 SHL PUSH1 0x64 DUP3 ADD MSTORE REVERT JUMPDEST DUP3 DUP1 REVERT JUMPDEST POP POP CALLVALUE PUSH2 0xAB JUMPI PUSH1 0x80 CALLDATASIZE PUSH1 0x3 NOT ADD SLT PUSH2 0xAB JUMPI PUSH1 0x2 PUSH2 0x193 PUSH2 0x67A JUMP JUMPDEST SWAP2 PUSH2 0x19C PUSH2 0x669 JUMP JUMPDEST PUSH2 0x1A4 PUSH2 0x6CD JUMP JUMPDEST PUSH2 0x1AC PUSH2 0x725 JUMP JUMPDEST SWAP4 PUSH1 0x1 DUP1 PUSH1 0xA0 SHL SUB DUP1 SWAP2 AND SWAP3 DUP4 DUP7 MSTORE PUSH1 0x20 DUP7 ADD SWAP3 PUSH1 0x44 CALLDATALOAD DUP5 MSTORE DUP2 DUP8 ADD SWAP5 PUSH1 0x64 CALLDATALOAD DUP7 MSTORE DUP9 MSTORE DUP6 PUSH1 0x20 MSTORE PUSH2 0xFFFF DUP3 DUP10 KECCAK256 SWAP2 AND DUP9 MSTORE PUSH1 0x20 MSTORE DUP7 KECCAK256 SWAP5 MLOAD AND PUSH12 0xFFFFFFFFFFFFFFFFFFFFFFFF PUSH1 0xA0 SHL DUP6 SLOAD AND OR DUP5 SSTORE MLOAD PUSH1 0x1 DUP5 ADD SSTORE MLOAD SWAP2 ADD SSTORE DUP1 RETURN JUMPDEST POP POP CALLVALUE PUSH2 0xAB JUMPI DUP2 PUSH1 0x3 NOT CALLDATASIZE ADD SLT PUSH2 0xAB JUMPI SWAP1 SLOAD SWAP1 MLOAD PUSH1 0x1 PUSH1 0x1 PUSH1 0xA0 SHL SUB SWAP1 SWAP2 AND DUP2 MSTORE PUSH1 0x20 SWAP1 RETURN JUMPDEST SWAP2 SWAP1 POP CALLVALUE PUSH2 0x172 JUMPI PUSH1 0xA0 CALLDATASIZE PUSH1 0x3 NOT ADD SLT PUSH2 0x172 JUMPI PUSH2 0x24D PUSH2 0x67A JUMP JUMPDEST PUSH1 0x24 SWAP3 PUSH1 0x1 PUSH1 0x1 PUSH1 0xA0 SHL SUB SWAP3 DUP5 CALLDATALOAD DUP5 DUP2 AND SWAP1 DUP2 SWAP1 SUB PUSH2 0x556 JUMPI PUSH1 0x44 CALLDATALOAD PUSH1 0x64 CALLDATALOAD SWAP8 PUSH2 0xFFFF SWAP8 DUP9 DUP11 AND DUP1 SWAP11 SUB PUSH2 0xAB JUMPI PUSH1 0x84 CALLDATALOAD SWAP3 DUP10 DUP5 AND DUP1 SWAP5 SUB PUSH2 0x172 JUMPI SWAP1 DUP11 SWAP5 SWAP4 SWAP3 SWAP2 PUSH2 0x297 PUSH2 0x77B JUMP JUMPDEST POP PUSH2 0x2A0 PUSH2 0x77B JUMP JUMPDEST SWAP10 DUP11 SWAP6 PUSH2 0x2AB PUSH2 0x75B JUMP JUMPDEST SWAP6 PUSH1 0x1 SWAP9 DUP10 DUP9 MSTORE PUSH20 0xC532A74256D3DB42D0BF7A0400FEFDBAD7694008 PUSH2 0x2DB PUSH1 0x20 SWAP10 DUP11 CALLDATASIZE DUP2 DUP4 ADD CALLDATACOPY DUP1 DUP13 MSTORE PUSH2 0x7BA JUMP JUMPDEST MSTORE PUSH2 0x2FD DUP9 PUSH2 0x2E8 PUSH2 0x725 JUMP JUMPDEST PUSH1 0x2 DUP2 MSTORE SWAP11 DUP14 CALLDATASIZE DUP4 DUP15 ADD CALLDATACOPY ADD SWAP10 DUP1 DUP12 MSTORE PUSH2 0x7BA JUMP JUMPDEST MSTORE DUP8 MLOAD SWAP15 DUP16 MLOAD DUP11 LT ISZERO PUSH2 0x544 JUMPI DUP14 SWAP15 SWAP16 DUP12 SWAP13 SWAP14 SWAP15 DUP4 DUP14 DUP8 SWAP4 ADD MSTORE PUSH2 0x31F PUSH2 0x75B JUMP JUMPDEST DUP1 SWAP14 DUP14 DUP3 MSTORE DUP12 CALLDATASIZE DUP2 DUP5 ADD CALLDATACOPY DUP3 ADD SWAP14 DUP15 MSTORE PUSH2 0x338 SWAP1 PUSH2 0x7BA JUMP JUMPDEST PUSH20 0xAE92D5AD7583AD66E49A0C67BAD18F6BA52DDDC1 SWAP1 MSTORE PUSH1 0x60 ADD SWAP15 DUP16 PUSH3 0x249F0 SWAP1 MSTORE AND DUP8 MSTORE PUSH1 0x2 DUP9 MSTORE DUP12 DUP8 KECCAK256 SWAP1 DUP8 MSTORE DUP8 MSTORE DUP11 DUP7 KECCAK256 SWAP2 PUSH2 0x375 PUSH2 0x725 JUMP JUMPDEST DUP5 DUP5 SLOAD AND DUP2 MSTORE DUP13 DUP12 DUP6 ADD SLOAD SWAP5 DUP11 DUP4 ADD SWAP6 DUP7 MSTORE PUSH1 0x2 ADD SLOAD SWAP2 ADD MSTORE DUP7 MSTORE PUSH1 0x2 DUP8 MSTORE DUP11 DUP7 KECCAK256 SWAP1 DUP7 MSTORE DUP7 MSTORE DUP10 DUP6 KECCAK256 SWAP2 PUSH2 0x3A8 PUSH2 0x725 JUMP JUMPDEST SWAP1 DUP4 SLOAD AND DUP2 MSTORE DUP11 DUP10 DUP5 ADD SLOAD SWAP4 DUP9 DUP4 ADD SWAP5 DUP6 MSTORE PUSH1 0x2 ADD SLOAD SWAP2 ADD MSTORE DUP1 MLOAD ISZERO PUSH2 0x504 JUMPI DUP2 MLOAD ISZERO PUSH2 0x4C4 JUMPI MLOAD SWAP2 DUP3 DUP2 MUL SWAP3 DUP2 DUP5 DIV EQ SWAP1 ISZERO OR ISZERO PUSH2 0x4B2 JUMPI MLOAD SWAP1 DUP2 ISZERO PUSH2 0x4A0 JUMPI DIV SWAP8 PUSH1 0x5F DUP10 MUL SWAP9 DUP1 DUP11 DIV PUSH1 0x5F EQ SWAP1 ISZERO OR ISZERO PUSH2 0x48F JUMPI POP POP SWAP3 SWAP2 SWAP1 PUSH1 0x64 PUSH1 0x80 DUP11 ADD SWAP8 DIV DUP8 MSTORE PUSH2 0x427 DUP7 MLOAD SWAP10 DUP3 DUP12 MSTORE MLOAD PUSH1 0xA0 DUP4 DUP13 ADD MSTORE PUSH1 0xC0 DUP12 ADD SWAP1 PUSH2 0x690 JUMP JUMPDEST SWAP2 MLOAD SWAP10 PUSH1 0x1F NOT SWAP7 DUP8 DUP12 DUP6 SUB ADD SWAP1 DUP12 ADD MSTORE DUP2 DUP1 DUP13 MLOAD SWAP5 DUP6 DUP2 MSTORE ADD SWAP12 ADD SWAP5 SWAP1 JUMPDEST DUP4 DUP3 LT PUSH2 0x478 JUMPI POP DUP10 DUP1 DUP11 DUP11 PUSH2 0x467 DUP16 DUP13 DUP13 MLOAD SWAP1 DUP7 DUP4 SUB ADD PUSH1 0x60 DUP8 ADD MSTORE PUSH2 0x690 JUMP JUMPDEST SWAP2 MLOAD PUSH1 0x80 DUP5 ADD MSTORE MLOAD PUSH1 0xA0 DUP4 ADD MSTORE SUB SWAP1 RETURN JUMPDEST DUP6 MLOAD DUP2 AND DUP13 MSTORE SWAP11 DUP3 ADD SWAP11 SWAP5 DUP3 ADD SWAP5 SWAP1 DUP5 ADD SWAP1 PUSH2 0x445 JUMP JUMPDEST PUSH4 0x4E487B71 PUSH1 0xE0 SHL DUP4 MSTORE PUSH1 0x11 SWAP1 MSTORE DUP2 REVERT JUMPDEST PUSH4 0x4E487B71 PUSH1 0xE0 SHL DUP5 MSTORE PUSH1 0x12 DUP11 MSTORE DUP3 DUP5 REVERT JUMPDEST PUSH4 0x4E487B71 PUSH1 0xE0 SHL DUP5 MSTORE PUSH1 0x11 DUP11 MSTORE DUP3 DUP5 REVERT JUMPDEST PUSH1 0x64 DUP12 DUP8 DUP7 DUP2 DUP15 MLOAD SWAP4 PUSH3 0x461BCD PUSH1 0xE5 SHL DUP6 MSTORE DUP5 ADD MSTORE DUP3 ADD MSTORE PUSH32 0x54617267657420746F6B656E207072696365206E6F7420617661696C61626C65 PUSH1 0x44 DUP3 ADD MSTORE REVERT JUMPDEST PUSH1 0x64 DUP12 DUP8 DUP7 DUP2 DUP15 MLOAD SWAP4 PUSH3 0x461BCD PUSH1 0xE5 SHL DUP6 MSTORE DUP5 ADD MSTORE DUP3 ADD MSTORE PUSH32 0x536F7572636520746F6B656E207072696365206E6F7420617661696C61626C65 PUSH1 0x44 DUP3 ADD MSTORE REVERT JUMPDEST PUSH4 0x4E487B71 PUSH1 0xE0 SHL DUP8 MSTORE PUSH1 0x32 DUP13 MSTORE DUP6 DUP8 REVERT JUMPDEST DUP7 DUP1 REVERT JUMPDEST POP POP CALLVALUE PUSH2 0xAB JUMPI DUP1 PUSH1 0x3 NOT CALLDATASIZE ADD SLT PUSH2 0xAB JUMPI PUSH1 0x60 SWAP2 DUP2 PUSH2 0x578 PUSH2 0x67A JUMP JUMPDEST SWAP2 PUSH2 0x581 PUSH2 0x669 JUMP JUMPDEST PUSH1 0x1 DUP1 PUSH1 0xA0 SHL SUB DUP1 SWAP5 AND DUP3 MSTORE PUSH1 0x2 PUSH1 0x20 MSTORE PUSH2 0xFFFF DUP4 DUP4 KECCAK256 SWAP2 AND DUP3 MSTORE PUSH1 0x20 MSTORE KECCAK256 SWAP1 DUP2 SLOAD AND SWAP2 PUSH1 0x2 PUSH1 0x1 DUP4 ADD SLOAD SWAP3 ADD SLOAD SWAP2 DUP2 MLOAD SWAP4 DUP5 MSTORE PUSH1 0x20 DUP5 ADD MSTORE DUP3 ADD MSTORE RETURN JUMPDEST DUP4 CALLVALUE PUSH2 0x619 JUMPI DUP1 PUSH1 0x3 NOT CALLDATASIZE ADD SLT PUSH2 0x619 JUMPI PUSH2 0x5D8 PUSH2 0x6CD JUMP JUMPDEST DUP1 SLOAD PUSH1 0x1 PUSH1 0x1 PUSH1 0xA0 SHL SUB NOT DUP2 AND DUP3 SSTORE DUP2 SWAP1 PUSH1 0x1 PUSH1 0x1 PUSH1 0xA0 SHL SUB AND PUSH32 0x8BE0079C531659141344CD1FD0A4F28419497F9722A3DAAFE3B4186F6B6457E0 DUP3 DUP1 LOG3 DUP1 RETURN JUMPDEST DUP1 REVERT JUMPDEST POP POP CALLVALUE PUSH2 0xAB JUMPI DUP1 PUSH1 0x3 NOT CALLDATASIZE ADD SLT PUSH2 0xAB JUMPI PUSH2 0xFFFF PUSH2 0x639 PUSH2 0x653 JUMP JUMPDEST PUSH2 0x641 PUSH2 0x6CD JUMP JUMPDEST AND DUP3 MSTORE PUSH1 0x3 PUSH1 0x20 MSTORE PUSH1 0x24 CALLDATALOAD SWAP1 DUP3 KECCAK256 SSTORE DUP1 RETURN JUMPDEST PUSH1 0x4 CALLDATALOAD SWAP1 PUSH2 0xFFFF DUP3 AND DUP3 SUB PUSH2 0x664 JUMPI JUMP JUMPDEST PUSH1 0x0 DUP1 REVERT JUMPDEST PUSH1 0x24 CALLDATALOAD SWAP1 PUSH2 0xFFFF DUP3 AND DUP3 SUB PUSH2 0x664 JUMPI JUMP JUMPDEST PUSH1 0x4 CALLDATALOAD SWAP1 PUSH1 0x1 PUSH1 0x1 PUSH1 0xA0 SHL SUB DUP3 AND DUP3 SUB PUSH2 0x664 JUMPI JUMP JUMPDEST SWAP1 DUP2 MLOAD DUP1 DUP3 MSTORE PUSH1 0x20 DUP1 DUP1 SWAP4 ADD SWAP4 ADD SWAP2 PUSH1 0x0 JUMPDEST DUP3 DUP2 LT PUSH2 0x6B0 JUMPI POP POP POP POP SWAP1 JUMP JUMPDEST DUP4 MLOAD PUSH1 0x1 PUSH1 0x1 PUSH1 0xA0 SHL SUB AND DUP6 MSTORE SWAP4 DUP2 ADD SWAP4 SWAP3 DUP2 ADD SWAP3 PUSH1 0x1 ADD PUSH2 0x6A2 JUMP JUMPDEST PUSH1 0x0 SLOAD PUSH1 0x1 PUSH1 0x1 PUSH1 0xA0 SHL SUB AND CALLER SUB PUSH2 0x6E1 JUMPI JUMP JUMPDEST PUSH1 0x64 PUSH1 0x40 MLOAD PUSH3 0x461BCD PUSH1 0xE5 SHL DUP2 MSTORE PUSH1 0x20 PUSH1 0x4 DUP3 ADD MSTORE PUSH1 0x20 PUSH1 0x24 DUP3 ADD MSTORE PUSH32 0x4F776E61626C653A2063616C6C6572206973206E6F7420746865206F776E6572 PUSH1 0x44 DUP3 ADD MSTORE REVERT JUMPDEST PUSH1 0x40 MLOAD SWAP1 PUSH1 0x60 DUP3 ADD DUP3 DUP2 LT PUSH8 0xFFFFFFFFFFFFFFFF DUP3 GT OR PUSH2 0x745 JUMPI PUSH1 0x40 MSTORE JUMP JUMPDEST PUSH4 0x4E487B71 PUSH1 0xE0 SHL PUSH1 0x0 MSTORE PUSH1 0x41 PUSH1 0x4 MSTORE PUSH1 0x24 PUSH1 0x0 REVERT JUMPDEST PUSH1 0x40 MLOAD SWAP1 PUSH1 0x40 DUP3 ADD DUP3 DUP2 LT PUSH8 0xFFFFFFFFFFFFFFFF DUP3 GT OR PUSH2 0x745 JUMPI PUSH1 0x40 MSTORE JUMP JUMPDEST PUSH1 0x40 MLOAD SWAP1 PUSH1 0xA0 DUP3 ADD DUP3 DUP2 LT PUSH8 0xFFFFFFFFFFFFFFFF DUP3 GT OR PUSH2 0x745 JUMPI PUSH1 0x40 MSTORE PUSH1 0x0 PUSH1 0x80 DUP4 PUSH1 0x60 DUP2 MSTORE PUSH1 0x60 PUSH1 0x20 DUP3 ADD MSTORE PUSH1 0x60 PUSH1 0x40 DUP3 ADD MSTORE DUP3 PUSH1 0x60 DUP3 ADD MSTORE ADD MSTORE JUMP JUMPDEST DUP1 MLOAD ISZERO PUSH2 0x7C7 JUMPI PUSH1 0x20 ADD SWAP1 JUMP JUMPDEST PUSH4 0x4E487B71 PUSH1 0xE0 SHL PUSH1 0x0 MSTORE PUSH1 0x32 PUSH1 0x4 MSTORE PUSH1 0x24 PUSH1 0x0 REVERT INVALID LOG2 PUSH5 0x6970667358 0x22 SLT KECCAK256 0xC7 JUMPI SHR 0xA7 SWAP14 0xE7 SDIV SIGNEXTEND 0xD DIV RETURN PUSH11 0x284759AF1712F165BE7D74 0xDD 0xDB DUP14 DUP10 0xCF SWAP16 0xE9 0xCC 0xF9 PUSH5 0x736F6C6343 STOP ADDMOD SGT STOP CALLER "},"methodIdentifiers":{"chainGasPrices(uint16)":"fb9f78cb","findOptimalPath(address,address,uint256,uint16,uint16)":"7fc666aa","owner()":"8da5cb5b","priceFeeds(address,uint16)":"7557f41a","renounceOwnership()":"715018a6","transferOwnership(address)":"f2fde38b","updateChainGasPrice(uint16,uint256)":"0b4f256d","updatePriceFeed(address,uint16,uint256,uint256)":"d3918f16"}}}}}