{"contracts/IntentParser.sol":{"IntentParser":{"abi":[{"anonymous":false,"inputs":[{"indexed":true,"internalType":"bytes32","name":"intentId","type":"bytes32"},{"indexed":false,"internalType":"address","name":"sourceToken","type":"address"},{"indexed":false,"internalType":"address","name":"targetToken","type":"address"},{"indexed":false,"internalType":"uint256","name":"amount","type":"uint256"},{"indexed":false,"internalType":"uint16","name":"sourceChain","type":"uint16"},{"indexed":false,"internalType":"uint16","name":"targetChain","type":"uint16"}],"name":"IntentParsed","type":"event"},{"anonymous":false,"inputs":[{"indexed":true,"internalType":"address","name":"previousOwner","type":"address"},{"indexed":true,"internalType":"address","name":"newOwner","type":"address"}],"name":"OwnershipTransferred","type":"event"},{"inputs":[{"internalType":"string","name":"name","type":"string"},{"internalType":"uint16","name":"chainId","type":"uint16"}],"name":"addChainName","outputs":[],"stateMutability":"nonpayable","type":"function"},{"inputs":[{"internalType":"string","name":"symbol","type":"string"},{"internalType":"address","name":"tokenAddress","type":"address"}],"name":"addTokenSymbol","outputs":[],"stateMutability":"nonpayable","type":"function"},{"inputs":[{"internalType":"string","name":"","type":"string"}],"name":"chainNameToId","outputs":[{"internalType":"uint16","name":"","type":"uint16"}],"stateMutability":"view","type":"function"},{"inputs":[{"internalType":"bytes32","name":"intentId","type":"bytes32"}],"name":"getIntent","outputs":[{"components":[{"internalType":"address","name":"sourceToken","type":"address"},{"internalType":"address","name":"targetToken","type":"address"},{"internalType":"uint256","name":"amount","type":"uint256"},{"internalType":"uint16","name":"sourceChain","type":"uint16"},{"internalType":"uint16","name":"targetChain","type":"uint16"},{"internalType":"uint256","name":"minOutput","type":"uint256"},{"internalType":"uint256","name":"maxSlippage","type":"uint256"},{"internalType":"uint256","name":"deadline","type":"uint256"}],"internalType":"struct IntentParser.Intent","name":"","type":"tuple"}],"stateMutability":"view","type":"function"},{"inputs":[{"internalType":"bytes32","name":"","type":"bytes32"}],"name":"intents","outputs":[{"internalType":"address","name":"sourceToken","type":"address"},{"internalType":"address","name":"targetToken","type":"address"},{"internalType":"uint256","name":"amount","type":"uint256"},{"internalType":"uint16","name":"sourceChain","type":"uint16"},{"internalType":"uint16","name":"targetChain","type":"uint16"},{"internalType":"uint256","name":"minOutput","type":"uint256"},{"internalType":"uint256","name":"maxSlippage","type":"uint256"},{"internalType":"uint256","name":"deadline","type":"uint256"}],"stateMutability":"view","type":"function"},{"inputs":[],"name":"owner","outputs":[{"internalType":"address","name":"","type":"address"}],"stateMutability":"view","type":"function"},{"inputs":[{"internalType":"string","name":"intentString","type":"string"},{"internalType":"uint256","name":"amount","type":"uint256"},{"internalType":"uint256","name":"maxSlippage","type":"uint256"},{"internalType":"uint256","name":"deadline","type":"uint256"}],"name":"parseIntent","outputs":[{"internalType":"bytes32","name":"","type":"bytes32"}],"stateMutability":"nonpayable","type":"function"},{"inputs":[],"name":"renounceOwnership","outputs":[],"stateMutability":"nonpayable","type":"function"},{"inputs":[{"internalType":"string","name":"","type":"string"}],"name":"tokenSymbolToAddress","outputs":[{"internalType":"address","name":"","type":"address"}],"stateMutability":"view","type":"function"},{"inputs":[{"internalType":"address","name":"newOwner","type":"address"}],"name":"transferOwnership","outputs":[],"stateMutability":"nonpayable","type":"function"}],"evm":{"bytecode":{"linkReferences":{},"object":"6080806040523461005b5760008054336001600160a01b0319821681178355916001600160a01b03909116907f8be0079c531659141344cd1fd0a4f28419497f9722a3daafe3b4186f6b6457e09080a361086890816100618239f35b600080fdfe60406080815260048036101561001457600080fd5b60009160e08335811c9081632928bfa114610674578163365b07bb146105f55781635494f3bf146105a6578163713696da14610550578163715018a6146104f35781638da5cb5b146104c75781639021578a14610444578163bf873b2a14610268578163f13c46aa1461015d575063f2fde38b1461009157600080fd5b34610159576020366003190112610159576001600160a01b03823581811693919290849003610155576100c26107da565b831561010357505082546001600160a01b0319811683178455167f8be0079c531659141344cd1fd0a4f28419497f9722a3daafe3b4186f6b6457e08380a380f35b906020608492519162461bcd60e51b8352820152602660248201527f4f776e61626c653a206e6577206f776e657220697320746865207a65726f206160448201526564647265737360d01b6064820152fd5b8480fd5b8280fd5b91929050346102645760203660031901126102645760809083856101009685835161018781610714565b828152826020820152828582015282606082015282878201528260a08201528260c082015201528235815260016020522084519283926101c684610714565b8360018060a01b039182855416988983528360018701541693602084019485526002870154908285019182526003880154958b6006606088019661ffff809b819a828d168b52019a60101c168a528b01549a60a08d019b8c5260c060058201549d019c8d5201549b019a8b5283519c8d52511660208c015251908a015251166060880152511660808601525160a08501525160c08401525190820152f35b8380fd5b90503461026457608036600319011261026457823567ffffffffffffffff81116101555760a0602095926027856102c37f3df38eb41707547d0e20426ebf7d8d2849c9711cdfccd6f1c32e3e491028d55b9536908a016106e1565b6102f6605484518381948f8301963360601b88524260348501528484013781018b83820152036034810184520182610747565b51902097889660248351635553444360e01b8152600284820152600180891b0391829120541660068a83602588516414165554d160da1b81526002600582015220541698875196665365706f6c696160c81b97888152600360078201528a61ffff809c8193205416998b51908152600360078201522054169880519561037b87610714565b8652602086019b8c5286818701916024358352606088019a8b52608088019b8c528e880199808b5260c0890195604435875289019660643588528152602060019052209651169b6bffffffffffffffffffffffff8e1b978d8989541617885560018801915116809882541617905551968760028701558a600387019951169880549a519a8a63ffff00008d60101b169163ffffffff19161717905551908501555160058401555191015589519586528b860152888501526060840152166080820152a251908152f35b84939150346102645760203660031901126102645782610100948335815260016020522060018060a01b039384825416946001830154169360028301546003840154918401549260066005860154950154968151988952602089015287015261ffff90818116606088015260101c16608086015260a085015260c0840152820152f35b8483346104ef57816003193601126104ef57905490516001600160a01b039091168152602090f35b5080fd5b843461054d578060031936011261054d5761050c6107da565b80546001600160a01b03198116825581906001600160a01b03167f8be0079c531659141344cd1fd0a4f28419497f9722a3daafe3b4186f6b6457e08280a380f35b80fd5b8483346104ef5760209161056336610769565b908251918051915b8281106105955750506002908201908152819003830190205490516001600160a01b039091168152f35b81810186015184820152850161056b565b8483346104ef576020916105b936610769565b908251918051915b8281106105e457505090838161ffff938101600381520301902054169051908152f35b8181018601518482015285016105c1565b5050903461015957816003193601126101595780359067ffffffffffffffff821161026457610626913691016106e1565b6024356001600160a01b03811693919290849003610155578260209261064a6107da565b51938492833781016002815203019020906bffffffffffffffffffffffff60a01b82541617905580f35b5050903461015957816003193601126101595780359067ffffffffffffffff8211610264576106a5913691016106e1565b90916024359261ffff841680940361015557826020926106c36107da565b519384928337810160038152030190209061ffff1982541617905580f35b9181601f8401121561070f5782359167ffffffffffffffff831161070f576020838186019501011161070f57565b600080fd5b610100810190811067ffffffffffffffff82111761073157604052565b634e487b7160e01b600052604160045260246000fd5b90601f8019910116810190811067ffffffffffffffff82111761073157604052565b602060031982011261070f5767ffffffffffffffff60043581811161070f578260238201121561070f57806004013591821161073157604051926107b7601f8401601f191660200185610747565b8284526024838301011161070f5781600092602460209301838601378301015290565b6000546001600160a01b031633036107ee57565b606460405162461bcd60e51b815260206004820152602060248201527f4f776e61626c653a2063616c6c6572206973206e6f7420746865206f776e65726044820152fdfea264697066735822122048d94fc966ea778e1fef377ba57ca2cd1552bf855d342e525df6f8a4fbdf391f64736f6c63430008130033","opcodes":"PUSH1 0x80 DUP1 PUSH1 0x40 MSTORE CALLVALUE PUSH2 0x5B JUMPI PUSH1 0x0 DUP1 SLOAD CALLER PUSH1 0x1 PUSH1 0x1 PUSH1 0xA0 SHL SUB NOT DUP3 AND DUP2 OR DUP4 SSTORE SWAP2 PUSH1 0x1 PUSH1 0x1 PUSH1 0xA0 SHL SUB SWAP1 SWAP2 AND SWAP1 PUSH32 0x8BE0079C531659141344CD1FD0A4F28419497F9722A3DAAFE3B4186F6B6457E0 SWAP1 DUP1 LOG3 PUSH2 0x868 SWAP1 DUP2 PUSH2 0x61 DUP3 CODECOPY RETURN JUMPDEST PUSH1 0x0 DUP1 REVERT INVALID PUSH1 0x40 PUSH1 0x80 DUP2 MSTORE PUSH1 0x4 DUP1 CALLDATASIZE LT ISZERO PUSH2 0x14 JUMPI PUSH1 0x0 DUP1 REVERT JUMPDEST PUSH1 0x0 SWAP2 PUSH1 0xE0 DUP4 CALLDATALOAD DUP2 SHR SWAP1 DUP2 PUSH4 0x2928BFA1 EQ PUSH2 0x674 JUMPI DUP2 PUSH4 0x365B07BB EQ PUSH2 0x5F5 JUMPI DUP2 PUSH4 0x5494F3BF EQ PUSH2 0x5A6 JUMPI DUP2 PUSH4 0x713696DA EQ PUSH2 0x550 JUMPI DUP2 PUSH4 0x715018A6 EQ PUSH2 0x4F3 JUMPI DUP2 PUSH4 0x8DA5CB5B EQ PUSH2 0x4C7 JUMPI DUP2 PUSH4 0x9021578A EQ PUSH2 0x444 JUMPI DUP2 PUSH4 0xBF873B2A EQ PUSH2 0x268 JUMPI DUP2 PUSH4 0xF13C46AA EQ PUSH2 0x15D JUMPI POP PUSH4 0xF2FDE38B EQ PUSH2 0x91 JUMPI PUSH1 0x0 DUP1 REVERT JUMPDEST CALLVALUE PUSH2 0x159 JUMPI PUSH1 0x20 CALLDATASIZE PUSH1 0x3 NOT ADD SLT PUSH2 0x159 JUMPI PUSH1 0x1 PUSH1 0x1 PUSH1 0xA0 SHL SUB DUP3 CALLDATALOAD DUP2 DUP2 AND SWAP4 SWAP2 SWAP3 SWAP1 DUP5 SWAP1 SUB PUSH2 0x155 JUMPI PUSH2 0xC2 PUSH2 0x7DA JUMP JUMPDEST DUP4 ISZERO PUSH2 0x103 JUMPI POP POP DUP3 SLOAD PUSH1 0x1 PUSH1 0x1 PUSH1 0xA0 SHL SUB NOT DUP2 AND DUP4 OR DUP5 SSTORE AND PUSH32 0x8BE0079C531659141344CD1FD0A4F28419497F9722A3DAAFE3B4186F6B6457E0 DUP4 DUP1 LOG3 DUP1 RETURN JUMPDEST SWAP1 PUSH1 0x20 PUSH1 0x84 SWAP3 MLOAD SWAP2 PUSH3 0x461BCD PUSH1 0xE5 SHL DUP4 MSTORE DUP3 ADD MSTORE PUSH1 0x26 PUSH1 0x24 DUP3 ADD MSTORE PUSH32 0x4F776E61626C653A206E6577206F776E657220697320746865207A65726F2061 PUSH1 0x44 DUP3 ADD MSTORE PUSH6 0x646472657373 PUSH1 0xD0 SHL PUSH1 0x64 DUP3 ADD MSTORE REVERT JUMPDEST DUP5 DUP1 REVERT JUMPDEST DUP3 DUP1 REVERT JUMPDEST SWAP2 SWAP3 SWAP1 POP CALLVALUE PUSH2 0x264 JUMPI PUSH1 0x20 CALLDATASIZE PUSH1 0x3 NOT ADD SLT PUSH2 0x264 JUMPI PUSH1 0x80 SWAP1 DUP4 DUP6 PUSH2 0x100 SWAP7 DUP6 DUP4 MLOAD PUSH2 0x187 DUP2 PUSH2 0x714 JUMP JUMPDEST DUP3 DUP2 MSTORE DUP3 PUSH1 0x20 DUP3 ADD MSTORE DUP3 DUP6 DUP3 ADD MSTORE DUP3 PUSH1 0x60 DUP3 ADD MSTORE DUP3 DUP8 DUP3 ADD MSTORE DUP3 PUSH1 0xA0 DUP3 ADD MSTORE DUP3 PUSH1 0xC0 DUP3 ADD MSTORE ADD MSTORE DUP3 CALLDATALOAD DUP2 MSTORE PUSH1 0x1 PUSH1 0x20 MSTORE KECCAK256 DUP5 MLOAD SWAP3 DUP4 SWAP3 PUSH2 0x1C6 DUP5 PUSH2 0x714 JUMP JUMPDEST DUP4 PUSH1 0x1 DUP1 PUSH1 0xA0 SHL SUB SWAP2 DUP3 DUP6 SLOAD AND SWAP9 DUP10 DUP4 MSTORE DUP4 PUSH1 0x1 DUP8 ADD SLOAD AND SWAP4 PUSH1 0x20 DUP5 ADD SWAP5 DUP6 MSTORE PUSH1 0x2 DUP8 ADD SLOAD SWAP1 DUP3 DUP6 ADD SWAP2 DUP3 MSTORE PUSH1 0x3 DUP9 ADD SLOAD SWAP6 DUP12 PUSH1 0x6 PUSH1 0x60 DUP9 ADD SWAP7 PUSH2 0xFFFF DUP1 SWAP12 DUP2 SWAP11 DUP3 DUP14 AND DUP12 MSTORE ADD SWAP11 PUSH1 0x10 SHR AND DUP11 MSTORE DUP12 ADD SLOAD SWAP11 PUSH1 0xA0 DUP14 ADD SWAP12 DUP13 MSTORE PUSH1 0xC0 PUSH1 0x5 DUP3 ADD SLOAD SWAP14 ADD SWAP13 DUP14 MSTORE ADD SLOAD SWAP12 ADD SWAP11 DUP12 MSTORE DUP4 MLOAD SWAP13 DUP14 MSTORE MLOAD AND PUSH1 0x20 DUP13 ADD MSTORE MLOAD SWAP1 DUP11 ADD MSTORE MLOAD AND PUSH1 0x60 DUP9 ADD MSTORE MLOAD AND PUSH1 0x80 DUP7 ADD MSTORE MLOAD PUSH1 0xA0 DUP6 ADD MSTORE MLOAD PUSH1 0xC0 DUP5 ADD MSTORE MLOAD SWAP1 DUP3 ADD MSTORE RETURN JUMPDEST DUP4 DUP1 REVERT JUMPDEST SWAP1 POP CALLVALUE PUSH2 0x264 JUMPI PUSH1 0x80 CALLDATASIZE PUSH1 0x3 NOT ADD SLT PUSH2 0x264 JUMPI DUP3 CALLDATALOAD PUSH8 0xFFFFFFFFFFFFFFFF DUP2 GT PUSH2 0x155 JUMPI PUSH1 0xA0 PUSH1 0x20 SWAP6 SWAP3 PUSH1 0x27 DUP6 PUSH2 0x2C3 PUSH32 0x3DF38EB41707547D0E20426EBF7D8D2849C9711CDFCCD6F1C32E3E491028D55B SWAP6 CALLDATASIZE SWAP1 DUP11 ADD PUSH2 0x6E1 JUMP JUMPDEST PUSH2 0x2F6 PUSH1 0x54 DUP5 MLOAD DUP4 DUP2 SWAP5 DUP16 DUP4 ADD SWAP7 CALLER PUSH1 0x60 SHL DUP9 MSTORE TIMESTAMP PUSH1 0x34 DUP6 ADD MSTORE DUP5 DUP5 ADD CALLDATACOPY DUP2 ADD DUP12 DUP4 DUP3 ADD MSTORE SUB PUSH1 0x34 DUP2 ADD DUP5 MSTORE ADD DUP3 PUSH2 0x747 JUMP JUMPDEST MLOAD SWAP1 KECCAK256 SWAP8 DUP9 SWAP7 PUSH1 0x24 DUP4 MLOAD PUSH4 0x55534443 PUSH1 0xE0 SHL DUP2 MSTORE PUSH1 0x2 DUP5 DUP3 ADD MSTORE PUSH1 0x1 DUP1 DUP10 SHL SUB SWAP2 DUP3 SWAP2 KECCAK256 SLOAD AND PUSH1 0x6 DUP11 DUP4 PUSH1 0x25 DUP9 MLOAD PUSH5 0x14165554D1 PUSH1 0xDA SHL DUP2 MSTORE PUSH1 0x2 PUSH1 0x5 DUP3 ADD MSTORE KECCAK256 SLOAD AND SWAP9 DUP8 MLOAD SWAP7 PUSH7 0x5365706F6C6961 PUSH1 0xC8 SHL SWAP8 DUP9 DUP2 MSTORE PUSH1 0x3 PUSH1 0x7 DUP3 ADD MSTORE DUP11 PUSH2 0xFFFF DUP1 SWAP13 DUP2 SWAP4 KECCAK256 SLOAD AND SWAP10 DUP12 MLOAD SWAP1 DUP2 MSTORE PUSH1 0x3 PUSH1 0x7 DUP3 ADD MSTORE KECCAK256 SLOAD AND SWAP9 DUP1 MLOAD SWAP6 PUSH2 0x37B DUP8 PUSH2 0x714 JUMP JUMPDEST DUP7 MSTORE PUSH1 0x20 DUP7 ADD SWAP12 DUP13 MSTORE DUP7 DUP2 DUP8 ADD SWAP2 PUSH1 0x24 CALLDATALOAD DUP4 MSTORE PUSH1 0x60 DUP9 ADD SWAP11 DUP12 MSTORE PUSH1 0x80 DUP9 ADD SWAP12 DUP13 MSTORE DUP15 DUP9 ADD SWAP10 DUP1 DUP12 MSTORE PUSH1 0xC0 DUP10 ADD SWAP6 PUSH1 0x44 CALLDATALOAD DUP8 MSTORE DUP10 ADD SWAP7 PUSH1 0x64 CALLDATALOAD DUP9 MSTORE DUP2 MSTORE PUSH1 0x20 PUSH1 0x1 SWAP1 MSTORE KECCAK256 SWAP7 MLOAD AND SWAP12 PUSH12 0xFFFFFFFFFFFFFFFFFFFFFFFF DUP15 SHL SWAP8 DUP14 DUP10 DUP10 SLOAD AND OR DUP9 SSTORE PUSH1 0x1 DUP9 ADD SWAP2 MLOAD AND DUP1 SWAP9 DUP3 SLOAD AND OR SWAP1 SSTORE MLOAD SWAP7 DUP8 PUSH1 0x2 DUP8 ADD SSTORE DUP11 PUSH1 0x3 DUP8 ADD SWAP10 MLOAD AND SWAP9 DUP1 SLOAD SWAP11 MLOAD SWAP11 DUP11 PUSH4 0xFFFF0000 DUP14 PUSH1 0x10 SHL AND SWAP2 PUSH4 0xFFFFFFFF NOT AND OR OR SWAP1 SSTORE MLOAD SWAP1 DUP6 ADD SSTORE MLOAD PUSH1 0x5 DUP5 ADD SSTORE MLOAD SWAP2 ADD SSTORE DUP10 MLOAD SWAP6 DUP7 MSTORE DUP12 DUP7 ADD MSTORE DUP9 DUP6 ADD MSTORE PUSH1 0x60 DUP5 ADD MSTORE AND PUSH1 0x80 DUP3 ADD MSTORE LOG2 MLOAD SWAP1 DUP2 MSTORE RETURN JUMPDEST DUP5 SWAP4 SWAP2 POP CALLVALUE PUSH2 0x264 JUMPI PUSH1 0x20 CALLDATASIZE PUSH1 0x3 NOT ADD SLT PUSH2 0x264 JUMPI DUP3 PUSH2 0x100 SWAP5 DUP4 CALLDATALOAD DUP2 MSTORE PUSH1 0x1 PUSH1 0x20 MSTORE KECCAK256 PUSH1 0x1 DUP1 PUSH1 0xA0 SHL SUB SWAP4 DUP5 DUP3 SLOAD AND SWAP5 PUSH1 0x1 DUP4 ADD SLOAD AND SWAP4 PUSH1 0x2 DUP4 ADD SLOAD PUSH1 0x3 DUP5 ADD SLOAD SWAP2 DUP5 ADD SLOAD SWAP3 PUSH1 0x6 PUSH1 0x5 DUP7 ADD SLOAD SWAP6 ADD SLOAD SWAP7 DUP2 MLOAD SWAP9 DUP10 MSTORE PUSH1 0x20 DUP10 ADD MSTORE DUP8 ADD MSTORE PUSH2 0xFFFF SWAP1 DUP2 DUP2 AND PUSH1 0x60 DUP9 ADD MSTORE PUSH1 0x10 SHR AND PUSH1 0x80 DUP7 ADD MSTORE PUSH1 0xA0 DUP6 ADD MSTORE PUSH1 0xC0 DUP5 ADD MSTORE DUP3 ADD MSTORE RETURN JUMPDEST DUP5 DUP4 CALLVALUE PUSH2 0x4EF JUMPI DUP2 PUSH1 0x3 NOT CALLDATASIZE ADD SLT PUSH2 0x4EF JUMPI SWAP1 SLOAD SWAP1 MLOAD PUSH1 0x1 PUSH1 0x1 PUSH1 0xA0 SHL SUB SWAP1 SWAP2 AND DUP2 MSTORE PUSH1 0x20 SWAP1 RETURN JUMPDEST POP DUP1 REVERT JUMPDEST DUP5 CALLVALUE PUSH2 0x54D JUMPI DUP1 PUSH1 0x3 NOT CALLDATASIZE ADD SLT PUSH2 0x54D JUMPI PUSH2 0x50C PUSH2 0x7DA JUMP JUMPDEST DUP1 SLOAD PUSH1 0x1 PUSH1 0x1 PUSH1 0xA0 SHL SUB NOT DUP2 AND DUP3 SSTORE DUP2 SWAP1 PUSH1 0x1 PUSH1 0x1 PUSH1 0xA0 SHL SUB AND PUSH32 0x8BE0079C531659141344CD1FD0A4F28419497F9722A3DAAFE3B4186F6B6457E0 DUP3 DUP1 LOG3 DUP1 RETURN JUMPDEST DUP1 REVERT JUMPDEST DUP5 DUP4 CALLVALUE PUSH2 0x4EF JUMPI PUSH1 0x20 SWAP2 PUSH2 0x563 CALLDATASIZE PUSH2 0x769 JUMP JUMPDEST SWAP1 DUP3 MLOAD SWAP2 DUP1 MLOAD SWAP2 JUMPDEST DUP3 DUP2 LT PUSH2 0x595 JUMPI POP POP PUSH1 0x2 SWAP1 DUP3 ADD SWAP1 DUP2 MSTORE DUP2 SWAP1 SUB DUP4 ADD SWAP1 KECCAK256 SLOAD SWAP1 MLOAD PUSH1 0x1 PUSH1 0x1 PUSH1 0xA0 SHL SUB SWAP1 SWAP2 AND DUP2 MSTORE RETURN JUMPDEST DUP2 DUP2 ADD DUP7 ADD MLOAD DUP5 DUP3 ADD MSTORE DUP6 ADD PUSH2 0x56B JUMP JUMPDEST DUP5 DUP4 CALLVALUE PUSH2 0x4EF JUMPI PUSH1 0x20 SWAP2 PUSH2 0x5B9 CALLDATASIZE PUSH2 0x769 JUMP JUMPDEST SWAP1 DUP3 MLOAD SWAP2 DUP1 MLOAD SWAP2 JUMPDEST DUP3 DUP2 LT PUSH2 0x5E4 JUMPI POP POP SWAP1 DUP4 DUP2 PUSH2 0xFFFF SWAP4 DUP2 ADD PUSH1 0x3 DUP2 MSTORE SUB ADD SWAP1 KECCAK256 SLOAD AND SWAP1 MLOAD SWAP1 DUP2 MSTORE RETURN JUMPDEST DUP2 DUP2 ADD DUP7 ADD MLOAD DUP5 DUP3 ADD MSTORE DUP6 ADD PUSH2 0x5C1 JUMP JUMPDEST POP POP SWAP1 CALLVALUE PUSH2 0x159 JUMPI DUP2 PUSH1 0x3 NOT CALLDATASIZE ADD SLT PUSH2 0x159 JUMPI DUP1 CALLDATALOAD SWAP1 PUSH8 0xFFFFFFFFFFFFFFFF DUP3 GT PUSH2 0x264 JUMPI PUSH2 0x626 SWAP2 CALLDATASIZE SWAP2 ADD PUSH2 0x6E1 JUMP JUMPDEST PUSH1 0x24 CALLDATALOAD PUSH1 0x1 PUSH1 0x1 PUSH1 0xA0 SHL SUB DUP2 AND SWAP4 SWAP2 SWAP3 SWAP1 DUP5 SWAP1 SUB PUSH2 0x155 JUMPI DUP3 PUSH1 0x20 SWAP3 PUSH2 0x64A PUSH2 0x7DA JUMP JUMPDEST MLOAD SWAP4 DUP5 SWAP3 DUP4 CALLDATACOPY DUP2 ADD PUSH1 0x2 DUP2 MSTORE SUB ADD SWAP1 KECCAK256 SWAP1 PUSH12 0xFFFFFFFFFFFFFFFFFFFFFFFF PUSH1 0xA0 SHL DUP3 SLOAD AND OR SWAP1 SSTORE DUP1 RETURN JUMPDEST POP POP SWAP1 CALLVALUE PUSH2 0x159 JUMPI DUP2 PUSH1 0x3 NOT CALLDATASIZE ADD SLT PUSH2 0x159 JUMPI DUP1 CALLDATALOAD SWAP1 PUSH8 0xFFFFFFFFFFFFFFFF DUP3 GT PUSH2 0x264 JUMPI PUSH2 0x6A5 SWAP2 CALLDATASIZE SWAP2 ADD PUSH2 0x6E1 JUMP JUMPDEST SWAP1 SWAP2 PUSH1 0x24 CALLDATALOAD SWAP3 PUSH2 0xFFFF DUP5 AND DUP1 SWAP5 SUB PUSH2 0x155 JUMPI DUP3 PUSH1 0x20 SWAP3 PUSH2 0x6C3 PUSH2 0x7DA JUMP JUMPDEST MLOAD SWAP4 DUP5 SWAP3 DUP4 CALLDATACOPY DUP2 ADD PUSH1 0x3 DUP2 MSTORE SUB ADD SWAP1 KECCAK256 SWAP1 PUSH2 0xFFFF NOT DUP3 SLOAD AND OR SWAP1 SSTORE DUP1 RETURN JUMPDEST SWAP2 DUP2 PUSH1 0x1F DUP5 ADD SLT ISZERO PUSH2 0x70F JUMPI DUP3 CALLDATALOAD SWAP2 PUSH8 0xFFFFFFFFFFFFFFFF DUP4 GT PUSH2 0x70F JUMPI PUSH1 0x20 DUP4 DUP2 DUP7 ADD SWAP6 ADD ADD GT PUSH2 0x70F JUMPI JUMP JUMPDEST PUSH1 0x0 DUP1 REVERT JUMPDEST PUSH2 0x100 DUP2 ADD SWAP1 DUP2 LT PUSH8 0xFFFFFFFFFFFFFFFF DUP3 GT OR PUSH2 0x731 JUMPI PUSH1 0x40 MSTORE JUMP JUMPDEST PUSH4 0x4E487B71 PUSH1 0xE0 SHL PUSH1 0x0 MSTORE PUSH1 0x41 PUSH1 0x4 MSTORE PUSH1 0x24 PUSH1 0x0 REVERT JUMPDEST SWAP1 PUSH1 0x1F DUP1 NOT SWAP2 ADD AND DUP2 ADD SWAP1 DUP2 LT PUSH8 0xFFFFFFFFFFFFFFFF DUP3 GT OR PUSH2 0x731 JUMPI PUSH1 0x40 MSTORE JUMP JUMPDEST PUSH1 0x20 PUSH1 0x3 NOT DUP3 ADD SLT PUSH2 0x70F JUMPI PUSH8 0xFFFFFFFFFFFFFFFF PUSH1 0x4 CALLDATALOAD DUP2 DUP2 GT PUSH2 0x70F JUMPI DUP3 PUSH1 0x23 DUP3 ADD SLT ISZERO PUSH2 0x70F JUMPI DUP1 PUSH1 0x4 ADD CALLDATALOAD SWAP2 DUP3 GT PUSH2 0x731 JUMPI PUSH1 0x40 MLOAD SWAP3 PUSH2 0x7B7 PUSH1 0x1F DUP5 ADD PUSH1 0x1F NOT AND PUSH1 0x20 ADD DUP6 PUSH2 0x747 JUMP JUMPDEST DUP3 DUP5 MSTORE PUSH1 0x24 DUP4 DUP4 ADD ADD GT PUSH2 0x70F JUMPI DUP2 PUSH1 0x0 SWAP3 PUSH1 0x24 PUSH1 0x20 SWAP4 ADD DUP4 DUP7 ADD CALLDATACOPY DUP4 ADD ADD MSTORE SWAP1 JUMP JUMPDEST PUSH1 0x0 SLOAD PUSH1 0x1 PUSH1 0x1 PUSH1 0xA0 SHL SUB AND CALLER SUB PUSH2 0x7EE JUMPI JUMP JUMPDEST PUSH1 0x64 PUSH1 0x40 MLOAD PUSH3 0x461BCD PUSH1 0xE5 SHL DUP2 MSTORE PUSH1 0x20 PUSH1 0x4 DUP3 ADD MSTORE PUSH1 0x20 PUSH1 0x24 DUP3 ADD MSTORE PUSH32 0x4F776E61626C653A2063616C6C6572206973206E6F7420746865206F776E6572 PUSH1 0x44 DUP3 ADD MSTORE REVERT INVALID LOG2 PUSH5 0x6970667358 0x22 SLT KECCAK256 BASEFEE 0xD9 0x4F 0xC9 PUSH7 0xEA778E1FEF377B 0xA5 PUSH29 0xA2CD1552BF855D342E525DF6F8A4FBDF391F64736F6C63430008130033 "},"methodIdentifiers":{"addChainName(string,uint16)":"2928bfa1","addTokenSymbol(string,address)":"365b07bb","chainNameToId(string)":"5494f3bf","getIntent(bytes32)":"f13c46aa","intents(bytes32)":"9021578a","owner()":"8da5cb5b","parseIntent(string,uint256,uint256,uint256)":"bf873b2a","renounceOwnership()":"715018a6","tokenSymbolToAddress(string)":"713696da","transferOwnership(address)":"f2fde38b"}}}}}