{
  "_format": "hh-sol-artifact-1",
  "contractName": "PathOptimizerV2",
  "sourceName": "contracts/PathOptimizerV2.sol",
  "abi": [
    {
      "anonymous": false,
      "inputs": [
        {
          "indexed": true,
          "internalType": "bytes32",
          "name": "intentId",
          "type": "bytes32"
        },
        {
          "indexed": false,
          "internalType": "address[]",
          "name": "dexs",
          "type": "address[]"
        },
        {
          "indexed": false,
          "internalType": "uint16[]",
          "name": "chains",
          "type": "uint16[]"
        },
        {
          "indexed": false,
          "internalType": "uint256",
          "name": "estimatedCost",
          "type": "uint256"
        }
      ],
      "name": "OptimalPathFound",
      "type": "event"
    },
    {
      "anonymous": false,
      "inputs": [
        {
          "indexed": true,
          "internalType": "address",
          "name": "previousOwner",
          "type": "address"
        },
        {
          "indexed": true,
          "internalType": "address",
          "name": "newOwner",
          "type": "address"
        }
      ],
      "name": "OwnershipTransferred",
      "type": "event"
    },
    {
      "inputs": [
        {
          "internalType": "uint16",
          "name": "",
          "type": "uint16"
        }
      ],
      "name": "chainGasPrices",
      "outputs": [
        {
          "internalType": "uint256",
          "name": "",
          "type": "uint256"
        }
      ],
      "stateMutability": "view",
      "type": "function"
    },
    {
      "inputs": [
        {
          "internalType": "address",
          "name": "sourceToken",
          "type": "address"
        },
        {
          "internalType": "address",
          "name": "targetToken",
          "type": "address"
        },
        {
          "internalType": "uint256",
          "name": "amount",
          "type": "uint256"
        },
        {
          "internalType": "uint16",
          "name": "sourceChain",
          "type": "uint16"
        },
        {
          "internalType": "uint16",
          "name": "targetChain",
          "type": "uint16"
        }
      ],
      "name": "findOptimalPath",
      "outputs": [
        {
          "components": [
            {
              "internalType": "address[]",
              "name": "dexs",
              "type": "address[]"
            },
            {
              "internalType": "uint16[]",
              "name": "chains",
              "type": "uint16[]"
            },
            {
              "internalType": "address[]",
              "name": "bridges",
              "type": "address[]"
            },
            {
              "internalType": "uint256",
              "name": "estimatedGas",
              "type": "uint256"
            },
            {
              "internalType": "uint256",
              "name": "expectedOutput",
              "type": "uint256"
            }
          ],
          "internalType": "struct PathOptimizerV2.Route",
          "name": "",
          "type": "tuple"
        }
      ],
      "stateMutability": "view",
      "type": "function"
    },
    {
      "inputs": [],
      "name": "owner",
      "outputs": [
        {
          "internalType": "address",
          "name": "",
          "type": "address"
        }
      ],
      "stateMutability": "view",
      "type": "function"
    },
    {
      "inputs": [
        {
          "internalType": "address",
          "name": "",
          "type": "address"
        },
        {
          "internalType": "uint16",
          "name": "",
          "type": "uint16"
        }
      ],
      "name": "priceFeeds",
      "outputs": [
        {
          "internalType": "address",
          "name": "token",
          "type": "address"
        },
        {
          "internalType": "uint256",
          "name": "price",
          "type": "uint256"
        },
        {
          "internalType": "uint256",
          "name": "liquidity",
          "type": "uint256"
        }
      ],
      "stateMutability": "view",
      "type": "function"
    },
    {
      "inputs": [],
      "name": "renounceOwnership",
      "outputs": [],
      "stateMutability": "nonpayable",
      "type": "function"
    },
    {
      "inputs": [
        {
          "internalType": "address",
          "name": "newOwner",
          "type": "address"
        }
      ],
      "name": "transferOwnership",
      "outputs": [],
      "stateMutability": "nonpayable",
      "type": "function"
    },
    {
      "inputs": [
        {
          "internalType": "uint16",
          "name": "chainId",
          "type": "uint16"
        },
        {
          "internalType": "uint256",
          "name": "gasPrice",
          "type": "uint256"
        }
      ],
      "name": "updateChainGasPrice",
      "outputs": [],
      "stateMutability": "nonpayable",
      "type": "function"
    },
    {
      "inputs": [
        {
          "internalType": "address",
          "name": "token",
          "type": "address"
        },
        {
          "internalType": "uint16",
          "name": "chainId",
          "type": "uint16"
        },
        {
          "internalType": "uint256",
          "name": "price",
          "type": "uint256"
        },
        {
          "internalType": "uint256",
          "name": "liquidity",
          "type": "uint256"
        }
      ],
      "name": "updatePriceFeed",
      "outputs": [],
      "stateMutability": "nonpayable",
      "type": "function"
    }
  ],
  "bytecode": "0x6080806040523461005f5760008054336001600160a01b0319821681178355916001600160a01b03909116907f8be0079c531659141344cd1fd0a4f28419497f9722a3daafe3b4186f6b6457e09080a36001805561081390816100658239f35b600080fdfe6040608081526004908136101561001557600080fd5b600091823560e01c9081630b4f256d1461061c578163715018a6146105bf5781637557f41a1461055a5781637fc666aa146102315781638da5cb5b14610209578163d3918f1614610176578163f2fde38b146100af575063fb9f78cb1461007b57600080fd5b346100ab5760203660031901126100ab578060209261ffff61009b610653565b1681526003845220549051908152f35b5080fd5b905034610172576020366003190112610172576100ca61067a565b906100d36106cd565b6001600160a01b0391821692831561012057505082546001600160a01b0319811683178455167f8be0079c531659141344cd1fd0a4f28419497f9722a3daafe3b4186f6b6457e08380a380f35b906020608492519162461bcd60e51b8352820152602660248201527f4f776e61626c653a206e6577206f776e657220697320746865207a65726f206160448201526564647265737360d01b6064820152fd5b8280fd5b5050346100ab5760803660031901126100ab57600261019361067a565b9161019c610669565b6101a46106cd565b6101ac610725565b9360018060a01b03809116928386526020860192604435845281870194606435865288528560205261ffff8289209116885260205286209451166bffffffffffffffffffffffff60a01b8554161784555160018401555191015580f35b5050346100ab57816003193601126100ab57905490516001600160a01b039091168152602090f35b919050346101725760a03660031901126101725761024d61067a565b6024926001600160a01b0392843584811690819003610556576044356064359761ffff97888a16809a036100ab576084359289841680940361017257908a9493929161029761077b565b506102a061077b565b998a956102ab61075b565b9560019889885273c532a74256d3db42d0bf7a0400fefdbad76940086102db6020998a3681830137808c526107ba565b526102fd886102e8610725565b600281529a8d36838e01370199808b526107ba565b5287519e8f518a1015610544578d9e9f8b9c9d9e838d8793015261031f61075b565b809d8d82528b368184013782019d8e52610338906107ba565b73ae92d5ad7583ad66e49a0c67bad18f6ba52dddc190526060019e8f620249f09052168752600288528b872090875287528a862091610375610725565b8484541681528c8b850154948a8301958652600201549101528652600287528a86209086528652898520916103a8610725565b9083541681528a898401549388830194855260020154910152805115610504578151156104c45751918281029281840414901517156104b257519081156104a0570497605f890298808a04605f149015171561048f575050929190606460808a0197048752610427865199828b525160a0838c015260c08b0190610690565b915199601f1996878b850301908b015281808c5194858152019b0194905b838210610478575089808a8a6104678f8c8c5190868303016060870152610690565b915160808401525160a08301520390f35b855181168c529a82019a9482019490840190610445565b634e487b7160e01b83526011905281fd5b634e487b7160e01b845260128a528284fd5b634e487b7160e01b845260118a528284fd5b60648b8786818e519362461bcd60e51b85528401528201527f54617267657420746f6b656e207072696365206e6f7420617661696c61626c656044820152fd5b60648b8786818e519362461bcd60e51b85528401528201527f536f7572636520746f6b656e207072696365206e6f7420617661696c61626c656044820152fd5b634e487b7160e01b875260328c528587fd5b8680fd5b5050346100ab57806003193601126100ab576060918161057861067a565b91610581610669565b60018060a01b038094168252600260205261ffff83832091168252602052209081541691600260018301549201549181519384526020840152820152f35b83346106195780600319360112610619576105d86106cd565b80546001600160a01b03198116825581906001600160a01b03167f8be0079c531659141344cd1fd0a4f28419497f9722a3daafe3b4186f6b6457e08280a380f35b80fd5b5050346100ab57806003193601126100ab5761ffff610639610653565b6106416106cd565b16825260036020526024359082205580f35b6004359061ffff8216820361066457565b600080fd5b6024359061ffff8216820361066457565b600435906001600160a01b038216820361066457565b90815180825260208080930193019160005b8281106106b0575050505090565b83516001600160a01b0316855293810193928101926001016106a2565b6000546001600160a01b031633036106e157565b606460405162461bcd60e51b815260206004820152602060248201527f4f776e61626c653a2063616c6c6572206973206e6f7420746865206f776e65726044820152fd5b604051906060820182811067ffffffffffffffff82111761074557604052565b634e487b7160e01b600052604160045260246000fd5b604051906040820182811067ffffffffffffffff82111761074557604052565b6040519060a0820182811067ffffffffffffffff8211176107455760405260006080836060815260606020820152606060408201528260608201520152565b8051156107c75760200190565b634e487b7160e01b600052603260045260246000fdfea2646970667358221220c7571ca79de7050b0d04f36a284759af1712f165be7d74dddb8d89cf9fe9ccf964736f6c63430008130033",
  "linkReferences": {},
  "deployedLinkReferences": {}
}