{
  "_format": "hh-sol-artifact-1",
  "contractName": "IntentParser",
  "sourceName": "contracts/IntentParser.sol",
  "abi": [
    {
      "anonymous": false,
      "inputs": [
        {
          "indexed": true,
          "internalType": "bytes32",
          "name": "intentId",
          "type": "bytes32"
        },
        {
          "indexed": false,
          "internalType": "address",
          "name": "sourceToken",
          "type": "address"
        },
        {
          "indexed": false,
          "internalType": "address",
          "name": "targetToken",
          "type": "address"
        },
        {
          "indexed": false,
          "internalType": "uint256",
          "name": "amount",
          "type": "uint256"
        },
        {
          "indexed": false,
          "internalType": "uint16",
          "name": "sourceChain",
          "type": "uint16"
        },
        {
          "indexed": false,
          "internalType": "uint16",
          "name": "targetChain",
          "type": "uint16"
        }
      ],
      "name": "IntentParsed",
      "type": "event"
    },
    {
      "anonymous": false,
      "inputs": [
        {
          "indexed": true,
          "internalType": "address",
          "name": "previousOwner",
          "type": "address"
        },
        {
          "indexed": true,
          "internalType": "address",
          "name": "newOwner",
          "type": "address"
        }
      ],
      "name": "OwnershipTransferred",
      "type": "event"
    },
    {
      "inputs": [
        {
          "internalType": "string",
          "name": "name",
          "type": "string"
        },
        {
          "internalType": "uint16",
          "name": "chainId",
          "type": "uint16"
        }
      ],
      "name": "addChainName",
      "outputs": [],
      "stateMutability": "nonpayable",
      "type": "function"
    },
    {
      "inputs": [
        {
          "internalType": "string",
          "name": "symbol",
          "type": "string"
        },
        {
          "internalType": "address",
          "name": "tokenAddress",
          "type": "address"
        }
      ],
      "name": "addTokenSymbol",
      "outputs": [],
      "stateMutability": "nonpayable",
      "type": "function"
    },
    {
      "inputs": [
        {
          "internalType": "string",
          "name": "",
          "type": "string"
        }
      ],
      "name": "chainNameToId",
      "outputs": [
        {
          "internalType": "uint16",
          "name": "",
          "type": "uint16"
        }
      ],
      "stateMutability": "view",
      "type": "function"
    },
    {
      "inputs": [
        {
          "internalType": "bytes32",
          "name": "intentId",
          "type": "bytes32"
        }
      ],
      "name": "getIntent",
      "outputs": [
        {
          "components": [
            {
              "internalType": "address",
              "name": "sourceToken",
              "type": "address"
            },
            {
              "internalType": "address",
              "name": "targetToken",
              "type": "address"
            },
            {
              "internalType": "uint256",
              "name": "amount",
              "type": "uint256"
            },
            {
              "internalType": "uint16",
              "name": "sourceChain",
              "type": "uint16"
            },
            {
              "internalType": "uint16",
              "name": "targetChain",
              "type": "uint16"
            },
            {
              "internalType": "uint256",
              "name": "minOutput",
              "type": "uint256"
            },
            {
              "internalType": "uint256",
              "name": "maxSlippage",
              "type": "uint256"
            },
            {
              "internalType": "uint256",
              "name": "deadline",
              "type": "uint256"
            }
          ],
          "internalType": "struct IntentParser.Intent",
          "name": "",
          "type": "tuple"
        }
      ],
      "stateMutability": "view",
      "type": "function"
    },
    {
      "inputs": [
        {
          "internalType": "bytes32",
          "name": "",
          "type": "bytes32"
        }
      ],
      "name": "intents",
      "outputs": [
        {
          "internalType": "address",
          "name": "sourceToken",
          "type": "address"
        },
        {
          "internalType": "address",
          "name": "targetToken",
          "type": "address"
        },
        {
          "internalType": "uint256",
          "name": "amount",
          "type": "uint256"
        },
        {
          "internalType": "uint16",
          "name": "sourceChain",
          "type": "uint16"
        },
        {
          "internalType": "uint16",
          "name": "targetChain",
          "type": "uint16"
        },
        {
          "internalType": "uint256",
          "name": "minOutput",
          "type": "uint256"
        },
        {
          "internalType": "uint256",
          "name": "maxSlippage",
          "type": "uint256"
        },
        {
          "internalType": "uint256",
          "name": "deadline",
          "type": "uint256"
        }
      ],
      "stateMutability": "view",
      "type": "function"
    },
    {
      "inputs": [],
      "name": "owner",
      "outputs": [
        {
          "internalType": "address",
          "name": "",
          "type": "address"
        }
      ],
      "stateMutability": "view",
      "type": "function"
    },
    {
      "inputs": [
        {
          "internalType": "string",
          "name": "intentString",
          "type": "string"
        },
        {
          "internalType": "uint256",
          "name": "amount",
          "type": "uint256"
        },
        {
          "internalType": "uint256",
          "name": "maxSlippage",
          "type": "uint256"
        },
        {
          "internalType": "uint256",
          "name": "deadline",
          "type": "uint256"
        }
      ],
      "name": "parseIntent",
      "outputs": [
        {
          "internalType": "bytes32",
          "name": "",
          "type": "bytes32"
        }
      ],
      "stateMutability": "nonpayable",
      "type": "function"
    },
    {
      "inputs": [],
      "name": "renounceOwnership",
      "outputs": [],
      "stateMutability": "nonpayable",
      "type": "function"
    },
    {
      "inputs": [
        {
          "internalType": "string",
          "name": "",
          "type": "string"
        }
      ],
      "name": "tokenSymbolToAddress",
      "outputs": [
        {
          "internalType": "address",
          "name": "",
          "type": "address"
        }
      ],
      "stateMutability": "view",
      "type": "function"
    },
    {
      "inputs": [
        {
          "internalType": "address",
          "name": "newOwner",
          "type": "address"
        }
      ],
      "name": "transferOwnership",
      "outputs": [],
      "stateMutability": "nonpayable",
      "type": "function"
    }
  ],
  "bytecode": "0x6080806040523461005b5760008054336001600160a01b0319821681178355916001600160a01b03909116907f8be0079c531659141344cd1fd0a4f28419497f9722a3daafe3b4186f6b6457e09080a361086890816100618239f35b600080fdfe60406080815260048036101561001457600080fd5b60009160e08335811c9081632928bfa114610674578163365b07bb146105f55781635494f3bf146105a6578163713696da14610550578163715018a6146104f35781638da5cb5b146104c75781639021578a14610444578163bf873b2a14610268578163f13c46aa1461015d575063f2fde38b1461009157600080fd5b34610159576020366003190112610159576001600160a01b03823581811693919290849003610155576100c26107da565b831561010357505082546001600160a01b0319811683178455167f8be0079c531659141344cd1fd0a4f28419497f9722a3daafe3b4186f6b6457e08380a380f35b906020608492519162461bcd60e51b8352820152602660248201527f4f776e61626c653a206e6577206f776e657220697320746865207a65726f206160448201526564647265737360d01b6064820152fd5b8480fd5b8280fd5b91929050346102645760203660031901126102645760809083856101009685835161018781610714565b828152826020820152828582015282606082015282878201528260a08201528260c082015201528235815260016020522084519283926101c684610714565b8360018060a01b039182855416988983528360018701541693602084019485526002870154908285019182526003880154958b6006606088019661ffff809b819a828d168b52019a60101c168a528b01549a60a08d019b8c5260c060058201549d019c8d5201549b019a8b5283519c8d52511660208c015251908a015251166060880152511660808601525160a08501525160c08401525190820152f35b8380fd5b90503461026457608036600319011261026457823567ffffffffffffffff81116101555760a0602095926027856102c37f3df38eb41707547d0e20426ebf7d8d2849c9711cdfccd6f1c32e3e491028d55b9536908a016106e1565b6102f6605484518381948f8301963360601b88524260348501528484013781018b83820152036034810184520182610747565b51902097889660248351635553444360e01b8152600284820152600180891b0391829120541660068a83602588516414165554d160da1b81526002600582015220541698875196665365706f6c696160c81b97888152600360078201528a61ffff809c8193205416998b51908152600360078201522054169880519561037b87610714565b8652602086019b8c5286818701916024358352606088019a8b52608088019b8c528e880199808b5260c0890195604435875289019660643588528152602060019052209651169b6bffffffffffffffffffffffff8e1b978d8989541617885560018801915116809882541617905551968760028701558a600387019951169880549a519a8a63ffff00008d60101b169163ffffffff19161717905551908501555160058401555191015589519586528b860152888501526060840152166080820152a251908152f35b84939150346102645760203660031901126102645782610100948335815260016020522060018060a01b039384825416946001830154169360028301546003840154918401549260066005860154950154968151988952602089015287015261ffff90818116606088015260101c16608086015260a085015260c0840152820152f35b8483346104ef57816003193601126104ef57905490516001600160a01b039091168152602090f35b5080fd5b843461054d578060031936011261054d5761050c6107da565b80546001600160a01b03198116825581906001600160a01b03167f8be0079c531659141344cd1fd0a4f28419497f9722a3daafe3b4186f6b6457e08280a380f35b80fd5b8483346104ef5760209161056336610769565b908251918051915b8281106105955750506002908201908152819003830190205490516001600160a01b039091168152f35b81810186015184820152850161056b565b8483346104ef576020916105b936610769565b908251918051915b8281106105e457505090838161ffff938101600381520301902054169051908152f35b8181018601518482015285016105c1565b5050903461015957816003193601126101595780359067ffffffffffffffff821161026457610626913691016106e1565b6024356001600160a01b03811693919290849003610155578260209261064a6107da565b51938492833781016002815203019020906bffffffffffffffffffffffff60a01b82541617905580f35b5050903461015957816003193601126101595780359067ffffffffffffffff8211610264576106a5913691016106e1565b90916024359261ffff841680940361015557826020926106c36107da565b519384928337810160038152030190209061ffff1982541617905580f35b9181601f8401121561070f5782359167ffffffffffffffff831161070f576020838186019501011161070f57565b600080fd5b610100810190811067ffffffffffffffff82111761073157604052565b634e487b7160e01b600052604160045260246000fd5b90601f8019910116810190811067ffffffffffffffff82111761073157604052565b602060031982011261070f5767ffffffffffffffff60043581811161070f578260238201121561070f57806004013591821161073157604051926107b7601f8401601f191660200185610747565b8284526024838301011161070f5781600092602460209301838601378301015290565b6000546001600160a01b031633036107ee57565b606460405162461bcd60e51b815260206004820152602060248201527f4f776e61626c653a2063616c6c6572206973206e6f7420746865206f776e65726044820152fdfea264697066735822122048d94fc966ea778e1fef377ba57ca2cd1552bf855d342e525df6f8a4fbdf391f64736f6c63430008130033",
  "linkReferences": {},
  "deployedLinkReferences": {}
}