{
  "_format": "hh-sol-artifact-1",
  "contractName": "PathOptimizer",
  "sourceName": "contracts/PathOptimizer.sol",
  "abi": [
    {
      "anonymous": false,
      "inputs": [
        {
          "indexed": true,
          "internalType": "bytes32",
          "name": "intentId",
          "type": "bytes32"
        },
        {
          "indexed": false,
          "internalType": "address[]",
          "name": "dexs",
          "type": "address[]"
        },
        {
          "indexed": false,
          "internalType": "uint16[]",
          "name": "chains",
          "type": "uint16[]"
        },
        {
          "indexed": false,
          "internalType": "uint256",
          "name": "estimatedCost",
          "type": "uint256"
        }
      ],
      "name": "OptimalPathFound",
      "type": "event"
    },
    {
      "anonymous": false,
      "inputs": [
        {
          "indexed": true,
          "internalType": "address",
          "name": "previousOwner",
          "type": "address"
        },
        {
          "indexed": true,
          "internalType": "address",
          "name": "newOwner",
          "type": "address"
        }
      ],
      "name": "OwnershipTransferred",
      "type": "event"
    },
    {
      "inputs": [
        {
          "internalType": "address",
          "name": "",
          "type": "address"
        },
        {
          "internalType": "uint16",
          "name": "",
          "type": "uint16"
        }
      ],
      "name": "bridgeQuotes",
      "outputs": [
        {
          "internalType": "address",
          "name": "bridge",
          "type": "address"
        },
        {
          "internalType": "uint256",
          "name": "fee",
          "type": "uint256"
        },
        {
          "internalType": "uint256",
          "name": "estimatedTime",
          "type": "uint256"
        },
        {
          "internalType": "uint256",
          "name": "minAmount",
          "type": "uint256"
        },
        {
          "internalType": "uint256",
          "name": "maxAmount",
          "type": "uint256"
        }
      ],
      "stateMutability": "view",
      "type": "function"
    },
    {
      "inputs": [
        {
          "internalType": "uint16",
          "name": "",
          "type": "uint16"
        }
      ],
      "name": "chainGasPrices",
      "outputs": [
        {
          "internalType": "uint256",
          "name": "",
          "type": "uint256"
        }
      ],
      "stateMutability": "view",
      "type": "function"
    },
    {
      "inputs": [
        {
          "internalType": "address",
          "name": "",
          "type": "address"
        },
        {
          "internalType": "bytes32",
          "name": "",
          "type": "bytes32"
        }
      ],
      "name": "dexQuotes",
      "outputs": [
        {
          "internalType": "address",
          "name": "dex",
          "type": "address"
        },
        {
          "internalType": "uint256",
          "name": "outputAmount",
          "type": "uint256"
        },
        {
          "internalType": "uint256",
          "name": "gasEstimate",
          "type": "uint256"
        },
        {
          "internalType": "uint256",
          "name": "fee",
          "type": "uint256"
        }
      ],
      "stateMutability": "view",
      "type": "function"
    },
    {
      "inputs": [
        {
          "internalType": "address",
          "name": "sourceToken",
          "type": "address"
        },
        {
          "internalType": "address",
          "name": "targetToken",
          "type": "address"
        },
        {
          "internalType": "uint256",
          "name": "amount",
          "type": "uint256"
        },
        {
          "internalType": "uint16",
          "name": "sourceChain",
          "type": "uint16"
        },
        {
          "internalType": "uint16",
          "name": "targetChain",
          "type": "uint16"
        }
      ],
      "name": "findOptimalPath",
      "outputs": [
        {
          "components": [
            {
              "internalType": "address[]",
              "name": "dexs",
              "type": "address[]"
            },
            {
              "internalType": "uint16[]",
              "name": "chains",
              "type": "uint16[]"
            },
            {
              "internalType": "address[]",
              "name": "bridges",
              "type": "address[]"
            },
            {
              "internalType": "uint256",
              "name": "estimatedGas",
              "type": "uint256"
            },
            {
              "internalType": "uint256",
              "name": "expectedOutput",
              "type": "uint256"
            }
          ],
          "internalType": "struct PathOptimizer.Route",
          "name": "",
          "type": "tuple"
        }
      ],
      "stateMutability": "view",
      "type": "function"
    },
    {
      "inputs": [],
      "name": "owner",
      "outputs": [
        {
          "internalType": "address",
          "name": "",
          "type": "address"
        }
      ],
      "stateMutability": "view",
      "type": "function"
    },
    {
      "inputs": [
        {
          "internalType": "address",
          "name": "",
          "type": "address"
        },
        {
          "internalType": "uint16",
          "name": "",
          "type": "uint16"
        }
      ],
      "name": "priceFeeds",
      "outputs": [
        {
          "internalType": "address",
          "name": "token",
          "type": "address"
        },
        {
          "internalType": "uint256",
          "name": "price",
          "type": "uint256"
        },
        {
          "internalType": "uint256",
          "name": "liquidity",
          "type": "uint256"
        }
      ],
      "stateMutability": "view",
      "type": "function"
    },
    {
      "inputs": [],
      "name": "renounceOwnership",
      "outputs": [],
      "stateMutability": "nonpayable",
      "type": "function"
    },
    {
      "inputs": [
        {
          "internalType": "address",
          "name": "newOwner",
          "type": "address"
        }
      ],
      "name": "transferOwnership",
      "outputs": [],
      "stateMutability": "nonpayable",
      "type": "function"
    },
    {
      "inputs": [
        {
          "internalType": "uint16",
          "name": "chainId",
          "type": "uint16"
        },
        {
          "internalType": "uint256",
          "name": "gasPrice",
          "type": "uint256"
        }
      ],
      "name": "updateChainGasPrice",
      "outputs": [],
      "stateMutability": "nonpayable",
      "type": "function"
    },
    {
      "inputs": [
        {
          "internalType": "address",
          "name": "token",
          "type": "address"
        },
        {
          "internalType": "uint16",
          "name": "chainId",
          "type": "uint16"
        },
        {
          "internalType": "uint256",
          "name": "price",
          "type": "uint256"
        },
        {
          "internalType": "uint256",
          "name": "liquidity",
          "type": "uint256"
        }
      ],
      "name": "updatePriceFeed",
      "outputs": [],
      "stateMutability": "nonpayable",
      "type": "function"
    }
  ],
  "bytecode": "0x6080806040523461005f5760008054336001600160a01b0319821681178355916001600160a01b03909116907f8be0079c531659141344cd1fd0a4f28419497f9722a3daafe3b4186f6b6457e09080a360018055610e8790816100658239f35b600080fdfe6080604052600436101561001257600080fd5b60003560e01c80630b4f256d146109d4578063715018a61461097b5780637557f41a1461090f5780637fc666aa1461036a5780638da5cb5b14610341578063ce61685d146102d4578063d3918f161461020d578063ded06bdb1461018d578063f2fde38b146100c45763fb9f78cb1461008a57600080fd5b346100bf5760203660031901126100bf5761ffff6100a6610a0f565b1660005260036020526020604060002054604051908152f35b600080fd5b346100bf5760203660031901126100bf576100dd610a31565b6100e5610a84565b6001600160a01b0390811690811561013957600054826bffffffffffffffffffffffff60a01b821617600055167f8be0079c531659141344cd1fd0a4f28419497f9722a3daafe3b4186f6b6457e0600080a3005b60405162461bcd60e51b815260206004820152602660248201527f4f776e61626c653a206e6577206f776e657220697320746865207a65726f206160448201526564647265737360d01b6064820152608490fd5b346100bf5760403660031901126100bf5760a06101a8610a31565b6101b0610a20565b600180841b03809216600052600560205261ffff6040600020911660005260205260406000209081541690600181015490600281015460046003830154920154926040519485526020850152604084015260608301526080820152f35b346100bf5760803660031901126100bf57610226610a31565b61022e610a20565b610236610a84565b60405191606083019183831067ffffffffffffffff8411176102be5760029260405260018060a01b038092169182855260208501916044358352604086019360643585526000528460205261ffff6040600020911660005260205260406000209451166bffffffffffffffffffffffff60a01b85541617845551600184015551910155600080f35b634e487b7160e01b600052604160045260246000fd5b346100bf5760403660031901126100bf5760806001600160a01b03806102f8610a31565b1660005260046020526040600020602435600052602052604060002090815416906001810154906003600282015491015491604051938452602084015260408301526060820152f35b346100bf5760003660031901126100bf576000546040516001600160a01b039091168152602090f35b346100bf5760a03660031901126100bf57610383610a31565b506024356001600160a01b038116036100bf5760643561ffff811681036100bf5760843561ffff811681036100bf576103ba610b5c565b506103c3610b5c565b506103cc610b5c565b916103d5610afc565b9060038252606036602084013773c532a74256d3db42d0bf7a0400fefdbad769400861040083610bae565b52733bfa4769fb09eefc5a80d6e87c3b9c650f7ae48e61041f83610bd1565b527398e5f5706897074a4664dd3a32eb80242d6e694b61043e83610be1565b52610447610b1c565b9160018352602036818501376001600160a01b039061046590610bae565b511661047083610bae565b52610479610b3c565b600081529061ffff841661ffff821603610771575b60009182805b85518110156104f95760206104be6044356001600160a01b036104b7858b610bf1565b5116610c5a565b01518581116104d7575b506104d290610b9f565b610494565b945090506104d26001600160a01b036104f08388610bf1565b511691906104c8565b508693508560009260001961ffff831661ffff8716036106f8575b5050610534610521610b1c565b6001815260203681830137808752610bae565b6001600160a01b038316905260405160608101919067ffffffffffffffff8311818410176102be5761ffff926040526002815260403660208301376105828360208901978389521691610bae565b521661058e8451610bd1565b526001600160a01b03821680158015926105d49290916106e1576105c96105b3610b1c565b60018152602036818301378060408a0152610bae565b525b60443590610c5a565b9160206040840151936060870194855201519160808601928352610682575b506040519260208452610612855160a0602087015260c0860190610a47565b905194601f1991828682030160408701526020808851928381520197019060005b81811061066857505050946106579160408697015190868303016060870152610a47565b915160808401525160a08301520390f35b825161ffff16895260209889019890920191600101610633565b61068b90610d4f565b825162030d4081018091116106cb5783526020825191015190612710918203908282116106cb578181029181830414901517156106cb57048152846105f3565b634e487b7160e01b600052601160045260246000fd5b506106ea610b3c565b6000815260408701526105cb565b9260009592959491945b85518110156107645760206107296001600160a01b03610722848a610bf1565b5116610d4f565b0151858110610742575b5061073d90610b9f565b610702565b9450915061073d6001600160a01b0361075b8488610bf1565b51169290610733565b5092509250928580610514565b9193905061077d610afc565b9160038352606036602085013773ae92d5ad7583ad66e49a0c67bad18f6ba52dddc16107a884610bae565b52733e4a3a4796d16c0cd582c382691998f7c06420b66107c784610bd1565b52737612ae3d4a6d343159504e97773b2e8f51b4ab8b6107e684610be1565b5260009460005b845181101561083e576108166044356108116001600160a01b03610722858a610bf1565b610c05565b610829575b61082490610b9f565b6107ed565b9561083661082491610b9f565b96905061081b565b509194909361084c82610b87565b604051929067ffffffffffffffff601f8201601f19168501908111908511176102be57601f01601f1990811684016040528184529061088a90610b87565b0136602084013760009260005b8551811015610903576108bb6044356108116001600160a01b03610722858b610bf1565b6108ce575b6108c990610b9f565b610897565b936108c9906108fb906001600160a01b036108e9888a610bf1565b51166108f58288610bf1565b52610b9f565b9490506108c0565b5093509391509061048e565b346100bf5760403660031901126100bf57606061092a610a31565b610932610a20565b60018060a01b03809216600052600260205261ffff6040600020911660005260205260406000209081541690600260018201549101549060405192835260208301526040820152f35b346100bf5760003660031901126100bf57610994610a84565b600080546001600160a01b0319811682556001600160a01b03167f8be0079c531659141344cd1fd0a4f28419497f9722a3daafe3b4186f6b6457e08280a3005b346100bf5760403660031901126100bf5761ffff6109f0610a0f565b6109f8610a84565b166000526003602052602435604060002055600080f35b6004359061ffff821682036100bf57565b6024359061ffff821682036100bf57565b600435906001600160a01b03821682036100bf57565b90815180825260208080930193019160005b828110610a67575050505090565b83516001600160a01b031685529381019392810192600101610a59565b6000546001600160a01b03163303610a9857565b606460405162461bcd60e51b815260206004820152602060248201527f4f776e61626c653a2063616c6c6572206973206e6f7420746865206f776e65726044820152fd5b6040519060a0820182811067ffffffffffffffff8211176102be57604052565b604051906080820182811067ffffffffffffffff8211176102be57604052565b604051906040820182811067ffffffffffffffff8211176102be57604052565b604051906020820182811067ffffffffffffffff8211176102be57604052565b610b64610adc565b906060825260606020830152606060408301526000606083015260006080830152565b67ffffffffffffffff81116102be5760051b60200190565b60001981146106cb5760010190565b805115610bbb5760200190565b634e487b7160e01b600052603260045260246000fd5b805160011015610bbb5760400190565b805160021015610bbb5760600190565b8051821015610bbb5760209160051b010190565b9060608201518110159182610c1957505090565b608001511015919050565b604051906080820182811067ffffffffffffffff8211176102be5760405260006060838281528260208201528260408201520152565b90610c63610c24565b50610c6c610c24565b6001600160a01b0390921680835290606380820291801590830490911417156106cb5760649004602083015273c532a74256d3db42d0bf7a0400fefdbad76940088103610cc85750620249f06040820152601e60608201525b90565b731111111254eeb25477b68fb85ed929f73a9605828103610cf757506202bf206040820152600a606082015290565b733bfa4769fb09eefc5a80d6e87c3b9c650f7ae48e03610cc557620284886040820152601e606082015290565b610d2c610adc565b906000825260006020830152600060408301526000606083015260006080830152565b610d57610d24565b50610d60610d24565b6001600160a01b0390911680825273ae92d5ad7583ad66e49a0c67bad18f6ba52dddc18103610dba5750601460208201526107086040820152670de0b6b3a7640000606082015269d3c21bcecceda1000000608082015290565b733e4a3a4796d16c0cd582c382691998f7c06420b68103610e065750600f60208201526104b0604082015267016345785d8a000060608201526969e10de76676d0800000608082015290565b737612ae3d4a6d343159504e97773b2e8f51b4ab8b03610cc5576019602082015261096060408201526706f05b59d3b2000060608201526a01a784379d99db4200000060808201529056fea26469706673582212207b7d0faa284c262979d818ed540a868ec124337a360735e7e80a8f6866ac858a64736f6c63430008130033",
  "linkReferences": {},
  "deployedLinkReferences": {}
}